Component: ARM Compiler 5.05 update 1 (build 106) Tool: armlink [4d0efa]

==============================================================================

Section Cross References

    interrupts_hc32l13x.o(i.EnableNvic) refers to interrupts_hc32l13x.o(i.NVIC_SetPriority) for NVIC_SetPriority
    interrupts_hc32l13x.o(i.LPTIM_IRQHandler) refers (Weak) to mytimer.o(i.LpTim_IRQHandler) for LpTim_IRQHandler
    interrupts_hc32l13x.o(i.LPUART1_IRQHandler) refers (Weak) to myuart.o(i.LpUart1_IRQHandler) for LpUart1_IRQHandler
    interrupts_hc32l13x.o(i.LVD_IRQHandler) refers (Weak) to mylvd.o(i.Lvd_IRQHandler) for Lvd_IRQHandler
    interrupts_hc32l13x.o(i.PCNT_IRQHandler) refers (Weak) to mytimer.o(i.Pcnt_IRQHandler) for Pcnt_IRQHandler
    interrupts_hc32l13x.o(i.RTC_IRQHandler) refers (Weak) to myrtc.o(i.Rtc_IRQHandler) for Rtc_IRQHandler
    interrupts_hc32l13x.o(i.TIM0_IRQHandler) refers (Weak) to mybt.o(i.Tim0_IRQHandler) for Tim0_IRQHandler
    system_hc32l13x.o(i.SystemCoreClockUpdate) refers to sysctrl.o(i.Sysctrl_GetHClkFreq) for Sysctrl_GetHClkFreq
    system_hc32l13x.o(i.SystemCoreClockUpdate) refers to system_hc32l13x.o(.data) for SystemCoreClock
    system_hc32l13x.o(i.SystemInit) refers to sysctrl.o(i.Sysctrl_SetRCLTrim) for Sysctrl_SetRCLTrim
    system_hc32l13x.o(i.SystemInit) refers to sysctrl.o(i.Sysctrl_ClkSourceEnable) for Sysctrl_ClkSourceEnable
    system_hc32l13x.o(i.SystemInit) refers to sysctrl.o(i.Sysctrl_SysClkSwitch) for Sysctrl_SysClkSwitch
    system_hc32l13x.o(i.SystemInit) refers to sysctrl.o(i.Sysctrl_SetRCHTrim) for Sysctrl_SetRCHTrim
    system_hc32l13x.o(i.SystemInit) refers to system_hc32l13x.o(i.SystemCoreClockUpdate) for SystemCoreClockUpdate
    startup_hc32l13x.o(RESET) refers to startup_hc32l13x.o(STACK) for __initial_sp
    startup_hc32l13x.o(RESET) refers to startup_hc32l13x.o(.text) for Reset_Handler
    startup_hc32l13x.o(RESET) refers to context_rvds.o(.text) for HardFault_Handler
    startup_hc32l13x.o(RESET) refers to board.o(i.SysTick_Handler) for SysTick_Handler
==============================================================================

Removing Unused input sections from the image.

    Removing interrupts_hc32l13x.o(.rev16_text), (4 bytes).
    Removing interrupts_hc32l13x.o(.revsh_text), (4 bytes).
    Removing system_hc32l13x.o(.rev16_text), (4 bytes).
    Removing system_hc32l13x.o(.revsh_text), (4 bytes).
    Removing startup_hc32l13x.o(HEAP), (256 bytes).
    Removing adc.o(.rev16_text), (4 bytes).
    Removing adc.o(.revsh_text), (4 bytes).
    Removing adc.o(i.Adc_CfgJqrChannel), (136 bytes).
    Removing adc.o(i.Adc_CfgSglChannel), (36 bytes).
    Removing adc.o(i.Adc_CfgSqrChannel), (440 bytes).
    Removing adc.o(i.Adc_ClrAccResult), (20 bytes).
    Removing adc.o(i.Adc_ClrIrqStatus), (16 bytes).
    Removing adc.o(i.Adc_Disable), (20 bytes).
    Removing adc.o(i.Adc_DisableIrq), (20 bytes).
    Removing adc.o(i.Adc_EnableIrq), (24 bytes).
    Removing adc.o(i.Adc_GetAccResult), (12 bytes).
    Removing adc.o(i.Adc_GetIrqStatus), (24 bytes).
    Removing adc.o(i.Adc_GetJqrResult), (16 bytes).
==============================================================================

Image Symbol Table

    Local Symbols

    Symbol Name                              Value     Ov Type        Size  Object(Section)

    RESET                                    0x00000000   Section      192  startup_hc32l13x.o(RESET)
    ../clib/microlib/division.c              0x00000000   Number         0  idiv.o ABSOLUTE
    ../clib/microlib/division.c              0x00000000   Number         0  uidiv.o ABSOLUTE
    ../clib/microlib/init/entry.s            0x00000000   Number         0  entry9b.o ABSOLUTE
    ../clib/microlib/init/entry.s            0x00000000   Number         0  entry7a.o ABSOLUTE
    ../clib/microlib/init/entry.s            0x00000000   Number         0  entry.o ABSOLUTE
    ../clib/microlib/init/entry.s            0x00000000   Number         0  entry9a.o ABSOLUTE
    ../clib/microlib/init/entry.s            0x00000000   Number         0  entry7b.o ABSOLUTE
    ../clib/microlib/init/entry.s            0x00000000   Number         0  entry8b.o ABSOLUTE
    ../clib/microlib/init/entry.s            0x00000000   Number         0  entry8a.o ABSOLUTE
    ../clib/microlib/init/entry.s            0x00000000   Number         0  entry5.o ABSOLUTE
    ../clib/microlib/init/entry.s            0x00000000   Number         0  entry10b.o ABSOLUTE
    ../clib/microlib/init/entry.s            0x00000000   Number         0  entry11a.o ABSOLUTE
    ../clib/microlib/init/entry.s            0x00000000   Number         0  entry11b.o ABSOLUTE
    ../clib/microlib/init/entry.s            0x00000000   Number         0  entry2.o ABSOLUTE
    ../clib/microlib/init/entry.s            0x00000000   Number         0  entry10a.o ABSOLUTE
    ../clib/microlib/longlong.c              0x00000000   Number         0  llushr.o ABSOLUTE
    ../clib/microlib/longlong.c              0x00000000   Number         0  llshl.o ABSOLUTE
    ../clib/microlib/longlong.c              0x00000000   Number         0  llsshr.o ABSOLUTE
    ../clib/microlib/string/memcpy.c         0x00000000   Number         0  memcpya.o ABSOLUTE
    ../clib/microlib/string/memcpy.c         0x00000000   Number         0  memcpyb.o ABSOLUTE
    ../clib/microlib/string/memset.c         0x00000000   Number         0  memseta.o ABSOLUTE
    ../clib/microlib/stubs.s                 0x00000000   Number         0  useno.o ABSOLUTE
    ../clib/microlib/stubs.s                 0x00000000   Number         0  iusefp.o ABSOLUTE
    ../fplib/microlib/fpadd.c                0x00000000   Number         0  dadd.o ABSOLUTE
    ../fplib/microlib/fpdiv.c                0x00000000   Number         0  ddiv.o ABSOLUTE
    ../fplib/microlib/fpepilogue.c           0x00000000   Number         0  depilogue.o ABSOLUTE
    ../fplib/microlib/fpfix.c                0x00000000   Number         0  dfixui.o ABSOLUTE
    ../fplib/microlib/fpflt.c                0x00000000   Number         0  dfltui.o ABSOLUTE
    ../fplib/microlib/fpflt.c                0x00000000   Number         0  dflti.o ABSOLUTE
    ..\\common\\interrupts_hc32l13x.c        0x00000000   Number         0  interrupts_hc32l13x.o ABSOLUTE
    ..\\common\\system_hc32l13x.c            0x00000000   Number         0  system_hc32l13x.o ABSOLUTE
    ..\\driver\\src\\adc.c                   0x00000000   Number         0  adc.o ABSOLUTE
    ..\\driver\\src\\bgr.c                   0x00000000   Number         0  bgr.o ABSOLUTE
    ..\\driver\\src\\bt.c                    0x00000000   Number         0  bt.o ABSOLUTE
    ..\\driver\\src\\ddl.c                   0x00000000   Number         0  ddl.o ABSOLUTE
    ..\\driver\\src\\flash.c                 0x00000000   Number         0  flash.o ABSOLUTE
    ..\\driver\\src\\gpio.c                  0x00000000   Number         0  gpio.o ABSOLUTE
    ..\\driver\\src\\lpm.c                   0x00000000   Number         0  lpm.o ABSOLUTE
    ..\\driver\\src\\lptim.c                 0x00000000   Number         0  lptim.o ABSOLUTE
    ..\\driver\\src\\lpuart.c                0x00000000   Number         0  lpuart.o ABSOLUTE
    ..\\driver\\src\\lvd.c                   0x00000000   Number         0  lvd.o ABSOLUTE
    ..\\driver\\src\\rtc.c                   0x00000000   Number         0  rtc.o ABSOLUTE
    ..\\driver\\src\\sysctrl.c               0x00000000   Number         0  sysctrl.o ABSOLUTE
    ..\\driver\\src\\wdt.c                   0x00000000   Number         0  wdt.o ABSOLUTE
    ..\\hardware\\DataDeal.c                 0x00000000   Number         0  datadeal.o ABSOLUTE
    ..\\hardware\\MyAdc.c                    0x00000000   Number         0  myadc.o ABSOLUTE
    ..\\hardware\\MyKey.c                    0x00000000   Number         0  mykey.o ABSOLUTE
    ..\\hardware\\MyLVD.c                    0x00000000   Number         0  mylvd.o ABSOLUTE
    ..\\hardware\\MyTimer.c                  0x00000000   Number         0  mytimer.o ABSOLUTE
    ..\\hardware\\Myinit.c                   0x00000000   Number         0  myinit.o ABSOLUTE
    ..\\hardware\\myUart.c                   0x00000000   Number         0  myuart.o ABSOLUTE
    ..\\hardware\\mybt.c                     0x00000000   Number         0  mybt.o ABSOLUTE
    ..\\hardware\\mycrc.c                    0x00000000   Number         0  mycrc.o ABSOLUTE
    ..\\hardware\\myrtc.c                    0x00000000   Number         0  myrtc.o ABSOLUTE
    ..\\source\\HDEE.c                       0x00000000   Number         0  hdee.o ABSOLUTE
    ..\\source\\main.c                       0x00000000   Number         0  main.o ABSOLUTE
    ..\common\interrupts_hc32l13x.c          0x00000000   Number         0  interrupts_hc32l13x.o ABSOLUTE
    ..\common\startup_hc32l13x.s             0x00000000   Number         0  startup_hc32l13x.o ABSOLUTE
    ..\common\system_hc32l13x.c              0x00000000   Number         0  system_hc32l13x.o ABSOLUTE
    ..\driver\src\adc.c                      0x00000000   Number         0  adc.o ABSOLUTE
    ..\driver\src\bgr.c                      0x00000000   Number         0  bgr.o ABSOLUTE
    ..\driver\src\bt.c                       0x00000000   Number         0  bt.o ABSOLUTE
    ..\driver\src\ddl.c                      0x00000000   Number         0  ddl.o ABSOLUTE
    ..\driver\src\flash.c                    0x00000000   Number         0  flash.o ABSOLUTE
    ..\driver\src\gpio.c                     0x00000000   Number         0  gpio.o ABSOLUTE
    ..\driver\src\lpm.c                      0x00000000   Number         0  lpm.o ABSOLUTE
    ..\driver\src\lptim.c                    0x00000000   Number         0  lptim.o ABSOLUTE
    ..\driver\src\lpuart.c                   0x00000000   Number         0  lpuart.o ABSOLUTE
    ..\driver\src\lvd.c                      0x00000000   Number         0  lvd.o ABSOLUTE
    ..\driver\src\rtc.c                      0x00000000   Number         0  rtc.o ABSOLUTE
    ..\driver\src\sysctrl.c                  0x00000000   Number         0  sysctrl.o ABSOLUTE
    ..\driver\src\wdt.c                      0x00000000   Number         0  wdt.o ABSOLUTE
    ..\hardware\DataDeal.c                   0x00000000   Number         0  datadeal.o ABSOLUTE
    ..\hardware\MyAdc.c                      0x00000000   Number         0  myadc.o ABSOLUTE
    ..\hardware\MyKey.c                      0x00000000   Number         0  mykey.o ABSOLUTE
    ..\hardware\MyLVD.c                      0x00000000   Number         0  mylvd.o ABSOLUTE
    ..\hardware\MyTimer.c                    0x00000000   Number         0  mytimer.o ABSOLUTE
    ..\hardware\Myinit.c                     0x00000000   Number         0  myinit.o ABSOLUTE
    ..\hardware\myUart.c                     0x00000000   Number         0  myuart.o ABSOLUTE
    ..\hardware\mybt.c                       0x00000000   Number         0  mybt.o ABSOLUTE
    ..\hardware\mycrc.c                      0x00000000   Number         0  mycrc.o ABSOLUTE
    ..\hardware\myrtc.c                      0x00000000   Number         0  myrtc.o ABSOLUTE
    ..\source\HDEE.c                         0x00000000   Number         0  hdee.o ABSOLUTE
    ..\source\main.c                         0x00000000   Number         0  main.o ABSOLUTE
    D:\Keil\ARM\PACK\RealThread\RT-Thread\3.1.3\libcpu\arm\cortex-m0\context_rvds.S 0x00000000   Number         0  context_rvds.o ABSOLUTE
    D:\Keil\ARM\PACK\RealThread\RT-Thread\3.1.3\libcpu\arm\cortex-m0\cpuport.c 0x00000000   Number         0  cpuport.o ABSOLUTE
    D:\Keil\ARM\PACK\RealThread\RT-Thread\3.1.3\src\clock.c 0x00000000   Number         0  clock.o ABSOLUTE
    D:\Keil\ARM\PACK\RealThread\RT-Thread\3.1.3\src\components.c 0x00000000   Number         0  components.o ABSOLUTE
    D:\Keil\ARM\PACK\RealThread\RT-Thread\3.1.3\src\idle.c 0x00000000   Number         0  idle.o ABSOLUTE
    D:\Keil\ARM\PACK\RealThread\RT-Thread\3.1.3\src\ipc.c 0x00000000   Number         0  ipc.o ABSOLUTE
    D:\Keil\ARM\PACK\RealThread\RT-Thread\3.1.3\src\irq.c 0x00000000   Number         0  irq.o ABSOLUTE
    D:\Keil\ARM\PACK\RealThread\RT-Thread\3.1.3\src\kservice.c 0x00000000   Number         0  kservice.o ABSOLUTE
    D:\Keil\ARM\PACK\RealThread\RT-Thread\3.1.3\src\mem.c 0x00000000   Number         0  mem.o ABSOLUTE
    D:\Keil\ARM\PACK\RealThread\RT-Thread\3.1.3\src\object.c 0x00000000   Number         0  object.o ABSOLUTE
    D:\Keil\ARM\PACK\RealThread\RT-Thread\3.1.3\src\scheduler.c 0x00000000   Number         0  scheduler.o ABSOLUTE
    D:\Keil\ARM\PACK\RealThread\RT-Thread\3.1.3\src\thread.c 0x00000000   Number         0  thread.o ABSOLUTE
    D:\Keil\ARM\PACK\RealThread\RT-Thread\3.1.3\src\timer.c 0x00000000   Number         0  timer.o ABSOLUTE
    RTE\RTOS\board.c                         0x00000000   Number         0  board.o ABSOLUTE
    dc.s                                     0x00000000   Number         0  dc.o ABSOLUTE
    handlers.s                               0x00000000   Number         0  handlers.o ABSOLUTE
    init.s                                   0x00000000   Number         0  init.o ABSOLUTE
    .ARM.Collect$$$$00000000                 0x000000c0   Section        0  entry.o(.ARM.Collect$$$$00000000)
    .ARM.Collect$$$$00000001                 0x000000c0   Section        4  entry2.o(.ARM.Collect$$$$00000001)
    .ARM.Collect$$$$00000004                 0x000000c4   Section        4  entry5.o(.ARM.Collect$$$$00000004)
    .ARM.Collect$$$$00000008                 0x000000c8   Section        0  entry7b.o(.ARM.Collect$$$$00000008)
    .ARM.Collect$$$$0000000A                 0x000000c8   Section        0  entry8b.o(.ARM.Collect$$$$0000000A)
    .ARM.Collect$$$$0000000B                 0x000000c8   Section        8  entry9a.o(.ARM.Collect$$$$0000000B)
    .ARM.Collect$$$$0000000D                 0x000000d0   Section        0  entry10a.o(.ARM.Collect$$$$0000000D)
    .ARM.Collect$$$$0000000F                 0x000000d0   Section        0  entry11a.o(.ARM.Collect$$$$0000000F)
    .ARM.Collect$$$$00002712                 0x000000d0   Section        4  entry2.o(.ARM.Collect$$$$00002712)
    __lit__00000000                          0x000000d0   Data           4  entry2.o(.ARM.Collect$$$$00002712)
    .text                                    0x000000d4   Section       60  startup_hc32l13x.o(.text)
    .text                                    0x00000110   Section      216  context_rvds.o(.text)
    .text                                    0x000001e8   Section        0  uidiv.o(.text)
    .text                                    0x00000214   Section        0  idiv.o(.text)
    .text                                    0x0000023c   Section        0  memcpya.o(.text)
    .text                                    0x00000260   Section        0  memseta.o(.text)
    .text                                    0x00000284   Section        0  dadd.o(.text)
    .text                                    0x000003e8   Section        0  ddiv.o(.text)
    .text                                    0x000004d8   Section        0  dflti.o(.text)
    .text                                    0x00000500   Section        0  dfltui.o(.text)
    .text                                    0x0000051c   Section        0  dfixui.o(.text)
    .text                                    0x00000558   Section        0  llshl.o(.text)
    .text                                    0x00000578   Section        0  llushr.o(.text)
    .text                                    0x0000059a   Section        0  llsshr.o(.text)
    .text                                    0x000005c0   Section        0  depilogue.o(.text)
    .text                                    0x000005c0   Section        0  iusefp.o(.text)
    .text                                    0x00000680   Section       36  init.o(.text)
    i.$Sub$$main                             0x000006a4   Section        0  components.o(i.$Sub$$main)
    i.ADC_IRQHandler                         0x000006ae   Section        0  interrupts_hc32l13x.o(i.ADC_IRQHandler)
    i.Adc_Enable                             0x000006b8   Section        0  adc.o(i.Adc_Enable)
    i.Adc_Init                               0x000006cc   Section        0  adc.o(i.Adc_Init)
    i.Adc_SqrModeCfg                         0x00000734   Section        0  adc.o(i.Adc_SqrModeCfg)
    i.AppAdcSQRCfg                           0x000007a8   Section        0  myadc.o(i.AppAdcSQRCfg)
    i.AppAdc_temp                            0x00000a08   Section        0  myadc.o(i.AppAdc_temp)
    i.AppAdc_valve                           0x00000c48   Section        0  myadc.o(i.AppAdc_valve)
    i.Bgr_BgrEnable                          0x000011c0   Section        0  bgr.o(i.Bgr_BgrEnable)
    i.Bt_ClearIntFlag                        0x000011dc   Section        0  bt.o(i.Bt_ClearIntFlag)
    i.CLKTRIM_IRQHandler                     0x000011f8   Section        0  interrupts_hc32l13x.o(i.CLKTRIM_IRQHandler)
    .ARM.__at_0x1200                         0x00001200   Section        0  hdee.o(.ARM.__at_0x1200)
    i.AppMAdcInit                            0x00001278   Section        0  myadc.o(i.AppMAdcInit)
    i.Bt_GetIntFlag                          0x000012d0   Section        0  bt.o(i.Bt_GetIntFlag)
    i.DMAC_IRQHandler                        0x000012ec   Section        0  interrupts_hc32l13x.o(i.DMAC_IRQHandler)
    i.FLASH_RAM_IRQHandler                   0x000012f4   Section        0  interrupts_hc32l13x.o(i.FLASH_RAM_IRQHandler)
    .ARM.__at_0x1300                         0x00001300   Section        0  hdee.o(.ARM.__at_0x1300)
    i.Bt_M0_Cnt16Set                         0x00001348   Section        0  bt.o(i.Bt_M0_Cnt16Set)
    i.Bt_M0_Run                              0x00001368   Section        0  bt.o(i.Bt_M0_Run)
    i.Bt_M0_Stop                             0x00001384   Section        0  bt.o(i.Bt_M0_Stop)
    i.Bt_Mode0_EnableIrq                     0x000013a0   Section        0  bt.o(i.Bt_Mode0_EnableIrq)
    i.CalcCrc                                0x000013bc   Section        0  mycrc.o(i.CalcCrc)
    i.Flash_ErasePage                        0x000013ec   Section        0  hdee.o(i.Flash_ErasePage)
    .ARM.__at_0x1400                         0x00001400   Section        0  hdee.o(.ARM.__at_0x1400)
    i.Bt_Mode0_Init                          0x00001410   Section        0  bt.o(i.Bt_Mode0_Init)
    i.Conver_to_Temp                         0x000014a8   Section        0  myadc.o(i.Conver_to_Temp)
    i.Crc_cal                                0x00001528   Section        0  mycrc.o(i.Crc_cal)
    i.Crc_check                              0x0000154c   Section        0  mycrc.o(i.Crc_check)
    i.Deal_Parameter                         0x00001594   Section        0  datadeal.o(i.Deal_Parameter)
    i.EeRecord_AddCRC                        0x000015b0   Section        0  hdee.o(i.EeRecord_AddCRC)
    i.EeRecord_Append                        0x00001600   Section        0  hdee.o(i.EeRecord_Append)
    i.EeRecord_CheckCRC                      0x00001634   Section        0  hdee.o(i.EeRecord_CheckCRC)
    i.EeRecord_CheckFF                       0x0000167c   Section        0  hdee.o(i.EeRecord_CheckFF)
    i.EeRecord_FindLastRecord                0x0000169c   Section        0  hdee.o(i.EeRecord_FindLastRecord)
    i.EeRecord_FindNewSpace                  0x00001718   Section        0  hdee.o(i.EeRecord_FindNewSpace)
    i.EeRecord_PageFlag_Modify               0x00001770   Section        0  hdee.o(i.EeRecord_PageFlag_Modify)
    i.EeRecord_Write                         0x00001794   Section        0  hdee.o(i.EeRecord_Write)
    i.EnableNvic                             0x000017ac   Section        0  interrupts_hc32l13x.o(i.EnableNvic)
    i.Flash_Operation_DeIni                  0x00001800   Section        0  hdee.o(i.Flash_Operation_DeIni)
    i.Flash_Operation_Ini                    0x00001868   Section        0  hdee.o(i.Flash_Operation_Ini)
    i.Flash_ReadBytes                        0x000019a0   Section        0  hdee.o(i.Flash_ReadBytes)
    i.Flash_WriteBytes                       0x000019b4   Section        0  hdee.o(i.Flash_WriteBytes)
    i.Get16Bit                               0x00001a06   Section        0  ddl.o(i.Get16Bit)
    i.GetBit                                 0x00001a12   Section        0  ddl.o(i.GetBit)
    i.Gpio_ClearIrq                          0x00001a20   Section        0  gpio.o(i.Gpio_ClearIrq)
    i.Gpio_EnableIrq                         0x00001a3c   Section        0  gpio.o(i.Gpio_EnableIrq)
    i.Gpio_Init                              0x00001a60   Section        0  gpio.o(i.Gpio_Init)
    i.Gpio_SetAfMode                         0x00001af0   Section        0  gpio.o(i.Gpio_SetAfMode)
    i.HDEE_BakZone_FindAddr                  0x00001b04   Section        0  hdee.o(i.HDEE_BakZone_FindAddr)
    i.HDEE_Ini                               0x00001b38   Section        0  hdee.o(i.HDEE_Ini)
    i.HDEE_Read                              0x00001b80   Section        0  hdee.o(i.HDEE_Read)
    i.I2C0_IRQHandler                        0x00001bbe   Section        0  interrupts_hc32l13x.o(i.I2C0_IRQHandler)
    i.I2C1_IRQHandler                        0x00001bc6   Section        0  interrupts_hc32l13x.o(i.I2C1_IRQHandler)
    i.Init_LpTimer                           0x00001bd0   Section        0  mytimer.o(i.Init_LpTimer)
    i.Init_Parameter                         0x00001c30   Section        0  datadeal.o(i.Init_Parameter)
    i.Key_Init                               0x00001df0   Section        0  mykey.o(i.Key_Init)
    i.LCD_IRQHandler                         0x00001e5c   Section        0  interrupts_hc32l13x.o(i.LCD_IRQHandler)
    i.LED3                                   0x00001e64   Section        0  myinit.o(i.LED3)
    i.LED4                                   0x00001e80   Section        0  myinit.o(i.LED4)
    i.LED5                                   0x00001e9c   Section        0  myinit.o(i.LED5)
    i.LED6                                   0x00001ebc   Section        0  myinit.o(i.LED6)
    i.LED7                                   0x00001ed8   Section        0  myinit.o(i.LED7)
    i.LED8                                   0x00001ef8   Section        0  myinit.o(i.LED8)
    i.LED9                                   0x00001f18   Section        0  myinit.o(i.LED9)
    i.LPTIM_IRQHandler                       0x00001f38   Section        0  interrupts_hc32l13x.o(i.LPTIM_IRQHandler)
    i.LPUART0_IRQHandler                     0x00001f40   Section        0  interrupts_hc32l13x.o(i.LPUART0_IRQHandler)
    i.LPUART1_IRQHandler                     0x00001f48   Section        0  interrupts_hc32l13x.o(i.LPUART1_IRQHandler)
    i.LPUart_ClrStatus                       0x00001f50   Section        0  lpuart.o(i.LPUart_ClrStatus)
    i.LPUart_EnableFunc                      0x00001f66   Section        0  lpuart.o(i.LPUart_EnableFunc)
    i.LPUart_EnableIrq                       0x00001f7a   Section        0  lpuart.o(i.LPUart_EnableIrq)
    i.LPUart_GetStatus                       0x00001f8e   Section        0  lpuart.o(i.LPUart_GetStatus)
    i.LPUart_Init                            0x00001fa8   Section        0  lpuart.o(i.LPUart_Init)
    i.LPUart_ReceiveData                     0x00002018   Section        0  lpuart.o(i.LPUart_ReceiveData)
    i.LVD_IRQHandler                         0x00002020   Section        0  interrupts_hc32l13x.o(i.LVD_IRQHandler)
    i.LpTim_IRQHandler                       0x00002028   Section        0  mytimer.o(i.LpTim_IRQHandler)
    i.LpUart1_IRQHandler                     0x000020b0   Section        0  myuart.o(i.LpUart1_IRQHandler)
    i.Lpm_GotoSleep                          0x00002104   Section        0  lpm.o(i.Lpm_GotoSleep)
    i.Lptim_ClrItStatus                      0x00002128   Section        0  lptim.o(i.Lptim_ClrItStatus)
    i.Lptim_Cmd                              0x0000213a   Section        0  lptim.o(i.Lptim_Cmd)
    i.Lptim_ConfIt                           0x0000214e   Section        0  lptim.o(i.Lptim_ConfIt)
    i.Lptim_GetItStatus                      0x00002162   Section        0  lptim.o(i.Lptim_GetItStatus)
    i.Lptim_Init                             0x00002172   Section        0  lptim.o(i.Lptim_Init)
    i.Lvd_ClearIrq                           0x0000221c   Section        0  lvd.o(i.Lvd_ClearIrq)
    i.Lvd_IRQHandler                         0x00002230   Section        0  mylvd.o(i.Lvd_IRQHandler)
    i.MyTempInit                             0x00002238   Section        0  myinit.o(i.MyTempInit)
    i.NVIC_SetPriority                       0x00002260   Section        0  interrupts_hc32l13x.o(i.NVIC_SetPriority)
    NVIC_SetPriority                         0x00002261   Thumb Code   110  interrupts_hc32l13x.o(i.NVIC_SetPriority)
    i.NVIC_SystemReset                       0x000022d8   Section        0  main.o(i.NVIC_SystemReset)
    NVIC_SystemReset                         0x000022d9   Thumb Code    18  main.o(i.NVIC_SystemReset)
    i.PCA_IRQHandler                         0x000022f4   Section        0  interrupts_hc32l13x.o(i.PCA_IRQHandler)
    i.PCNT_IRQHandler                        0x000022fc   Section        0  interrupts_hc32l13x.o(i.PCNT_IRQHandler)
    i.PORTA_IRQHandler                       0x00002304   Section        0  mykey.o(i.PORTA_IRQHandler)
    i.Pcnt_IRQHandler                        0x00002400   Section        0  mytimer.o(i.Pcnt_IRQHandler)
    i.RTC_IRQHandler                         0x000024d8   Section        0  interrupts_hc32l13x.o(i.RTC_IRQHandler)
    i.Rtc_ClearPrdfItStatus                  0x000024e0   Section        0  rtc.o(i.Rtc_ClearPrdfItStatus)
    i.Rtc_Cmd                                0x000024f4   Section        0  rtc.o(i.Rtc_Cmd)
    i.Rtc_CompCfg                            0x00002508   Section        0  rtc.o(i.Rtc_CompCfg)
    i.Rtc_GetPridItStatus                    0x00002544   Section        0  rtc.o(i.Rtc_GetPridItStatus)
    i.Rtc_IRQHandler                         0x00002554   Section        0  myrtc.o(i.Rtc_IRQHandler)
    i.Rtc_Init                               0x000026f4   Section        0  rtc.o(i.Rtc_Init)
    i.Rtc_SetCyc                             0x0000274c   Section        0  rtc.o(i.Rtc_SetCyc)
    i.Rtc_SetTime                            0x000027b8   Section        0  rtc.o(i.Rtc_SetTime)
    i.SPI0_IRQHandler                        0x0000284c   Section        0  interrupts_hc32l13x.o(i.SPI0_IRQHandler)
    i.SPI1_IRQHandler                        0x00002854   Section        0  interrupts_hc32l13x.o(i.SPI1_IRQHandler)
    i.Set16Bit                               0x0000285c   Section        0  ddl.o(i.Set16Bit)
    i.SetBit                                 0x0000287a   Section        0  ddl.o(i.SetBit)
    i.Simple_Delay                           0x00002898   Section        0  mykey.o(i.Simple_Delay)
    i.SysTick_Handler                        0x000028e8   Section        0  board.o(i.SysTick_Handler)
    i.Sysctrl_ClkSourceEnable                0x000028f8   Section        0  sysctrl.o(i.Sysctrl_ClkSourceEnable)
    i.Sysctrl_GetHClkFreq                    0x00002a14   Section        0  sysctrl.o(i.Sysctrl_GetHClkFreq)
    i.Sysctrl_GetPClkFreq                    0x00002b88   Section        0  sysctrl.o(i.Sysctrl_GetPClkFreq)
    i.Sysctrl_SetPeripheralGate              0x00002ba8   Section        0  sysctrl.o(i.Sysctrl_SetPeripheralGate)
    i.Sysctrl_SetRCHTrim                     0x00002bc0   Section        0  sysctrl.o(i.Sysctrl_SetRCHTrim)
    i.Sysctrl_SetRCLTrim                     0x00002be8   Section        0  sysctrl.o(i.Sysctrl_SetRCLTrim)
    i.Sysctrl_SysClkSwitch                   0x00002c10   Section        0  sysctrl.o(i.Sysctrl_SysClkSwitch)
    i.SystemCoreClockUpdate                  0x00002c3c   Section        0  system_hc32l13x.o(i.SystemCoreClockUpdate)
    i.SystemInit                             0x00002c4c   Section        0  system_hc32l13x.o(i.SystemInit)
    i.TIM0_IRQHandler                        0x00002c74   Section        0  interrupts_hc32l13x.o(i.TIM0_IRQHandler)
    i.TIM1_IRQHandler                        0x00002c7c   Section        0  interrupts_hc32l13x.o(i.TIM1_IRQHandler)
    i.TIM2_IRQHandler                        0x00002c84   Section        0  interrupts_hc32l13x.o(i.TIM2_IRQHandler)
    i.TIM3_IRQHandler                        0x00002c8c   Section        0  interrupts_hc32l13x.o(i.TIM3_IRQHandler)
    i.TIM4_IRQHandler                        0x00002c94   Section        0  interrupts_hc32l13x.o(i.TIM4_IRQHandler)
    i.TIM5_IRQHandler                        0x00002c9c   Section        0  interrupts_hc32l13x.o(i.TIM5_IRQHandler)
    i.TIM6_IRQHandler                        0x00002ca4   Section        0  interrupts_hc32l13x.o(i.TIM6_IRQHandler)
    i.Tim0_IRQHandler                        0x00002cac   Section        0  mybt.o(i.Tim0_IRQHandler)
    i.UART0_IRQHandler                       0x00002cfc   Section        0  interrupts_hc32l13x.o(i.UART0_IRQHandler)
    i.UART1_IRQHandler                       0x00002d04   Section        0  interrupts_hc32l13x.o(i.UART1_IRQHandler)
    i.VC0_IRQHandler                         0x00002d0c   Section        0  interrupts_hc32l13x.o(i.VC0_IRQHandler)
    i.VC1_IRQHandler                         0x00002d14   Section        0  interrupts_hc32l13x.o(i.VC1_IRQHandler)
    i.WDT_IRQHandler                         0x00002d1c   Section        0  interrupts_hc32l13x.o(i.WDT_IRQHandler)
    i.WDT_int                                0x00002d24   Section        0  myinit.o(i.WDT_int)
    i.Wdt_Feed                               0x00002d38   Section        0  wdt.o(i.Wdt_Feed)
    i.Wdt_Init                               0x00002d48   Section        0  wdt.o(i.Wdt_Init)
    i.Wdt_Start                              0x00002d74   Section        0  wdt.o(i.Wdt_Start)
    i.Wdt_WriteWdtLoad                       0x00002d84   Section        0  wdt.o(i.Wdt_WriteWdtLoad)
    i.Write_Parameter                        0x00002d9c   Section        0  datadeal.o(i.Write_Parameter)
    i._SysTick_Config                        0x00002da0   Section        0  board.o(i._SysTick_Config)
    _SysTick_Config                          0x00002da1   Thumb Code    40  board.o(i._SysTick_Config)
    i._SysctrlUnlock                         0x00002dd4   Section        0  sysctrl.o(i._SysctrlUnlock)
    _SysctrlUnlock                           0x00002dd5   Thumb Code    12  sysctrl.o(i._SysctrlUnlock)
    i.__ARM_clz                              0x00002dec   Section        0  depilogue.o(i.__ARM_clz)
    i.__ARM_common_switch8                   0x00002e1a   Section        0  adc.o(i.__ARM_common_switch8)
    i.__rt_ffs                               0x00002e38   Section        0  kservice.o(i.__rt_ffs)
    i.__scatterload_copy                     0x00002e94   Section       14  handlers.o(i.__scatterload_copy)
    i.__scatterload_null                     0x00002ea2   Section        2  handlers.o(i.__scatterload_null)
    i.__scatterload_zeroinit                 0x00002ea4   Section       14  handlers.o(i.__scatterload_zeroinit)
    i._has_defunct_thread                    0x00002eb4   Section        0  idle.o(i._has_defunct_thread)
    _has_defunct_thread                      0x00002eb5   Thumb Code    16  idle.o(i._has_defunct_thread)
    i._rt_thread_init                        0x00002ec8   Section        0  thread.o(i._rt_thread_init)
    _rt_thread_init                          0x00002ec9   Thumb Code   126  thread.o(i._rt_thread_init)
    i._rt_timer_init                         0x00002f50   Section        0  timer.o(i._rt_timer_init)
    _rt_timer_init                           0x00002f51   Thumb Code    60  timer.o(i._rt_timer_init)
    i._rt_timer_remove                       0x00002f8c   Section        0  timer.o(i._rt_timer_remove)
    _rt_timer_remove                         0x00002f8d   Thumb Code    46  timer.o(i._rt_timer_remove)
    i.app_Time0Start                         0x00002fba   Section        0  mybt.o(i.app_Time0Start)
    i.app_Timer0Cfg                          0x00002fda   Section        0  mybt.o(i.app_Timer0Cfg)
    i.auto_adjdegrees                        0x0000302c   Section        0  main.o(i.auto_adjdegrees)
    i.data_process                           0x00003238   Section        0  mybt.o(i.data_process)
    i.ddl_memclr                             0x00003524   Section        0  ddl.o(i.ddl_memclr)
    i.degrees_calculate                      0x00003544   Section        0  main.o(i.degrees_calculate)
    i.delay100us                             0x00003788   Section        0  ddl.o(i.delay100us)
    i.key_deal                               0x000037e0   Section        0  main.o(i.key_deal)
    i.led_hand                               0x00003878   Section        0  mytimer.o(i.led_hand)
    i.main                                   0x00003920   Section        0  main.o(i.main)
    i.main_thread_entry                      0x000039e0   Section        0  components.o(i.main_thread_entry)
    i.myRtcInit                              0x000039ee   Section        0  myrtc.o(i.myRtcInit)
    i.mygpio_init                            0x00003a60   Section        0  myinit.o(i.mygpio_init)
    i.myuart_init                            0x00003c8c   Section        0  myuart.o(i.myuart_init)
    i.pcnt_time_init                         0x00003cf0   Section        0  mytimer.o(i.pcnt_time_init)
    i.print_number                           0x00003d74   Section        0  kservice.o(i.print_number)
    print_number                             0x00003d75   Thumb Code   396  kservice.o(i.print_number)
    i.rt_application_init                    0x00003f08   Section        0  components.o(i.rt_application_init)
    i.rt_components_board_init               0x00003f48   Section        0  components.o(i.rt_components_board_init)
    i.rt_components_init                     0x00003f64   Section        0  components.o(i.rt_components_init)
    i.rt_enter_critical                      0x00003f80   Section        0  scheduler.o(i.rt_enter_critical)
    i.rt_exit_critical                       0x00003fa0   Section        0  scheduler.o(i.rt_exit_critical)
    i.rt_hw_board_init                       0x00003fe8   Section        0  board.o(i.rt_hw_board_init)
    i.rt_hw_console_output                   0x0000400c   Section        0  kservice.o(i.rt_hw_console_output)
    i.rt_hw_hard_fault_exception             0x00004010   Section        0  cpuport.o(i.rt_hw_hard_fault_exception)
    i.rt_hw_stack_init                       0x00004100   Section        0  cpuport.o(i.rt_hw_stack_init)
    i.rt_interrupt_enter                     0x00004140   Section        0  irq.o(i.rt_interrupt_enter)
    i.rt_interrupt_leave                     0x00004160   Section        0  irq.o(i.rt_interrupt_leave)
    i.rt_ipc_list_resume                     0x00004180   Section        0  ipc.o(i.rt_ipc_list_resume)
    rt_ipc_list_resume                       0x00004181   Thumb Code    20  ipc.o(i.rt_ipc_list_resume)
    i.rt_ipc_list_suspend                    0x00004194   Section        0  ipc.o(i.rt_ipc_list_suspend)
    rt_ipc_list_suspend                      0x00004195   Thumb Code    98  ipc.o(i.rt_ipc_list_suspend)
    i.rt_ipc_object_init                     0x000041f6   Section        0  ipc.o(i.rt_ipc_object_init)
    rt_ipc_object_init                       0x000041f7   Thumb Code    16  ipc.o(i.rt_ipc_object_init)
    i.rt_kprintf                             0x00004208   Section        0  kservice.o(i.rt_kprintf)
    i.rt_list_init                           0x0000423c   Section        0  ipc.o(i.rt_list_init)
    rt_list_init                             0x0000423d   Thumb Code     6  ipc.o(i.rt_list_init)
    i.rt_list_init                           0x00004242   Section        0  scheduler.o(i.rt_list_init)
    rt_list_init                             0x00004243   Thumb Code     6  scheduler.o(i.rt_list_init)
    i.rt_list_init                           0x00004248   Section        0  timer.o(i.rt_list_init)
    rt_list_init                             0x00004249   Thumb Code     6  timer.o(i.rt_list_init)
    i.rt_list_insert_after                   0x0000424e   Section        0  thread.o(i.rt_list_insert_after)
    rt_list_insert_after                     0x0000424f   Thumb Code    14  thread.o(i.rt_list_insert_after)
    i.rt_list_insert_after                   0x0000425c   Section        0  timer.o(i.rt_list_insert_after)
    rt_list_insert_after                     0x0000425d   Thumb Code    14  timer.o(i.rt_list_insert_after)
    i.rt_list_insert_before                  0x0000426a   Section        0  ipc.o(i.rt_list_insert_before)
    rt_list_insert_before                    0x0000426b   Thumb Code    14  ipc.o(i.rt_list_insert_before)
    i.rt_list_isempty                        0x00004278   Section        0  ipc.o(i.rt_list_isempty)
    rt_list_isempty                          0x00004279   Thumb Code    16  ipc.o(i.rt_list_isempty)
    i.rt_list_isempty                        0x00004288   Section        0  timer.o(i.rt_list_isempty)
    rt_list_isempty                          0x00004289   Thumb Code    16  timer.o(i.rt_list_isempty)
    i.rt_list_remove                         0x00004298   Section        0  thread.o(i.rt_list_remove)
    rt_list_remove                           0x00004299   Thumb Code    18  thread.o(i.rt_list_remove)
    i.rt_memset                              0x000042aa   Section        0  kservice.o(i.rt_memset)
    i.rt_object_detach                       0x000042f6   Section        0  object.o(i.rt_object_detach)
    i.rt_object_get_information              0x00004324   Section        0  object.o(i.rt_object_get_information)
    i.rt_object_init                         0x00004348   Section        0  object.o(i.rt_object_init)
    i.rt_object_is_systemobject              0x000043a6   Section        0  object.o(i.rt_object_is_systemobject)
    i.rt_schedule                            0x000043bc   Section        0  scheduler.o(i.rt_schedule)
    i.rt_schedule_insert_thread              0x00004440   Section        0  scheduler.o(i.rt_schedule_insert_thread)
    i.rt_schedule_remove_thread              0x00004494   Section        0  scheduler.o(i.rt_schedule_remove_thread)
    i.rt_sem_init                            0x000044ec   Section        0  ipc.o(i.rt_sem_init)
    i.rt_sem_release                         0x0000450e   Section        0  ipc.o(i.rt_sem_release)
    i.rt_sem_take                            0x0000454a   Section        0  ipc.o(i.rt_sem_take)
    i.rt_show_version                        0x000045c4   Section        0  kservice.o(i.rt_show_version)
    i.rt_strlen                              0x00004674   Section        0  kservice.o(i.rt_strlen)
    i.rt_strncpy                             0x00004686   Section        0  kservice.o(i.rt_strncpy)
    i.rt_system_scheduler_init               0x000046c0   Section        0  scheduler.o(i.rt_system_scheduler_init)
    i.rt_system_scheduler_start              0x0000470c   Section        0  scheduler.o(i.rt_system_scheduler_start)
    i.rt_system_timer_init                   0x0000473c   Section        0  timer.o(i.rt_system_timer_init)
    i.rt_system_timer_thread_init            0x00004758   Section        0  timer.o(i.rt_system_timer_thread_init)
    i.rt_thread_exit                         0x0000475c   Section        0  thread.o(i.rt_thread_exit)
    i.rt_thread_idle_entry                   0x000047b4   Section        0  idle.o(i.rt_thread_idle_entry)
    rt_thread_idle_entry                     0x000047b5   Thumb Code     8  idle.o(i.rt_thread_idle_entry)
    i.rt_thread_idle_excute                  0x000047bc   Section        0  idle.o(i.rt_thread_idle_excute)
    i.rt_thread_idle_gethandler              0x00004840   Section        0  idle.o(i.rt_thread_idle_gethandler)
    i.rt_thread_idle_init                    0x00004848   Section        0  idle.o(i.rt_thread_idle_init)
    i.rt_thread_init                         0x00004884   Section        0  thread.o(i.rt_thread_init)
    i.rt_thread_mdelay                       0x000048b0   Section        0  thread.o(i.rt_thread_mdelay)
    i.rt_thread_resume                       0x000048c4   Section        0  thread.o(i.rt_thread_resume)
    i.rt_thread_self                         0x00004900   Section        0  thread.o(i.rt_thread_self)
    i.rt_thread_sleep                        0x0000490c   Section        0  thread.o(i.rt_thread_sleep)
    i.rt_thread_startup                      0x00004950   Section        0  thread.o(i.rt_thread_startup)
    i.rt_thread_suspend                      0x00004980   Section        0  thread.o(i.rt_thread_suspend)
    i.rt_thread_timeout                      0x000049c4   Section        0  thread.o(i.rt_thread_timeout)
    i.rt_thread_yield                        0x000049e4   Section        0  thread.o(i.rt_thread_yield)
    i.rt_tick_from_millisecond               0x00004a48   Section        0  clock.o(i.rt_tick_from_millisecond)
    i.rt_tick_get                            0x00004a88   Section        0  clock.o(i.rt_tick_get)
    i.rt_tick_increase                       0x00004a94   Section        0  clock.o(i.rt_tick_increase)
    i.rt_timer_check                         0x00004ac4   Section        0  timer.o(i.rt_timer_check)
    i.rt_timer_control                       0x00004b44   Section        0  timer.o(i.rt_timer_control)
    i.rt_timer_detach                        0x00004b80   Section        0  timer.o(i.rt_timer_detach)
    i.rt_timer_init                          0x00004ba0   Section        0  timer.o(i.rt_timer_init)
    i.rt_timer_start                         0x00004bc8   Section        0  timer.o(i.rt_timer_start)
    i.rt_timer_stop                          0x00004cd0   Section        0  timer.o(i.rt_timer_stop)
    i.rt_vsnprintf                           0x00004d00   Section        0  kservice.o(i.rt_vsnprintf)
    i.rti_board_end                          0x00005068   Section        0  components.o(i.rti_board_end)
    rti_board_end                            0x00005069   Thumb Code     4  components.o(i.rti_board_end)
    i.rti_board_start                        0x0000506c   Section        0  components.o(i.rti_board_start)
    rti_board_start                          0x0000506d   Thumb Code     4  components.o(i.rti_board_start)
    i.rti_end                                0x00005070   Section        0  components.o(i.rti_end)
    rti_end                                  0x00005071   Thumb Code     4  components.o(i.rti_end)
    i.rti_start                              0x00005074   Section        0  components.o(i.rti_start)
    rti_start                                0x00005075   Thumb Code     4  components.o(i.rti_start)
    i.rtthread_startup                       0x00005078   Section        0  components.o(i.rtthread_startup)
    i.self_abs                               0x000050a2   Section        0  myadc.o(i.self_abs)
    i.skip_atoi                              0x000050b4   Section        0  kservice.o(i.skip_atoi)
    skip_atoi                                0x000050b5   Thumb Code    36  kservice.o(i.skip_atoi)
    i.temp_adj                               0x000050d8   Section        0  main.o(i.temp_adj)
    i.thread1_entry                          0x0000523c   Section        0  main.o(i.thread1_entry)
    thread1_entry                            0x0000523d   Thumb Code    76  main.o(i.thread1_entry)
    i.thread2_entry                          0x0000529c   Section        0  main.o(i.thread2_entry)
    thread2_entry                            0x0000529d   Thumb Code   440  main.o(i.thread2_entry)
    i.uart1_send                             0x00005480   Section        0  myuart.o(i.uart1_send)
    i.uart_gpio_init                         0x000054cc   Section        0  myinit.o(i.uart_gpio_init)
    i.valve_adjust_state                     0x00005510   Section        0  main.o(i.valve_adjust_state)
    i.valve_frist_init                       0x0000559c   Section        0  main.o(i.valve_frist_init)
    .constdata                               0x0000567c   Section       24  sysctrl.o(.constdata)
    .constdata                               0x00005694   Section       12  lpuart.o(.constdata)
    .constdata                               0x000056a0   Section      404  myadc.o(.constdata)
    .constdata                               0x00005834   Section      290  kservice.o(.constdata)
    small_digits                             0x00005934   Data          17  kservice.o(.constdata)
    large_digits                             0x00005945   Data          17  kservice.o(.constdata)
    .rti_fn.0                                0x00005958   Section        4  components.o(.rti_fn.0)
    __tagsym$$used                           0x00005958   Number         0  components.o(.rti_fn.0)
    .rti_fn.0.end                            0x0000595c   Section        4  components.o(.rti_fn.0.end)
    __tagsym$$used                           0x0000595c   Number         0  components.o(.rti_fn.0.end)
    .rti_fn.1.end                            0x00005960   Section        4  components.o(.rti_fn.1.end)
    __tagsym$$used                           0x00005960   Number         0  components.o(.rti_fn.1.end)
    .rti_fn.6.end                            0x00005964   Section        4  components.o(.rti_fn.6.end)
    __tagsym$$used                           0x00005964   Number         0  components.o(.rti_fn.6.end)
    .data                                    0x20000000   Section        4  system_hc32l13x.o(.data)
    .data                                    0x20000004   Section        3  myadc.o(.data)
    .data                                    0x20000007   Section        3  mykey.o(.data)
    .data                                    0x2000000c   Section       24  mytimer.o(.data)
    .data                                    0x20000024   Section        1  myuart.o(.data)
    .data                                    0x20000025   Section        1  mybt.o(.data)
    .data                                    0x20000026   Section        2  myrtc.o(.data)
    .data                                    0x20000028   Section       13  main.o(.data)
    adjust_flag                              0x20000030   Data           1  main.o(.data)
    adjust_flag                              0x20000031   Data           1  main.o(.data)
    crc                                      0x20000032   Data           2  main.o(.data)
    buf_length                               0x20000034   Data           1  main.o(.data)
    .data                                    0x20000038   Section       12  cpuport.o(.data)
    .data                                    0x20000044   Section        4  clock.o(.data)
    rt_tick                                  0x20000044   Data           4  clock.o(.data)
    .data                                    0x20000048   Section        1  irq.o(.data)
    .data                                    0x2000004c   Section       64  object.o(.data)
    rt_object_container                      0x2000004c   Data          64  object.o(.data)
    .data                                    0x2000008c   Section       24  scheduler.o(.data)
    rt_scheduler_lock_nest                   0x2000008c   Data           2  scheduler.o(.data)
    .data                                    0x200000a4   Section       12  timer.o(.data)
    rt_timer_list                            0x200000a4   Data           8  timer.o(.data)
    random_nr                                0x200000ac   Data           4  timer.o(.data)
    .bss                                     0x200000b0   Section      104  myadc.o(.bss)
    .bss                                     0x20000118   Section       20  mytimer.o(.bss)
    .bss                                     0x2000012c   Section       60  myuart.o(.bss)
    .bss                                     0x20000168   Section     1411  main.o(.bss)
    thread2_stack                            0x20000168   Data         512  main.o(.bss)
    thread2                                  0x20000368   Data         120  main.o(.bss)
    thread1_stack                            0x200003e0   Data         512  main.o(.bss)
    thread1                                  0x200005e0   Data         120  main.o(.bss)
    sendbuf                                  0x20000678   Data         115  main.o(.bss)
    .bss                                     0x200006f0   Section      376  components.o(.bss)
    main_stack                               0x200006f0   Data         256  components.o(.bss)
    .bss                                     0x20000868   Section      248  idle.o(.bss)
    idle                                     0x20000868   Data         120  idle.o(.bss)
    rt_thread_stack                          0x200008e0   Data         128  idle.o(.bss)
    .bss                                     0x20000960   Section      128  kservice.o(.bss)
    rt_log_buf                               0x20000960   Data         128  kservice.o(.bss)
    .bss                                     0x200009e0   Section       32  scheduler.o(.bss)
    STACK                                    0x20000a00   Section     2048  startup_hc32l13x.o(STACK)

    Global Symbols

    Symbol Name                              Value     Ov Type        Size  Object(Section)

    BuildAttributes$$THM_ISAv3M$S$PE$A:L22$X:L11$S22$IEEE1$IW$USESV6$~STKCKD$USESV7$~SHL$OSPACE$ROPI$EBA8$MICROLIB$REQ8$PRES8$EABIv2 0x00000000   Number         0  anon$$obj.o ABSOLUTE
    __ARM_use_no_argv                        0x00000000   Number         0  main.o ABSOLUTE
    __Vectors                                0x00000000   Data           0  startup_hc32l13x.o(RESET)
    __use_no_errno                           0x00000000   Number         0  useno.o ABSOLUTE
    __use_no_exception_handling              0x00000000   Number         0  useno.o ABSOLUTE
    __use_no_fp                              0x00000000   Number         0  useno.o ABSOLUTE
    __use_no_heap                            0x00000000   Number         0  useno.o ABSOLUTE
    __use_no_heap_region                     0x00000000   Number         0  useno.o ABSOLUTE
    __use_no_semihosting                     0x00000000   Number         0  useno.o ABSOLUTE
    __use_no_semihosting_swi                 0x00000000   Number         0  useno.o ABSOLUTE
    __use_no_signal_handling                 0x00000000   Number         0  useno.o ABSOLUTE
    Adc_IRQHandler                            - Undefined Weak Reference
    ClkTrim_IRQHandler                        - Undefined Weak Reference
    Dmac_IRQHandler                           - Undefined Weak Reference
    Flash_IRQHandler                          - Undefined Weak Reference
    I2c0_IRQHandler                           - Undefined Weak Reference
    I2c1_IRQHandler                           - Undefined Weak Reference
    Lcd_IRQHandler                            - Undefined Weak Reference
    LpUart0_IRQHandler                        - Undefined Weak Reference
    Pca_IRQHandler                            - Undefined Weak Reference
    Ram_IRQHandler                            - Undefined Weak Reference
    Spi0_IRQHandler                           - Undefined Weak Reference
    Spi1_IRQHandler                           - Undefined Weak Reference
    Tim1_IRQHandler                           - Undefined Weak Reference
    Tim2_IRQHandler                           - Undefined Weak Reference
    Tim3_IRQHandler                           - Undefined Weak Reference
    Tim4_IRQHandler                           - Undefined Weak Reference
    Tim5_IRQHandler                           - Undefined Weak Reference
    Tim6_IRQHandler                           - Undefined Weak Reference
    Uart0_IRQHandler                          - Undefined Weak Reference
    Uart1_IRQHandler                          - Undefined Weak Reference
    Vc0_IRQHandler                            - Undefined Weak Reference
    Vc1_IRQHandler                            - Undefined Weak Reference
    Wdt_IRQHandler                            - Undefined Weak Reference
    __cpp_initialize__aeabi_                  - Undefined Weak Reference
    __cxa_finalize                            - Undefined Weak Reference
    __decompress                              - Undefined Weak Reference
    _clock_init                               - Undefined Weak Reference
    _microlib_exit                            - Undefined Weak Reference
    __Vectors_End                            0x000000c0   Data           0  startup_hc32l13x.o(RESET)
    __Vectors_Size                           0x000000c0   Number         0  startup_hc32l13x.o ABSOLUTE
    __main                                   0x000000c1   Thumb Code     0  entry.o(.ARM.Collect$$$$00000000)
    _main_stk                                0x000000c1   Thumb Code     0  entry2.o(.ARM.Collect$$$$00000001)
    _main_scatterload                        0x000000c5   Thumb Code     0  entry5.o(.ARM.Collect$$$$00000004)
    __main_after_scatterload                 0x000000c9   Thumb Code     0  entry5.o(.ARM.Collect$$$$00000004)
    _main_clock                              0x000000c9   Thumb Code     0  entry7b.o(.ARM.Collect$$$$00000008)
    _main_cpp_init                           0x000000c9   Thumb Code     0  entry8b.o(.ARM.Collect$$$$0000000A)
    _main_init                               0x000000c9   Thumb Code     0  entry9a.o(.ARM.Collect$$$$0000000B)
    __rt_final_cpp                           0x000000d1   Thumb Code     0  entry10a.o(.ARM.Collect$$$$0000000D)
    __rt_final_exit                          0x000000d1   Thumb Code     0  entry11a.o(.ARM.Collect$$$$0000000F)
    Reset_Handler                            0x000000d5   Thumb Code    26  startup_hc32l13x.o(.text)
    NMI_Handler                              0x000000ef   Thumb Code     2  startup_hc32l13x.o(.text)
    SVC_Handler                              0x000000f3   Thumb Code     2  startup_hc32l13x.o(.text)
    PORTB_IRQHandler                         0x000000f9   Thumb Code     0  startup_hc32l13x.o(.text)
    PORTC_IRQHandler                         0x000000f9   Thumb Code     0  startup_hc32l13x.o(.text)
    PORTD_IRQHandler                         0x000000f9   Thumb Code     0  startup_hc32l13x.o(.text)
    rt_hw_interrupt_disable                  0x00000111   Thumb Code     8  context_rvds.o(.text)
    rt_hw_interrupt_enable                   0x00000119   Thumb Code     6  context_rvds.o(.text)
    rt_hw_context_switch                     0x0000011f   Thumb Code    28  context_rvds.o(.text)
    rt_hw_context_switch_interrupt           0x0000011f   Thumb Code     0  context_rvds.o(.text)
    PendSV_Handler                           0x0000013b   Thumb Code    84  context_rvds.o(.text)
    rt_hw_context_switch_to                  0x0000018f   Thumb Code    44  context_rvds.o(.text)
    rt_hw_interrupt_thread_switch            0x000001bb   Thumb Code     2  context_rvds.o(.text)
    HardFault_Handler                        0x000001bd   Thumb Code    12  context_rvds.o(.text)
    __aeabi_uidiv                            0x000001e9   Thumb Code     0  uidiv.o(.text)
    __aeabi_uidivmod                         0x000001e9   Thumb Code    44  uidiv.o(.text)
    __aeabi_idiv                             0x00000215   Thumb Code     0  idiv.o(.text)
    __aeabi_idivmod                          0x00000215   Thumb Code    40  idiv.o(.text)
    __aeabi_memcpy                           0x0000023d   Thumb Code    36  memcpya.o(.text)
    __aeabi_memcpy4                          0x0000023d   Thumb Code     0  memcpya.o(.text)
    __aeabi_memcpy8                          0x0000023d   Thumb Code     0  memcpya.o(.text)
    __aeabi_memset                           0x00000261   Thumb Code    14  memseta.o(.text)
    __aeabi_memset4                          0x00000261   Thumb Code     0  memseta.o(.text)
    __aeabi_memset8                          0x00000261   Thumb Code     0  memseta.o(.text)
    __aeabi_memclr                           0x0000026f   Thumb Code     4  memseta.o(.text)
    __aeabi_memclr4                          0x0000026f   Thumb Code     0  memseta.o(.text)
    __aeabi_memclr8                          0x0000026f   Thumb Code     0  memseta.o(.text)
    _memset$wrapper                          0x00000273   Thumb Code    18  memseta.o(.text)
    __aeabi_dadd                             0x00000285   Thumb Code   328  dadd.o(.text)
    __aeabi_dsub                             0x000003cd   Thumb Code    12  dadd.o(.text)
    __aeabi_drsub                            0x000003d9   Thumb Code    12  dadd.o(.text)
    __aeabi_ddiv                             0x000003e9   Thumb Code   234  ddiv.o(.text)
    __aeabi_i2d                              0x000004d9   Thumb Code    34  dflti.o(.text)
    __aeabi_ui2d                             0x00000501   Thumb Code    24  dfltui.o(.text)
    __aeabi_d2uiz                            0x0000051d   Thumb Code    50  dfixui.o(.text)
    __aeabi_llsl                             0x00000559   Thumb Code    32  llshl.o(.text)
    _ll_shift_l                              0x00000559   Thumb Code     0  llshl.o(.text)
    __aeabi_llsr                             0x00000579   Thumb Code    34  llushr.o(.text)
    _ll_ushift_r                             0x00000579   Thumb Code     0  llushr.o(.text)
    __aeabi_lasr                             0x0000059b   Thumb Code    38  llsshr.o(.text)
    _ll_sshift_r                             0x0000059b   Thumb Code     0  llsshr.o(.text)
    __I$use$fp                               0x000005c1   Thumb Code     0  iusefp.o(.text)
    _double_round                            0x000005c1   Thumb Code    26  depilogue.o(.text)
    _double_epilogue                         0x000005db   Thumb Code   164  depilogue.o(.text)
    __scatterload                            0x00000681   Thumb Code    28  init.o(.text)
    __scatterload_rt2                        0x00000681   Thumb Code     0  init.o(.text)
    main                                     0x000006a5   Thumb Code    10  components.o(i.$Sub$$main)
    ADC_IRQHandler                           0x000006af   Thumb Code     8  interrupts_hc32l13x.o(i.ADC_IRQHandler)
    Adc_Enable                               0x000006b9   Thumb Code    16  adc.o(i.Adc_Enable)
    Adc_Init                                 0x000006cd   Thumb Code   100  adc.o(i.Adc_Init)
    Adc_SqrModeCfg                           0x00000735   Thumb Code   112  adc.o(i.Adc_SqrModeCfg)
    AppAdcSQRCfg                             0x000007a9   Thumb Code   602  myadc.o(i.AppAdcSQRCfg)
    AppAdc_temp                              0x00000a09   Thumb Code   552  myadc.o(i.AppAdc_temp)
    AppAdc_valve                             0x00000c49   Thumb Code  1370  myadc.o(i.AppAdc_valve)
    Bgr_BgrEnable                            0x000011c1   Thumb Code    22  bgr.o(i.Bgr_BgrEnable)
    Bt_ClearIntFlag                          0x000011dd   Thumb Code    22  bt.o(i.Bt_ClearIntFlag)
    CLKTRIM_IRQHandler                       0x000011f9   Thumb Code     8  interrupts_hc32l13x.o(i.CLKTRIM_IRQHandler)
    HDEE_BakZone_Write                       0x00001201   Thumb Code   106  hdee.o(.ARM.__at_0x1200)
    AppMAdcInit                              0x00001279   Thumb Code    88  myadc.o(i.AppMAdcInit)
    Bt_GetIntFlag                            0x000012d1   Thumb Code    24  bt.o(i.Bt_GetIntFlag)
    DMAC_IRQHandler                          0x000012ed   Thumb Code     8  interrupts_hc32l13x.o(i.DMAC_IRQHandler)
    FLASH_RAM_IRQHandler                     0x000012f5   Thumb Code    12  interrupts_hc32l13x.o(i.FLASH_RAM_IRQHandler)
    HDEE_Write                               0x00001301   Thumb Code    70  hdee.o(.ARM.__at_0x1300)
    Bt_M0_Cnt16Set                           0x00001349   Thumb Code    26  bt.o(i.Bt_M0_Cnt16Set)
    Bt_M0_Run                                0x00001369   Thumb Code    24  bt.o(i.Bt_M0_Run)
    Bt_M0_Stop                               0x00001385   Thumb Code    22  bt.o(i.Bt_M0_Stop)
    Bt_Mode0_EnableIrq                       0x000013a1   Thumb Code    24  bt.o(i.Bt_Mode0_EnableIrq)
    CalcCrc                                  0x000013bd   Thumb Code    42  mycrc.o(i.CalcCrc)
    Flash_ErasePage                          0x000013ed   Thumb Code    20  hdee.o(i.Flash_ErasePage)
    HDEE_BakZone_Clear                       0x00001401   Thumb Code    16  hdee.o(.ARM.__at_0x1400)
    Bt_Mode0_Init                            0x00001411   Thumb Code   148  bt.o(i.Bt_Mode0_Init)
    Conver_to_Temp                           0x000014a9   Thumb Code   118  myadc.o(i.Conver_to_Temp)
    Crc_cal                                  0x00001529   Thumb Code    32  mycrc.o(i.Crc_cal)
    Crc_check                                0x0000154d   Thumb Code    68  mycrc.o(i.Crc_check)
    Deal_Parameter                           0x00001595   Thumb Code    26  datadeal.o(i.Deal_Parameter)
    EeRecord_AddCRC                          0x000015b1   Thumb Code    66  hdee.o(i.EeRecord_AddCRC)
    EeRecord_Append                          0x00001601   Thumb Code    52  hdee.o(i.EeRecord_Append)
    EeRecord_CheckCRC                        0x00001635   Thumb Code    60  hdee.o(i.EeRecord_CheckCRC)
    EeRecord_CheckFF                         0x0000167d   Thumb Code    30  hdee.o(i.EeRecord_CheckFF)
    EeRecord_FindLastRecord                  0x0000169d   Thumb Code   118  hdee.o(i.EeRecord_FindLastRecord)
    EeRecord_FindNewSpace                    0x00001719   Thumb Code    84  hdee.o(i.EeRecord_FindNewSpace)
    EeRecord_PageFlag_Modify                 0x00001771   Thumb Code    32  hdee.o(i.EeRecord_PageFlag_Modify)
    EeRecord_Write                           0x00001795   Thumb Code    24  hdee.o(i.EeRecord_Write)
    EnableNvic                               0x000017ad   Thumb Code    76  interrupts_hc32l13x.o(i.EnableNvic)
    Flash_Operation_DeIni                    0x00001801   Thumb Code    84  hdee.o(i.Flash_Operation_DeIni)
    Flash_Operation_Ini                      0x00001869   Thumb Code   278  hdee.o(i.Flash_Operation_Ini)
    Flash_ReadBytes                          0x000019a1   Thumb Code    20  hdee.o(i.Flash_ReadBytes)
    Flash_WriteBytes                         0x000019b5   Thumb Code    82  hdee.o(i.Flash_WriteBytes)
    Get16Bit                                 0x00001a07   Thumb Code    12  ddl.o(i.Get16Bit)
    GetBit                                   0x00001a13   Thumb Code    12  ddl.o(i.GetBit)
    Gpio_ClearIrq                            0x00001a21   Thumb Code    22  gpio.o(i.Gpio_ClearIrq)
    Gpio_EnableIrq                           0x00001a3d   Thumb Code    30  gpio.o(i.Gpio_EnableIrq)
    Gpio_Init                                0x00001a61   Thumb Code   130  gpio.o(i.Gpio_Init)
    Gpio_SetAfMode                           0x00001af1   Thumb Code    16  gpio.o(i.Gpio_SetAfMode)
    HDEE_BakZone_FindAddr                    0x00001b05   Thumb Code    48  hdee.o(i.HDEE_BakZone_FindAddr)
    HDEE_Ini                                 0x00001b39   Thumb Code    72  hdee.o(i.HDEE_Ini)
    HDEE_Read                                0x00001b81   Thumb Code    62  hdee.o(i.HDEE_Read)
    I2C0_IRQHandler                          0x00001bbf   Thumb Code     8  interrupts_hc32l13x.o(i.I2C0_IRQHandler)
    I2C1_IRQHandler                          0x00001bc7   Thumb Code     8  interrupts_hc32l13x.o(i.I2C1_IRQHandler)
    Init_LpTimer                             0x00001bd1   Thumb Code    86  mytimer.o(i.Init_LpTimer)
    Init_Parameter                           0x00001c31   Thumb Code   428  datadeal.o(i.Init_Parameter)
    Key_Init                                 0x00001df1   Thumb Code   108  mykey.o(i.Key_Init)
    LCD_IRQHandler                           0x00001e5d   Thumb Code     8  interrupts_hc32l13x.o(i.LCD_IRQHandler)
    LED3                                     0x00001e65   Thumb Code    22  myinit.o(i.LED3)
    LED4                                     0x00001e81   Thumb Code    22  myinit.o(i.LED4)
    LED5                                     0x00001e9d   Thumb Code    26  myinit.o(i.LED5)
    LED6                                     0x00001ebd   Thumb Code    22  myinit.o(i.LED6)
    LED7                                     0x00001ed9   Thumb Code    26  myinit.o(i.LED7)
    LED8                                     0x00001ef9   Thumb Code    26  myinit.o(i.LED8)
    LED9                                     0x00001f19   Thumb Code    26  myinit.o(i.LED9)
    LPTIM_IRQHandler                         0x00001f39   Thumb Code     8  interrupts_hc32l13x.o(i.LPTIM_IRQHandler)
    LPUART0_IRQHandler                       0x00001f41   Thumb Code     8  interrupts_hc32l13x.o(i.LPUART0_IRQHandler)
    LPUART1_IRQHandler                       0x00001f49   Thumb Code     8  interrupts_hc32l13x.o(i.LPUART1_IRQHandler)
    LPUart_ClrStatus                         0x00001f51   Thumb Code    22  lpuart.o(i.LPUart_ClrStatus)
    LPUart_EnableFunc                        0x00001f67   Thumb Code    20  lpuart.o(i.LPUart_EnableFunc)
    LPUart_EnableIrq                         0x00001f7b   Thumb Code    20  lpuart.o(i.LPUart_EnableIrq)
    LPUart_GetStatus                         0x00001f8f   Thumb Code    24  lpuart.o(i.LPUart_GetStatus)
    LPUart_Init                              0x00001fa9   Thumb Code   106  lpuart.o(i.LPUart_Init)
    LPUart_ReceiveData                       0x00002019   Thumb Code     8  lpuart.o(i.LPUart_ReceiveData)
    LVD_IRQHandler                           0x00002021   Thumb Code     8  interrupts_hc32l13x.o(i.LVD_IRQHandler)
    LpTim_IRQHandler                         0x00002029   Thumb Code   114  mytimer.o(i.LpTim_IRQHandler)
    LpUart1_IRQHandler                       0x000020b1   Thumb Code    66  myuart.o(i.LpUart1_IRQHandler)
    Lpm_GotoSleep                            0x00002105   Thumb Code    30  lpm.o(i.Lpm_GotoSleep)
    Lptim_ClrItStatus                        0x00002129   Thumb Code    18  lptim.o(i.Lptim_ClrItStatus)
    Lptim_Cmd                                0x0000213b   Thumb Code    20  lptim.o(i.Lptim_Cmd)
    Lptim_ConfIt                             0x0000214f   Thumb Code    20  lptim.o(i.Lptim_ConfIt)
    Lptim_GetItStatus                        0x00002163   Thumb Code    16  lptim.o(i.Lptim_GetItStatus)
    Lptim_Init                               0x00002173   Thumb Code   170  lptim.o(i.Lptim_Init)
    Lvd_ClearIrq                             0x0000221d   Thumb Code    14  lvd.o(i.Lvd_ClearIrq)
    Lvd_IRQHandler                           0x00002231   Thumb Code     8  mylvd.o(i.Lvd_IRQHandler)
    MyTempInit                               0x00002239   Thumb Code    40  myinit.o(i.MyTempInit)
    PCA_IRQHandler                           0x000022f5   Thumb Code     8  interrupts_hc32l13x.o(i.PCA_IRQHandler)
    PCNT_IRQHandler                          0x000022fd   Thumb Code     8  interrupts_hc32l13x.o(i.PCNT_IRQHandler)
    PORTA_IRQHandler                         0x00002305   Thumb Code   218  mykey.o(i.PORTA_IRQHandler)
    Pcnt_IRQHandler                          0x00002401   Thumb Code   194  mytimer.o(i.Pcnt_IRQHandler)
    RTC_IRQHandler                           0x000024d9   Thumb Code     8  interrupts_hc32l13x.o(i.RTC_IRQHandler)
    Rtc_ClearPrdfItStatus                    0x000024e1   Thumb Code    14  rtc.o(i.Rtc_ClearPrdfItStatus)
    Rtc_Cmd                                  0x000024f5   Thumb Code    16  rtc.o(i.Rtc_Cmd)
    Rtc_CompCfg                              0x00002509   Thumb Code    56  rtc.o(i.Rtc_CompCfg)
    Rtc_GetPridItStatus                      0x00002545   Thumb Code    12  rtc.o(i.Rtc_GetPridItStatus)
    Rtc_IRQHandler                           0x00002555   Thumb Code   366  myrtc.o(i.Rtc_IRQHandler)
    Rtc_Init                                 0x000026f5   Thumb Code    82  rtc.o(i.Rtc_Init)
    Rtc_SetCyc                               0x0000274d   Thumb Code   104  rtc.o(i.Rtc_SetCyc)
    Rtc_SetTime                              0x000027b9   Thumb Code   142  rtc.o(i.Rtc_SetTime)
    SPI0_IRQHandler                          0x0000284d   Thumb Code     8  interrupts_hc32l13x.o(i.SPI0_IRQHandler)
    SPI1_IRQHandler                          0x00002855   Thumb Code     8  interrupts_hc32l13x.o(i.SPI1_IRQHandler)
    Set16Bit                                 0x0000285d   Thumb Code    30  ddl.o(i.Set16Bit)
    SetBit                                   0x0000287b   Thumb Code    30  ddl.o(i.SetBit)
    Simple_Delay                             0x00002899   Thumb Code    80  mykey.o(i.Simple_Delay)
    SysTick_Handler                          0x000028e9   Thumb Code    16  board.o(i.SysTick_Handler)
    Sysctrl_ClkSourceEnable                  0x000028f9   Thumb Code   276  sysctrl.o(i.Sysctrl_ClkSourceEnable)
    Sysctrl_GetHClkFreq                      0x00002a15   Thumb Code   354  sysctrl.o(i.Sysctrl_GetHClkFreq)
    Sysctrl_GetPClkFreq                      0x00002b89   Thumb Code    28  sysctrl.o(i.Sysctrl_GetPClkFreq)
    Sysctrl_SetPeripheralGate                0x00002ba9   Thumb Code    20  sysctrl.o(i.Sysctrl_SetPeripheralGate)
    Sysctrl_SetRCHTrim                       0x00002bc1   Thumb Code    32  sysctrl.o(i.Sysctrl_SetRCHTrim)
    Sysctrl_SetRCLTrim                       0x00002be9   Thumb Code    32  sysctrl.o(i.Sysctrl_SetRCLTrim)
    Sysctrl_SysClkSwitch                     0x00002c11   Thumb Code    40  sysctrl.o(i.Sysctrl_SysClkSwitch)
    SystemCoreClockUpdate                    0x00002c3d   Thumb Code    12  system_hc32l13x.o(i.SystemCoreClockUpdate)
    SystemInit                               0x00002c4d   Thumb Code    40  system_hc32l13x.o(i.SystemInit)
    TIM0_IRQHandler                          0x00002c75   Thumb Code     8  interrupts_hc32l13x.o(i.TIM0_IRQHandler)
    TIM1_IRQHandler                          0x00002c7d   Thumb Code     8  interrupts_hc32l13x.o(i.TIM1_IRQHandler)
    TIM2_IRQHandler                          0x00002c85   Thumb Code     8  interrupts_hc32l13x.o(i.TIM2_IRQHandler)
    TIM3_IRQHandler                          0x00002c8d   Thumb Code     8  interrupts_hc32l13x.o(i.TIM3_IRQHandler)
    TIM4_IRQHandler                          0x00002c95   Thumb Code     8  interrupts_hc32l13x.o(i.TIM4_IRQHandler)
    TIM5_IRQHandler                          0x00002c9d   Thumb Code     8  interrupts_hc32l13x.o(i.TIM5_IRQHandler)
    TIM6_IRQHandler                          0x00002ca5   Thumb Code     8  interrupts_hc32l13x.o(i.TIM6_IRQHandler)
    Tim0_IRQHandler                          0x00002cad   Thumb Code    64  mybt.o(i.Tim0_IRQHandler)
    UART0_IRQHandler                         0x00002cfd   Thumb Code     8  interrupts_hc32l13x.o(i.UART0_IRQHandler)
    UART1_IRQHandler                         0x00002d05   Thumb Code     8  interrupts_hc32l13x.o(i.UART1_IRQHandler)
    VC0_IRQHandler                           0x00002d0d   Thumb Code     8  interrupts_hc32l13x.o(i.VC0_IRQHandler)
    VC1_IRQHandler                           0x00002d15   Thumb Code     8  interrupts_hc32l13x.o(i.VC1_IRQHandler)
    WDT_IRQHandler                           0x00002d1d   Thumb Code     8  interrupts_hc32l13x.o(i.WDT_IRQHandler)
    WDT_int                                  0x00002d25   Thumb Code    20  myinit.o(i.WDT_int)
    Wdt_Feed                                 0x00002d39   Thumb Code    12  wdt.o(i.Wdt_Feed)
    Wdt_Init                                 0x00002d49   Thumb Code    40  wdt.o(i.Wdt_Init)
    Wdt_Start                                0x00002d75   Thumb Code    12  wdt.o(i.Wdt_Start)
    Wdt_WriteWdtLoad                         0x00002d85   Thumb Code    20  wdt.o(i.Wdt_WriteWdtLoad)
    Write_Parameter                          0x00002d9d   Thumb Code     2  datadeal.o(i.Write_Parameter)
    __ARM_clz                                0x00002ded   Thumb Code    46  depilogue.o(i.__ARM_clz)
    __ARM_common_switch8                     0x00002e1b   Thumb Code    28  adc.o(i.__ARM_common_switch8)
    __rt_ffs                                 0x00002e39   Thumb Code    86  kservice.o(i.__rt_ffs)
    __scatterload_copy                       0x00002e95   Thumb Code    14  handlers.o(i.__scatterload_copy)
    __scatterload_null                       0x00002ea3   Thumb Code     2  handlers.o(i.__scatterload_null)
    __scatterload_zeroinit                   0x00002ea5   Thumb Code    14  handlers.o(i.__scatterload_zeroinit)
    app_Time0Start                           0x00002fbb   Thumb Code    32  mybt.o(i.app_Time0Start)
    app_Timer0Cfg                            0x00002fdb   Thumb Code    80  mybt.o(i.app_Timer0Cfg)
    auto_adjdegrees                          0x0000302d   Thumb Code   486  main.o(i.auto_adjdegrees)
    data_process                             0x00003239   Thumb Code   726  mybt.o(i.data_process)
    ddl_memclr                               0x00003525   Thumb Code    32  ddl.o(i.ddl_memclr)
    degrees_calculate                        0x00003545   Thumb Code   540  main.o(i.degrees_calculate)
    delay100us                               0x00003789   Thumb Code    74  ddl.o(i.delay100us)
    key_deal                                 0x000037e1   Thumb Code   126  main.o(i.key_deal)
    led_hand                                 0x00003879   Thumb Code   156  mytimer.o(i.led_hand)
    $Super$$main                             0x00003921   Thumb Code   132  main.o(i.main)
    main_thread_entry                        0x000039e1   Thumb Code    14  components.o(i.main_thread_entry)
    myRtcInit                                0x000039ef   Thumb Code   112  myrtc.o(i.myRtcInit)
    mygpio_init                              0x00003a61   Thumb Code   548  myinit.o(i.mygpio_init)
    myuart_init                              0x00003c8d   Thumb Code    94  myuart.o(i.myuart_init)
    pcnt_time_init                           0x00003cf1   Thumb Code   122  mytimer.o(i.pcnt_time_init)
    rt_application_init                      0x00003f09   Thumb Code    42  components.o(i.rt_application_init)
    rt_components_board_init                 0x00003f49   Thumb Code    20  components.o(i.rt_components_board_init)
    rt_components_init                       0x00003f65   Thumb Code    20  components.o(i.rt_components_init)
    rt_enter_critical                        0x00003f81   Thumb Code    28  scheduler.o(i.rt_enter_critical)
    rt_exit_critical                         0x00003fa1   Thumb Code    64  scheduler.o(i.rt_exit_critical)
    rt_hw_board_init                         0x00003fe9   Thumb Code    30  board.o(i.rt_hw_board_init)
    rt_hw_console_output                     0x0000400d   Thumb Code     2  kservice.o(i.rt_hw_console_output)
    rt_hw_hard_fault_exception               0x00004011   Thumb Code    80  cpuport.o(i.rt_hw_hard_fault_exception)
    rt_hw_stack_init                         0x00004101   Thumb Code    58  cpuport.o(i.rt_hw_stack_init)
    rt_interrupt_enter                       0x00004141   Thumb Code    26  irq.o(i.rt_interrupt_enter)
    rt_interrupt_leave                       0x00004161   Thumb Code    26  irq.o(i.rt_interrupt_leave)
    rt_kprintf                               0x00004209   Thumb Code    46  kservice.o(i.rt_kprintf)
    rt_memset                                0x000042ab   Thumb Code    76  kservice.o(i.rt_memset)
    rt_object_detach                         0x000042f7   Thumb Code    44  object.o(i.rt_object_detach)
    rt_object_get_information                0x00004325   Thumb Code    32  object.o(i.rt_object_get_information)
    rt_object_init                           0x00004349   Thumb Code    94  object.o(i.rt_object_init)
    rt_object_is_systemobject                0x000043a7   Thumb Code    20  object.o(i.rt_object_is_systemobject)
    rt_schedule                              0x000043bd   Thumb Code   106  scheduler.o(i.rt_schedule)
    rt_schedule_insert_thread                0x00004441   Thumb Code    74  scheduler.o(i.rt_schedule_insert_thread)
    rt_schedule_remove_thread                0x00004495   Thumb Code    78  scheduler.o(i.rt_schedule_remove_thread)
    rt_sem_init                              0x000044ed   Thumb Code    34  ipc.o(i.rt_sem_init)
    rt_sem_release                           0x0000450f   Thumb Code    60  ipc.o(i.rt_sem_release)
    rt_sem_take                              0x0000454b   Thumb Code   120  ipc.o(i.rt_sem_take)
    rt_show_version                          0x000045c5   Thumb Code    38  kservice.o(i.rt_show_version)
    rt_strlen                                0x00004675   Thumb Code    18  kservice.o(i.rt_strlen)
    rt_strncpy                               0x00004687   Thumb Code    56  kservice.o(i.rt_strncpy)
    rt_system_scheduler_init                 0x000046c1   Thumb Code    52  scheduler.o(i.rt_system_scheduler_init)
    rt_system_scheduler_start                0x0000470d   Thumb Code    36  scheduler.o(i.rt_system_scheduler_start)
    rt_system_timer_init                     0x0000473d   Thumb Code    24  timer.o(i.rt_system_timer_init)
    rt_system_timer_thread_init              0x00004759   Thumb Code     2  timer.o(i.rt_system_timer_thread_init)
    rt_thread_exit                           0x0000475d   Thumb Code    78  thread.o(i.rt_thread_exit)
    rt_thread_idle_excute                    0x000047bd   Thumb Code   126  idle.o(i.rt_thread_idle_excute)
    rt_thread_idle_gethandler                0x00004841   Thumb Code     4  idle.o(i.rt_thread_idle_gethandler)
    rt_thread_idle_init                      0x00004849   Thumb Code    38  idle.o(i.rt_thread_idle_init)
    rt_thread_init                           0x00004885   Thumb Code    44  thread.o(i.rt_thread_init)
    rt_thread_mdelay                         0x000048b1   Thumb Code    20  thread.o(i.rt_thread_mdelay)
    rt_thread_resume                         0x000048c5   Thumb Code    60  thread.o(i.rt_thread_resume)
    rt_thread_self                           0x00004901   Thumb Code     6  thread.o(i.rt_thread_self)
    rt_thread_sleep                          0x0000490d   Thumb Code    62  thread.o(i.rt_thread_sleep)
    rt_thread_startup                        0x00004951   Thumb Code    48  thread.o(i.rt_thread_startup)
    rt_thread_suspend                        0x00004981   Thumb Code    68  thread.o(i.rt_thread_suspend)
    rt_thread_timeout                        0x000049c5   Thumb Code    32  thread.o(i.rt_thread_timeout)
    rt_thread_yield                          0x000049e5   Thumb Code    92  thread.o(i.rt_thread_yield)
    rt_tick_from_millisecond                 0x00004a49   Thumb Code    62  clock.o(i.rt_tick_from_millisecond)
    rt_tick_get                              0x00004a89   Thumb Code     6  clock.o(i.rt_tick_get)
    rt_tick_increase                         0x00004a95   Thumb Code    44  clock.o(i.rt_tick_increase)
    rt_timer_check                           0x00004ac5   Thumb Code   120  timer.o(i.rt_timer_check)
    rt_timer_control                         0x00004b45   Thumb Code    60  timer.o(i.rt_timer_control)
    rt_timer_detach                          0x00004b81   Thumb Code    32  timer.o(i.rt_timer_detach)
    rt_timer_init                            0x00004ba1   Thumb Code    38  timer.o(i.rt_timer_init)
    rt_timer_start                           0x00004bc9   Thumb Code   250  timer.o(i.rt_timer_start)
    rt_timer_stop                            0x00004cd1   Thumb Code    48  timer.o(i.rt_timer_stop)
    rt_vsnprintf                             0x00004d01   Thumb Code   862  kservice.o(i.rt_vsnprintf)
    rtthread_startup                         0x00005079   Thumb Code    42  components.o(i.rtthread_startup)
    self_abs                                 0x000050a3   Thumb Code    18  myadc.o(i.self_abs)
    temp_adj                                 0x000050d9   Thumb Code   340  main.o(i.temp_adj)
    uart1_send                               0x00005481   Thumb Code    72  myuart.o(i.uart1_send)
    uart_gpio_init                           0x000054cd   Thumb Code    66  myinit.o(i.uart_gpio_init)
    valve_adjust_state                       0x00005511   Thumb Code   126  main.o(i.valve_adjust_state)
    valve_frist_init                         0x0000559d   Thumb Code   204  main.o(i.valve_frist_init)
    tab_temp                                 0x000056a0   Data         404  myadc.o(.constdata)
    __lowest_bit_bitmap                      0x00005834   Data         256  kservice.o(.constdata)
    __rt_init_rti_start                      0x00005958   Data           4  components.o(.rti_fn.0)
    __rt_init_rti_board_start                0x0000595c   Data           4  components.o(.rti_fn.0.end)
    __rt_init_rti_board_end                  0x00005960   Data           4  components.o(.rti_fn.1.end)
    __rt_init_rti_end                        0x00005964   Data           4  components.o(.rti_fn.6.end)
    Region$$Table$$Base                      0x00005968   Number         0  anon$$obj.o(Region$$Table)
    Region$$Table$$Limit                     0x00005988   Number         0  anon$$obj.o(Region$$Table)
    SystemCoreClock                          0x20000000   Data           4  system_hc32l13x.o(.data)
    val_nousing                              0x20000004   Data           1  myadc.o(.data)
    val_nousi                                0x20000005   Data           2  myadc.o(.data)
    key_press_time                           0x20000007   Data           1  mykey.o(.data)
    key_press                                0x20000008   Data           1  mykey.o(.data)
    deal_key                                 0x20000009   Data           1  mykey.o(.data)
    TAB_DispItem                             0x2000000c   Data          24  mytimer.o(.data)
    u8RxCnt                                  0x20000024   Data           1  myuart.o(.data)
    tx_flag                                  0x20000025   Data           1  mybt.o(.data)
    beep_on                                  0x20000026   Data           1  myrtc.o(.data)
    deal_key_time                            0x20000027   Data           1  myrtc.o(.data)
    set_vave_degree1                         0x20000028   Data           2  main.o(.data)
    data_op                                  0x2000002a   Data           1  main.o(.data)
    val_adjust_flag                          0x2000002b   Data           1  main.o(.data)
    move_stop                                0x2000002c   Data           1  main.o(.data)
    valve_state_firstinit                    0x2000002d   Data           1  main.o(.data)
    key_state                                0x2000002e   Data           1  main.o(.data)
    led_485                                  0x2000002f   Data           1  main.o(.data)
    rt_interrupt_from_thread                 0x20000038   Data           4  cpuport.o(.data)
    rt_interrupt_to_thread                   0x2000003c   Data           4  cpuport.o(.data)
    rt_thread_switch_interrupt_flag          0x20000040   Data           4  cpuport.o(.data)
    rt_interrupt_nest                        0x20000048   Data           1  irq.o(.data)
    rt_current_thread                        0x20000090   Data           4  scheduler.o(.data)
    rt_current_priority                      0x20000094   Data           1  scheduler.o(.data)
    rt_thread_ready_priority_group           0x20000098   Data           4  scheduler.o(.data)
    rt_thread_defunct                        0x2000009c   Data           8  scheduler.o(.data)
    Val                                      0x200000b0   Data         104  myadc.o(.bss)
    TFS                                      0x20000118   Data          20  mytimer.o(.bss)
    u8RxData                                 0x2000012c   Data          60  myuart.o(.bss)
    dynamic_sem                              0x20000658   Data          32  main.o(.bss)
    main_thread                              0x200007f0   Data         120  components.o(.bss)
    rt_thread_priority_table                 0x200009e0   Data          32  scheduler.o(.bss)
    __initial_sp                             0x20001200   Data           0  startup_hc32l13x.o(STACK)



==============================================================================

Memory Map of the image

  Image Entry point : 0x000000c1

  Load Region LR_IROM1 (Base: 0x00000000, Size: 0x00005a38, Max: 0x00010000, ABSOLUTE)

    Execution Region ER_IROM1 (Base: 0x00000000, Size: 0x00005988, Max: 0x00010000, ABSOLUTE)

    Base Addr    Size         Type   Attr      Idx    E Section Name        Object

    0x00000000   0x000000c0   Data   RO          284    RESET               startup_hc32l13x.o
    0x000000c0   0x00000000   Code   RO         3439  * .ARM.Collect$$$$00000000  mc_p.l(entry.o)
    0x000000c0   0x00000004   Code   RO         3462    .ARM.Collect$$$$00000001  mc_p.l(entry2.o)
    0x000000c4   0x00000004   Code   RO         3465    .ARM.Collect$$$$00000004  mc_p.l(entry5.o)
    0x000000c8   0x00000000   Code   RO         3467    .ARM.Collect$$$$00000008  mc_p.l(entry7b.o)
    0x000000c8   0x00000000   Code   RO         3469    .ARM.Collect$$$$0000000A  mc_p.l(entry8b.o)
    0x000000c8   0x00000008   Code   RO         3470    .ARM.Collect$$$$0000000B  mc_p.l(entry9a.o)
    0x000000d0   0x00000000   Code   RO         3472    .ARM.Collect$$$$0000000D  mc_p.l(entry10a.o)
    0x000000d0   0x00000000   Code   RO         3474    .ARM.Collect$$$$0000000F  mc_p.l(entry11a.o)
    0x000000d0   0x00000004   Code   RO         3463    .ARM.Collect$$$$00002712  mc_p.l(entry2.o)
    0x000000d4   0x0000003c   Code   RO          285    .text               startup_hc32l13x.o
    0x00000110   0x000000d8   Code   RO         2601    .text               context_rvds.o
    0x000001e8   0x0000002c   Code   RO         3442    .text               mc_p.l(uidiv.o)
    0x00000214   0x00000028   Code   RO         3444    .text               mc_p.l(idiv.o)
    0x0000023c   0x00000024   Code   RO         3446    .text               mc_p.l(memcpya.o)
    0x00000260   0x00000024   Code   RO         3448    .text               mc_p.l(memseta.o)
    0x00000284   0x00000164   Code   RO         3452    .text               mf_p.l(dadd.o)
    0x000003e8   0x000000f0   Code   RO         3454    .text               mf_p.l(ddiv.o)
    0x000004d8   0x00000028   Code   RO         3456    .text               mf_p.l(dflti.o)
    0x00000500   0x0000001c   Code   RO         3458    .text               mf_p.l(dfltui.o)
    0x0000051c   0x0000003c   Code   RO         3460    .text               mf_p.l(dfixui.o)
    0x00000558   0x00000020   Code   RO         3476    .text               mc_p.l(llshl.o)
    0x00000578   0x00000022   Code   RO         3478    .text               mc_p.l(llushr.o)
    0x0000059a   0x00000026   Code   RO         3480    .text               mc_p.l(llsshr.o)
    0x000005c0   0x00000000   Code   RO         3482    .text               mc_p.l(iusefp.o)
    0x000005c0   0x000000be   Code   RO         3483    .text               mf_p.l(depilogue.o)
    0x0000067e   0x00000002   PAD
    0x00000680   0x00000024   Code   RO         3487    .text               mc_p.l(init.o)
    0x000006a4   0x0000000a   Code   RO         2674    i.$Sub$$main        components.o
    0x000006ae   0x00000008   Code   RO            3    i.ADC_IRQHandler    interrupts_hc32l13x.o
    0x000006b6   0x00000002   PAD
    0x000006b8   0x00000014   Code   RO          298    i.Adc_Enable        adc.o
    0x000006cc   0x00000068   Code   RO          305    i.Adc_Init          adc.o
    0x00000734   0x00000074   Code   RO          316    i.Adc_SqrModeCfg    adc.o
    0x000007a8   0x00000260   Code   RO         1955    i.AppAdcSQRCfg      myadc.o
    0x00000a08   0x00000240   Code   RO         1956    i.AppAdc_temp       myadc.o
    0x00000c48   0x00000578   Code   RO         1957    i.AppAdc_valve      myadc.o
    0x000011c0   0x0000001c   Code   RO         1529    i.Bgr_BgrEnable     bgr.o
    0x000011dc   0x0000001c   Code   RO          501    i.Bt_ClearIntFlag   bt.o
    0x000011f8   0x00000008   Code   RO            4    i.CLKTRIM_IRQHandler  interrupts_hc32l13x.o
    0x00001200   0x00000078   Code   RO         2469    .ARM.__at_0x1200    hdee.o
    0x00001278   0x00000058   Code   RO         1958    i.AppMAdcInit       myadc.o
    0x000012d0   0x0000001c   Code   RO          502    i.Bt_GetIntFlag     bt.o
    0x000012ec   0x00000008   Code   RO            5    i.DMAC_IRQHandler   interrupts_hc32l13x.o
    0x000012f4   0x0000000c   Code   RO            7    i.FLASH_RAM_IRQHandler  interrupts_hc32l13x.o
    0x00001300   0x00000046   Code   RO         2470    .ARM.__at_0x1300    hdee.o
    0x00001346   0x00000002   PAD
    0x00001348   0x00000020   Code   RO          505    i.Bt_M0_Cnt16Set    bt.o
    0x00001368   0x0000001c   Code   RO          509    i.Bt_M0_Run         bt.o
    0x00001384   0x0000001c   Code   RO          510    i.Bt_M0_Stop        bt.o
    0x000013a0   0x0000001c   Code   RO          543    i.Bt_Mode0_EnableIrq  bt.o
    0x000013bc   0x00000030   Code   RO         2326    i.CalcCrc           mycrc.o
    0x000013ec   0x00000014   Code   RO         2480    i.Flash_ErasePage   hdee.o
    0x00001400   0x00000010   Code   RO         2471    .ARM.__at_0x1400    hdee.o
    0x00001410   0x00000098   Code   RO          544    i.Bt_Mode0_Init     bt.o
    0x000014a8   0x00000080   Code   RO         1959    i.Conver_to_Temp    myadc.o
    0x00001528   0x00000024   Code   RO         2327    i.Crc_cal           mycrc.o
    0x0000154c   0x00000048   Code   RO         2328    i.Crc_check         mycrc.o
    0x00001594   0x0000001a   Code   RO         1888    i.Deal_Parameter    datadeal.o
    0x000015ae   0x00000002   PAD
    0x000015b0   0x00000050   Code   RO         2472    i.EeRecord_AddCRC   hdee.o
    0x00001600   0x00000034   Code   RO         2473    i.EeRecord_Append   hdee.o
    0x00001634   0x00000048   Code   RO         2474    i.EeRecord_CheckCRC  hdee.o
    0x0000167c   0x0000001e   Code   RO         2475    i.EeRecord_CheckFF  hdee.o
    0x0000169a   0x00000002   PAD
    0x0000169c   0x0000007c   Code   RO         2476    i.EeRecord_FindLastRecord  hdee.o
    0x00001718   0x00000058   Code   RO         2477    i.EeRecord_FindNewSpace  hdee.o
    0x00001770   0x00000024   Code   RO         2478    i.EeRecord_PageFlag_Modify  hdee.o
    0x00001794   0x00000018   Code   RO         2479    i.EeRecord_Write    hdee.o
    0x000017ac   0x00000054   Code   RO            6    i.EnableNvic        interrupts_hc32l13x.o
    0x00001800   0x00000068   Code   RO         2481    i.Flash_Operation_DeIni  hdee.o
    0x00001868   0x00000138   Code   RO         2482    i.Flash_Operation_Ini  hdee.o
    0x000019a0   0x00000014   Code   RO         2483    i.Flash_ReadBytes   hdee.o
    0x000019b4   0x00000052   Code   RO         2484    i.Flash_WriteBytes  hdee.o
    0x00001a06   0x0000000c   Code   RO          832    i.Get16Bit          ddl.o
    0x00001a12   0x0000000c   Code   RO          834    i.GetBit            ddl.o
    0x00001a1e   0x00000002   PAD
    0x00001a20   0x0000001c   Code   RO         1355    i.Gpio_ClearIrq     gpio.o
    0x00001a3c   0x00000024   Code   RO         1359    i.Gpio_EnableIrq    gpio.o
    0x00001a60   0x00000090   Code   RO         1363    i.Gpio_Init         gpio.o
    0x00001af0   0x00000014   Code   RO         1365    i.Gpio_SetAfMode    gpio.o
    0x00001b04   0x00000034   Code   RO         2485    i.HDEE_BakZone_FindAddr  hdee.o
    0x00001b38   0x00000048   Code   RO         2487    i.HDEE_Ini          hdee.o
    0x00001b80   0x0000003e   Code   RO         2488    i.HDEE_Read         hdee.o
    0x00001bbe   0x00000008   Code   RO            8    i.I2C0_IRQHandler   interrupts_hc32l13x.o
    0x00001bc6   0x00000008   Code   RO            9    i.I2C1_IRQHandler   interrupts_hc32l13x.o
    0x00001bce   0x00000002   PAD
    0x00001bd0   0x00000060   Code   RO         2154    i.Init_LpTimer      mytimer.o
    0x00001c30   0x000001c0   Code   RO         1889    i.Init_Parameter    datadeal.o
    0x00001df0   0x0000006c   Code   RO         2115    i.Key_Init          mykey.o
    0x00001e5c   0x00000008   Code   RO           10    i.LCD_IRQHandler    interrupts_hc32l13x.o
    0x00001e64   0x0000001c   Code   RO         2026    i.LED3              myinit.o
    0x00001e80   0x0000001c   Code   RO         2027    i.LED4              myinit.o
    0x00001e9c   0x00000020   Code   RO         2028    i.LED5              myinit.o
    0x00001ebc   0x0000001c   Code   RO         2029    i.LED6              myinit.o
    0x00001ed8   0x00000020   Code   RO         2030    i.LED7              myinit.o
    0x00001ef8   0x00000020   Code   RO         2031    i.LED8              myinit.o
    0x00001f18   0x00000020   Code   RO         2032    i.LED9              myinit.o
    0x00001f38   0x00000008   Code   RO           11    i.LPTIM_IRQHandler  interrupts_hc32l13x.o
    0x00001f40   0x00000008   Code   RO           12    i.LPUART0_IRQHandler  interrupts_hc32l13x.o
    0x00001f48   0x00000008   Code   RO           13    i.LPUART1_IRQHandler  interrupts_hc32l13x.o
    0x00001f50   0x00000016   Code   RO         1570    i.LPUart_ClrStatus  lpuart.o
    0x00001f66   0x00000014   Code   RO         1573    i.LPUart_EnableFunc  lpuart.o
    0x00001f7a   0x00000014   Code   RO         1574    i.LPUart_EnableIrq  lpuart.o
    0x00001f8e   0x00000018   Code   RO         1577    i.LPUart_GetStatus  lpuart.o
    0x00001fa6   0x00000002   PAD
    0x00001fa8   0x00000070   Code   RO         1578    i.LPUart_Init       lpuart.o
    0x00002018   0x00000008   Code   RO         1579    i.LPUart_ReceiveData  lpuart.o
    0x00002020   0x00000008   Code   RO           14    i.LVD_IRQHandler    interrupts_hc32l13x.o
    0x00002028   0x00000088   Code   RO         2155    i.LpTim_IRQHandler  mytimer.o
    0x000020b0   0x00000054   Code   RO         2206    i.LpUart1_IRQHandler  myuart.o
    0x00002104   0x00000024   Code   RO         1063    i.Lpm_GotoSleep     lpm.o
    0x00002128   0x00000012   Code   RO         1091    i.Lptim_ClrItStatus  lptim.o
    0x0000213a   0x00000014   Code   RO         1092    i.Lptim_Cmd         lptim.o
    0x0000214e   0x00000014   Code   RO         1093    i.Lptim_ConfIt      lptim.o
    0x00002162   0x00000010   Code   RO         1094    i.Lptim_GetItStatus  lptim.o
    0x00002172   0x000000aa   Code   RO         1095    i.Lptim_Init        lptim.o
    0x0000221c   0x00000014   Code   RO         1823    i.Lvd_ClearIrq      lvd.o
    0x00002230   0x00000008   Code   RO         2358    i.Lvd_IRQHandler    mylvd.o
    0x00002238   0x00000028   Code   RO         2033    i.MyTempInit        myinit.o
    0x00002260   0x00000078   Code   RO           15    i.NVIC_SetPriority  interrupts_hc32l13x.o
    0x000022d8   0x0000001c   Code   RO         2387    i.NVIC_SystemReset  main.o
    0x000022f4   0x00000008   Code   RO           16    i.PCA_IRQHandler    interrupts_hc32l13x.o
    0x000022fc   0x00000008   Code   RO           17    i.PCNT_IRQHandler   interrupts_hc32l13x.o
    0x00002304   0x000000fc   Code   RO         2116    i.PORTA_IRQHandler  mykey.o
    0x00002400   0x000000d8   Code   RO         2156    i.Pcnt_IRQHandler   mytimer.o
    0x000024d8   0x00000008   Code   RO           18    i.RTC_IRQHandler    interrupts_hc32l13x.o
    0x000024e0   0x00000014   Code   RO         1695    i.Rtc_ClearPrdfItStatus  rtc.o
    0x000024f4   0x00000014   Code   RO         1696    i.Rtc_Cmd           rtc.o
    0x00002508   0x0000003c   Code   RO         1697    i.Rtc_CompCfg       rtc.o
    0x00002544   0x00000010   Code   RO         1700    i.Rtc_GetPridItStatus  rtc.o
    0x00002554   0x000001a0   Code   RO         2293    i.Rtc_IRQHandler    myrtc.o
    0x000026f4   0x00000058   Code   RO         1702    i.Rtc_Init          rtc.o
    0x0000274c   0x0000006c   Code   RO         1705    i.Rtc_SetCyc        rtc.o
    0x000027b8   0x00000094   Code   RO         1706    i.Rtc_SetTime       rtc.o
    0x0000284c   0x00000008   Code   RO           19    i.SPI0_IRQHandler   interrupts_hc32l13x.o
    0x00002854   0x00000008   Code   RO           20    i.SPI1_IRQHandler   interrupts_hc32l13x.o
    0x0000285c   0x0000001e   Code   RO          836    i.Set16Bit          ddl.o
    0x0000287a   0x0000001e   Code   RO          838    i.SetBit            ddl.o
    0x00002898   0x00000050   Code   RO         2117    i.Simple_Delay      mykey.o
    0x000028e8   0x00000010   Code   RO         3415    i.SysTick_Handler   board.o
    0x000028f8   0x0000011c   Code   RO         1140    i.Sysctrl_ClkSourceEnable  sysctrl.o
    0x00002a14   0x00000174   Code   RO         1141    i.Sysctrl_GetHClkFreq  sysctrl.o
    0x00002b88   0x00000020   Code   RO         1142    i.Sysctrl_GetPClkFreq  sysctrl.o
    0x00002ba8   0x00000018   Code   RO         1149    i.Sysctrl_SetPeripheralGate  sysctrl.o
    0x00002bc0   0x00000028   Code   RO         1150    i.Sysctrl_SetRCHTrim  sysctrl.o
    0x00002be8   0x00000028   Code   RO         1152    i.Sysctrl_SetRCLTrim  sysctrl.o
    0x00002c10   0x0000002c   Code   RO         1157    i.Sysctrl_SysClkSwitch  sysctrl.o
    0x00002c3c   0x00000010   Code   RO          249    i.SystemCoreClockUpdate  system_hc32l13x.o
    0x00002c4c   0x00000028   Code   RO          250    i.SystemInit        system_hc32l13x.o
    0x00002c74   0x00000008   Code   RO           21    i.TIM0_IRQHandler   interrupts_hc32l13x.o
    0x00002c7c   0x00000008   Code   RO           22    i.TIM1_IRQHandler   interrupts_hc32l13x.o
    0x00002c84   0x00000008   Code   RO           23    i.TIM2_IRQHandler   interrupts_hc32l13x.o
    0x00002c8c   0x00000008   Code   RO           24    i.TIM3_IRQHandler   interrupts_hc32l13x.o
    0x00002c94   0x00000008   Code   RO           25    i.TIM4_IRQHandler   interrupts_hc32l13x.o
    0x00002c9c   0x00000008   Code   RO           26    i.TIM5_IRQHandler   interrupts_hc32l13x.o
    0x00002ca4   0x00000008   Code   RO           27    i.TIM6_IRQHandler   interrupts_hc32l13x.o
    0x00002cac   0x00000050   Code   RO         2248    i.Tim0_IRQHandler   mybt.o
    0x00002cfc   0x00000008   Code   RO           28    i.UART0_IRQHandler  interrupts_hc32l13x.o
    0x00002d04   0x00000008   Code   RO           29    i.UART1_IRQHandler  interrupts_hc32l13x.o
    0x00002d0c   0x00000008   Code   RO           30    i.VC0_IRQHandler    interrupts_hc32l13x.o
    0x00002d14   0x00000008   Code   RO           31    i.VC1_IRQHandler    interrupts_hc32l13x.o
    0x00002d1c   0x00000008   Code   RO           32    i.WDT_IRQHandler    interrupts_hc32l13x.o
    0x00002d24   0x00000014   Code   RO         2034    i.WDT_int           myinit.o
    0x00002d38   0x00000010   Code   RO         1290    i.Wdt_Feed          wdt.o
    0x00002d48   0x0000002c   Code   RO         1292    i.Wdt_Init          wdt.o
    0x00002d74   0x00000010   Code   RO         1296    i.Wdt_Start         wdt.o
    0x00002d84   0x00000018   Code   RO         1297    i.Wdt_WriteWdtLoad  wdt.o
    0x00002d9c   0x00000002   Code   RO         1890    i.Write_Parameter   datadeal.o
    0x00002d9e   0x00000002   PAD
    0x00002da0   0x00000034   Code   RO         3416    i._SysTick_Config   board.o
    0x00002dd4   0x00000018   Code   RO         1160    i._SysctrlUnlock    sysctrl.o
    0x00002dec   0x0000002e   Code   RO         3485    i.__ARM_clz         mf_p.l(depilogue.o)
    0x00002e1a   0x0000001c   Code   RO          462    i.__ARM_common_switch8  adc.o
    0x00002e36   0x00000002   PAD
    0x00002e38   0x0000005c   Code   RO         2926    i.__rt_ffs          kservice.o
    0x00002e94   0x0000000e   Code   RO         3491    i.__scatterload_copy  mc_p.l(handlers.o)
    0x00002ea2   0x00000002   Code   RO         3492    i.__scatterload_null  mc_p.l(handlers.o)
    0x00002ea4   0x0000000e   Code   RO         3493    i.__scatterload_zeroinit  mc_p.l(handlers.o)
    0x00002eb2   0x00000002   PAD
    0x00002eb4   0x00000014   Code   RO         2743    i._has_defunct_thread  idle.o
    0x00002ec8   0x00000088   Code   RO         3211    i._rt_thread_init   thread.o
    0x00002f50   0x0000003c   Code   RO         3320    i._rt_timer_init    timer.o
    0x00002f8c   0x0000002e   Code   RO         3321    i._rt_timer_remove  timer.o
    0x00002fba   0x00000020   Code   RO         2249    i.app_Time0Start    mybt.o
    0x00002fda   0x00000050   Code   RO         2250    i.app_Timer0Cfg     mybt.o
    0x0000302a   0x00000002   PAD
    0x0000302c   0x0000020c   Code   RO         2388    i.auto_adjdegrees   main.o
    0x00003238   0x000002ec   Code   RO         2251    i.data_process      mybt.o
    0x00003524   0x00000020   Code   RO          842    i.ddl_memclr        ddl.o
    0x00003544   0x00000244   Code   RO         2389    i.degrees_calculate  main.o
    0x00003788   0x00000058   Code   RO          843    i.delay100us        ddl.o
    0x000037e0   0x00000098   Code   RO         2390    i.key_deal          main.o
    0x00003878   0x000000a8   Code   RO         2157    i.led_hand          mytimer.o
    0x00003920   0x000000c0   Code   RO         2391    i.main              main.o
    0x000039e0   0x0000000e   Code   RO         2675    i.main_thread_entry  components.o
    0x000039ee   0x00000070   Code   RO         2294    i.myRtcInit         myrtc.o
    0x00003a5e   0x00000002   PAD
    0x00003a60   0x0000022c   Code   RO         2035    i.mygpio_init       myinit.o
    0x00003c8c   0x00000064   Code   RO         2207    i.myuart_init       myuart.o
    0x00003cf0   0x00000084   Code   RO         2158    i.pcnt_time_init    mytimer.o
    0x00003d74   0x00000194   Code   RO         2928    i.print_number      kservice.o
    0x00003f08   0x00000040   Code   RO         2676    i.rt_application_init  components.o
    0x00003f48   0x0000001c   Code   RO         2677    i.rt_components_board_init  components.o
    0x00003f64   0x0000001c   Code   RO         2678    i.rt_components_init  components.o
    0x00003f80   0x00000020   Code   RO         3145    i.rt_enter_critical  scheduler.o
    0x00003fa0   0x00000048   Code   RO         3146    i.rt_exit_critical  scheduler.o
    0x00003fe8   0x00000024   Code   RO         3417    i.rt_hw_board_init  board.o
    0x0000400c   0x00000002   Code   RO         2930    i.rt_hw_console_output  kservice.o
    0x0000400e   0x00000002   PAD
    0x00004010   0x000000f0   Code   RO         2606    i.rt_hw_hard_fault_exception  cpuport.o
    0x00004100   0x00000040   Code   RO         2607    i.rt_hw_stack_init  cpuport.o
    0x00004140   0x00000020   Code   RO         2899    i.rt_interrupt_enter  irq.o
    0x00004160   0x00000020   Code   RO         2901    i.rt_interrupt_leave  irq.o
    0x00004180   0x00000014   Code   RO         2783    i.rt_ipc_list_resume  ipc.o
    0x00004194   0x00000062   Code   RO         2785    i.rt_ipc_list_suspend  ipc.o
    0x000041f6   0x00000010   Code   RO         2786    i.rt_ipc_object_init  ipc.o
    0x00004206   0x00000002   PAD
    0x00004208   0x00000034   Code   RO         2931    i.rt_kprintf        kservice.o
    0x0000423c   0x00000006   Code   RO         2787    i.rt_list_init      ipc.o
    0x00004242   0x00000006   Code   RO         3147    i.rt_list_init      scheduler.o
    0x00004248   0x00000006   Code   RO         3322    i.rt_list_init      timer.o
    0x0000424e   0x0000000e   Code   RO         3212    i.rt_list_insert_after  thread.o
    0x0000425c   0x0000000e   Code   RO         3323    i.rt_list_insert_after  timer.o
    0x0000426a   0x0000000e   Code   RO         2788    i.rt_list_insert_before  ipc.o
    0x00004278   0x00000010   Code   RO         2789    i.rt_list_isempty   ipc.o
    0x00004288   0x00000010   Code   RO         3324    i.rt_list_isempty   timer.o
    0x00004298   0x00000012   Code   RO         3213    i.rt_list_remove    thread.o
    0x000042aa   0x0000004c   Code   RO         2936    i.rt_memset         kservice.o
    0x000042f6   0x0000002c   Code   RO         3091    i.rt_object_detach  object.o
    0x00004322   0x00000002   PAD
    0x00004324   0x00000024   Code   RO         3093    i.rt_object_get_information  object.o
    0x00004348   0x0000005e   Code   RO         3095    i.rt_object_init    object.o
    0x000043a6   0x00000014   Code   RO         3096    i.rt_object_is_systemobject  object.o
    0x000043ba   0x00000002   PAD
    0x000043bc   0x00000084   Code   RO         3148    i.rt_schedule       scheduler.o
    0x00004440   0x00000054   Code   RO         3149    i.rt_schedule_insert_thread  scheduler.o
    0x00004494   0x00000058   Code   RO         3150    i.rt_schedule_remove_thread  scheduler.o
    0x000044ec   0x00000022   Code   RO         2798    i.rt_sem_init       ipc.o
    0x0000450e   0x0000003c   Code   RO         2799    i.rt_sem_release    ipc.o
    0x0000454a   0x00000078   Code   RO         2800    i.rt_sem_take       ipc.o
    0x000045c2   0x00000002   PAD
    0x000045c4   0x000000b0   Code   RO         2938    i.rt_show_version   kservice.o
    0x00004674   0x00000012   Code   RO         2943    i.rt_strlen         kservice.o
    0x00004686   0x00000038   Code   RO         2945    i.rt_strncpy        kservice.o
    0x000046be   0x00000002   PAD
    0x000046c0   0x0000004c   Code   RO         3151    i.rt_system_scheduler_init  scheduler.o
    0x0000470c   0x00000030   Code   RO         3152    i.rt_system_scheduler_start  scheduler.o
    0x0000473c   0x0000001c   Code   RO         3325    i.rt_system_timer_init  timer.o
    0x00004758   0x00000002   Code   RO         3326    i.rt_system_timer_thread_init  timer.o
    0x0000475a   0x00000002   PAD
    0x0000475c   0x00000058   Code   RO         3217    i.rt_thread_exit    thread.o
    0x000047b4   0x00000008   Code   RO         2744    i.rt_thread_idle_entry  idle.o
    0x000047bc   0x00000084   Code   RO         2745    i.rt_thread_idle_excute  idle.o
    0x00004840   0x00000008   Code   RO         2746    i.rt_thread_idle_gethandler  idle.o
    0x00004848   0x0000003c   Code   RO         2747    i.rt_thread_idle_init  idle.o
    0x00004884   0x0000002c   Code   RO         3219    i.rt_thread_init    thread.o
    0x000048b0   0x00000014   Code   RO         3220    i.rt_thread_mdelay  thread.o
    0x000048c4   0x0000003c   Code   RO         3221    i.rt_thread_resume  thread.o
    0x00004900   0x0000000c   Code   RO         3222    i.rt_thread_self    thread.o
    0x0000490c   0x00000044   Code   RO         3223    i.rt_thread_sleep   thread.o
    0x00004950   0x00000030   Code   RO         3224    i.rt_thread_startup  thread.o
    0x00004980   0x00000044   Code   RO         3225    i.rt_thread_suspend  thread.o
    0x000049c4   0x00000020   Code   RO         3226    i.rt_thread_timeout  thread.o
    0x000049e4   0x00000064   Code   RO         3227    i.rt_thread_yield   thread.o
    0x00004a48   0x0000003e   Code   RO         2634    i.rt_tick_from_millisecond  clock.o
    0x00004a86   0x00000002   PAD
    0x00004a88   0x0000000c   Code   RO         2635    i.rt_tick_get       clock.o
    0x00004a94   0x00000030   Code   RO         2636    i.rt_tick_increase  clock.o
    0x00004ac4   0x00000080   Code   RO         3327    i.rt_timer_check    timer.o
    0x00004b44   0x0000003c   Code   RO         3328    i.rt_timer_control  timer.o
    0x00004b80   0x00000020   Code   RO         3329    i.rt_timer_detach   timer.o
    0x00004ba0   0x00000026   Code   RO         3330    i.rt_timer_init     timer.o
    0x00004bc6   0x00000002   PAD
    0x00004bc8   0x00000108   Code   RO         3333    i.rt_timer_start    timer.o
    0x00004cd0   0x00000030   Code   RO         3334    i.rt_timer_stop     timer.o
    0x00004d00   0x00000368   Code   RO         2948    i.rt_vsnprintf      kservice.o
    0x00005068   0x00000004   Code   RO         2679    i.rti_board_end     components.o
    0x0000506c   0x00000004   Code   RO         2680    i.rti_board_start   components.o
    0x00005070   0x00000004   Code   RO         2681    i.rti_end           components.o
    0x00005074   0x00000004   Code   RO         2682    i.rti_start         components.o
    0x00005078   0x0000002a   Code   RO         2683    i.rtthread_startup  components.o
    0x000050a2   0x00000012   Code   RO         1960    i.self_abs          myadc.o
    0x000050b4   0x00000024   Code   RO         2950    i.skip_atoi         kservice.o
    0x000050d8   0x00000164   Code   RO         2392    i.temp_adj          main.o
    0x0000523c   0x00000060   Code   RO         2393    i.thread1_entry     main.o
    0x0000529c   0x000001e4   Code   RO         2394    i.thread2_entry     main.o
    0x00005480   0x0000004c   Code   RO         2208    i.uart1_send        myuart.o
    0x000054cc   0x00000042   Code   RO         2037    i.uart_gpio_init    myinit.o
    0x0000550e   0x00000002   PAD
    0x00005510   0x0000008c   Code   RO         2395    i.valve_adjust_state  main.o
    0x0000559c   0x000000e0   Code   RO         2396    i.valve_frist_init  main.o
    0x0000567c   0x00000018   Data   RO         1161    .constdata          sysctrl.o
    0x00005694   0x0000000c   Data   RO         1586    .constdata          lpuart.o
    0x000056a0   0x00000194   Data   RO         1962    .constdata          myadc.o
    0x00005834   0x00000122   Data   RO         2952    .constdata          kservice.o
    0x00005956   0x00000002   PAD
    0x00005958   0x00000004   Data   RO         2685    .rti_fn.0           components.o
    0x0000595c   0x00000004   Data   RO         2686    .rti_fn.0.end       components.o
    0x00005960   0x00000004   Data   RO         2687    .rti_fn.1.end       components.o
    0x00005964   0x00000004   Data   RO         2688    .rti_fn.6.end       components.o
    0x00005968   0x00000020   Data   RO         3489    Region$$Table       anon$$obj.o


    Execution Region RW_IRAM1 (Base: 0x20000000, Size: 0x00001200, Max: 0x00002000, ABSOLUTE)

    Base Addr    Size         Type   Attr      Idx    E Section Name        Object

    0x20000000   0x00000004   Data   RW          251    .data               system_hc32l13x.o
    0x20000004   0x00000003   Data   RW         1963    .data               myadc.o
    0x20000007   0x00000003   Data   RW         2118    .data               mykey.o
    0x2000000a   0x00000002   PAD
    0x2000000c   0x00000018   Data   RW         2160    .data               mytimer.o
    0x20000024   0x00000001   Data   RW         2211    .data               myuart.o
    0x20000025   0x00000001   Data   RW         2252    .data               mybt.o
    0x20000026   0x00000002   Data   RW         2295    .data               myrtc.o
    0x20000028   0x0000000d   Data   RW         2398    .data               main.o
    0x20000035   0x00000003   PAD
    0x20000038   0x0000000c   Data   RW         2608    .data               cpuport.o
    0x20000044   0x00000004   Data   RW         2638    .data               clock.o
    0x20000048   0x00000001   Data   RW         2902    .data               irq.o
    0x20000049   0x00000003   PAD
    0x2000004c   0x00000040   Data   RW         3098    .data               object.o
    0x2000008c   0x00000018   Data   RW         3154    .data               scheduler.o
    0x200000a4   0x0000000c   Data   RW         3335    .data               timer.o
    0x200000b0   0x00000068   Zero   RW         1961    .bss                myadc.o
    0x20000118   0x00000014   Zero   RW         2159    .bss                mytimer.o
    0x2000012c   0x0000003c   Zero   RW         2210    .bss                myuart.o
    0x20000168   0x00000583   Zero   RW         2397    .bss                main.o
    0x200006eb   0x00000005   PAD
    0x200006f0   0x00000178   Zero   RW         2684    .bss                components.o
    0x20000868   0x000000f8   Zero   RW         2748    .bss                idle.o
    0x20000960   0x00000080   Zero   RW         2951    .bss                kservice.o
    0x200009e0   0x00000020   Zero   RW         3153    .bss                scheduler.o
    0x20000a00   0x00000800   Zero   RW          282    STACK               startup_hc32l13x.o


==============================================================================

Image component sizes


      Code (inc. data)   RO Data    RW Data    ZI Data      Debug   Object Name

       268         12          0          0          0      11377   adc.o
        28          6          0          0          0        432   bgr.o
       104         18          0          0          0       1337   board.o
       324         34          0          0          0      10221   bt.o
       122         10          0          4          0       1652   clock.o
       202         38         16          0        376       5616   components.o
       216         32          0          0          0        836   context_rvds.o
       304        166          0         12          0       2970   cpuport.o
       476         20          0          0          0     115116   datadeal.o
       204         14          0          0          0       3554   ddl.o
       228         30          0          0          0       5714   gpio.o
      1436        112          0          0          0      11644   hdee.o
       228         36          0          0        248       5850   idle.o
       432         18          0          0          0     144370   interrupts_hc32l13x.o
       384          0          0          0          0       7849   ipc.o
        64         12          0          1          0       1498   irq.o
      1784        168        290          0        128       9003   kservice.o
        36          6          0          0          0        444   lpm.o
       244          0          0          0          0       3692   lptim.o
       206          6         12          0          0       5236   lpuart.o
        20          6          0          0          0        403   lvd.o
      2776        308          0         13       1411      12960   main.o
      2818        104        404          3        104       5401   myadc.o
       940         38          0          1          0       3319   mybt.o
       156         14          0          0          0       2288   mycrc.o
       894         50          0          0          0       4939   myinit.o
       440         34          0          3          0       2293   mykey.o
         8          0          0          0          0        425   mylvd.o
       528         50          0          2          0       7337   myrtc.o
       748         76          0         24         20       4410   mytimer.o
       260         28          0          1         60       2051   myuart.o
       194          4          0         64          0       6100   object.o
       460         34          0          0          0       5180   rtc.o
       538         94          0         24         32       8206   scheduler.o
        60         22        192          0       2048        612   startup_hc32l13x.o
       860         82         24          0          0       5659   sysctrl.o
        56          4          0          4          0       1155   system_hc32l13x.o
       708         40          0          0          0      10389   thread.o
       742         26          0         12          0      10648   timer.o
       100         16          0          0          0       2349   wdt.o

    ----------------------------------------------------------------------
     20638       1768        972        176       4432     444535   Object Totals
         0          0         32          0          0          0   (incl. Generated)
        42          0          2          8          5          0   (incl. Padding)

    ----------------------------------------------------------------------

      Code (inc. data)   RO Data    RW Data    ZI Data      Debug   Library Member Name

         0          0          0          0          0          0   entry.o
         0          0          0          0          0          0   entry10a.o
         0          0          0          0          0          0   entry11a.o
         8          4          0          0          0          0   entry2.o
         4          0          0          0          0          0   entry5.o
         0          0          0          0          0          0   entry7b.o
         0          0          0          0          0          0   entry8b.o
         8          4          0          0          0          0   entry9a.o
        30          0          0          0          0          0   handlers.o
        40          0          0          0          0         72   idiv.o
        36          8          0          0          0         68   init.o
         0          0          0          0          0          0   iusefp.o
        32          0          0          0          0         68   llshl.o
        38          0          0          0          0         68   llsshr.o
        34          0          0          0          0         68   llushr.o
        36          0          0          0          0         60   memcpya.o
        36          0          0          0          0        100   memseta.o
        44          0          0          0          0         72   uidiv.o
       356          4          0          0          0        140   dadd.o
       240          6          0          0          0         84   ddiv.o
       236          0          0          0          0        216   depilogue.o
        60         10          0          0          0         68   dfixui.o
        40          6          0          0          0         68   dflti.o
        28          4          0          0          0         68   dfltui.o

    ----------------------------------------------------------------------
      1310         46          0          0          0       1220   Library Totals
         4          0          0          0          0          0   (incl. Padding)

    ----------------------------------------------------------------------

      Code (inc. data)   RO Data    RW Data    ZI Data      Debug   Library Name

       346         16          0          0          0        576   mc_p.l
       960         30          0          0          0        644   mf_p.l

    ----------------------------------------------------------------------
      1310         46          0          0          0       1220   Library Totals

    ----------------------------------------------------------------------

==============================================================================


      Code (inc. data)   RO Data    RW Data    ZI Data      Debug   

     21948       1814        972        176       4432     435031   Grand Totals
     21948       1814        972        176       4432     435031   ELF Image Totals
     21948       1814        972        176          0          0   ROM Totals

==============================================================================

    Total RO  Size (Code + RO Data)                22920 (  22.38kB)
    Total RW  Size (RW Data + ZI Data)              4608 (   4.50kB)
    Total ROM Size (Code + RO Data + RW Data)      23096 (  22.55kB)

==============================================================================

