Component: ARM Compiler 5.06 update 6 (build 750) Tool: armlink [4d35ed]

==============================================================================

Section Cross References

    interrupts_hc32l13x.o(i.ADC_IRQHandler) refers (Weak) to myadc.o(i.Adc_IRQHandler) for Adc_IRQHandler
    interrupts_hc32l13x.o(i.LPTIM_IRQHandler) refers (Weak) to mylptimer.o(i.LpTim_IRQHandler) for LpTim_IRQHandler
    interrupts_hc32l13x.o(i.LPUART1_IRQHandler) refers (Weak) to myuart.o(i.LpUart1_IRQHandler) for LpUart1_IRQHandler
    interrupts_hc32l13x.o(i.LVD_IRQHandler) refers (Weak) to mylvd.o(i.Lvd_IRQHandler) for Lvd_IRQHandler
    interrupts_hc32l13x.o(i.PCNT_IRQHandler) refers (Weak) to mypcnt.o(i.Pcnt_IRQHandler) for Pcnt_IRQHandler
    interrupts_hc32l13x.o(i.RTC_IRQHandler) refers (Weak) to myrtc.o(i.Rtc_IRQHandler) for Rtc_IRQHandler
    interrupts_hc32l13x.o(i.SPI0_IRQHandler) refers (Weak) to myspi.o(i.Spi0_IRQHandler) for Spi0_IRQHandler
    interrupts_hc32l13x.o(i.SysTick_Handler) refers to tos_sys.o(i.tos_knl_is_running) for tos_knl_is_running
    interrupts_hc32l13x.o(i.SysTick_Handler) refers to tos_sys.o(i.tos_knl_irq_enter) for tos_knl_irq_enter
    interrupts_hc32l13x.o(i.SysTick_Handler) refers to tos_tick.o(i.tos_tick_handler) for tos_tick_handler
    interrupts_hc32l13x.o(i.SysTick_Handler) refers to tos_sys.o(i.tos_knl_irq_leave) for tos_knl_irq_leave
    interrupts_hc32l13x.o(i.TIM0_IRQHandler) refers (Weak) to mybt.o(i.Tim0_IRQHandler) for Tim0_IRQHandler
    system_hc32l13x.o(i.SystemCoreClockUpdate) refers to sysctrl.o(i.Sysctrl_GetHClkFreq) for Sysctrl_GetHClkFreq
    system_hc32l13x.o(i.SystemCoreClockUpdate) refers to system_hc32l13x.o(.data) for .data
    system_hc32l13x.o(i.SystemInit) refers to sysctrl.o(i.Sysctrl_SetRCLTrim) for Sysctrl_SetRCLTrim
    system_hc32l13x.o(i.SystemInit) refers to sysctrl.o(i.Sysctrl_ClkSourceEnable) for Sysctrl_ClkSourceEnable
    system_hc32l13x.o(i.SystemInit) refers to sysctrl.o(i.Sysctrl_SysClkSwitch) for Sysctrl_SysClkSwitch
    system_hc32l13x.o(i.SystemInit) refers to sysctrl.o(i.Sysctrl_SetRCHTrim) for Sysctrl_SetRCHTrim
==============================================================================

Removing Unused input sections from the image.

    Removing interrupts_hc32l13x.o(.rev16_text), (4 bytes).
    Removing interrupts_hc32l13x.o(.revsh_text), (4 bytes).
    Removing interrupts_hc32l13x.o(i.EnableNvic), (128 bytes).
    Removing system_hc32l13x.o(.rev16_text), (4 bytes).
    Removing system_hc32l13x.o(.revsh_text), (4 bytes).
    Removing startup_hc32l13x.o(HEAP), (256 bytes).
    Removing adc.o(.rev16_text), (4 bytes).
    Removing adc.o(.revsh_text), (4 bytes).
    Removing adc.o(i.Adc_CfgJqrChannel), (80 bytes).
    Removing adc.o(i.Adc_CfgSglChannel), (28 bytes).
    Removing adc.o(i.Adc_CfgSqrChannel), (248 bytes).
    Removing adc.o(i.Adc_ClrAccResult), (16 bytes).
    Removing adc.o(i.Adc_Disable), (16 bytes).
    Removing adc.o(i.Adc_DisableIrq), (16 bytes).
    Removing adc.o(i.Adc_Enable), (16 bytes).
    Removing adc.o(i.Adc_EnableIrq), (16 bytes).
    Removing adc.o(i.Adc_GetAccResult), (12 bytes).
    Removing adc.o(i.Adc_GetJqrResult), (12 bytes).
==============================================================================

Image Symbol Table

    Local Symbols

    Symbol Name                              Value     Ov Type        Size  Object(Section)

    RESET                                    0x00000000   Section      192  startup_hc32l13x.o(RESET)
    ../clib/microlib/division.c              0x00000000   Number         0  uidiv.o ABSOLUTE
    ../clib/microlib/division.c              0x00000000   Number         0  uldiv.o ABSOLUTE
    ../clib/microlib/init/entry.s            0x00000000   Number         0  entry7a.o ABSOLUTE
    ../clib/microlib/init/entry.s            0x00000000   Number         0  entry9a.o ABSOLUTE
    ../clib/microlib/init/entry.s            0x00000000   Number         0  entry8b.o ABSOLUTE
    ../clib/microlib/init/entry.s            0x00000000   Number         0  entry8a.o ABSOLUTE
    ../clib/microlib/init/entry.s            0x00000000   Number         0  entry7b.o ABSOLUTE
    ../clib/microlib/init/entry.s            0x00000000   Number         0  entry10b.o ABSOLUTE
    ../clib/microlib/init/entry.s            0x00000000   Number         0  entry.o ABSOLUTE
    ../clib/microlib/init/entry.s            0x00000000   Number         0  entry5.o ABSOLUTE
    ../clib/microlib/init/entry.s            0x00000000   Number         0  entry11b.o ABSOLUTE
    ../clib/microlib/init/entry.s            0x00000000   Number         0  entry11a.o ABSOLUTE
    ../clib/microlib/init/entry.s            0x00000000   Number         0  entry2.o ABSOLUTE
    ../clib/microlib/init/entry.s            0x00000000   Number         0  entry10a.o ABSOLUTE
    ../clib/microlib/init/entry.s            0x00000000   Number         0  entry9b.o ABSOLUTE
    ../clib/microlib/longlong.c              0x00000000   Number         0  llushr.o ABSOLUTE
    ../clib/microlib/longlong.c              0x00000000   Number         0  llshl.o ABSOLUTE
    ../clib/microlib/longlong.c              0x00000000   Number         0  llsshr.o ABSOLUTE
    ../clib/microlib/longlong.c              0x00000000   Number         0  llmul.o ABSOLUTE
    ../clib/microlib/printf/printf.c         0x00000000   Number         0  printfb.o ABSOLUTE
    ../clib/microlib/printf/printf.c         0x00000000   Number         0  printf7.o ABSOLUTE
    ../clib/microlib/printf/printf.c         0x00000000   Number         0  printf6.o ABSOLUTE
    ../clib/microlib/printf/printf.c         0x00000000   Number         0  printf5.o ABSOLUTE
    ../clib/microlib/printf/printf.c         0x00000000   Number         0  printf4.o ABSOLUTE
    ../clib/microlib/printf/printf.c         0x00000000   Number         0  printf3.o ABSOLUTE
    ../clib/microlib/printf/printf.c         0x00000000   Number         0  printf2.o ABSOLUTE
    ../clib/microlib/printf/printf.c         0x00000000   Number         0  printf1.o ABSOLUTE
    ../clib/microlib/printf/printf.c         0x00000000   Number         0  printf0.o ABSOLUTE
    ../clib/microlib/printf/printf.c         0x00000000   Number         0  printfa.o ABSOLUTE
    ../clib/microlib/printf/printf.c         0x00000000   Number         0  printf8.o ABSOLUTE
    ../clib/microlib/printf/stubs.s          0x00000000   Number         0  stubs.o ABSOLUTE
    ../clib/microlib/string/memcpy.c         0x00000000   Number         0  memcpyb.o ABSOLUTE
    ../clib/microlib/string/memcpy.c         0x00000000   Number         0  memcpya.o ABSOLUTE
    ../clib/microlib/string/memset.c         0x00000000   Number         0  memseta.o ABSOLUTE
    ../clib/microlib/stubs.s                 0x00000000   Number         0  iusefp.o ABSOLUTE
    ../clib/microlib/stubs.s                 0x00000000   Number         0  useno.o ABSOLUTE
    ../fplib/microlib/fpadd.c                0x00000000   Number         0  dadd.o ABSOLUTE
    ../fplib/microlib/fpdiv.c                0x00000000   Number         0  ddiv.o ABSOLUTE
    ../fplib/microlib/fpepilogue.c           0x00000000   Number         0  depilogue.o ABSOLUTE
    ../fplib/microlib/fpfix.c                0x00000000   Number         0  dfixul.o ABSOLUTE
    ../fplib/microlib/fpmul.c                0x00000000   Number         0  dmul.o ABSOLUTE
    ..\TencentOS\arch\arm\arm-v7m\common\tos_cpu.c 0x00000000   Number         0  tos_cpu.o ABSOLUTE
    ..\TencentOS\arch\arm\arm-v7m\common\tos_fault.c 0x00000000   Number         0  tos_fault.o ABSOLUTE
    ..\TencentOS\arch\arm\arm-v7m\cortex-m0+\armcc\port_c.c 0x00000000   Number         0  port_c.o ABSOLUTE
    ..\TencentOS\arch\arm\arm-v7m\cortex-m0+\armcc\port_s.S 0x00000000   Number         0  port_s.o ABSOLUTE
    ..\TencentOS\kernel\core\tos_event.c     0x00000000   Number         0  tos_event.o ABSOLUTE
    ..\TencentOS\kernel\core\tos_fifo.c      0x00000000   Number         0  tos_fifo.o ABSOLUTE
    ..\TencentOS\kernel\core\tos_global.c    0x00000000   Number         0  tos_global.o ABSOLUTE
    ..\TencentOS\kernel\core\tos_mmblk.c     0x00000000   Number         0  tos_mmblk.o ABSOLUTE
    ..\TencentOS\kernel\core\tos_mmheap.c    0x00000000   Number         0  tos_mmheap.o ABSOLUTE
    ..\TencentOS\kernel\core\tos_msg.c       0x00000000   Number         0  tos_msg.o ABSOLUTE
    ..\TencentOS\kernel\core\tos_mutex.c     0x00000000   Number         0  tos_mutex.o ABSOLUTE
    ..\TencentOS\kernel\core\tos_pend.c      0x00000000   Number         0  tos_pend.o ABSOLUTE
    ..\TencentOS\kernel\core\tos_queue.c     0x00000000   Number         0  tos_queue.o ABSOLUTE
    ..\TencentOS\kernel\core\tos_robin.c     0x00000000   Number         0  tos_robin.o ABSOLUTE
    ..\TencentOS\kernel\core\tos_sched.c     0x00000000   Number         0  tos_sched.o ABSOLUTE
    ..\TencentOS\kernel\core\tos_sem.c       0x00000000   Number         0  tos_sem.o ABSOLUTE
    ..\TencentOS\kernel\core\tos_sys.c       0x00000000   Number         0  tos_sys.o ABSOLUTE
    ..\TencentOS\kernel\core\tos_task.c      0x00000000   Number         0  tos_task.o ABSOLUTE
    ..\TencentOS\kernel\core\tos_tick.c      0x00000000   Number         0  tos_tick.o ABSOLUTE
    ..\TencentOS\kernel\core\tos_time.c      0x00000000   Number         0  tos_time.o ABSOLUTE
    ..\TencentOS\kernel\core\tos_timer.c     0x00000000   Number         0  tos_timer.o ABSOLUTE
    ..\TencentOS\kernel\pm\tos_pm.c          0x00000000   Number         0  tos_pm.o ABSOLUTE
    ..\TencentOS\kernel\pm\tos_tickless.c    0x00000000   Number         0  tos_tickless.o ABSOLUTE
    ..\\TencentOS\\arch\\arm\\arm-v7m\\common\\tos_cpu.c 0x00000000   Number         0  tos_cpu.o ABSOLUTE
    ..\\TencentOS\\arch\\arm\\arm-v7m\\common\\tos_fault.c 0x00000000   Number         0  tos_fault.o ABSOLUTE
    ..\\TencentOS\\arch\\arm\\arm-v7m\\cortex-m0+\\armcc\\port_c.c 0x00000000   Number         0  port_c.o ABSOLUTE
    ..\\TencentOS\\kernel\\core\\tos_event.c 0x00000000   Number         0  tos_event.o ABSOLUTE
    ..\\TencentOS\\kernel\\core\\tos_fifo.c  0x00000000   Number         0  tos_fifo.o ABSOLUTE
    ..\\TencentOS\\kernel\\core\\tos_global.c 0x00000000   Number         0  tos_global.o ABSOLUTE
    ..\\TencentOS\\kernel\\core\\tos_mmblk.c 0x00000000   Number         0  tos_mmblk.o ABSOLUTE
    ..\\TencentOS\\kernel\\core\\tos_mmheap.c 0x00000000   Number         0  tos_mmheap.o ABSOLUTE
    ..\\TencentOS\\kernel\\core\\tos_msg.c   0x00000000   Number         0  tos_msg.o ABSOLUTE
    ..\\TencentOS\\kernel\\core\\tos_mutex.c 0x00000000   Number         0  tos_mutex.o ABSOLUTE
    ..\\TencentOS\\kernel\\core\\tos_pend.c  0x00000000   Number         0  tos_pend.o ABSOLUTE
    ..\\TencentOS\\kernel\\core\\tos_queue.c 0x00000000   Number         0  tos_queue.o ABSOLUTE
    ..\\TencentOS\\kernel\\core\\tos_robin.c 0x00000000   Number         0  tos_robin.o ABSOLUTE
    ..\\TencentOS\\kernel\\core\\tos_sched.c 0x00000000   Number         0  tos_sched.o ABSOLUTE
    ..\\TencentOS\\kernel\\core\\tos_sem.c   0x00000000   Number         0  tos_sem.o ABSOLUTE
    ..\\TencentOS\\kernel\\core\\tos_sys.c   0x00000000   Number         0  tos_sys.o ABSOLUTE
    ..\\TencentOS\\kernel\\core\\tos_task.c  0x00000000   Number         0  tos_task.o ABSOLUTE
    ..\\TencentOS\\kernel\\core\\tos_tick.c  0x00000000   Number         0  tos_tick.o ABSOLUTE
    ..\\TencentOS\\kernel\\core\\tos_time.c  0x00000000   Number         0  tos_time.o ABSOLUTE
    ..\\TencentOS\\kernel\\core\\tos_timer.c 0x00000000   Number         0  tos_timer.o ABSOLUTE
    ..\\TencentOS\\kernel\\pm\\tos_pm.c      0x00000000   Number         0  tos_pm.o ABSOLUTE
    ..\\TencentOS\\kernel\\pm\\tos_tickless.c 0x00000000   Number         0  tos_tickless.o ABSOLUTE
    ..\\common\\interrupts_hc32l13x.c        0x00000000   Number         0  interrupts_hc32l13x.o ABSOLUTE
    ..\\common\\system_hc32l13x.c            0x00000000   Number         0  system_hc32l13x.o ABSOLUTE
    ..\\driver\\src\\adc.c                   0x00000000   Number         0  adc.o ABSOLUTE
    ..\\driver\\src\\bgr.c                   0x00000000   Number         0  bgr.o ABSOLUTE
    ..\\driver\\src\\bt.c                    0x00000000   Number         0  bt.o ABSOLUTE
    ..\\driver\\src\\ddl.c                   0x00000000   Number         0  ddl.o ABSOLUTE
    ..\\driver\\src\\flash.c                 0x00000000   Number         0  flash.o ABSOLUTE
    ..\\driver\\src\\gpio.c                  0x00000000   Number         0  gpio.o ABSOLUTE
    ..\\driver\\src\\hdiv.c                  0x00000000   Number         0  hdiv.o ABSOLUTE
    ..\\driver\\src\\i2c.c                   0x00000000   Number         0  i2c.o ABSOLUTE
    ..\\driver\\src\\lcd.c                   0x00000000   Number         0  lcd.o ABSOLUTE
    ..\\driver\\src\\lpm.c                   0x00000000   Number         0  lpm.o ABSOLUTE
    ..\\driver\\src\\lptim.c                 0x00000000   Number         0  lptim.o ABSOLUTE
    ..\\driver\\src\\lpuart.c                0x00000000   Number         0  lpuart.o ABSOLUTE
    ..\\driver\\src\\lvd.c                   0x00000000   Number         0  lvd.o ABSOLUTE
    ..\\driver\\src\\pcnt.c                  0x00000000   Number         0  pcnt.o ABSOLUTE
    ..\\driver\\src\\ram.c                   0x00000000   Number         0  ram.o ABSOLUTE
    ..\\driver\\src\\rtc.c                   0x00000000   Number         0  rtc.o ABSOLUTE
    ..\\driver\\src\\spi.c                   0x00000000   Number         0  spi.o ABSOLUTE
    ..\\driver\\src\\sysctrl.c               0x00000000   Number         0  sysctrl.o ABSOLUTE
    ..\\driver\\src\\uart.c                  0x00000000   Number         0  uart.o ABSOLUTE
    ..\\driver\\src\\vc.c                    0x00000000   Number         0  vc.o ABSOLUTE
    ..\\driver\\src\\wdt.c                   0x00000000   Number         0  wdt.o ABSOLUTE
    ..\\hardware\\myADC.c                    0x00000000   Number         0  myadc.o ABSOLUTE
    ..\\hardware\\myBT.c                     0x00000000   Number         0  mybt.o ABSOLUTE
    ..\\hardware\\myCRC.c                    0x00000000   Number         0  mycrc.o ABSOLUTE
    ..\\hardware\\myESP8266.c                0x00000000   Number         0  myesp8266.o ABSOLUTE
    ..\\hardware\\myFLASH.c                  0x00000000   Number         0  myflash.o ABSOLUTE
    ..\\hardware\\myGPIO.c                   0x00000000   Number         0  mygpio.o ABSOLUTE
    ..\\hardware\\myInit.c                   0x00000000   Number         0  myinit.o ABSOLUTE
    ..\\hardware\\myLCD.c                    0x00000000   Number         0  mylcd.o ABSOLUTE
    ..\\hardware\\myLptimer.c                0x00000000   Number         0  mylptimer.o ABSOLUTE
    ..\\hardware\\myLvd.c                    0x00000000   Number         0  mylvd.o ABSOLUTE
    ..\\hardware\\myPcnt.c                   0x00000000   Number         0  mypcnt.o ABSOLUTE
    ..\\hardware\\myRtc.c                    0x00000000   Number         0  myrtc.o ABSOLUTE
    ..\\hardware\\mySPI.c                    0x00000000   Number         0  myspi.o ABSOLUTE
    ..\\hardware\\myTimer.c                  0x00000000   Number         0  mytimer.o ABSOLUTE
    ..\\hardware\\myUart.c                   0x00000000   Number         0  myuart.o ABSOLUTE
    ..\\hardware\\myWdt.c                    0x00000000   Number         0  mywdt.o ABSOLUTE
    ..\\source\\main.c                       0x00000000   Number         0  main.o ABSOLUTE
    ..\\source\\my_debug.c                   0x00000000   Number         0  my_debug.o ABSOLUTE
    ..\common\interrupts_hc32l13x.c          0x00000000   Number         0  interrupts_hc32l13x.o ABSOLUTE
    ..\common\startup_hc32l13x.s             0x00000000   Number         0  startup_hc32l13x.o ABSOLUTE
    ..\common\system_hc32l13x.c              0x00000000   Number         0  system_hc32l13x.o ABSOLUTE
    ..\driver\src\adc.c                      0x00000000   Number         0  adc.o ABSOLUTE
    ..\driver\src\bgr.c                      0x00000000   Number         0  bgr.o ABSOLUTE
    ..\driver\src\bt.c                       0x00000000   Number         0  bt.o ABSOLUTE
    ..\driver\src\ddl.c                      0x00000000   Number         0  ddl.o ABSOLUTE
    ..\driver\src\flash.c                    0x00000000   Number         0  flash.o ABSOLUTE
    ..\driver\src\gpio.c                     0x00000000   Number         0  gpio.o ABSOLUTE
    ..\driver\src\hdiv.c                     0x00000000   Number         0  hdiv.o ABSOLUTE
    ..\driver\src\i2c.c                      0x00000000   Number         0  i2c.o ABSOLUTE
    ..\driver\src\lcd.c                      0x00000000   Number         0  lcd.o ABSOLUTE
    ..\driver\src\lpm.c                      0x00000000   Number         0  lpm.o ABSOLUTE
    ..\driver\src\lptim.c                    0x00000000   Number         0  lptim.o ABSOLUTE
    ..\driver\src\lpuart.c                   0x00000000   Number         0  lpuart.o ABSOLUTE
    ..\driver\src\lvd.c                      0x00000000   Number         0  lvd.o ABSOLUTE
    ..\driver\src\pcnt.c                     0x00000000   Number         0  pcnt.o ABSOLUTE
    ..\driver\src\ram.c                      0x00000000   Number         0  ram.o ABSOLUTE
    ..\driver\src\rtc.c                      0x00000000   Number         0  rtc.o ABSOLUTE
    ..\driver\src\spi.c                      0x00000000   Number         0  spi.o ABSOLUTE
    ..\driver\src\sysctrl.c                  0x00000000   Number         0  sysctrl.o ABSOLUTE
    ..\driver\src\uart.c                     0x00000000   Number         0  uart.o ABSOLUTE
    ..\driver\src\vc.c                       0x00000000   Number         0  vc.o ABSOLUTE
    ..\driver\src\wdt.c                      0x00000000   Number         0  wdt.o ABSOLUTE
    ..\hardware\myADC.c                      0x00000000   Number         0  myadc.o ABSOLUTE
    ..\hardware\myBT.c                       0x00000000   Number         0  mybt.o ABSOLUTE
    ..\hardware\myCRC.c                      0x00000000   Number         0  mycrc.o ABSOLUTE
    ..\hardware\myESP8266.c                  0x00000000   Number         0  myesp8266.o ABSOLUTE
    ..\hardware\myFLASH.c                    0x00000000   Number         0  myflash.o ABSOLUTE
    ..\hardware\myGPIO.c                     0x00000000   Number         0  mygpio.o ABSOLUTE
    ..\hardware\myInit.c                     0x00000000   Number         0  myinit.o ABSOLUTE
    ..\hardware\myLCD.c                      0x00000000   Number         0  mylcd.o ABSOLUTE
    ..\hardware\myLptimer.c                  0x00000000   Number         0  mylptimer.o ABSOLUTE
    ..\hardware\myLvd.c                      0x00000000   Number         0  mylvd.o ABSOLUTE
    ..\hardware\myPcnt.c                     0x00000000   Number         0  mypcnt.o ABSOLUTE
    ..\hardware\myRtc.c                      0x00000000   Number         0  myrtc.o ABSOLUTE
    ..\hardware\mySPI.c                      0x00000000   Number         0  myspi.o ABSOLUTE
    ..\hardware\myTimer.c                    0x00000000   Number         0  mytimer.o ABSOLUTE
    ..\hardware\myUart.c                     0x00000000   Number         0  myuart.o ABSOLUTE
    ..\hardware\myWdt.c                      0x00000000   Number         0  mywdt.o ABSOLUTE
    ..\source\main.c                         0x00000000   Number         0  main.o ABSOLUTE
    ..\source\my_debug.c                     0x00000000   Number         0  my_debug.o ABSOLUTE
    cdrcmple.s                               0x00000000   Number         0  cdrcmple.o ABSOLUTE
    dc.s                                     0x00000000   Number         0  dc.o ABSOLUTE
    handlers.s                               0x00000000   Number         0  handlers.o ABSOLUTE
    init.s                                   0x00000000   Number         0  init.o ABSOLUTE
    .ARM.Collect$$$$00000000                 0x000000c0   Section        0  entry.o(.ARM.Collect$$$$00000000)
    .ARM.Collect$$$$00000001                 0x000000c0   Section        4  entry2.o(.ARM.Collect$$$$00000001)
    .ARM.Collect$$$$00000004                 0x000000c4   Section        4  entry5.o(.ARM.Collect$$$$00000004)
    .ARM.Collect$$$$00000008                 0x000000c8   Section        0  entry7b.o(.ARM.Collect$$$$00000008)
    .ARM.Collect$$$$0000000A                 0x000000c8   Section        0  entry8b.o(.ARM.Collect$$$$0000000A)
    .ARM.Collect$$$$0000000B                 0x000000c8   Section        8  entry9a.o(.ARM.Collect$$$$0000000B)
    .ARM.Collect$$$$0000000D                 0x000000d0   Section        0  entry10a.o(.ARM.Collect$$$$0000000D)
    .ARM.Collect$$$$0000000F                 0x000000d0   Section        0  entry11a.o(.ARM.Collect$$$$0000000F)
    .ARM.Collect$$$$00002712                 0x000000d0   Section        4  entry2.o(.ARM.Collect$$$$00002712)
    __lit__00000000                          0x000000d0   Data           4  entry2.o(.ARM.Collect$$$$00002712)
    .text                                    0x000000d4   Section       60  startup_hc32l13x.o(.text)
    .text                                    0x00000110   Section      156  port_s.o(.text)
    .text                                    0x000001ac   Section        0  uidiv.o(.text)
    .text                                    0x000001d8   Section        0  uldiv.o(.text)
    .text                                    0x00000238   Section        0  memcpya.o(.text)
    .text                                    0x0000025c   Section        0  llshl.o(.text)
    .text                                    0x0000027c   Section        0  llushr.o(.text)
    .text                                    0x000002a0   Section       36  init.o(.text)
    i.ADC_IRQHandler                         0x000002c4   Section        0  interrupts_hc32l13x.o(i.ADC_IRQHandler)
    i.Adc_ClrIrqStatus                       0x000002cc   Section        0  adc.o(i.Adc_ClrIrqStatus)
    i.Adc_GetIrqStatus                       0x000002dc   Section        0  adc.o(i.Adc_GetIrqStatus)
    i.Adc_GetSqrResult                       0x000002f0   Section        0  adc.o(i.Adc_GetSqrResult)
    i.Adc_IRQHandler                         0x000002fc   Section        0  myadc.o(i.Adc_IRQHandler)
    i.Bt_ClearIntFlag                        0x00000330   Section        0  bt.o(i.Bt_ClearIntFlag)
    i.Bt_GetIntFlag                          0x00000348   Section        0  bt.o(i.Bt_GetIntFlag)
    i.Bt_M0_Stop                             0x0000035c   Section        0  bt.o(i.Bt_M0_Stop)
    i.BufferNext                             0x00000374   Section        0  myuart.o(i.BufferNext)
    BufferNext                               0x00000375   Thumb Code    16  myuart.o(i.BufferNext)
    i.CLKTRIM_IRQHandler                     0x00000384   Section        0  interrupts_hc32l13x.o(i.CLKTRIM_IRQHandler)
    i.DMAC_IRQHandler                        0x0000038c   Section        0  interrupts_hc32l13x.o(i.DMAC_IRQHandler)
    i.FLASH_RAM_IRQHandler                   0x00000394   Section        0  interrupts_hc32l13x.o(i.FLASH_RAM_IRQHandler)
    i.Flash_LockAll                          0x000003a0   Section        0  flash.o(i.Flash_LockAll)
    i.Flash_SectorErase                      0x000003bc   Section        0  flash.o(i.Flash_SectorErase)
    i.Flash_UnlockAll                        0x00000440   Section        0  flash.o(i.Flash_UnlockAll)
    i.Flash_WriteByte                        0x00000460   Section        0  flash.o(i.Flash_WriteByte)
    i.Flash_WriteWord                        0x000004e8   Section        0  flash.o(i.Flash_WriteWord)
    i.GetBit                                 0x00000570   Section        0  ddl.o(i.GetBit)
    i.Gpio_ClrIO                             0x0000057c   Section        0  gpio.o(i.Gpio_ClrIO)
    i.Gpio_Init                              0x00000590   Section        0  gpio.o(i.Gpio_Init)
    i.Gpio_SetIO                             0x00000618   Section        0  gpio.o(i.Gpio_SetIO)
    i.I2C0_IRQHandler                        0x0000062c   Section        0  interrupts_hc32l13x.o(i.I2C0_IRQHandler)
    i.I2C1_IRQHandler                        0x00000634   Section        0  interrupts_hc32l13x.o(i.I2C1_IRQHandler)
    i.LCD_IRQHandler                         0x0000063c   Section        0  interrupts_hc32l13x.o(i.LCD_IRQHandler)
    i.LPTIM_IRQHandler                       0x00000644   Section        0  interrupts_hc32l13x.o(i.LPTIM_IRQHandler)
    i.LPUART0_IRQHandler                     0x0000064c   Section        0  interrupts_hc32l13x.o(i.LPUART0_IRQHandler)
    i.LPUART1_IRQHandler                     0x00000654   Section        0  interrupts_hc32l13x.o(i.LPUART1_IRQHandler)
    i.LPUart_ClrStatus                       0x0000065c   Section        0  lpuart.o(i.LPUart_ClrStatus)
    i.LPUart_GetStatus                       0x0000066a   Section        0  lpuart.o(i.LPUart_GetStatus)
    i.LPUart_ReceiveData                     0x00000674   Section        0  lpuart.o(i.LPUart_ReceiveData)
    i.LVD_IRQHandler                         0x0000067a   Section        0  interrupts_hc32l13x.o(i.LVD_IRQHandler)
    i.LpTim_IRQHandler                       0x00000684   Section        0  mylptimer.o(i.LpTim_IRQHandler)
    i.LpUart1_IRQHandler                     0x000006b8   Section        0  myuart.o(i.LpUart1_IRQHandler)
    i.Lptim_ClrItStatus                      0x00000708   Section        0  lptim.o(i.Lptim_ClrItStatus)
    i.Lptim_GetItStatus                      0x00000716   Section        0  lptim.o(i.Lptim_GetItStatus)
    i.Lvd_ClearIrq                           0x00000724   Section        0  lvd.o(i.Lvd_ClearIrq)
    i.Lvd_IRQHandler                         0x00000734   Section        0  mylvd.o(i.Lvd_IRQHandler)
    i.PCA_IRQHandler                         0x00000754   Section        0  interrupts_hc32l13x.o(i.PCA_IRQHandler)
    i.PCNT_IRQHandler                        0x0000075c   Section        0  interrupts_hc32l13x.o(i.PCNT_IRQHandler)
    i.Pcnt_ClrItStatus                       0x00000764   Section        0  pcnt.o(i.Pcnt_ClrItStatus)
    i.Pcnt_GetItStatus                       0x00000778   Section        0  pcnt.o(i.Pcnt_GetItStatus)
    i.Pcnt_IRQHandler                        0x00000788   Section        0  mypcnt.o(i.Pcnt_IRQHandler)
    i.RTC_IRQHandler                         0x0000081c   Section        0  interrupts_hc32l13x.o(i.RTC_IRQHandler)
    i.Rtc_ClearPrdfItStatus                  0x00000824   Section        0  rtc.o(i.Rtc_ClearPrdfItStatus)
    i.Rtc_GetPridItStatus                    0x00000838   Section        0  rtc.o(i.Rtc_GetPridItStatus)
    i.Rtc_IRQHandler                         0x00000848   Section        0  myrtc.o(i.Rtc_IRQHandler)
    i.SPI0_IRQHandler                        0x0000085c   Section        0  interrupts_hc32l13x.o(i.SPI0_IRQHandler)
    i.SPI1_IRQHandler                        0x00000864   Section        0  interrupts_hc32l13x.o(i.SPI1_IRQHandler)
    i.SetBit                                 0x0000086c   Section        0  ddl.o(i.SetBit)
    i.Spi0_IRQHandler                        0x00000880   Section        0  myspi.o(i.Spi0_IRQHandler)
    i.Spi_ClearStatus                        0x000008c0   Section        0  spi.o(i.Spi_ClearStatus)
    i.Spi_GetStatus                          0x000008c8   Section        0  spi.o(i.Spi_GetStatus)
    i.SysTick_Handler                        0x000008d2   Section        0  interrupts_hc32l13x.o(i.SysTick_Handler)
    i.Sysctrl_ClkSourceEnable                0x000008ec   Section        0  sysctrl.o(i.Sysctrl_ClkSourceEnable)
    i.Sysctrl_GetHClkFreq                    0x000009b0   Section        0  sysctrl.o(i.Sysctrl_GetHClkFreq)
    i.Sysctrl_SetPeripheralGate              0x00000aec   Section        0  sysctrl.o(i.Sysctrl_SetPeripheralGate)
    i.Sysctrl_SetRCHTrim                     0x00000b00   Section        0  sysctrl.o(i.Sysctrl_SetRCHTrim)
    i.Sysctrl_SetRCLTrim                     0x00000b24   Section        0  sysctrl.o(i.Sysctrl_SetRCLTrim)
    i.Sysctrl_SysClkSwitch                   0x00000b48   Section        0  sysctrl.o(i.Sysctrl_SysClkSwitch)
    i.SystemCoreClockUpdate                  0x00000b70   Section        0  system_hc32l13x.o(i.SystemCoreClockUpdate)
    i.SystemInit                             0x00000b80   Section        0  system_hc32l13x.o(i.SystemInit)
    i.TIM0_IRQHandler                        0x00000bb0   Section        0  interrupts_hc32l13x.o(i.TIM0_IRQHandler)
    i.TIM1_IRQHandler                        0x00000bb8   Section        0  interrupts_hc32l13x.o(i.TIM1_IRQHandler)
    i.TIM2_IRQHandler                        0x00000bc0   Section        0  interrupts_hc32l13x.o(i.TIM2_IRQHandler)
    i.TIM3_IRQHandler                        0x00000bc8   Section        0  interrupts_hc32l13x.o(i.TIM3_IRQHandler)
    i.TIM4_IRQHandler                        0x00000bd0   Section        0  interrupts_hc32l13x.o(i.TIM4_IRQHandler)
    i.TIM5_IRQHandler                        0x00000bd8   Section        0  interrupts_hc32l13x.o(i.TIM5_IRQHandler)
    i.TIM6_IRQHandler                        0x00000be0   Section        0  interrupts_hc32l13x.o(i.TIM6_IRQHandler)
    i.Tim0_IRQHandler                        0x00000be8   Section        0  mybt.o(i.Tim0_IRQHandler)
    i.UART0_IRQHandler                       0x00000c06   Section        0  interrupts_hc32l13x.o(i.UART0_IRQHandler)
    i.UART1_IRQHandler                       0x00000c0e   Section        0  interrupts_hc32l13x.o(i.UART1_IRQHandler)
    i.VC0_IRQHandler                         0x00000c16   Section        0  interrupts_hc32l13x.o(i.VC0_IRQHandler)
    i.VC1_IRQHandler                         0x00000c1e   Section        0  interrupts_hc32l13x.o(i.VC1_IRQHandler)
    i.WDT_IRQHandler                         0x00000c26   Section        0  interrupts_hc32l13x.o(i.WDT_IRQHandler)
    i.Wdt_Feed                               0x00000c30   Section        0  wdt.o(i.Wdt_Feed)
    i.Wdt_Init                               0x00000c40   Section        0  wdt.o(i.Wdt_Init)
    i.Wdt_Start                              0x00000c64   Section        0  wdt.o(i.Wdt_Start)
    i.Wdt_WriteWdtLoad                       0x00000c74   Section        0  wdt.o(i.Wdt_WriteWdtLoad)
    i._SysctrlUnlock                         0x00000c8c   Section        0  sysctrl.o(i._SysctrlUnlock)
    _SysctrlUnlock                           0x00000c8d   Thumb Code    12  sysctrl.o(i._SysctrlUnlock)
    i.__0printf$3                            0x00000ca4   Section        0  printf3.o(i.__0printf$3)
    i.__ARM_common_switch8                   0x00000cc4   Section        0  adc.o(i.__ARM_common_switch8)
    i.__NVIC_SetPriority                     0x00000ce0   Section        0  port_c.o(i.__NVIC_SetPriority)
    __NVIC_SetPriority                       0x00000ce1   Thumb Code    60  port_c.o(i.__NVIC_SetPriority)
    i.__scatterload_copy                     0x00000d24   Section       14  handlers.o(i.__scatterload_copy)
    i.__scatterload_null                     0x00000d32   Section        2  handlers.o(i.__scatterload_null)
    i.__scatterload_zeroinit                 0x00000d34   Section       14  handlers.o(i.__scatterload_zeroinit)
    i._printf_core                           0x00000d44   Section        0  printf3.o(i._printf_core)
    _printf_core                             0x00000d45   Thumb Code   456  printf3.o(i._printf_core)
    i.cpu_context_switch                     0x00000f10   Section        0  tos_cpu.o(i.cpu_context_switch)
    i.cpu_init                               0x00000f18   Section        0  tos_cpu.o(i.cpu_init)
    i.cpu_irq_context_switch                 0x00000f44   Section        0  tos_cpu.o(i.cpu_irq_context_switch)
    i.cpu_sched_start                        0x00000f4c   Section        0  tos_cpu.o(i.cpu_sched_start)
    i.cpu_systick_init                       0x00000f50   Section        0  tos_cpu.o(i.cpu_systick_init)
    i.cpu_task_stk_init                      0x00000f64   Section        0  tos_cpu.o(i.cpu_task_stk_init)
    i.current_page                           0x00000ff4   Section        0  myflash.o(i.current_page)
    i.ddl_memclr                             0x00001008   Section        0  ddl.o(i.ddl_memclr)
    i.flash_eeprom_entry_write               0x0000101a   Section        0  myflash.o(i.flash_eeprom_entry_write)
    i.flash_eeprom_page_switch               0x000010d4   Section        0  myflash.o(i.flash_eeprom_page_switch)
    i.flash_eeprom_updata_alloc              0x0000117a   Section        0  myflash.o(i.flash_eeprom_updata_alloc)
    i.flash_eeprom_update_active_address     0x000011ae   Section        0  myflash.o(i.flash_eeprom_update_active_address)
    i.fputc                                  0x000011d0   Section        0  ddl.o(i.fputc)
    i.gpio_io_init                           0x000011d2   Section        0  mygpio.o(i.gpio_io_init)
    i.knl_idle_entry                         0x0000121a   Section        0  tos_sys.o(i.knl_idle_entry)
    knl_idle_entry                           0x0000121b   Thumb Code     2  tos_sys.o(i.knl_idle_entry)
    i.knl_idle_init                          0x0000121c   Section        0  tos_sys.o(i.knl_idle_init)
    i.knl_is_idle                            0x00001254   Section        0  tos_sys.o(i.knl_is_idle)
    i.knl_is_inirq                           0x00001268   Section        0  tos_sys.o(i.knl_is_inirq)
    i.knl_is_sched_locked                    0x00001278   Section        0  tos_sys.o(i.knl_is_sched_locked)
    i.knl_is_self                            0x00001288   Section        0  tos_sys.o(i.knl_is_self)
    i.knl_object_deinit                      0x0000129c   Section        0  tos_sys.o(i.knl_object_deinit)
    i.knl_object_init                        0x000012a4   Section        0  tos_sys.o(i.knl_object_init)
    i.knl_object_verify                      0x000012ac   Section        0  tos_sys.o(i.knl_object_verify)
    i.knl_sched                              0x000012bc   Section        0  tos_sys.o(i.knl_sched)
    i.main                                   0x00001300   Section        0  main.o(i.main)
    i.my_WDT_int                             0x0000139c   Section        0  mywdt.o(i.my_WDT_int)
    i.my_eeprom_write                        0x000013b0   Section        0  myflash.o(i.my_eeprom_write)
    i.my_gpio_init                           0x00001406   Section        0  mygpio.o(i.my_gpio_init)
    i.my_init                                0x00001416   Section        0  myinit.o(i.my_init)
    i.pend_list_remove                       0x00001424   Section        0  tos_pend.o(i.pend_list_remove)
    i.pend_task_wakeup                       0x0000143a   Section        0  tos_pend.o(i.pend_task_wakeup)
    i.port_systick_config                    0x00001468   Section        0  port_c.o(i.port_systick_config)
    i.port_systick_priority_set              0x00001490   Section        0  port_c.o(i.port_systick_priority_set)
    i.readyqueue_add                         0x000014a0   Section        0  tos_sched.o(i.readyqueue_add)
    i.readyqueue_add_head                    0x000014c0   Section        0  tos_sched.o(i.readyqueue_add_head)
    i.readyqueue_add_tail                    0x000014e8   Section        0  tos_sched.o(i.readyqueue_add_tail)
    i.readyqueue_first_task_get              0x00001510   Section        0  tos_sched.o(i.readyqueue_first_task_get)
    i.readyqueue_highest_ready_task_get      0x00001528   Section        0  tos_sched.o(i.readyqueue_highest_ready_task_get)
    i.readyqueue_init                        0x00001540   Section        0  tos_sched.o(i.readyqueue_init)
    i.readyqueue_is_prio_onlyone             0x00001578   Section        0  tos_sched.o(i.readyqueue_is_prio_onlyone)
    i.readyqueue_move_head_to_tail           0x00001594   Section        0  tos_sched.o(i.readyqueue_move_head_to_tail)
    i.readyqueue_prio_mark                   0x000015b8   Section        0  tos_sched.o(i.readyqueue_prio_mark)
    readyqueue_prio_mark                     0x000015b9   Thumb Code    44  tos_sched.o(i.readyqueue_prio_mark)
    i.readyqueue_remove                      0x000015e8   Section        0  tos_sched.o(i.readyqueue_remove)
    i.robin_sched                            0x00001644   Section        0  tos_robin.o(i.robin_sched)
    i.task_exit                              0x000016c4   Section        0  tos_task.o(i.task_exit)
    task_exit                                0x000016c5   Thumb Code    10  tos_task.o(i.task_exit)
    i.task_reset                             0x000016ce   Section        0  tos_task.o(i.task_reset)
    task_reset                               0x000016cf   Thumb Code    34  tos_task.o(i.task_reset)
    i.test_task                              0x000016f0   Section        0  main.o(i.test_task)
    i.tick_list_add                          0x0000171a   Section        0  tos_tick.o(i.tick_list_add)
    i.tick_list_remove                       0x0000174c   Section        0  tos_tick.o(i.tick_list_remove)
    i.tick_task_place                        0x000017b8   Section        0  tos_tick.o(i.tick_task_place)
    tick_task_place                          0x000017b9   Thumb Code   128  tos_tick.o(i.tick_task_place)
    i.tick_update                            0x0000183c   Section        0  tos_tick.o(i.tick_update)
    i.tos_cpu_clz                            0x000018ac   Section        0  tos_cpu.o(i.tos_cpu_clz)
    i.tos_cpu_cpsr_restore                   0x000018de   Section        0  tos_cpu.o(i.tos_cpu_cpsr_restore)
    i.tos_cpu_cpsr_save                      0x000018e6   Section        0  tos_cpu.o(i.tos_cpu_cpsr_save)
    i.tos_knl_init                           0x000018ee   Section        0  tos_sys.o(i.tos_knl_init)
    i.tos_knl_irq_enter                      0x00001900   Section        0  tos_sys.o(i.tos_knl_irq_enter)
    i.tos_knl_irq_leave                      0x00001920   Section        0  tos_sys.o(i.tos_knl_irq_leave)
    i.tos_knl_is_running                     0x0000197c   Section        0  tos_sys.o(i.tos_knl_is_running)
    i.tos_knl_start                          0x0000198c   Section        0  tos_sys.o(i.tos_knl_start)
    i.tos_list_empty                         0x000019c0   Section        0  tos_tick.o(i.tos_list_empty)
    tos_list_empty                           0x000019c1   Thumb Code    14  tos_tick.o(i.tos_list_empty)
    i.tos_task_create                        0x000019d0   Section        0  tos_task.o(i.tos_task_create)
    i.tos_task_delay                         0x00001a9c   Section        0  tos_task.o(i.tos_task_delay)
    i.tos_task_destroy                       0x00001b04   Section        0  tos_task.o(i.tos_task_destroy)
    i.tos_task_yield                         0x00001ba8   Section        0  tos_task.o(i.tos_task_yield)
    i.tos_tick_handler                       0x00001bd8   Section        0  tos_tick.o(i.tos_tick_handler)
    .constdata                               0x00001bfc   Section       24  sysctrl.o(.constdata)
    .constdata                               0x00001c14   Section        4  tos_global.o(.constdata)
    .constdata                               0x00001c18   Section        4  tos_global.o(.constdata)
    .data                                    0x20000000   Section        4  system_hc32l13x.o(.data)
    .data                                    0x20000004   Section        4  ddl.o(.data)
    .data                                    0x20000008   Section       16  myadc.o(.data)
    adc_ok                                   0x20000008   Data           4  myadc.o(.data)
    ch0                                      0x2000000c   Data           4  myadc.o(.data)
    ch1                                      0x20000010   Data           4  myadc.o(.data)
    ch2                                      0x20000014   Data           4  myadc.o(.data)
    .data                                    0x20000018   Section        4  mylvd.o(.data)
    .data                                    0x2000001c   Section        4  mypcnt.o(.data)
    .data                                    0x20000020   Section       20  myuart.o(.data)
    i                                        0x20000028   Data           4  myuart.o(.data)
    line_start_flag                          0x2000002c   Data           4  myuart.o(.data)
    data                                     0x20000030   Data           4  myuart.o(.data)
    .data                                    0x20000034   Section        8  myspi.o(.data)
    .data                                    0x2000003c   Section        1  tos_global.o(.data)
    .data                                    0x2000003d   Section        1  tos_global.o(.data)
    .data                                    0x2000003e   Section        1  tos_global.o(.data)
    .data                                    0x20000040   Section        8  tos_global.o(.data)
    .data                                    0x20000048   Section        4  tos_global.o(.data)
    .data                                    0x2000004c   Section        4  tos_global.o(.data)
    .data                                    0x20000050   Section        8  tos_global.o(.data)
    .data                                    0x20000058   Section        4  tos_global.o(.data)
    .data                                    0x2000005c   Section        8  tos_global.o(.data)
    .data                                    0x20000064   Section        4  tos_global.o(.data)
    .data                                    0x20000068   Section        1  tos_global.o(.data)
    .bss                                     0x2000006c   Section       32  myflash.o(.bss)
    .bss                                     0x2000008c   Section      200  mylptimer.o(.bss)
    my_timers                                0x2000008c   Data         200  mylptimer.o(.bss)
    .bss                                     0x20000154   Section      382  myuart.o(.bss)
    .bss                                     0x200002d8   Section      216  main.o(.bss)
    .bss                                     0x200003b0   Section      136  tos_global.o(.bss)
    .bss                                     0x20000438   Section       88  tos_global.o(.bss)
    .bss                                     0x20000490   Section       80  tos_global.o(.bss)
    STACK                                    0x200004e0   Section     2048  startup_hc32l13x.o(STACK)

    Global Symbols

    Symbol Name                              Value     Ov Type        Size  Object(Section)

    BuildAttributes$$THM_ISAv3M$S$PE$A:L22$X:L11$S22$IEEE1$IW$USESV6$~STKCKD$USESV7$~SHL$OSPACE$ROPI$EBA8$MICROLIB$REQ8$PRES8$EABIv2 0x00000000   Number         0  anon$$obj.o ABSOLUTE
    __ARM_use_no_argv                        0x00000000   Number         0  main.o ABSOLUTE
    __Vectors                                0x00000000   Data           0  startup_hc32l13x.o(RESET)
    __use_no_errno                           0x00000000   Number         0  useno.o ABSOLUTE
    __use_no_exception_handling              0x00000000   Number         0  useno.o ABSOLUTE
    __use_no_fp                              0x00000000   Number         0  useno.o ABSOLUTE
    __use_no_heap                            0x00000000   Number         0  useno.o ABSOLUTE
    __use_no_heap_region                     0x00000000   Number         0  useno.o ABSOLUTE
    __use_no_semihosting                     0x00000000   Number         0  useno.o ABSOLUTE
    __use_no_semihosting_swi                 0x00000000   Number         0  useno.o ABSOLUTE
    __use_no_signal_handling                 0x00000000   Number         0  useno.o ABSOLUTE
    _printf_a                                0x00000000   Number         0  stubs.o ABSOLUTE
    _printf_c                                0x00000000   Number         0  stubs.o ABSOLUTE
    _printf_charcount                        0x00000000   Number         0  stubs.o ABSOLUTE
    _printf_d                                0x00000000   Number         0  stubs.o ABSOLUTE
    _printf_e                                0x00000000   Number         0  stubs.o ABSOLUTE
    _printf_f                                0x00000000   Number         0  stubs.o ABSOLUTE
    _printf_flags                            0x00000000   Number         0  stubs.o ABSOLUTE
    _printf_fp_dec                           0x00000000   Number         0  stubs.o ABSOLUTE
    _printf_fp_hex                           0x00000000   Number         0  stubs.o ABSOLUTE
    _printf_g                                0x00000000   Number         0  stubs.o ABSOLUTE
    _printf_i                                0x00000000   Number         0  stubs.o ABSOLUTE
    _printf_int_dec                          0x00000000   Number         0  stubs.o ABSOLUTE
    _printf_l                                0x00000000   Number         0  stubs.o ABSOLUTE
    _printf_lc                               0x00000000   Number         0  stubs.o ABSOLUTE
    _printf_ll                               0x00000000   Number         0  stubs.o ABSOLUTE
    _printf_lld                              0x00000000   Number         0  stubs.o ABSOLUTE
    _printf_lli                              0x00000000   Number         0  stubs.o ABSOLUTE
    _printf_llo                              0x00000000   Number         0  stubs.o ABSOLUTE
    _printf_llu                              0x00000000   Number         0  stubs.o ABSOLUTE
    _printf_llx                              0x00000000   Number         0  stubs.o ABSOLUTE
    _printf_longlong_dec                     0x00000000   Number         0  stubs.o ABSOLUTE
    _printf_longlong_hex                     0x00000000   Number         0  stubs.o ABSOLUTE
    _printf_longlong_oct                     0x00000000   Number         0  stubs.o ABSOLUTE
    _printf_ls                               0x00000000   Number         0  stubs.o ABSOLUTE
    _printf_mbtowc                           0x00000000   Number         0  stubs.o ABSOLUTE
    _printf_n                                0x00000000   Number         0  stubs.o ABSOLUTE
    _printf_o                                0x00000000   Number         0  stubs.o ABSOLUTE
    _printf_p                                0x00000000   Number         0  stubs.o ABSOLUTE
    _printf_percent                          0x00000000   Number         0  stubs.o ABSOLUTE
    _printf_pre_padding                      0x00000000   Number         0  stubs.o ABSOLUTE
    _printf_return_value                     0x00000000   Number         0  stubs.o ABSOLUTE
    _printf_s                                0x00000000   Number         0  stubs.o ABSOLUTE
    _printf_sizespec                         0x00000000   Number         0  stubs.o ABSOLUTE
    _printf_str                              0x00000000   Number         0  stubs.o ABSOLUTE
    _printf_truncate_signed                  0x00000000   Number         0  stubs.o ABSOLUTE
    _printf_truncate_unsigned                0x00000000   Number         0  stubs.o ABSOLUTE
    _printf_u                                0x00000000   Number         0  stubs.o ABSOLUTE
    _printf_wc                               0x00000000   Number         0  stubs.o ABSOLUTE
    _printf_wctomb                           0x00000000   Number         0  stubs.o ABSOLUTE
    _printf_widthprec                        0x00000000   Number         0  stubs.o ABSOLUTE
    _printf_x                                0x00000000   Number         0  stubs.o ABSOLUTE
    ClkTrim_IRQHandler                        - Undefined Weak Reference
    Dmac_IRQHandler                           - Undefined Weak Reference
    Flash_IRQHandler                          - Undefined Weak Reference
    I2c0_IRQHandler                           - Undefined Weak Reference
    I2c1_IRQHandler                           - Undefined Weak Reference
    Lcd_IRQHandler                            - Undefined Weak Reference
    LpUart0_IRQHandler                        - Undefined Weak Reference
    Pca_IRQHandler                            - Undefined Weak Reference
    Ram_IRQHandler                            - Undefined Weak Reference
    Spi1_IRQHandler                           - Undefined Weak Reference
    Tim1_IRQHandler                           - Undefined Weak Reference
    Tim2_IRQHandler                           - Undefined Weak Reference
    Tim3_IRQHandler                           - Undefined Weak Reference
    Tim4_IRQHandler                           - Undefined Weak Reference
    Tim5_IRQHandler                           - Undefined Weak Reference
    Tim6_IRQHandler                           - Undefined Weak Reference
    Uart0_IRQHandler                          - Undefined Weak Reference
    Uart1_IRQHandler                          - Undefined Weak Reference
    Vc0_IRQHandler                            - Undefined Weak Reference
    Vc1_IRQHandler                            - Undefined Weak Reference
    Wdt_IRQHandler                            - Undefined Weak Reference
    __cpp_initialize__aeabi_                  - Undefined Weak Reference
    __cxa_finalize                            - Undefined Weak Reference
    __decompress                              - Undefined Weak Reference
    _clock_init                               - Undefined Weak Reference
    _microlib_exit                            - Undefined Weak Reference
    __Vectors_End                            0x000000c0   Data           0  startup_hc32l13x.o(RESET)
    __Vectors_Size                           0x000000c0   Number         0  startup_hc32l13x.o ABSOLUTE
    __main                                   0x000000c1   Thumb Code     0  entry.o(.ARM.Collect$$$$00000000)
    _main_stk                                0x000000c1   Thumb Code     0  entry2.o(.ARM.Collect$$$$00000001)
    _main_scatterload                        0x000000c5   Thumb Code     0  entry5.o(.ARM.Collect$$$$00000004)
    __main_after_scatterload                 0x000000c9   Thumb Code     0  entry5.o(.ARM.Collect$$$$00000004)
    _main_clock                              0x000000c9   Thumb Code     0  entry7b.o(.ARM.Collect$$$$00000008)
    _main_cpp_init                           0x000000c9   Thumb Code     0  entry8b.o(.ARM.Collect$$$$0000000A)
    _main_init                               0x000000c9   Thumb Code     0  entry9a.o(.ARM.Collect$$$$0000000B)
    __rt_final_cpp                           0x000000d1   Thumb Code     0  entry10a.o(.ARM.Collect$$$$0000000D)
    __rt_final_exit                          0x000000d1   Thumb Code     0  entry11a.o(.ARM.Collect$$$$0000000F)
    Reset_Handler                            0x000000d5   Thumb Code    26  startup_hc32l13x.o(.text)
    NMI_Handler                              0x000000ef   Thumb Code     2  startup_hc32l13x.o(.text)
    HardFault_Handler                        0x000000f1   Thumb Code     2  startup_hc32l13x.o(.text)
    SVC_Handler                              0x000000f3   Thumb Code     2  startup_hc32l13x.o(.text)
    PORTA_IRQHandler                         0x000000f9   Thumb Code     0  startup_hc32l13x.o(.text)
    PORTB_IRQHandler                         0x000000f9   Thumb Code     0  startup_hc32l13x.o(.text)
    PORTC_IRQHandler                         0x000000f9   Thumb Code     0  startup_hc32l13x.o(.text)
    PORTD_IRQHandler                         0x000000f9   Thumb Code     0  startup_hc32l13x.o(.text)
    port_int_disable                         0x00000111   Thumb Code     0  port_s.o(.text)
    port_int_enable                          0x00000115   Thumb Code     0  port_s.o(.text)
    port_cpsr_save                           0x00000119   Thumb Code     0  port_s.o(.text)
    port_cpsr_restore                        0x00000121   Thumb Code     0  port_s.o(.text)
    port_sched_start                         0x00000127   Thumb Code     0  port_s.o(.text)
    port_context_switch                      0x0000013d   Thumb Code     0  port_s.o(.text)
    port_irq_context_switch                  0x00000145   Thumb Code     0  port_s.o(.text)
    PendSV_Handler                           0x0000014d   Thumb Code     0  port_s.o(.text)
    __aeabi_uidiv                            0x000001ad   Thumb Code     0  uidiv.o(.text)
    __aeabi_uidivmod                         0x000001ad   Thumb Code    44  uidiv.o(.text)
    __aeabi_uldivmod                         0x000001d9   Thumb Code    96  uldiv.o(.text)
    __aeabi_memcpy                           0x00000239   Thumb Code    36  memcpya.o(.text)
    __aeabi_memcpy4                          0x00000239   Thumb Code     0  memcpya.o(.text)
    __aeabi_memcpy8                          0x00000239   Thumb Code     0  memcpya.o(.text)
    __aeabi_llsl                             0x0000025d   Thumb Code    32  llshl.o(.text)
    _ll_shift_l                              0x0000025d   Thumb Code     0  llshl.o(.text)
    __aeabi_llsr                             0x0000027d   Thumb Code    34  llushr.o(.text)
    _ll_ushift_r                             0x0000027d   Thumb Code     0  llushr.o(.text)
    __scatterload                            0x000002a1   Thumb Code    28  init.o(.text)
    __scatterload_rt2                        0x000002a1   Thumb Code     0  init.o(.text)
    ADC_IRQHandler                           0x000002c5   Thumb Code     8  interrupts_hc32l13x.o(i.ADC_IRQHandler)
    Adc_ClrIrqStatus                         0x000002cd   Thumb Code    10  adc.o(i.Adc_ClrIrqStatus)
    Adc_GetIrqStatus                         0x000002dd   Thumb Code    16  adc.o(i.Adc_GetIrqStatus)
    Adc_GetSqrResult                         0x000002f1   Thumb Code     8  adc.o(i.Adc_GetSqrResult)
    Adc_IRQHandler                           0x000002fd   Thumb Code    46  myadc.o(i.Adc_IRQHandler)
    Bt_ClearIntFlag                          0x00000331   Thumb Code    20  bt.o(i.Bt_ClearIntFlag)
    Bt_GetIntFlag                            0x00000349   Thumb Code    16  bt.o(i.Bt_GetIntFlag)
    Bt_M0_Stop                               0x0000035d   Thumb Code    20  bt.o(i.Bt_M0_Stop)
    CLKTRIM_IRQHandler                       0x00000385   Thumb Code     8  interrupts_hc32l13x.o(i.CLKTRIM_IRQHandler)
    DMAC_IRQHandler                          0x0000038d   Thumb Code     8  interrupts_hc32l13x.o(i.DMAC_IRQHandler)
    FLASH_RAM_IRQHandler                     0x00000395   Thumb Code    12  interrupts_hc32l13x.o(i.FLASH_RAM_IRQHandler)
    Flash_LockAll                            0x000003a1   Thumb Code    16  flash.o(i.Flash_LockAll)
    Flash_SectorErase                        0x000003bd   Thumb Code   116  flash.o(i.Flash_SectorErase)
    Flash_UnlockAll                          0x00000441   Thumb Code    18  flash.o(i.Flash_UnlockAll)
    Flash_WriteByte                          0x00000461   Thumb Code   118  flash.o(i.Flash_WriteByte)
    Flash_WriteWord                          0x000004e9   Thumb Code   118  flash.o(i.Flash_WriteWord)
    GetBit                                   0x00000571   Thumb Code    10  ddl.o(i.GetBit)
    Gpio_ClrIO                               0x0000057d   Thumb Code    16  gpio.o(i.Gpio_ClrIO)
    Gpio_Init                                0x00000591   Thumb Code   124  gpio.o(i.Gpio_Init)
    Gpio_SetIO                               0x00000619   Thumb Code    16  gpio.o(i.Gpio_SetIO)
    I2C0_IRQHandler                          0x0000062d   Thumb Code     8  interrupts_hc32l13x.o(i.I2C0_IRQHandler)
    I2C1_IRQHandler                          0x00000635   Thumb Code     8  interrupts_hc32l13x.o(i.I2C1_IRQHandler)
    LCD_IRQHandler                           0x0000063d   Thumb Code     8  interrupts_hc32l13x.o(i.LCD_IRQHandler)
    LPTIM_IRQHandler                         0x00000645   Thumb Code     8  interrupts_hc32l13x.o(i.LPTIM_IRQHandler)
    LPUART0_IRQHandler                       0x0000064d   Thumb Code     8  interrupts_hc32l13x.o(i.LPUART0_IRQHandler)
    LPUART1_IRQHandler                       0x00000655   Thumb Code     8  interrupts_hc32l13x.o(i.LPUART1_IRQHandler)
    LPUart_ClrStatus                         0x0000065d   Thumb Code    14  lpuart.o(i.LPUart_ClrStatus)
    LPUart_GetStatus                         0x0000066b   Thumb Code    10  lpuart.o(i.LPUart_GetStatus)
    LPUart_ReceiveData                       0x00000675   Thumb Code     6  lpuart.o(i.LPUart_ReceiveData)
    LVD_IRQHandler                           0x0000067b   Thumb Code     8  interrupts_hc32l13x.o(i.LVD_IRQHandler)
    LpTim_IRQHandler                         0x00000685   Thumb Code    44  mylptimer.o(i.LpTim_IRQHandler)
    LpUart1_IRQHandler                       0x000006b9   Thumb Code    66  myuart.o(i.LpUart1_IRQHandler)
    Lptim_ClrItStatus                        0x00000709   Thumb Code    14  lptim.o(i.Lptim_ClrItStatus)
    Lptim_GetItStatus                        0x00000717   Thumb Code    12  lptim.o(i.Lptim_GetItStatus)
    Lvd_ClearIrq                             0x00000725   Thumb Code    12  lvd.o(i.Lvd_ClearIrq)
    Lvd_IRQHandler                           0x00000735   Thumb Code    24  mylvd.o(i.Lvd_IRQHandler)
    PCA_IRQHandler                           0x00000755   Thumb Code     8  interrupts_hc32l13x.o(i.PCA_IRQHandler)
    PCNT_IRQHandler                          0x0000075d   Thumb Code     8  interrupts_hc32l13x.o(i.PCNT_IRQHandler)
    Pcnt_ClrItStatus                         0x00000765   Thumb Code    14  pcnt.o(i.Pcnt_ClrItStatus)
    Pcnt_GetItStatus                         0x00000779   Thumb Code    12  pcnt.o(i.Pcnt_GetItStatus)
    Pcnt_IRQHandler                          0x00000789   Thumb Code   144  mypcnt.o(i.Pcnt_IRQHandler)
    RTC_IRQHandler                           0x0000081d   Thumb Code     8  interrupts_hc32l13x.o(i.RTC_IRQHandler)
    Rtc_ClearPrdfItStatus                    0x00000825   Thumb Code    14  rtc.o(i.Rtc_ClearPrdfItStatus)
    Rtc_GetPridItStatus                      0x00000839   Thumb Code    12  rtc.o(i.Rtc_GetPridItStatus)
    Rtc_IRQHandler                           0x00000849   Thumb Code    20  myrtc.o(i.Rtc_IRQHandler)
    SPI0_IRQHandler                          0x0000085d   Thumb Code     8  interrupts_hc32l13x.o(i.SPI0_IRQHandler)
    SPI1_IRQHandler                          0x00000865   Thumb Code     8  interrupts_hc32l13x.o(i.SPI1_IRQHandler)
    SetBit                                   0x0000086d   Thumb Code    20  ddl.o(i.SetBit)
    Spi0_IRQHandler                          0x00000881   Thumb Code    54  myspi.o(i.Spi0_IRQHandler)
    Spi_ClearStatus                          0x000008c1   Thumb Code     8  spi.o(i.Spi_ClearStatus)
    Spi_GetStatus                            0x000008c9   Thumb Code    10  spi.o(i.Spi_GetStatus)
    SysTick_Handler                          0x000008d3   Thumb Code    24  interrupts_hc32l13x.o(i.SysTick_Handler)
    Sysctrl_ClkSourceEnable                  0x000008ed   Thumb Code   186  sysctrl.o(i.Sysctrl_ClkSourceEnable)
    Sysctrl_GetHClkFreq                      0x000009b1   Thumb Code   298  sysctrl.o(i.Sysctrl_GetHClkFreq)
    Sysctrl_SetPeripheralGate                0x00000aed   Thumb Code    16  sysctrl.o(i.Sysctrl_SetPeripheralGate)
    Sysctrl_SetRCHTrim                       0x00000b01   Thumb Code    28  sysctrl.o(i.Sysctrl_SetRCHTrim)
    Sysctrl_SetRCLTrim                       0x00000b25   Thumb Code    28  sysctrl.o(i.Sysctrl_SetRCLTrim)
    Sysctrl_SysClkSwitch                     0x00000b49   Thumb Code    34  sysctrl.o(i.Sysctrl_SysClkSwitch)
    SystemCoreClockUpdate                    0x00000b71   Thumb Code    12  system_hc32l13x.o(i.SystemCoreClockUpdate)
    SystemInit                               0x00000b81   Thumb Code    48  system_hc32l13x.o(i.SystemInit)
    TIM0_IRQHandler                          0x00000bb1   Thumb Code     8  interrupts_hc32l13x.o(i.TIM0_IRQHandler)
    TIM1_IRQHandler                          0x00000bb9   Thumb Code     8  interrupts_hc32l13x.o(i.TIM1_IRQHandler)
    TIM2_IRQHandler                          0x00000bc1   Thumb Code     8  interrupts_hc32l13x.o(i.TIM2_IRQHandler)
    TIM3_IRQHandler                          0x00000bc9   Thumb Code     8  interrupts_hc32l13x.o(i.TIM3_IRQHandler)
    TIM4_IRQHandler                          0x00000bd1   Thumb Code     8  interrupts_hc32l13x.o(i.TIM4_IRQHandler)
    TIM5_IRQHandler                          0x00000bd9   Thumb Code     8  interrupts_hc32l13x.o(i.TIM5_IRQHandler)
    TIM6_IRQHandler                          0x00000be1   Thumb Code     8  interrupts_hc32l13x.o(i.TIM6_IRQHandler)
    Tim0_IRQHandler                          0x00000be9   Thumb Code    30  mybt.o(i.Tim0_IRQHandler)
    UART0_IRQHandler                         0x00000c07   Thumb Code     8  interrupts_hc32l13x.o(i.UART0_IRQHandler)
    UART1_IRQHandler                         0x00000c0f   Thumb Code     8  interrupts_hc32l13x.o(i.UART1_IRQHandler)
    VC0_IRQHandler                           0x00000c17   Thumb Code     8  interrupts_hc32l13x.o(i.VC0_IRQHandler)
    VC1_IRQHandler                           0x00000c1f   Thumb Code     8  interrupts_hc32l13x.o(i.VC1_IRQHandler)
    WDT_IRQHandler                           0x00000c27   Thumb Code     8  interrupts_hc32l13x.o(i.WDT_IRQHandler)
    Wdt_Feed                                 0x00000c31   Thumb Code    12  wdt.o(i.Wdt_Feed)
    Wdt_Init                                 0x00000c41   Thumb Code    30  wdt.o(i.Wdt_Init)
    Wdt_Start                                0x00000c65   Thumb Code    12  wdt.o(i.Wdt_Start)
    Wdt_WriteWdtLoad                         0x00000c75   Thumb Code    18  wdt.o(i.Wdt_WriteWdtLoad)
    __0printf$3                              0x00000ca5   Thumb Code    24  printf3.o(i.__0printf$3)
    __1printf$3                              0x00000ca5   Thumb Code     0  printf3.o(i.__0printf$3)
    __2printf                                0x00000ca5   Thumb Code     0  printf3.o(i.__0printf$3)
    __ARM_common_switch8                     0x00000cc5   Thumb Code    26  adc.o(i.__ARM_common_switch8)
    __scatterload_copy                       0x00000d25   Thumb Code    14  handlers.o(i.__scatterload_copy)
    __scatterload_null                       0x00000d33   Thumb Code     2  handlers.o(i.__scatterload_null)
    __scatterload_zeroinit                   0x00000d35   Thumb Code    14  handlers.o(i.__scatterload_zeroinit)
    cpu_context_switch                       0x00000f11   Thumb Code     8  tos_cpu.o(i.cpu_context_switch)
    cpu_init                                 0x00000f19   Thumb Code    30  tos_cpu.o(i.cpu_init)
    cpu_irq_context_switch                   0x00000f45   Thumb Code     8  tos_cpu.o(i.cpu_irq_context_switch)
    cpu_sched_start                          0x00000f4d   Thumb Code     4  tos_cpu.o(i.cpu_sched_start)
    cpu_systick_init                         0x00000f51   Thumb Code    18  tos_cpu.o(i.cpu_systick_init)
    cpu_task_stk_init                        0x00000f65   Thumb Code   104  tos_cpu.o(i.cpu_task_stk_init)
    current_page                             0x00000ff5   Thumb Code    20  myflash.o(i.current_page)
    ddl_memclr                               0x00001009   Thumb Code    18  ddl.o(i.ddl_memclr)
    flash_eeprom_entry_write                 0x0000101b   Thumb Code   186  myflash.o(i.flash_eeprom_entry_write)
    flash_eeprom_page_switch                 0x000010d5   Thumb Code   166  myflash.o(i.flash_eeprom_page_switch)
    flash_eeprom_updata_alloc                0x0000117b   Thumb Code    52  myflash.o(i.flash_eeprom_updata_alloc)
    flash_eeprom_update_active_address       0x000011af   Thumb Code    34  myflash.o(i.flash_eeprom_update_active_address)
    fputc                                    0x000011d1   Thumb Code     2  ddl.o(i.fputc)
    gpio_io_init                             0x000011d3   Thumb Code    72  mygpio.o(i.gpio_io_init)
    knl_idle_init                            0x0000121d   Thumb Code    32  tos_sys.o(i.knl_idle_init)
    knl_is_idle                              0x00001255   Thumb Code    14  tos_sys.o(i.knl_is_idle)
    knl_is_inirq                             0x00001269   Thumb Code    12  tos_sys.o(i.knl_is_inirq)
    knl_is_sched_locked                      0x00001279   Thumb Code    12  tos_sys.o(i.knl_is_sched_locked)
    knl_is_self                              0x00001289   Thumb Code    16  tos_sys.o(i.knl_is_self)
    knl_object_deinit                        0x0000129d   Thumb Code     8  tos_sys.o(i.knl_object_deinit)
    knl_object_init                          0x000012a5   Thumb Code     8  tos_sys.o(i.knl_object_init)
    knl_object_verify                        0x000012ad   Thumb Code    14  tos_sys.o(i.knl_object_verify)
    knl_sched                                0x000012bd   Thumb Code    52  tos_sys.o(i.knl_sched)
    main                                     0x00001301   Thumb Code    68  main.o(i.main)
    my_WDT_int                               0x0000139d   Thumb Code    20  mywdt.o(i.my_WDT_int)
    my_eeprom_write                          0x000013b1   Thumb Code    86  myflash.o(i.my_eeprom_write)
    my_gpio_init                             0x00001407   Thumb Code    16  mygpio.o(i.my_gpio_init)
    my_init                                  0x00001417   Thumb Code    14  myinit.o(i.my_init)
    pend_list_remove                         0x00001425   Thumb Code    22  tos_pend.o(i.pend_list_remove)
    pend_task_wakeup                         0x0000143b   Thumb Code    46  tos_pend.o(i.pend_task_wakeup)
    port_systick_config                      0x00001469   Thumb Code    32  port_c.o(i.port_systick_config)
    port_systick_priority_set                0x00001491   Thumb Code    14  port_c.o(i.port_systick_priority_set)
    readyqueue_add                           0x000014a1   Thumb Code    26  tos_sched.o(i.readyqueue_add)
    readyqueue_add_head                      0x000014c1   Thumb Code    36  tos_sched.o(i.readyqueue_add_head)
    readyqueue_add_tail                      0x000014e9   Thumb Code    36  tos_sched.o(i.readyqueue_add_tail)
    readyqueue_first_task_get                0x00001511   Thumb Code    20  tos_sched.o(i.readyqueue_first_task_get)
    readyqueue_highest_ready_task_get        0x00001529   Thumb Code    18  tos_sched.o(i.readyqueue_highest_ready_task_get)
    readyqueue_init                          0x00001541   Thumb Code    50  tos_sched.o(i.readyqueue_init)
    readyqueue_is_prio_onlyone               0x00001579   Thumb Code    22  tos_sched.o(i.readyqueue_is_prio_onlyone)
    readyqueue_move_head_to_tail             0x00001595   Thumb Code    32  tos_sched.o(i.readyqueue_move_head_to_tail)
    readyqueue_remove                        0x000015e9   Thumb Code    88  tos_sched.o(i.readyqueue_remove)
    robin_sched                              0x00001645   Thumb Code   114  tos_robin.o(i.robin_sched)
    test_task                                0x000016f1   Thumb Code    42  main.o(i.test_task)
    tick_list_add                            0x0000171b   Thumb Code    48  tos_tick.o(i.tick_list_add)
    tick_list_remove                         0x0000174d   Thumb Code   104  tos_tick.o(i.tick_list_remove)
    tick_update                              0x0000183d   Thumb Code   102  tos_tick.o(i.tick_update)
    tos_cpu_clz                              0x000018ad   Thumb Code    50  tos_cpu.o(i.tos_cpu_clz)
    tos_cpu_cpsr_restore                     0x000018df   Thumb Code     8  tos_cpu.o(i.tos_cpu_cpsr_restore)
    tos_cpu_cpsr_save                        0x000018e7   Thumb Code     8  tos_cpu.o(i.tos_cpu_cpsr_save)
    tos_knl_init                             0x000018ef   Thumb Code    16  tos_sys.o(i.tos_knl_init)
    tos_knl_irq_enter                        0x00001901   Thumb Code    22  tos_sys.o(i.tos_knl_irq_enter)
    tos_knl_irq_leave                        0x00001921   Thumb Code    70  tos_sys.o(i.tos_knl_irq_leave)
    tos_knl_is_running                       0x0000197d   Thumb Code    12  tos_sys.o(i.tos_knl_is_running)
    tos_knl_start                            0x0000198d   Thumb Code    40  tos_sys.o(i.tos_knl_start)
    tos_task_create                          0x000019d1   Thumb Code   184  tos_task.o(i.tos_task_create)
    tos_task_delay                           0x00001a9d   Thumb Code    96  tos_task.o(i.tos_task_delay)
    tos_task_destroy                         0x00001b05   Thumb Code   148  tos_task.o(i.tos_task_destroy)
    tos_task_yield                           0x00001ba9   Thumb Code    42  tos_task.o(i.tos_task_yield)
    tos_tick_handler                         0x00001bd9   Thumb Code    30  tos_tick.o(i.tos_tick_handler)
    k_idle_task_stk_addr                     0x00001c14   Data           4  tos_global.o(.constdata)
    k_idle_task_stk_size                     0x00001c18   Data           4  tos_global.o(.constdata)
    Region$$Table$$Base                      0x00001c1c   Number         0  anon$$obj.o(Region$$Table)
    Region$$Table$$Limit                     0x00001c3c   Number         0  anon$$obj.o(Region$$Table)
    SystemCoreClock                          0x20000000   Data           4  system_hc32l13x.o(.data)
    __stdout                                 0x20000004   Data           4  ddl.o(.data)
    PWR_ON_times                             0x20000018   Data           4  mylvd.o(.data)
    my_pcnt_cycles                           0x2000001c   Data           4  mypcnt.o(.data)
    Last_lpuart1                             0x20000020   Data           4  myuart.o(.data)
    Empty_lpuart1                            0x20000024   Data           4  myuart.o(.data)
    spi_rx_cont                              0x20000034   Data           4  myspi.o(.data)
    spi_tx_cont                              0x20000038   Data           4  myspi.o(.data)
    k_irq_nest_cnt                           0x2000003c   Data           1  tos_global.o(.data)
    k_sched_lock_nest_cnt                    0x2000003d   Data           1  tos_global.o(.data)
    k_knl_state                              0x2000003e   Data           1  tos_global.o(.data)
    k_tick_count                             0x20000040   Data           8  tos_global.o(.data)
    k_curr_task                              0x20000048   Data           4  tos_global.o(.data)
    k_next_task                              0x2000004c   Data           4  tos_global.o(.data)
    k_cpu_tick_per_second                    0x20000050   Data           8  tos_global.o(.data)
    k_cpu_cycle_per_tick                     0x20000058   Data           4  tos_global.o(.data)
    k_tick_list                              0x2000005c   Data           8  tos_global.o(.data)
    k_robin_default_timeslice                0x20000064   Data           4  tos_global.o(.data)
    k_robin_state                            0x20000068   Data           1  tos_global.o(.data)
    my_eeprom_handler                        0x2000006c   Data          32  myflash.o(.bss)
    ReadBufferLpuart1                        0x20000154   Data         256  myuart.o(.bss)
    str_buffer_lpuart1                       0x20000254   Data         126  myuart.o(.bss)
    task                                     0x200002d8   Data          88  main.o(.bss)
    task_stack                               0x20000330   Data         128  main.o(.bss)
    k_rdyq                                   0x200003b0   Data         136  tos_global.o(.bss)
    k_idle_task                              0x20000438   Data          88  tos_global.o(.bss)
    k_idle_task_stk                          0x20000490   Data          80  tos_global.o(.bss)
    __initial_sp                             0x20000ce0   Data           0  startup_hc32l13x.o(STACK)



==============================================================================

Memory Map of the image

  Image Entry point : 0x000000c1

  Load Region LR_IROM1 (Base: 0x00000000, Size: 0x00001ca8, Max: 0x00010000, ABSOLUTE)

    Execution Region ER_IROM1 (Exec base: 0x00000000, Load base: 0x00000000, Size: 0x00001c3c, Max: 0x00010000, ABSOLUTE)

    Exec Addr    Load Addr    Size         Type   Attr      Idx    E Section Name        Object

    0x00000000   0x00000000   0x000000c0   Data   RO          401    RESET               startup_hc32l13x.o
    0x000000c0   0x000000c0   0x00000000   Code   RO         4700  * .ARM.Collect$$$$00000000  mc_p.l(entry.o)
    0x000000c0   0x000000c0   0x00000004   Code   RO         4976    .ARM.Collect$$$$00000001  mc_p.l(entry2.o)
    0x000000c4   0x000000c4   0x00000004   Code   RO         4979    .ARM.Collect$$$$00000004  mc_p.l(entry5.o)
    0x000000c8   0x000000c8   0x00000000   Code   RO         4981    .ARM.Collect$$$$00000008  mc_p.l(entry7b.o)
    0x000000c8   0x000000c8   0x00000000   Code   RO         4983    .ARM.Collect$$$$0000000A  mc_p.l(entry8b.o)
    0x000000c8   0x000000c8   0x00000008   Code   RO         4984    .ARM.Collect$$$$0000000B  mc_p.l(entry9a.o)
    0x000000d0   0x000000d0   0x00000000   Code   RO         4986    .ARM.Collect$$$$0000000D  mc_p.l(entry10a.o)
    0x000000d0   0x000000d0   0x00000000   Code   RO         4988    .ARM.Collect$$$$0000000F  mc_p.l(entry11a.o)
    0x000000d0   0x000000d0   0x00000004   Code   RO         4977    .ARM.Collect$$$$00002712  mc_p.l(entry2.o)
    0x000000d4   0x000000d4   0x0000003c   Code   RO          402    .text               startup_hc32l13x.o
    0x00000110   0x00000110   0x0000009c   Code   RO         4597    .text               port_s.o
    0x000001ac   0x000001ac   0x0000002c   Code   RO         4703    .text               mc_p.l(uidiv.o)
    0x000001d8   0x000001d8   0x00000060   Code   RO         4705    .text               mc_p.l(uldiv.o)
    0x00000238   0x00000238   0x00000024   Code   RO         4709    .text               mc_p.l(memcpya.o)
    0x0000025c   0x0000025c   0x00000020   Code   RO         4990    .text               mc_p.l(llshl.o)
    0x0000027c   0x0000027c   0x00000022   Code   RO         4992    .text               mc_p.l(llushr.o)
    0x0000029e   0x0000029e   0x00000002   PAD
    0x000002a0   0x000002a0   0x00000024   Code   RO         5005    .text               mc_p.l(init.o)
    0x000002c4   0x000002c4   0x00000008   Code   RO            3    i.ADC_IRQHandler    interrupts_hc32l13x.o
    0x000002cc   0x000002cc   0x00000010   Code   RO          412    i.Adc_ClrIrqStatus  adc.o
    0x000002dc   0x000002dc   0x00000014   Code   RO          418    i.Adc_GetIrqStatus  adc.o
    0x000002f0   0x000002f0   0x0000000c   Code   RO          421    i.Adc_GetSqrResult  adc.o
    0x000002fc   0x000002fc   0x00000034   Code   RO         2531    i.Adc_IRQHandler    myadc.o
    0x00000330   0x00000330   0x00000018   Code   RO          590    i.Bt_ClearIntFlag   bt.o
    0x00000348   0x00000348   0x00000014   Code   RO          591    i.Bt_GetIntFlag     bt.o
    0x0000035c   0x0000035c   0x00000018   Code   RO          599    i.Bt_M0_Stop        bt.o
    0x00000374   0x00000374   0x00000010   Code   RO         3248    i.BufferNext        myuart.o
    0x00000384   0x00000384   0x00000008   Code   RO            4    i.CLKTRIM_IRQHandler  interrupts_hc32l13x.o
    0x0000038c   0x0000038c   0x00000008   Code   RO            5    i.DMAC_IRQHandler   interrupts_hc32l13x.o
    0x00000394   0x00000394   0x0000000c   Code   RO            7    i.FLASH_RAM_IRQHandler  interrupts_hc32l13x.o
    0x000003a0   0x000003a0   0x0000001c   Code   RO         1053    i.Flash_LockAll     flash.o
    0x000003bc   0x000003bc   0x00000084   Code   RO         1055    i.Flash_SectorErase  flash.o
    0x00000440   0x00000440   0x00000020   Code   RO         1056    i.Flash_UnlockAll   flash.o
    0x00000460   0x00000460   0x00000088   Code   RO         1058    i.Flash_WriteByte   flash.o
    0x000004e8   0x000004e8   0x00000088   Code   RO         1060    i.Flash_WriteWord   flash.o
    0x00000570   0x00000570   0x0000000a   Code   RO          923    i.GetBit            ddl.o
    0x0000057a   0x0000057a   0x00000002   PAD
    0x0000057c   0x0000057c   0x00000014   Code   RO         1435    i.Gpio_ClrIO        gpio.o
    0x00000590   0x00000590   0x00000088   Code   RO         1442    i.Gpio_Init         gpio.o
    0x00000618   0x00000618   0x00000014   Code   RO         1447    i.Gpio_SetIO        gpio.o
    0x0000062c   0x0000062c   0x00000008   Code   RO            8    i.I2C0_IRQHandler   interrupts_hc32l13x.o
    0x00000634   0x00000634   0x00000008   Code   RO            9    i.I2C1_IRQHandler   interrupts_hc32l13x.o
    0x0000063c   0x0000063c   0x00000008   Code   RO           10    i.LCD_IRQHandler    interrupts_hc32l13x.o
    0x00000644   0x00000644   0x00000008   Code   RO           11    i.LPTIM_IRQHandler  interrupts_hc32l13x.o
    0x0000064c   0x0000064c   0x00000008   Code   RO           12    i.LPUART0_IRQHandler  interrupts_hc32l13x.o
    0x00000654   0x00000654   0x00000008   Code   RO           13    i.LPUART1_IRQHandler  interrupts_hc32l13x.o
    0x0000065c   0x0000065c   0x0000000e   Code   RO         1649    i.LPUart_ClrStatus  lpuart.o
    0x0000066a   0x0000066a   0x0000000a   Code   RO         1656    i.LPUart_GetStatus  lpuart.o
    0x00000674   0x00000674   0x00000006   Code   RO         1658    i.LPUart_ReceiveData  lpuart.o
    0x0000067a   0x0000067a   0x00000008   Code   RO           14    i.LVD_IRQHandler    interrupts_hc32l13x.o
    0x00000682   0x00000682   0x00000002   PAD
    0x00000684   0x00000684   0x00000034   Code   RO         3099    i.LpTim_IRQHandler  mylptimer.o
    0x000006b8   0x000006b8   0x00000050   Code   RO         3249    i.LpUart1_IRQHandler  myuart.o
    0x00000708   0x00000708   0x0000000e   Code   RO         1179    i.Lptim_ClrItStatus  lptim.o
    0x00000716   0x00000716   0x0000000c   Code   RO         1182    i.Lptim_GetItStatus  lptim.o
    0x00000722   0x00000722   0x00000002   PAD
    0x00000724   0x00000724   0x00000010   Code   RO         1899    i.Lvd_ClearIrq      lvd.o
    0x00000734   0x00000734   0x00000020   Code   RO         3139    i.Lvd_IRQHandler    mylvd.o
    0x00000754   0x00000754   0x00000008   Code   RO           15    i.PCA_IRQHandler    interrupts_hc32l13x.o
    0x0000075c   0x0000075c   0x00000008   Code   RO           16    i.PCNT_IRQHandler   interrupts_hc32l13x.o
    0x00000764   0x00000764   0x00000014   Code   RO         2034    i.Pcnt_ClrItStatus  pcnt.o
    0x00000778   0x00000778   0x00000010   Code   RO         2038    i.Pcnt_GetItStatus  pcnt.o
    0x00000788   0x00000788   0x00000094   Code   RO         3171    i.Pcnt_IRQHandler   mypcnt.o
    0x0000081c   0x0000081c   0x00000008   Code   RO           17    i.RTC_IRQHandler    interrupts_hc32l13x.o
    0x00000824   0x00000824   0x00000014   Code   RO         1772    i.Rtc_ClearPrdfItStatus  rtc.o
    0x00000838   0x00000838   0x00000010   Code   RO         1777    i.Rtc_GetPridItStatus  rtc.o
    0x00000848   0x00000848   0x00000014   Code   RO         3200    i.Rtc_IRQHandler    myrtc.o
    0x0000085c   0x0000085c   0x00000008   Code   RO           18    i.SPI0_IRQHandler   interrupts_hc32l13x.o
    0x00000864   0x00000864   0x00000008   Code   RO           19    i.SPI1_IRQHandler   interrupts_hc32l13x.o
    0x0000086c   0x0000086c   0x00000014   Code   RO          927    i.SetBit            ddl.o
    0x00000880   0x00000880   0x00000040   Code   RO         3404    i.Spi0_IRQHandler   myspi.o
    0x000008c0   0x000008c0   0x00000008   Code   RO         2334    i.Spi_ClearStatus   spi.o
    0x000008c8   0x000008c8   0x0000000a   Code   RO         2338    i.Spi_GetStatus     spi.o
    0x000008d2   0x000008d2   0x00000018   Code   RO           20    i.SysTick_Handler   interrupts_hc32l13x.o
    0x000008ea   0x000008ea   0x00000002   PAD
    0x000008ec   0x000008ec   0x000000c4   Code   RO         1228    i.Sysctrl_ClkSourceEnable  sysctrl.o
    0x000009b0   0x000009b0   0x0000013c   Code   RO         1229    i.Sysctrl_GetHClkFreq  sysctrl.o
    0x00000aec   0x00000aec   0x00000014   Code   RO         1237    i.Sysctrl_SetPeripheralGate  sysctrl.o
    0x00000b00   0x00000b00   0x00000024   Code   RO         1238    i.Sysctrl_SetRCHTrim  sysctrl.o
    0x00000b24   0x00000b24   0x00000024   Code   RO         1240    i.Sysctrl_SetRCLTrim  sysctrl.o
    0x00000b48   0x00000b48   0x00000028   Code   RO         1245    i.Sysctrl_SysClkSwitch  sysctrl.o
    0x00000b70   0x00000b70   0x00000010   Code   RO          362    i.SystemCoreClockUpdate  system_hc32l13x.o
    0x00000b80   0x00000b80   0x00000030   Code   RO          363    i.SystemInit        system_hc32l13x.o
    0x00000bb0   0x00000bb0   0x00000008   Code   RO           21    i.TIM0_IRQHandler   interrupts_hc32l13x.o
    0x00000bb8   0x00000bb8   0x00000008   Code   RO           22    i.TIM1_IRQHandler   interrupts_hc32l13x.o
    0x00000bc0   0x00000bc0   0x00000008   Code   RO           23    i.TIM2_IRQHandler   interrupts_hc32l13x.o
    0x00000bc8   0x00000bc8   0x00000008   Code   RO           24    i.TIM3_IRQHandler   interrupts_hc32l13x.o
    0x00000bd0   0x00000bd0   0x00000008   Code   RO           25    i.TIM4_IRQHandler   interrupts_hc32l13x.o
    0x00000bd8   0x00000bd8   0x00000008   Code   RO           26    i.TIM5_IRQHandler   interrupts_hc32l13x.o
    0x00000be0   0x00000be0   0x00000008   Code   RO           27    i.TIM6_IRQHandler   interrupts_hc32l13x.o
    0x00000be8   0x00000be8   0x0000001e   Code   RO         2669    i.Tim0_IRQHandler   mybt.o
    0x00000c06   0x00000c06   0x00000008   Code   RO           28    i.UART0_IRQHandler  interrupts_hc32l13x.o
    0x00000c0e   0x00000c0e   0x00000008   Code   RO           29    i.UART1_IRQHandler  interrupts_hc32l13x.o
    0x00000c16   0x00000c16   0x00000008   Code   RO           30    i.VC0_IRQHandler    interrupts_hc32l13x.o
    0x00000c1e   0x00000c1e   0x00000008   Code   RO           31    i.VC1_IRQHandler    interrupts_hc32l13x.o
    0x00000c26   0x00000c26   0x00000008   Code   RO           32    i.WDT_IRQHandler    interrupts_hc32l13x.o
    0x00000c2e   0x00000c2e   0x00000002   PAD
    0x00000c30   0x00000c30   0x00000010   Code   RO         1369    i.Wdt_Feed          wdt.o
    0x00000c40   0x00000c40   0x00000024   Code   RO         1371    i.Wdt_Init          wdt.o
    0x00000c64   0x00000c64   0x00000010   Code   RO         1375    i.Wdt_Start         wdt.o
    0x00000c74   0x00000c74   0x00000018   Code   RO         1376    i.Wdt_WriteWdtLoad  wdt.o
    0x00000c8c   0x00000c8c   0x00000018   Code   RO         1248    i._SysctrlUnlock    sysctrl.o
    0x00000ca4   0x00000ca4   0x00000020   Code   RO         4804    i.__0printf$3       mc_p.l(printf3.o)
    0x00000cc4   0x00000cc4   0x0000001a   Code   RO          579    i.__ARM_common_switch8  adc.o
    0x00000cde   0x00000cde   0x00000002   PAD
    0x00000ce0   0x00000ce0   0x00000044   Code   RO         4559    i.__NVIC_SetPriority  port_c.o
    0x00000d24   0x00000d24   0x0000000e   Code   RO         5015    i.__scatterload_copy  mc_p.l(handlers.o)
    0x00000d32   0x00000d32   0x00000002   Code   RO         5016    i.__scatterload_null  mc_p.l(handlers.o)
    0x00000d34   0x00000d34   0x0000000e   Code   RO         5017    i.__scatterload_zeroinit  mc_p.l(handlers.o)
    0x00000d42   0x00000d42   0x00000002   PAD
    0x00000d44   0x00000d44   0x000001cc   Code   RO         4811    i._printf_core      mc_p.l(printf3.o)
    0x00000f10   0x00000f10   0x00000008   Code   RO         4602    i.cpu_context_switch  tos_cpu.o
    0x00000f18   0x00000f18   0x0000002c   Code   RO         4603    i.cpu_init          tos_cpu.o
    0x00000f44   0x00000f44   0x00000008   Code   RO         4604    i.cpu_irq_context_switch  tos_cpu.o
    0x00000f4c   0x00000f4c   0x00000004   Code   RO         4606    i.cpu_sched_start   tos_cpu.o
    0x00000f50   0x00000f50   0x00000012   Code   RO         4607    i.cpu_systick_init  tos_cpu.o
    0x00000f62   0x00000f62   0x00000002   PAD
    0x00000f64   0x00000f64   0x00000090   Code   RO         4608    i.cpu_task_stk_init  tos_cpu.o
    0x00000ff4   0x00000ff4   0x00000014   Code   RO         2754    i.current_page      myflash.o
    0x00001008   0x00001008   0x00000012   Code   RO          931    i.ddl_memclr        ddl.o
    0x0000101a   0x0000101a   0x000000ba   Code   RO         2755    i.flash_eeprom_entry_write  myflash.o
    0x000010d4   0x000010d4   0x000000a6   Code   RO         2756    i.flash_eeprom_page_switch  myflash.o
    0x0000117a   0x0000117a   0x00000034   Code   RO         2758    i.flash_eeprom_updata_alloc  myflash.o
    0x000011ae   0x000011ae   0x00000022   Code   RO         2759    i.flash_eeprom_update_active_address  myflash.o
    0x000011d0   0x000011d0   0x00000002   Code   RO          935    i.fputc             ddl.o
    0x000011d2   0x000011d2   0x00000048   Code   RO         2860    i.gpio_io_init      mygpio.o
    0x0000121a   0x0000121a   0x00000002   Code   RO         4071    i.knl_idle_entry    tos_sys.o
    0x0000121c   0x0000121c   0x00000038   Code   RO         4072    i.knl_idle_init     tos_sys.o
    0x00001254   0x00001254   0x00000014   Code   RO         4073    i.knl_is_idle       tos_sys.o
    0x00001268   0x00001268   0x00000010   Code   RO         4074    i.knl_is_inirq      tos_sys.o
    0x00001278   0x00001278   0x00000010   Code   RO         4075    i.knl_is_sched_locked  tos_sys.o
    0x00001288   0x00001288   0x00000014   Code   RO         4076    i.knl_is_self       tos_sys.o
    0x0000129c   0x0000129c   0x00000008   Code   RO         4077    i.knl_object_deinit  tos_sys.o
    0x000012a4   0x000012a4   0x00000008   Code   RO         4078    i.knl_object_init   tos_sys.o
    0x000012ac   0x000012ac   0x0000000e   Code   RO         4079    i.knl_object_verify  tos_sys.o
    0x000012ba   0x000012ba   0x00000002   PAD
    0x000012bc   0x000012bc   0x00000044   Code   RO         4080    i.knl_sched         tos_sys.o
    0x00001300   0x00001300   0x0000009c   Code   RO         3482    i.main              main.o
    0x0000139c   0x0000139c   0x00000014   Code   RO         3323    i.my_WDT_int        mywdt.o
    0x000013b0   0x000013b0   0x00000056   Code   RO         2764    i.my_eeprom_write   myflash.o
    0x00001406   0x00001406   0x00000010   Code   RO         2868    i.my_gpio_init      mygpio.o
    0x00001416   0x00001416   0x0000000e   Code   RO         2941    i.my_init           myinit.o
    0x00001424   0x00001424   0x00000016   Code   RO         3757    i.pend_list_remove  tos_pend.o
    0x0000143a   0x0000143a   0x0000002e   Code   RO         3763    i.pend_task_wakeup  tos_pend.o
    0x00001468   0x00001468   0x00000028   Code   RO         4561    i.port_systick_config  port_c.o
    0x00001490   0x00001490   0x0000000e   Code   RO         4562    i.port_systick_priority_set  port_c.o
    0x0000149e   0x0000149e   0x00000002   PAD
    0x000014a0   0x000014a0   0x00000020   Code   RO         3919    i.readyqueue_add    tos_sched.o
    0x000014c0   0x000014c0   0x00000028   Code   RO         3920    i.readyqueue_add_head  tos_sched.o
    0x000014e8   0x000014e8   0x00000028   Code   RO         3921    i.readyqueue_add_tail  tos_sched.o
    0x00001510   0x00001510   0x00000018   Code   RO         3922    i.readyqueue_first_task_get  tos_sched.o
    0x00001528   0x00001528   0x00000018   Code   RO         3923    i.readyqueue_highest_ready_task_get  tos_sched.o
    0x00001540   0x00001540   0x00000038   Code   RO         3924    i.readyqueue_init   tos_sched.o
    0x00001578   0x00001578   0x0000001c   Code   RO         3925    i.readyqueue_is_prio_onlyone  tos_sched.o
    0x00001594   0x00001594   0x00000024   Code   RO         3926    i.readyqueue_move_head_to_tail  tos_sched.o
    0x000015b8   0x000015b8   0x00000030   Code   RO         3927    i.readyqueue_prio_mark  tos_sched.o
    0x000015e8   0x000015e8   0x0000005c   Code   RO         3928    i.readyqueue_remove  tos_sched.o
    0x00001644   0x00001644   0x00000080   Code   RO         3887    i.robin_sched       tos_robin.o
    0x000016c4   0x000016c4   0x0000000a   Code   RO         4289    i.task_exit         tos_task.o
    0x000016ce   0x000016ce   0x00000022   Code   RO         4290    i.task_reset        tos_task.o
    0x000016f0   0x000016f0   0x0000002a   Code   RO         3483    i.test_task         main.o
    0x0000171a   0x0000171a   0x00000030   Code   RO         4386    i.tick_list_add     tos_tick.o
    0x0000174a   0x0000174a   0x00000002   PAD
    0x0000174c   0x0000174c   0x0000006c   Code   RO         4387    i.tick_list_remove  tos_tick.o
    0x000017b8   0x000017b8   0x00000084   Code   RO         4389    i.tick_task_place   tos_tick.o
    0x0000183c   0x0000183c   0x00000070   Code   RO         4390    i.tick_update       tos_tick.o
    0x000018ac   0x000018ac   0x00000032   Code   RO         4609    i.tos_cpu_clz       tos_cpu.o
    0x000018de   0x000018de   0x00000008   Code   RO         4610    i.tos_cpu_cpsr_restore  tos_cpu.o
    0x000018e6   0x000018e6   0x00000008   Code   RO         4611    i.tos_cpu_cpsr_save  tos_cpu.o
    0x000018ee   0x000018ee   0x00000010   Code   RO         4081    i.tos_knl_init      tos_sys.o
    0x000018fe   0x000018fe   0x00000002   PAD
    0x00001900   0x00001900   0x00000020   Code   RO         4082    i.tos_knl_irq_enter  tos_sys.o
    0x00001920   0x00001920   0x0000005c   Code   RO         4083    i.tos_knl_irq_leave  tos_sys.o
    0x0000197c   0x0000197c   0x00000010   Code   RO         4084    i.tos_knl_is_running  tos_sys.o
    0x0000198c   0x0000198c   0x00000034   Code   RO         4087    i.tos_knl_start     tos_sys.o
    0x000019c0   0x000019c0   0x0000000e   Code   RO         4391    i.tos_list_empty    tos_tick.o
    0x000019ce   0x000019ce   0x00000002   PAD
    0x000019d0   0x000019d0   0x000000cc   Code   RO         4291    i.tos_task_create   tos_task.o
    0x00001a9c   0x00001a9c   0x00000068   Code   RO         4292    i.tos_task_delay    tos_task.o
    0x00001b04   0x00001b04   0x000000a4   Code   RO         4294    i.tos_task_destroy  tos_task.o
    0x00001ba8   0x00001ba8   0x00000030   Code   RO         4298    i.tos_task_yield    tos_task.o
    0x00001bd8   0x00001bd8   0x00000024   Code   RO         4392    i.tos_tick_handler  tos_tick.o
    0x00001bfc   0x00001bfc   0x00000018   Data   RO         1249    .constdata          sysctrl.o
    0x00001c14   0x00001c14   0x00000004   Data   RO         3665    .constdata          tos_global.o
    0x00001c18   0x00001c18   0x00000004   Data   RO         3666    .constdata          tos_global.o
    0x00001c1c   0x00001c1c   0x00000020   Data   RO         5013    Region$$Table       anon$$obj.o


    Execution Region RW_IRAM1 (Exec base: 0x20000000, Load base: 0x00001c3c, Size: 0x00000ce0, Max: 0x00002000, ABSOLUTE)

    Exec Addr    Load Addr    Size         Type   Attr      Idx    E Section Name        Object

    0x20000000   0x00001c3c   0x00000004   Data   RW          364    .data               system_hc32l13x.o
    0x20000004   0x00001c40   0x00000004   Data   RW          936    .data               ddl.o
    0x20000008   0x00001c44   0x00000010   Data   RW         2536    .data               myadc.o
    0x20000018   0x00001c54   0x00000004   Data   RW         3141    .data               mylvd.o
    0x2000001c   0x00001c58   0x00000004   Data   RW         3173    .data               mypcnt.o
    0x20000020   0x00001c5c   0x00000014   Data   RW         3259    .data               myuart.o
    0x20000034   0x00001c70   0x00000008   Data   RW         3406    .data               myspi.o
    0x2000003c   0x00001c78   0x00000001   Data   RW         3667    .data               tos_global.o
    0x2000003d   0x00001c79   0x00000001   Data   RW         3668    .data               tos_global.o
    0x2000003e   0x00001c7a   0x00000001   Data   RW         3669    .data               tos_global.o
    0x2000003f   0x00001c7b   0x00000001   PAD
    0x20000040   0x00001c7c   0x00000008   Data   RW         3670    .data               tos_global.o
    0x20000048   0x00001c84   0x00000004   Data   RW         3671    .data               tos_global.o
    0x2000004c   0x00001c88   0x00000004   Data   RW         3672    .data               tos_global.o
    0x20000050   0x00001c8c   0x00000008   Data   RW         3673    .data               tos_global.o
    0x20000058   0x00001c94   0x00000004   Data   RW         3674    .data               tos_global.o
    0x2000005c   0x00001c98   0x00000008   Data   RW         3675    .data               tos_global.o
    0x20000064   0x00001ca0   0x00000004   Data   RW         3676    .data               tos_global.o
    0x20000068   0x00001ca4   0x00000001   Data   RW         3677    .data               tos_global.o
    0x20000069   0x00001ca5   0x00000003   PAD
    0x2000006c        -       0x00000020   Zero   RW         2767    .bss                myflash.o
    0x2000008c        -       0x000000c8   Zero   RW         3103    .bss                mylptimer.o
    0x20000154        -       0x0000017e   Zero   RW         3258    .bss                myuart.o
    0x200002d2   0x00001ca5   0x00000006   PAD
    0x200002d8        -       0x000000d8   Zero   RW         3484    .bss                main.o
    0x200003b0        -       0x00000088   Zero   RW         3662    .bss                tos_global.o
    0x20000438        -       0x00000058   Zero   RW         3663    .bss                tos_global.o
    0x20000490        -       0x00000050   Zero   RW         3664    .bss                tos_global.o
    0x200004e0        -       0x00000800   Zero   RW          399    STACK               startup_hc32l13x.o


==============================================================================

Image component sizes


      Code (inc. data)   RO Data    RW Data    ZI Data      Debug   Object Name

        74         14          0          0          0       5669   adc.o
        68         12          0          0          0       7979   bt.o
        50          0          0          4          0       3888   ddl.o
       464         78          0          0          0       3860   flash.o
       176         20          0          0          0       5150   gpio.o
       252          0          0          0          0     147379   interrupts_hc32l13x.o
        26          0          0          0          0       2048   lptim.o
        30          0          0          0          0       3583   lpuart.o
        16          4          0          0          0        411   lvd.o
       198         88          0          0        216       4413   main.o
        52          6          0         16          0       1093   myadc.o
        30          0          0          0          0        446   mybt.o
       544          0          0          0         32       7244   myflash.o
        88          0          0          0          0        942   mygpio.o
        14          0          0          0          0        462   myinit.o
        52          8          0          0        200       1063   mylptimer.o
        32          8          0          4          0        688   mylvd.o
       148          4          0          4          0        795   mypcnt.o
        20          0          0          0          0        445   myrtc.o
        64         10          0          8          0        764   myspi.o
        96         14          0         20        382       2624   myuart.o
        20          0          0          0          0        429   mywdt.o
        36         10          0          0          0       2034   pcnt.o
       122         16          0          0          0       9754   port_c.o
       156         24          0          0          0        376   port_s.o
        36         10          0          0          0        918   rtc.o
        18          0          0          0          0       2486   spi.o
        60         22        192          0       2048        620   startup_hc32l13x.o
       668         82         24          0          0       6139   sysctrl.o
        64          4          0          4          0       1587   system_hc32l13x.o
       292         54          0          0          0       5395   tos_cpu.o
         0          0          8         44        304       1348   tos_global.o
        68          0          0          0          0       6210   tos_pend.o
       128         14          0          0          0        986   tos_robin.o
       420         48          0          0          0      11621   tos_sched.o
       436        106          0          0          0      16295   tos_sys.o
       564         50          0          0          0       9239   tos_task.o
       450         24          0          0          0       9220   tos_tick.o
        92         20          0          0          0       2677   wdt.o

    ----------------------------------------------------------------------
      6148        750        256        108       3188     288280   Object Totals
         0          0         32          0          0          0   (incl. Generated)
        24          0          0          4          6          0   (incl. Padding)

    ----------------------------------------------------------------------

      Code (inc. data)   RO Data    RW Data    ZI Data      Debug   Library Member Name

         0          0          0          0          0          0   entry.o
         0          0          0          0          0          0   entry10a.o
         0          0          0          0          0          0   entry11a.o
         8          4          0          0          0          0   entry2.o
         4          0          0          0          0          0   entry5.o
         0          0          0          0          0          0   entry7b.o
         0          0          0          0          0          0   entry8b.o
         8          4          0          0          0          0   entry9a.o
        30          0          0          0          0          0   handlers.o
        36          8          0          0          0         68   init.o
        32          0          0          0          0         68   llshl.o
        34          0          0          0          0         68   llushr.o
        36          0          0          0          0         60   memcpya.o
       492         12          0          0          0        168   printf3.o
        44          0          0          0          0         72   uidiv.o
        96          0          0          0          0         84   uldiv.o

    ----------------------------------------------------------------------
       824         28          0          0          0        588   Library Totals
         4          0          0          0          0          0   (incl. Padding)

    ----------------------------------------------------------------------

      Code (inc. data)   RO Data    RW Data    ZI Data      Debug   Library Name

       820         28          0          0          0        588   mc_p.l

    ----------------------------------------------------------------------
       824         28          0          0          0        588   Library Totals

    ----------------------------------------------------------------------

==============================================================================


      Code (inc. data)   RO Data    RW Data    ZI Data      Debug   

      6972        778        256        108       3188     282508   Grand Totals
      6972        778        256        108       3188     282508   ELF Image Totals
      6972        778        256        108          0          0   ROM Totals

==============================================================================

    Total RO  Size (Code + RO Data)                 7228 (   7.06kB)
    Total RW  Size (RW Data + ZI Data)              3296 (   3.22kB)
    Total ROM Size (Code + RO Data + RW Data)       7336 (   7.16kB)

==============================================================================

