Component: ARM Compiler 5.06 update 6 (build 750) Tool: armlink [4d35ed]

==============================================================================

Section Cross References

    interrupts_hc32l13x.o(i.ADC_IRQHandler) refers (Weak) to myadc.o(i.Adc_IRQHandler) for Adc_IRQHandler
    interrupts_hc32l13x.o(i.LPTIM_IRQHandler) refers (Weak) to mylptimer.o(i.LpTim_IRQHandler) for LpTim_IRQHandler
    interrupts_hc32l13x.o(i.LPUART1_IRQHandler) refers (Weak) to myuart.o(i.LpUart1_IRQHandler) for LpUart1_IRQHandler
    interrupts_hc32l13x.o(i.LVD_IRQHandler) refers (Weak) to mylvd.o(i.Lvd_IRQHandler) for Lvd_IRQHandler
    interrupts_hc32l13x.o(i.PCNT_IRQHandler) refers (Weak) to mypcnt.o(i.Pcnt_IRQHandler) for Pcnt_IRQHandler
    interrupts_hc32l13x.o(i.RTC_IRQHandler) refers (Weak) to myrtc.o(i.Rtc_IRQHandler) for Rtc_IRQHandler
    interrupts_hc32l13x.o(i.SPI0_IRQHandler) refers (Weak) to myspi.o(i.Spi0_IRQHandler) for Spi0_IRQHandler
    interrupts_hc32l13x.o(i.TIM0_IRQHandler) refers (Weak) to mybt.o(i.Tim0_IRQHandler) for Tim0_IRQHandler
    system_hc32l13x.o(i.SystemCoreClockUpdate) refers to sysctrl.o(i.Sysctrl_GetHClkFreq) for Sysctrl_GetHClkFreq
    system_hc32l13x.o(i.SystemCoreClockUpdate) refers to system_hc32l13x.o(.data) for .data
    system_hc32l13x.o(i.SystemInit) refers to sysctrl.o(i.Sysctrl_SetRCLTrim) for Sysctrl_SetRCLTrim
    system_hc32l13x.o(i.SystemInit) refers to sysctrl.o(i.Sysctrl_ClkSourceEnable) for Sysctrl_ClkSourceEnable
    system_hc32l13x.o(i.SystemInit) refers to sysctrl.o(i.Sysctrl_SysClkSwitch) for Sysctrl_SysClkSwitch
    system_hc32l13x.o(i.SystemInit) refers to sysctrl.o(i.Sysctrl_SetRCHTrim) for Sysctrl_SetRCHTrim
    system_hc32l13x.o(i.SystemInit) refers to system_hc32l13x.o(i.SystemCoreClockUpdate) for SystemCoreClockUpdate
    startup_hc32l13x.o(RESET) refers to startup_hc32l13x.o(STACK) for __initial_sp
    startup_hc32l13x.o(RESET) refers to startup_hc32l13x.o(.text) for Reset_Handler
    startup_hc32l13x.o(RESET) refers to context_rvds.o(.text) for HardFault_Handler
==============================================================================

Removing Unused input sections from the image.

    Removing interrupts_hc32l13x.o(.rev16_text), (4 bytes).
    Removing interrupts_hc32l13x.o(.revsh_text), (4 bytes).
    Removing system_hc32l13x.o(.rev16_text), (4 bytes).
    Removing system_hc32l13x.o(.revsh_text), (4 bytes).
    Removing startup_hc32l13x.o(HEAP), (256 bytes).
    Removing adc.o(.rev16_text), (4 bytes).
    Removing adc.o(.revsh_text), (4 bytes).
    Removing adc.o(i.Adc_CfgJqrChannel), (80 bytes).
    Removing adc.o(i.Adc_CfgSglChannel), (28 bytes).
    Removing adc.o(i.Adc_CfgSqrChannel), (248 bytes).
    Removing adc.o(i.Adc_ClrAccResult), (16 bytes).
    Removing adc.o(i.Adc_Disable), (16 bytes).
    Removing adc.o(i.Adc_DisableIrq), (16 bytes).
    Removing adc.o(i.Adc_GetAccResult), (12 bytes).
    Removing adc.o(i.Adc_GetJqrResult), (12 bytes).
    Removing adc.o(i.Adc_GetSglResult), (12 bytes).
    Removing adc.o(i.Adc_JQR_Start), (12 bytes).
    Removing adc.o(i.Adc_JQR_Stop), (12 bytes).
==============================================================================

Image Symbol Table

    Local Symbols

    Symbol Name                              Value     Ov Type        Size  Object(Section)

    RESET                                    0x00000000   Section      192  startup_hc32l13x.o(RESET)
    ../clib/microlib/ctype/ctype.c           0x00000000   Number         0  ctype_c.o ABSOLUTE
    ../clib/microlib/ctype/ctype.c           0x00000000   Number         0  isspace_c.o ABSOLUTE
    ../clib/microlib/division.c              0x00000000   Number         0  ldiv.o ABSOLUTE
    ../clib/microlib/division.c              0x00000000   Number         0  uidiv.o ABSOLUTE
    ../clib/microlib/division.c              0x00000000   Number         0  uldiv.o ABSOLUTE
    ../clib/microlib/division.c              0x00000000   Number         0  idiv.o ABSOLUTE
    ../clib/microlib/init/entry.s            0x00000000   Number         0  entry9a.o ABSOLUTE
    ../clib/microlib/init/entry.s            0x00000000   Number         0  entry5.o ABSOLUTE
    ../clib/microlib/init/entry.s            0x00000000   Number         0  entry2.o ABSOLUTE
    ../clib/microlib/init/entry.s            0x00000000   Number         0  entry11b.o ABSOLUTE
    ../clib/microlib/init/entry.s            0x00000000   Number         0  entry7b.o ABSOLUTE
    ../clib/microlib/init/entry.s            0x00000000   Number         0  entry11a.o ABSOLUTE
    ../clib/microlib/init/entry.s            0x00000000   Number         0  entry10b.o ABSOLUTE
    ../clib/microlib/init/entry.s            0x00000000   Number         0  entry7a.o ABSOLUTE
    ../clib/microlib/init/entry.s            0x00000000   Number         0  entry10a.o ABSOLUTE
    ../clib/microlib/init/entry.s            0x00000000   Number         0  entry9b.o ABSOLUTE
    ../clib/microlib/init/entry.s            0x00000000   Number         0  entry.o ABSOLUTE
    ../clib/microlib/init/entry.s            0x00000000   Number         0  entry8b.o ABSOLUTE
    ../clib/microlib/init/entry.s            0x00000000   Number         0  entry8a.o ABSOLUTE
    ../clib/microlib/longlong.c              0x00000000   Number         0  llsshr.o ABSOLUTE
    ../clib/microlib/longlong.c              0x00000000   Number         0  llushr.o ABSOLUTE
    ../clib/microlib/longlong.c              0x00000000   Number         0  llshl.o ABSOLUTE
    ../clib/microlib/printf/printf.c         0x00000000   Number         0  printf7.o ABSOLUTE
    ../clib/microlib/printf/printf.c         0x00000000   Number         0  printf2.o ABSOLUTE
    ../clib/microlib/printf/printf.c         0x00000000   Number         0  printf5.o ABSOLUTE
    ../clib/microlib/printf/printf.c         0x00000000   Number         0  printf8.o ABSOLUTE
    ../clib/microlib/printf/printf.c         0x00000000   Number         0  printf6.o ABSOLUTE
    ../clib/microlib/printf/printf.c         0x00000000   Number         0  printfa.o ABSOLUTE
    ../clib/microlib/printf/printf.c         0x00000000   Number         0  printf1.o ABSOLUTE
    ../clib/microlib/printf/printf.c         0x00000000   Number         0  printf0.o ABSOLUTE
    ../clib/microlib/printf/printf.c         0x00000000   Number         0  printf4.o ABSOLUTE
    ../clib/microlib/printf/printf.c         0x00000000   Number         0  printfb.o ABSOLUTE
    ../clib/microlib/printf/printf.c         0x00000000   Number         0  printf3.o ABSOLUTE
    ../clib/microlib/printf/stubs.s          0x00000000   Number         0  stubs.o ABSOLUTE
    ../clib/microlib/string/memcpy.c         0x00000000   Number         0  memcpyb.o ABSOLUTE
    ../clib/microlib/string/memcpy.c         0x00000000   Number         0  memcpya.o ABSOLUTE
    ../clib/microlib/string/memset.c         0x00000000   Number         0  memseta.o ABSOLUTE
    ../clib/microlib/string/strchr.c         0x00000000   Number         0  strchr.o ABSOLUTE
    ../clib/microlib/stubs.s                 0x00000000   Number         0  iusefp.o ABSOLUTE
    ../clib/microlib/stubs.s                 0x00000000   Number         0  useno.o ABSOLUTE
    ../clib/scanf.c                          0x00000000   Number         0  _scanf_str.o ABSOLUTE
    ../clib/scanf.c                          0x00000000   Number         0  _scanf_int.o ABSOLUTE
    ../clib/scanf.c                          0x00000000   Number         0  __0sscanf.o ABSOLUTE
    ../clib/scanf.c                          0x00000000   Number         0  _sgetc.o ABSOLUTE
    ../clib/scanf.c                          0x00000000   Number         0  scanf_char.o ABSOLUTE
    ../clib/scanf.c                          0x00000000   Number         0  _chval.o ABSOLUTE
    ../clib/scanf.c                          0x00000000   Number         0  _scanf.o ABSOLUTE
    ../fplib/microlib/fpadd.c                0x00000000   Number         0  dadd.o ABSOLUTE
    ../fplib/microlib/fpdiv.c                0x00000000   Number         0  ddiv.o ABSOLUTE
    ../fplib/microlib/fpepilogue.c           0x00000000   Number         0  depilogue.o ABSOLUTE
    ../fplib/microlib/fpfix.c                0x00000000   Number         0  dfixul.o ABSOLUTE
    ../fplib/microlib/fpflt.c                0x00000000   Number         0  dfltui.o ABSOLUTE
    ../fplib/microlib/fpmul.c                0x00000000   Number         0  dmul.o ABSOLUTE
    ..\RT-Thread\3.1.3\bsp\board.c           0x00000000   Number         0  board.o ABSOLUTE
    ..\RT-Thread\3.1.3\libcpu\arm\cortex-m0\context_rvds.S 0x00000000   Number         0  context_rvds.o ABSOLUTE
    ..\RT-Thread\3.1.3\libcpu\arm\cortex-m0\cpuport.c 0x00000000   Number         0  cpuport.o ABSOLUTE
    ..\RT-Thread\3.1.3\src\clock.c           0x00000000   Number         0  clock.o ABSOLUTE
    ..\RT-Thread\3.1.3\src\components.c      0x00000000   Number         0  components.o ABSOLUTE
    ..\RT-Thread\3.1.3\src\idle.c            0x00000000   Number         0  idle.o ABSOLUTE
    ..\RT-Thread\3.1.3\src\ipc.c             0x00000000   Number         0  ipc.o ABSOLUTE
    ..\RT-Thread\3.1.3\src\irq.c             0x00000000   Number         0  irq.o ABSOLUTE
    ..\RT-Thread\3.1.3\src\kservice.c        0x00000000   Number         0  kservice.o ABSOLUTE
    ..\RT-Thread\3.1.3\src\mem.c             0x00000000   Number         0  mem.o ABSOLUTE
    ..\RT-Thread\3.1.3\src\object.c          0x00000000   Number         0  object.o ABSOLUTE
    ..\RT-Thread\3.1.3\src\scheduler.c       0x00000000   Number         0  scheduler.o ABSOLUTE
    ..\RT-Thread\3.1.3\src\thread.c          0x00000000   Number         0  thread.o ABSOLUTE
    ..\RT-Thread\3.1.3\src\timer.c           0x00000000   Number         0  timer.o ABSOLUTE
    ..\\RT-Thread\\3.1.3\\bsp\\board.c       0x00000000   Number         0  board.o ABSOLUTE
    ..\\RT-Thread\\3.1.3\\src\\kservice.c    0x00000000   Number         0  kservice.o ABSOLUTE
    ..\\common\\interrupts_hc32l13x.c        0x00000000   Number         0  interrupts_hc32l13x.o ABSOLUTE
    ..\\common\\system_hc32l13x.c            0x00000000   Number         0  system_hc32l13x.o ABSOLUTE
    ..\\driver\\src\\adc.c                   0x00000000   Number         0  adc.o ABSOLUTE
    ..\\driver\\src\\bgr.c                   0x00000000   Number         0  bgr.o ABSOLUTE
    ..\\driver\\src\\bt.c                    0x00000000   Number         0  bt.o ABSOLUTE
    ..\\driver\\src\\ddl.c                   0x00000000   Number         0  ddl.o ABSOLUTE
    ..\\driver\\src\\flash.c                 0x00000000   Number         0  flash.o ABSOLUTE
    ..\\driver\\src\\gpio.c                  0x00000000   Number         0  gpio.o ABSOLUTE
    ..\\driver\\src\\hdiv.c                  0x00000000   Number         0  hdiv.o ABSOLUTE
    ..\\driver\\src\\i2c.c                   0x00000000   Number         0  i2c.o ABSOLUTE
    ..\\driver\\src\\lcd.c                   0x00000000   Number         0  lcd.o ABSOLUTE
    ..\\driver\\src\\lpm.c                   0x00000000   Number         0  lpm.o ABSOLUTE
    ..\\driver\\src\\lptim.c                 0x00000000   Number         0  lptim.o ABSOLUTE
    ..\\driver\\src\\lpuart.c                0x00000000   Number         0  lpuart.o ABSOLUTE
    ..\\driver\\src\\lvd.c                   0x00000000   Number         0  lvd.o ABSOLUTE
    ..\\driver\\src\\pcnt.c                  0x00000000   Number         0  pcnt.o ABSOLUTE
    ..\\driver\\src\\ram.c                   0x00000000   Number         0  ram.o ABSOLUTE
    ..\\driver\\src\\rtc.c                   0x00000000   Number         0  rtc.o ABSOLUTE
    ..\\driver\\src\\spi.c                   0x00000000   Number         0  spi.o ABSOLUTE
    ..\\driver\\src\\sysctrl.c               0x00000000   Number         0  sysctrl.o ABSOLUTE
    ..\\driver\\src\\uart.c                  0x00000000   Number         0  uart.o ABSOLUTE
    ..\\driver\\src\\vc.c                    0x00000000   Number         0  vc.o ABSOLUTE
    ..\\driver\\src\\wdt.c                   0x00000000   Number         0  wdt.o ABSOLUTE
    ..\\hardware\\myADC.c                    0x00000000   Number         0  myadc.o ABSOLUTE
    ..\\hardware\\myBT.c                     0x00000000   Number         0  mybt.o ABSOLUTE
    ..\\hardware\\myCRC.c                    0x00000000   Number         0  mycrc.o ABSOLUTE
    ..\\hardware\\myESP8266.c                0x00000000   Number         0  myesp8266.o ABSOLUTE
    ..\\hardware\\myFLASH.c                  0x00000000   Number         0  myflash.o ABSOLUTE
    ..\\hardware\\myGPIO.c                   0x00000000   Number         0  mygpio.o ABSOLUTE
    ..\\hardware\\myInit.c                   0x00000000   Number         0  myinit.o ABSOLUTE
    ..\\hardware\\myLCD.c                    0x00000000   Number         0  mylcd.o ABSOLUTE
    ..\\hardware\\myLptimer.c                0x00000000   Number         0  mylptimer.o ABSOLUTE
    ..\\hardware\\myLvd.c                    0x00000000   Number         0  mylvd.o ABSOLUTE
    ..\\hardware\\myPcnt.c                   0x00000000   Number         0  mypcnt.o ABSOLUTE
    ..\\hardware\\myRtc.c                    0x00000000   Number         0  myrtc.o ABSOLUTE
    ..\\hardware\\mySPI.c                    0x00000000   Number         0  myspi.o ABSOLUTE
    ..\\hardware\\myTimer.c                  0x00000000   Number         0  mytimer.o ABSOLUTE
    ..\\hardware\\myUart.c                   0x00000000   Number         0  myuart.o ABSOLUTE
    ..\\hardware\\myWdt.c                    0x00000000   Number         0  mywdt.o ABSOLUTE
    ..\\source\\App_Client.c                 0x00000000   Number         0  app_client.o ABSOLUTE
    ..\\source\\App_Key.c                    0x00000000   Number         0  app_key.o ABSOLUTE
    ..\\source\\App_LED_Blink.c              0x00000000   Number         0  app_led_blink.o ABSOLUTE
    ..\\source\\App_Motor.c                  0x00000000   Number         0  app_motor.o ABSOLUTE
    ..\\source\\main.c                       0x00000000   Number         0  main.o ABSOLUTE
    ..\\source\\my_debug.c                   0x00000000   Number         0  my_debug.o ABSOLUTE
    ..\\source\\my_sleep_server.c            0x00000000   Number         0  my_sleep_server.o ABSOLUTE
    ..\common\interrupts_hc32l13x.c          0x00000000   Number         0  interrupts_hc32l13x.o ABSOLUTE
    ..\common\startup_hc32l13x.s             0x00000000   Number         0  startup_hc32l13x.o ABSOLUTE
    ..\common\system_hc32l13x.c              0x00000000   Number         0  system_hc32l13x.o ABSOLUTE
    ..\driver\src\adc.c                      0x00000000   Number         0  adc.o ABSOLUTE
    ..\driver\src\bgr.c                      0x00000000   Number         0  bgr.o ABSOLUTE
    ..\driver\src\bt.c                       0x00000000   Number         0  bt.o ABSOLUTE
    ..\driver\src\ddl.c                      0x00000000   Number         0  ddl.o ABSOLUTE
    ..\driver\src\flash.c                    0x00000000   Number         0  flash.o ABSOLUTE
    ..\driver\src\gpio.c                     0x00000000   Number         0  gpio.o ABSOLUTE
    ..\driver\src\hdiv.c                     0x00000000   Number         0  hdiv.o ABSOLUTE
    ..\driver\src\i2c.c                      0x00000000   Number         0  i2c.o ABSOLUTE
    ..\driver\src\lcd.c                      0x00000000   Number         0  lcd.o ABSOLUTE
    ..\driver\src\lpm.c                      0x00000000   Number         0  lpm.o ABSOLUTE
    ..\driver\src\lptim.c                    0x00000000   Number         0  lptim.o ABSOLUTE
    ..\driver\src\lpuart.c                   0x00000000   Number         0  lpuart.o ABSOLUTE
    ..\driver\src\lvd.c                      0x00000000   Number         0  lvd.o ABSOLUTE
    ..\driver\src\pcnt.c                     0x00000000   Number         0  pcnt.o ABSOLUTE
    ..\driver\src\ram.c                      0x00000000   Number         0  ram.o ABSOLUTE
    ..\driver\src\rtc.c                      0x00000000   Number         0  rtc.o ABSOLUTE
    ..\driver\src\spi.c                      0x00000000   Number         0  spi.o ABSOLUTE
    ..\driver\src\sysctrl.c                  0x00000000   Number         0  sysctrl.o ABSOLUTE
    ..\driver\src\uart.c                     0x00000000   Number         0  uart.o ABSOLUTE
    ..\driver\src\vc.c                       0x00000000   Number         0  vc.o ABSOLUTE
    ..\driver\src\wdt.c                      0x00000000   Number         0  wdt.o ABSOLUTE
    ..\hardware\myADC.c                      0x00000000   Number         0  myadc.o ABSOLUTE
    ..\hardware\myBT.c                       0x00000000   Number         0  mybt.o ABSOLUTE
    ..\hardware\myCRC.c                      0x00000000   Number         0  mycrc.o ABSOLUTE
    ..\hardware\myESP8266.c                  0x00000000   Number         0  myesp8266.o ABSOLUTE
    ..\hardware\myFLASH.c                    0x00000000   Number         0  myflash.o ABSOLUTE
    ..\hardware\myGPIO.c                     0x00000000   Number         0  mygpio.o ABSOLUTE
    ..\hardware\myInit.c                     0x00000000   Number         0  myinit.o ABSOLUTE
    ..\hardware\myLCD.c                      0x00000000   Number         0  mylcd.o ABSOLUTE
    ..\hardware\myLptimer.c                  0x00000000   Number         0  mylptimer.o ABSOLUTE
    ..\hardware\myLvd.c                      0x00000000   Number         0  mylvd.o ABSOLUTE
    ..\hardware\myPcnt.c                     0x00000000   Number         0  mypcnt.o ABSOLUTE
    ..\hardware\myRtc.c                      0x00000000   Number         0  myrtc.o ABSOLUTE
    ..\hardware\mySPI.c                      0x00000000   Number         0  myspi.o ABSOLUTE
    ..\hardware\myTimer.c                    0x00000000   Number         0  mytimer.o ABSOLUTE
    ..\hardware\myUart.c                     0x00000000   Number         0  myuart.o ABSOLUTE
    ..\hardware\myWdt.c                      0x00000000   Number         0  mywdt.o ABSOLUTE
    ..\source\App_Client.c                   0x00000000   Number         0  app_client.o ABSOLUTE
    ..\source\App_Key.c                      0x00000000   Number         0  app_key.o ABSOLUTE
    ..\source\App_LED_Blink.c                0x00000000   Number         0  app_led_blink.o ABSOLUTE
    ..\source\App_Motor.c                    0x00000000   Number         0  app_motor.o ABSOLUTE
    ..\source\main.c                         0x00000000   Number         0  main.o ABSOLUTE
    ..\source\my_debug.c                     0x00000000   Number         0  my_debug.o ABSOLUTE
    ..\source\my_sleep_server.c              0x00000000   Number         0  my_sleep_server.o ABSOLUTE
    cdcmple.s                                0x00000000   Number         0  cdcmple.o ABSOLUTE
    cdrcmple.s                               0x00000000   Number         0  cdrcmple.o ABSOLUTE
    dc.s                                     0x00000000   Number         0  dc.o ABSOLUTE
    handlers.s                               0x00000000   Number         0  handlers.o ABSOLUTE
    init.s                                   0x00000000   Number         0  init.o ABSOLUTE
    .ARM.Collect$$$$00000000                 0x000000c0   Section        0  entry.o(.ARM.Collect$$$$00000000)
    .ARM.Collect$$$$00000001                 0x000000c0   Section        4  entry2.o(.ARM.Collect$$$$00000001)
    .ARM.Collect$$$$00000004                 0x000000c4   Section        4  entry5.o(.ARM.Collect$$$$00000004)
    .ARM.Collect$$$$00000008                 0x000000c8   Section        0  entry7b.o(.ARM.Collect$$$$00000008)
    .ARM.Collect$$$$0000000A                 0x000000c8   Section        0  entry8b.o(.ARM.Collect$$$$0000000A)
    .ARM.Collect$$$$0000000B                 0x000000c8   Section        8  entry9a.o(.ARM.Collect$$$$0000000B)
    .ARM.Collect$$$$0000000D                 0x000000d0   Section        0  entry10a.o(.ARM.Collect$$$$0000000D)
    .ARM.Collect$$$$0000000F                 0x000000d0   Section        0  entry11a.o(.ARM.Collect$$$$0000000F)
    .ARM.Collect$$$$00002712                 0x000000d0   Section        4  entry2.o(.ARM.Collect$$$$00002712)
    __lit__00000000                          0x000000d0   Data           4  entry2.o(.ARM.Collect$$$$00002712)
    .text                                    0x000000d4   Section       60  startup_hc32l13x.o(.text)
    .text                                    0x00000110   Section      216  context_rvds.o(.text)
    .text                                    0x000001e8   Section        0  uidiv.o(.text)
    .text                                    0x00000214   Section        0  idiv.o(.text)
    .text                                    0x0000023c   Section        0  ldiv.o(.text)
    .text                                    0x00000288   Section        0  memcpya.o(.text)
    .text                                    0x000002ac   Section        0  memseta.o(.text)
    .text                                    0x000002d0   Section        0  strchr.o(.text)
    .text                                    0x000002e4   Section        0  __0sscanf.o(.text)
    .text                                    0x00000320   Section        0  _scanf_int.o(.text)
    .text                                    0x0000046a   Section        0  _scanf_str.o(.text)
    .text                                    0x00000554   Section        0  dfltui.o(.text)
    .text                                    0x00000570   Section       40  cdcmple.o(.text)
    .text                                    0x00000598   Section        0  uldiv.o(.text)
    .text                                    0x000005f8   Section        0  _chval.o(.text)
    .text                                    0x00000618   Section        0  scanf_char.o(.text)
    _scanf_char_input                        0x00000619   Thumb Code    12  scanf_char.o(.text)
    .text                                    0x00000644   Section        0  _sgetc.o(.text)
    .text                                    0x00000688   Section        0  depilogue.o(.text)
    .text                                    0x00000688   Section        0  iusefp.o(.text)
    .text                                    0x00000748   Section       36  init.o(.text)
    .text                                    0x0000076c   Section        0  llshl.o(.text)
    .text                                    0x0000078c   Section        0  llushr.o(.text)
    .text                                    0x000007ae   Section        0  isspace_c.o(.text)
    .text                                    0x000007bc   Section        0  _scanf.o(.text)
    .text                                    0x00000af4   Section        0  ctype_c.o(.text)
    i.$Sub$$main                             0x00000b18   Section        0  components.o(i.$Sub$$main)
    i.ADC_IRQHandler                         0x00000b22   Section        0  interrupts_hc32l13x.o(i.ADC_IRQHandler)
    i.Adc_ClrIrqStatus                       0x00000b2c   Section        0  adc.o(i.Adc_ClrIrqStatus)
    i.Adc_Enable                             0x00000b3c   Section        0  adc.o(i.Adc_Enable)
    i.Adc_EnableIrq                          0x00000b4c   Section        0  adc.o(i.Adc_EnableIrq)
    i.Adc_GetIrqStatus                       0x00000b5c   Section        0  adc.o(i.Adc_GetIrqStatus)
    i.Adc_GetSqrResult                       0x00000b70   Section        0  adc.o(i.Adc_GetSqrResult)
    i.Adc_IRQHandler                         0x00000b7c   Section        0  myadc.o(i.Adc_IRQHandler)
    i.Adc_Init                               0x00000bb0   Section        0  adc.o(i.Adc_Init)
    i.Adc_SQR_Start                          0x00000c08   Section        0  adc.o(i.Adc_SQR_Start)
    i.Adc_SqrModeCfg                         0x00000c14   Section        0  adc.o(i.Adc_SqrModeCfg)
    i.App_Client                             0x00000c74   Section        0  app_client.o(i.App_Client)
    i.App_KEY                                0x00000cf4   Section        0  app_key.o(i.App_KEY)
    i.App_LED_Blink                          0x00000e14   Section        0  app_led_blink.o(i.App_LED_Blink)
    i.Bgr_BgrEnable                          0x00000e44   Section        0  bgr.o(i.Bgr_BgrEnable)
    i.Bgr_TempSensorEnable                   0x00000e5c   Section        0  bgr.o(i.Bgr_TempSensorEnable)
    i.Bt_ClearIntFlag                        0x00000e74   Section        0  bt.o(i.Bt_ClearIntFlag)
    i.Bt_GetIntFlag                          0x00000e8c   Section        0  bt.o(i.Bt_GetIntFlag)
    i.Bt_M0_Stop                             0x00000ea0   Section        0  bt.o(i.Bt_M0_Stop)
    i.BufferNext                             0x00000eb8   Section        0  myuart.o(i.BufferNext)
    BufferNext                               0x00000eb9   Thumb Code    16  myuart.o(i.BufferNext)
    i.CLKTRIM_IRQHandler                     0x00000ec8   Section        0  interrupts_hc32l13x.o(i.CLKTRIM_IRQHandler)
    i.DMAC_IRQHandler                        0x00000ed0   Section        0  interrupts_hc32l13x.o(i.DMAC_IRQHandler)
    i.ESP8266_PowerON                        0x00000ed8   Section        0  myesp8266.o(i.ESP8266_PowerON)
    i.ESP8266_Shutdown                       0x00000ee4   Section        0  myesp8266.o(i.ESP8266_Shutdown)
    i.EnableNvic                             0x00000ef0   Section        0  interrupts_hc32l13x.o(i.EnableNvic)
    i.FLASH_RAM_IRQHandler                   0x00000f70   Section        0  interrupts_hc32l13x.o(i.FLASH_RAM_IRQHandler)
    i.Factory_Para_to_Flash                  0x00000f7c   Section        0  app_client.o(i.Factory_Para_to_Flash)
    i.Flash_Init                             0x00000fe0   Section        0  flash.o(i.Flash_Init)
    i.Flash_LockAll                          0x00001084   Section        0  flash.o(i.Flash_LockAll)
    i.Flash_SectorErase                      0x000010a0   Section        0  flash.o(i.Flash_SectorErase)
    i.Flash_UnlockAll                        0x00001124   Section        0  flash.o(i.Flash_UnlockAll)
    i.Flash_WaitCycle                        0x00001144   Section        0  flash.o(i.Flash_WaitCycle)
    i.Flash_WriteByte                        0x00001170   Section        0  flash.o(i.Flash_WriteByte)
    i.Flash_WriteWord                        0x000011f8   Section        0  flash.o(i.Flash_WriteWord)
    i.GetBit                                 0x00001280   Section        0  ddl.o(i.GetBit)
    i.Get_mcu_ID                             0x0000128c   Section        0  app_client.o(i.Get_mcu_ID)
    i.Gpio_ClrIO                             0x00001394   Section        0  gpio.o(i.Gpio_ClrIO)
    i.Gpio_GetInputIO                        0x000013a8   Section        0  gpio.o(i.Gpio_GetInputIO)
    i.Gpio_Init                              0x000013b8   Section        0  gpio.o(i.Gpio_Init)
    i.Gpio_SetAfMode                         0x00001440   Section        0  gpio.o(i.Gpio_SetAfMode)
    i.Gpio_SetAnalogMode                     0x00001454   Section        0  gpio.o(i.Gpio_SetAnalogMode)
    i.Gpio_SetIO                             0x00001468   Section        0  gpio.o(i.Gpio_SetIO)
    i.I2C0_IRQHandler                        0x0000147c   Section        0  interrupts_hc32l13x.o(i.I2C0_IRQHandler)
    i.I2C1_IRQHandler                        0x00001484   Section        0  interrupts_hc32l13x.o(i.I2C1_IRQHandler)
    i.Intent_add                             0x0000148c   Section        0  app_motor.o(i.Intent_add)
    i.Intent_next                            0x000014d2   Section        0  app_motor.o(i.Intent_next)
    i.Intent_set                             0x00001508   Section        0  app_motor.o(i.Intent_set)
    i.LCD_IRQHandler                         0x00001522   Section        0  interrupts_hc32l13x.o(i.LCD_IRQHandler)
    i.LED_Control                            0x0000152a   Section        0  app_led_blink.o(i.LED_Control)
    i.LED_loop                               0x000015cc   Section        0  app_led_blink.o(i.LED_loop)
    i.LPTIM_IRQHandler                       0x000015f4   Section        0  interrupts_hc32l13x.o(i.LPTIM_IRQHandler)
    i.LPUART0_IRQHandler                     0x000015fc   Section        0  interrupts_hc32l13x.o(i.LPUART0_IRQHandler)
    i.LPUART1_IRQHandler                     0x00001604   Section        0  interrupts_hc32l13x.o(i.LPUART1_IRQHandler)
    i.LPUart_ClrStatus                       0x0000160c   Section        0  lpuart.o(i.LPUart_ClrStatus)
    i.LPUart_EnableFunc                      0x0000161a   Section        0  lpuart.o(i.LPUart_EnableFunc)
    i.LPUart_EnableIrq                       0x00001628   Section        0  lpuart.o(i.LPUart_EnableIrq)
    i.LPUart_GetStatus                       0x00001636   Section        0  lpuart.o(i.LPUart_GetStatus)
    i.LPUart_Init                            0x00001640   Section        0  lpuart.o(i.LPUart_Init)
    i.LPUart_ReceiveData                     0x000016a4   Section        0  lpuart.o(i.LPUart_ReceiveData)
    i.LVD_IRQHandler                         0x000016aa   Section        0  interrupts_hc32l13x.o(i.LVD_IRQHandler)
    i.LpTim_IRQHandler                       0x000016b4   Section        0  mylptimer.o(i.LpTim_IRQHandler)
    i.LpUart1_IRQHandler                     0x000016f8   Section        0  myuart.o(i.LpUart1_IRQHandler)
    i.Lptim_ClrItStatus                      0x0000175c   Section        0  lptim.o(i.Lptim_ClrItStatus)
    i.Lptim_Cmd                              0x0000176a   Section        0  lptim.o(i.Lptim_Cmd)
    i.Lptim_ConfIt                           0x00001778   Section        0  lptim.o(i.Lptim_ConfIt)
    i.Lptim_GetItStatus                      0x00001786   Section        0  lptim.o(i.Lptim_GetItStatus)
    i.Lptim_Init                             0x00001792   Section        0  lptim.o(i.Lptim_Init)
    i.Luart1_flush                           0x00001828   Section        0  myuart.o(i.Luart1_flush)
    i.Luart1_get_line_none_block             0x00001840   Section        0  myuart.o(i.Luart1_get_line_none_block)
    i.Luart1_getchar                         0x000018ac   Section        0  myuart.o(i.Luart1_getchar)
    i.Lvd_ClearIrq                           0x000018e4   Section        0  lvd.o(i.Lvd_ClearIrq)
    i.Lvd_Enable                             0x000018f4   Section        0  lvd.o(i.Lvd_Enable)
    i.Lvd_EnableIrq                          0x00001904   Section        0  lvd.o(i.Lvd_EnableIrq)
    i.Lvd_IRQHandler                         0x00001914   Section        0  mylvd.o(i.Lvd_IRQHandler)
    i.Lvd_Init                               0x00001934   Section        0  lvd.o(i.Lvd_Init)
    i.M_step_brake_fun                       0x0000195c   Section        0  app_motor.o(i.M_step_brake_fun)
    i.M_step_closd_fun                       0x000019b0   Section        0  app_motor.o(i.M_step_closd_fun)
    i.M_step_closing_fun                     0x000019cc   Section        0  app_motor.o(i.M_step_closing_fun)
    i.M_step_opened_fun                      0x00001a50   Section        0  app_motor.o(i.M_step_opened_fun)
    i.M_step_opening_fun                     0x00001a70   Section        0  app_motor.o(i.M_step_opening_fun)
    i.Motor_Control                          0x00001af4   Section        0  app_motor.o(i.Motor_Control)
    i.Motor_brake                            0x00001b70   Section        0  app_motor.o(i.Motor_brake)
    i.Motor_close                            0x00001b84   Section        0  app_motor.o(i.Motor_close)
    i.Motor_err_rst                          0x00001b98   Section        0  app_motor.o(i.Motor_err_rst)
    i.Motor_free                             0x00001baa   Section        0  app_motor.o(i.Motor_free)
    i.Motor_open                             0x00001bbe   Section        0  app_motor.o(i.Motor_open)
    i.Motor_para_init                        0x00001bd2   Section        0  app_motor.o(i.Motor_para_init)
    i.Motor_reset_sleep_counter              0x00001c06   Section        0  app_motor.o(i.Motor_reset_sleep_counter)
    i.Motor_sensor_closed                    0x00001c18   Section        0  app_motor.o(i.Motor_sensor_closed)
    i.Motor_sensor_opened                    0x00001c2e   Section        0  app_motor.o(i.Motor_sensor_opened)
    i.MyAdcSQRCfg                            0x00001c44   Section        0  myadc.o(i.MyAdcSQRCfg)
    i.PCA_IRQHandler                         0x00001c64   Section        0  interrupts_hc32l13x.o(i.PCA_IRQHandler)
    i.PCNT_IRQHandler                        0x00001c6c   Section        0  interrupts_hc32l13x.o(i.PCNT_IRQHandler)
    i.Pcnt_ClrItStatus                       0x00001c74   Section        0  pcnt.o(i.Pcnt_ClrItStatus)
    i.Pcnt_GetItStatus                       0x00001c88   Section        0  pcnt.o(i.Pcnt_GetItStatus)
    i.Pcnt_IRQHandler                        0x00001c98   Section        0  mypcnt.o(i.Pcnt_IRQHandler)
    i.RTC_IRQHandler                         0x00001d34   Section        0  interrupts_hc32l13x.o(i.RTC_IRQHandler)
    i.Rtc_ClearPrdfItStatus                  0x00001d3c   Section        0  rtc.o(i.Rtc_ClearPrdfItStatus)
    i.Rtc_Cmd                                0x00001d50   Section        0  rtc.o(i.Rtc_Cmd)
    i.Rtc_CompCfg                            0x00001d64   Section        0  rtc.o(i.Rtc_CompCfg)
    i.Rtc_GetPridItStatus                    0x00001d98   Section        0  rtc.o(i.Rtc_GetPridItStatus)
    i.Rtc_IRQHandler                         0x00001da8   Section        0  myrtc.o(i.Rtc_IRQHandler)
    i.Rtc_Init                               0x00001dbc   Section        0  rtc.o(i.Rtc_Init)
    i.Rtc_ReadDateTime                       0x00001e08   Section        0  rtc.o(i.Rtc_ReadDateTime)
    i.Rtc_SetCyc                             0x00001e74   Section        0  rtc.o(i.Rtc_SetCyc)
    i.Rtc_SetTime                            0x00001ec4   Section        0  rtc.o(i.Rtc_SetTime)
    i.SPI0_IRQHandler                        0x00001f2c   Section        0  interrupts_hc32l13x.o(i.SPI0_IRQHandler)
    i.SPI1_IRQHandler                        0x00001f34   Section        0  interrupts_hc32l13x.o(i.SPI1_IRQHandler)
    i.SetBit                                 0x00001f3c   Section        0  ddl.o(i.SetBit)
    i.Signal_ap_udp_cfg                      0x00001f50   Section        0  app_client.o(i.Signal_ap_udp_cfg)
    i.Signal_smart_cfg                       0x00002250   Section        0  app_client.o(i.Signal_smart_cfg)
    i.Spi0_IRQHandler                        0x00002384   Section        0  myspi.o(i.Spi0_IRQHandler)
    i.Spi_ClearStatus                        0x000023cc   Section        0  spi.o(i.Spi_ClearStatus)
    i.Spi_GetStatus                          0x000023d4   Section        0  spi.o(i.Spi_GetStatus)
    i.SysTick_Handler                        0x000023e0   Section        0  board.o(i.SysTick_Handler)
    i.Sysctrl_ClkSourceEnable                0x000023fc   Section        0  sysctrl.o(i.Sysctrl_ClkSourceEnable)
    i.Sysctrl_GetHClkFreq                    0x000024c0   Section        0  sysctrl.o(i.Sysctrl_GetHClkFreq)
    i.Sysctrl_GetPClkFreq                    0x000025fc   Section        0  sysctrl.o(i.Sysctrl_GetPClkFreq)
    i.Sysctrl_SetPeripheralGate              0x00002614   Section        0  sysctrl.o(i.Sysctrl_SetPeripheralGate)
    i.Sysctrl_SetRCHTrim                     0x00002628   Section        0  sysctrl.o(i.Sysctrl_SetRCHTrim)
    i.Sysctrl_SetRCLTrim                     0x0000264c   Section        0  sysctrl.o(i.Sysctrl_SetRCLTrim)
    i.Sysctrl_SysClkSwitch                   0x00002670   Section        0  sysctrl.o(i.Sysctrl_SysClkSwitch)
    i.SystemCoreClockUpdate                  0x00002698   Section        0  system_hc32l13x.o(i.SystemCoreClockUpdate)
    i.SystemInit                             0x000026a8   Section        0  system_hc32l13x.o(i.SystemInit)
    i.TIM0_IRQHandler                        0x000026d8   Section        0  interrupts_hc32l13x.o(i.TIM0_IRQHandler)
    i.TIM1_IRQHandler                        0x000026e0   Section        0  interrupts_hc32l13x.o(i.TIM1_IRQHandler)
    i.TIM2_IRQHandler                        0x000026e8   Section        0  interrupts_hc32l13x.o(i.TIM2_IRQHandler)
    i.TIM3_IRQHandler                        0x000026f0   Section        0  interrupts_hc32l13x.o(i.TIM3_IRQHandler)
    i.TIM4_IRQHandler                        0x000026f8   Section        0  interrupts_hc32l13x.o(i.TIM4_IRQHandler)
    i.TIM5_IRQHandler                        0x00002700   Section        0  interrupts_hc32l13x.o(i.TIM5_IRQHandler)
    i.TIM6_IRQHandler                        0x00002708   Section        0  interrupts_hc32l13x.o(i.TIM6_IRQHandler)
    i.Tim0_IRQHandler                        0x00002710   Section        0  mybt.o(i.Tim0_IRQHandler)
    i.UART0_IRQHandler                       0x0000272e   Section        0  interrupts_hc32l13x.o(i.UART0_IRQHandler)
    i.UART1_IRQHandler                       0x00002736   Section        0  interrupts_hc32l13x.o(i.UART1_IRQHandler)
    i.VC0_IRQHandler                         0x0000273e   Section        0  interrupts_hc32l13x.o(i.VC0_IRQHandler)
    i.VC1_IRQHandler                         0x00002746   Section        0  interrupts_hc32l13x.o(i.VC1_IRQHandler)
    i.WDT_IRQHandler                         0x0000274e   Section        0  interrupts_hc32l13x.o(i.WDT_IRQHandler)
    i.Wdt_Feed                               0x00002758   Section        0  wdt.o(i.Wdt_Feed)
    i.Wdt_Init                               0x00002768   Section        0  wdt.o(i.Wdt_Init)
    i.Wdt_Start                              0x0000278c   Section        0  wdt.o(i.Wdt_Start)
    i.Wdt_WriteWdtLoad                       0x0000279c   Section        0  wdt.o(i.Wdt_WriteWdtLoad)
    i._SysctrlUnlock                         0x000027b4   Section        0  sysctrl.o(i._SysctrlUnlock)
    _SysctrlUnlock                           0x000027b5   Thumb Code    12  sysctrl.o(i._SysctrlUnlock)
    i.__0sprintf$5                           0x000027cc   Section        0  printf5.o(i.__0sprintf$5)
    i.__ARM_clz                              0x000027f4   Section        0  depilogue.o(i.__ARM_clz)
    i.__ARM_common_switch8                   0x00002822   Section        0  adc.o(i.__ARM_common_switch8)
    i.__rt_ffs                               0x0000283c   Section        0  kservice.o(i.__rt_ffs)
    i.__scatterload_copy                     0x0000287c   Section       14  handlers.o(i.__scatterload_copy)
    i.__scatterload_null                     0x0000288a   Section        2  handlers.o(i.__scatterload_null)
    i.__scatterload_zeroinit                 0x0000288c   Section       14  handlers.o(i.__scatterload_zeroinit)
    i._has_defunct_thread                    0x0000289c   Section        0  idle.o(i._has_defunct_thread)
    _has_defunct_thread                      0x0000289d   Thumb Code    16  idle.o(i._has_defunct_thread)
    i._printf_core                           0x000028b0   Section        0  printf5.o(i._printf_core)
    _printf_core                             0x000028b1   Thumb Code   688  printf5.o(i._printf_core)
    i._rt_thread_init                        0x00002b8c   Section        0  thread.o(i._rt_thread_init)
    _rt_thread_init                          0x00002b8d   Thumb Code   110  thread.o(i._rt_thread_init)
    i._rt_timer_init                         0x00002c04   Section        0  timer.o(i._rt_timer_init)
    _rt_timer_init                           0x00002c05   Thumb Code    28  timer.o(i._rt_timer_init)
    i._rt_timer_remove                       0x00002c20   Section        0  timer.o(i._rt_timer_remove)
    _rt_timer_remove                         0x00002c21   Thumb Code    20  timer.o(i._rt_timer_remove)
    i._sputc                                 0x00002c34   Section        0  printf5.o(i._sputc)
    _sputc                                   0x00002c35   Thumb Code    10  printf5.o(i._sputc)
    i.beep_sound                             0x00002c40   Section        0  app_led_blink.o(i.beep_sound)
    i.beep_sound_loop                        0x00002c68   Section        0  app_led_blink.o(i.beep_sound_loop)
    i.client_leds                            0x00002cd0   Section        0  app_led_blink.o(i.client_leds)
    i.client_listen                          0x00002d24   Section        0  app_client.o(i.client_listen)
    i.clr_key_value                          0x00003130   Section        0  app_key.o(i.clr_key_value)
    i.current_page                           0x00003144   Section        0  myflash.o(i.current_page)
    i.ddl_memclr                             0x00003158   Section        0  ddl.o(i.ddl_memclr)
    i.delay100us                             0x0000316c   Section        0  ddl.o(i.delay100us)
    i.device_pow_on_init                     0x000031b0   Section        0  app_client.o(i.device_pow_on_init)
    i.flash_eeprom_entry_write               0x0000329c   Section        0  myflash.o(i.flash_eeprom_entry_write)
    i.flash_eeprom_page_switch               0x00003356   Section        0  myflash.o(i.flash_eeprom_page_switch)
    i.flash_eeprom_pwron_check               0x000033fc   Section        0  myflash.o(i.flash_eeprom_pwron_check)
    i.flash_eeprom_updata_alloc              0x0000342c   Section        0  myflash.o(i.flash_eeprom_updata_alloc)
    i.flash_eeprom_update_active_address     0x00003460   Section        0  myflash.o(i.flash_eeprom_update_active_address)
    i.get_key_status                         0x00003484   Section        0  app_key.o(i.get_key_status)
    i.get_next_list                          0x0000348c   Section        0  app_motor.o(i.get_next_list)
    i.get_water_leak_detector_handler        0x00003498   Section        0  app_client.o(i.get_water_leak_detector_handler)
    i.get_water_leak_detector_status         0x000034a0   Section        0  app_client.o(i.get_water_leak_detector_status)
    i.go_to_sleep                            0x000034ac   Section        0  app_client.o(i.go_to_sleep)
    i.gpio_adc_init                          0x00003500   Section        0  mygpio.o(i.gpio_adc_init)
    i.gpio_io_init                           0x0000350c   Section        0  mygpio.o(i.gpio_io_init)
    i.gpio_uart_init                         0x000036e8   Section        0  mygpio.o(i.gpio_uart_init)
    i.led_temp                               0x00003768   Section        0  app_led_blink.o(i.led_temp)
    i.load_parameters_from_flash             0x00003774   Section        0  app_client.o(i.load_parameters_from_flash)
    i.local_clean_loop                       0x000037e0   Section        0  main.o(i.local_clean_loop)
    i.local_user_loop                        0x00003874   Section        0  main.o(i.local_user_loop)
    i.main                                   0x000038f8   Section        0  main.o(i.main)
    i.main_thread_entry                      0x00003a58   Section        0  components.o(i.main_thread_entry)
    i.motor_cycles_to_s                      0x00003a64   Section        0  app_motor.o(i.motor_cycles_to_s)
    i.myRtcInit                              0x00003a78   Section        0  myrtc.o(i.myRtcInit)
    i.my_WDT_int                             0x00003ad4   Section        0  mywdt.o(i.my_WDT_int)
    i.my_adc_init                            0x00003ae8   Section        0  myadc.o(i.my_adc_init)
    i.my_eeprom_format                       0x00003b5c   Section        0  myflash.o(i.my_eeprom_format)
    i.my_eeprom_init                         0x00003bcc   Section        0  myflash.o(i.my_eeprom_init)
    i.my_eeprom_read                         0x00003bf8   Section        0  myflash.o(i.my_eeprom_read)
    i.my_eeprom_write                        0x00003c28   Section        0  myflash.o(i.my_eeprom_write)
    i.my_flash_init                          0x00003c80   Section        0  myflash.o(i.my_flash_init)
    i.my_gpio_init                           0x00003cb8   Section        0  mygpio.o(i.my_gpio_init)
    i.my_init                                0x00003cd0   Section        0  myinit.o(i.my_init)
    i.my_lp_uart1_init                       0x00003cf8   Section        0  myuart.o(i.my_lp_uart1_init)
    i.my_lp_uart1_send                       0x00003d5c   Section        0  myuart.o(i.my_lp_uart1_send)
    i.my_lptimer_init                        0x00003d7c   Section        0  mylptimer.o(i.my_lptimer_init)
    i.my_lvd_init                            0x00003dec   Section        0  mylvd.o(i.my_lvd_init)
    i.my_uart_init                           0x00003e50   Section        0  myuart.o(i.my_uart_init)
    i.parsing_heart_beat                     0x00003e58   Section        0  app_client.o(i.parsing_heart_beat)
    i.parsing_set_alarm_level                0x00003f48   Section        0  app_client.o(i.parsing_set_alarm_level)
    i.parsing_set_clean_clock                0x00003f9c   Section        0  app_client.o(i.parsing_set_clean_clock)
    i.parsing_set_cmd_wait_time              0x00004004   Section        0  app_client.o(i.parsing_set_cmd_wait_time)
    i.parsing_set_freq_normal                0x00004058   Section        0  app_client.o(i.parsing_set_freq_normal)
    i.parsing_set_ip_port                    0x000040ac   Section        0  app_client.o(i.parsing_set_ip_port)
    i.parsing_set_system_time                0x00004128   Section        0  app_client.o(i.parsing_set_system_time)
    i.plug_holes                             0x000041f0   Section        0  mem.o(i.plug_holes)
    plug_holes                               0x000041f1   Thumb Code    82  mem.o(i.plug_holes)
    i.print_number                           0x00004248   Section        0  kservice.o(i.print_number)
    print_number                             0x00004249   Thumb Code   320  kservice.o(i.print_number)
    i.rt_application_init                    0x0000438c   Section        0  components.o(i.rt_application_init)
    i.rt_components_board_init               0x000043b8   Section        0  components.o(i.rt_components_board_init)
    i.rt_components_init                     0x000043d4   Section        0  components.o(i.rt_components_init)
    i.rt_enter_critical                      0x000043f0   Section        0  scheduler.o(i.rt_enter_critical)
    i.rt_exit_critical                       0x00004408   Section        0  scheduler.o(i.rt_exit_critical)
    i.rt_free                                0x0000443c   Section        0  mem.o(i.rt_free)
    i.rt_heap_begin_get                      0x00004500   Section        0  board.o(i.rt_heap_begin_get)
    i.rt_heap_end_get                        0x00004508   Section        0  board.o(i.rt_heap_end_get)
    i.rt_hw_board_init                       0x00004510   Section        0  board.o(i.rt_hw_board_init)
    i.rt_hw_console_output                   0x00004564   Section        0  kservice.o(i.rt_hw_console_output)
    i.rt_hw_hard_fault_exception             0x00004590   Section        0  cpuport.o(i.rt_hw_hard_fault_exception)
    i.rt_hw_stack_init                       0x00004680   Section        0  cpuport.o(i.rt_hw_stack_init)
    i.rt_interrupt_enter                     0x000046b8   Section        0  irq.o(i.rt_interrupt_enter)
    i.rt_interrupt_leave                     0x000046d0   Section        0  irq.o(i.rt_interrupt_leave)
    i.rt_ipc_list_suspend                    0x000046e8   Section        0  ipc.o(i.rt_ipc_list_suspend)
    rt_ipc_list_suspend                      0x000046e9   Thumb Code    78  ipc.o(i.rt_ipc_list_suspend)
    i.rt_kprintf                             0x00004738   Section        0  kservice.o(i.rt_kprintf)
    i.rt_list_insert_after                   0x0000475c   Section        0  object.o(i.rt_list_insert_after)
    rt_list_insert_after                     0x0000475d   Thumb Code    14  object.o(i.rt_list_insert_after)
    i.rt_list_insert_after                   0x0000476a   Section        0  thread.o(i.rt_list_insert_after)
    rt_list_insert_after                     0x0000476b   Thumb Code    14  thread.o(i.rt_list_insert_after)
    i.rt_list_insert_after                   0x00004778   Section        0  timer.o(i.rt_list_insert_after)
    rt_list_insert_after                     0x00004779   Thumb Code    14  timer.o(i.rt_list_insert_after)
    i.rt_list_insert_before                  0x00004786   Section        0  ipc.o(i.rt_list_insert_before)
    rt_list_insert_before                    0x00004787   Thumb Code    14  ipc.o(i.rt_list_insert_before)
    i.rt_list_remove                         0x00004794   Section        0  object.o(i.rt_list_remove)
    rt_list_remove                           0x00004795   Thumb Code    18  object.o(i.rt_list_remove)
    i.rt_list_remove                         0x000047a6   Section        0  thread.o(i.rt_list_remove)
    rt_list_remove                           0x000047a7   Thumb Code    18  thread.o(i.rt_list_remove)
    i.rt_malloc                              0x000047b8   Section        0  mem.o(i.rt_malloc)
    i.rt_memset                              0x000048a0   Section        0  kservice.o(i.rt_memset)
    i.rt_object_allocate                     0x000048de   Section        0  object.o(i.rt_object_allocate)
    i.rt_object_delete                       0x0000492a   Section        0  object.o(i.rt_object_delete)
    i.rt_object_detach                       0x0000494e   Section        0  object.o(i.rt_object_detach)
    i.rt_object_get_information              0x0000496c   Section        0  object.o(i.rt_object_get_information)
    i.rt_object_init                         0x0000498c   Section        0  object.o(i.rt_object_init)
    i.rt_object_is_systemobject              0x000049d8   Section        0  object.o(i.rt_object_is_systemobject)
    i.rt_schedule                            0x000049e8   Section        0  scheduler.o(i.rt_schedule)
    i.rt_schedule_insert_thread              0x00004a54   Section        0  scheduler.o(i.rt_schedule_insert_thread)
    i.rt_schedule_remove_thread              0x00004ab0   Section        0  scheduler.o(i.rt_schedule_remove_thread)
    i.rt_sem_init                            0x00004b0c   Section        0  ipc.o(i.rt_sem_init)
    i.rt_sem_release                         0x00004b2c   Section        0  ipc.o(i.rt_sem_release)
    i.rt_sem_take                            0x00004b62   Section        0  ipc.o(i.rt_sem_take)
    i.rt_show_version                        0x00004bd4   Section        0  kservice.o(i.rt_show_version)
    i.rt_strlen                              0x00004dac   Section        0  kservice.o(i.rt_strlen)
    i.rt_strncmp                             0x00004dbc   Section        0  kservice.o(i.rt_strncmp)
    i.rt_strncpy                             0x00004de0   Section        0  kservice.o(i.rt_strncpy)
    i.rt_system_heap_init                    0x00004e08   Section        0  mem.o(i.rt_system_heap_init)
    i.rt_system_scheduler_init               0x00004eb0   Section        0  scheduler.o(i.rt_system_scheduler_init)
    i.rt_system_scheduler_start              0x00004ef4   Section        0  scheduler.o(i.rt_system_scheduler_start)
    i.rt_system_timer_init                   0x00004f2c   Section        0  timer.o(i.rt_system_timer_init)
    i.rt_system_timer_thread_init            0x00004f38   Section        0  timer.o(i.rt_system_timer_thread_init)
    i.rt_thread_create                       0x00004f3a   Section        0  thread.o(i.rt_thread_create)
    i.rt_thread_exit                         0x00004f7c   Section        0  thread.o(i.rt_thread_exit)
    i.rt_thread_idle_entry                   0x00004fd4   Section        0  idle.o(i.rt_thread_idle_entry)
    rt_thread_idle_entry                     0x00004fd5   Thumb Code     6  idle.o(i.rt_thread_idle_entry)
    i.rt_thread_idle_excute                  0x00004fdc   Section        0  idle.o(i.rt_thread_idle_excute)
    i.rt_thread_idle_gethandler              0x00005054   Section        0  idle.o(i.rt_thread_idle_gethandler)
    i.rt_thread_idle_init                    0x0000505c   Section        0  idle.o(i.rt_thread_idle_init)
    i.rt_thread_init                         0x00005090   Section        0  thread.o(i.rt_thread_init)
    i.rt_thread_mdelay                       0x000050ba   Section        0  thread.o(i.rt_thread_mdelay)
    i.rt_thread_resume                       0x000050c6   Section        0  thread.o(i.rt_thread_resume)
    i.rt_thread_self                         0x00005104   Section        0  thread.o(i.rt_thread_self)
    i.rt_thread_sleep                        0x00005110   Section        0  thread.o(i.rt_thread_sleep)
    i.rt_thread_startup                      0x00005150   Section        0  thread.o(i.rt_thread_startup)
    i.rt_thread_suspend                      0x0000518c   Section        0  thread.o(i.rt_thread_suspend)
    i.rt_thread_timeout                      0x000051cc   Section        0  thread.o(i.rt_thread_timeout)
    i.rt_thread_yield                        0x000051ec   Section        0  thread.o(i.rt_thread_yield)
    i.rt_tick_from_millisecond               0x00005248   Section        0  clock.o(i.rt_tick_from_millisecond)
    i.rt_tick_get                            0x00005278   Section        0  clock.o(i.rt_tick_get)
    i.rt_tick_increase                       0x00005284   Section        0  clock.o(i.rt_tick_increase)
    i.rt_timer_check                         0x000052ac   Section        0  timer.o(i.rt_timer_check)
    i.rt_timer_control                       0x00005310   Section        0  timer.o(i.rt_timer_control)
    i.rt_timer_detach                        0x00005342   Section        0  timer.o(i.rt_timer_detach)
    i.rt_timer_init                          0x00005362   Section        0  timer.o(i.rt_timer_init)
    i.rt_timer_start                         0x00005388   Section        0  timer.o(i.rt_timer_start)
    i.rt_timer_stop                          0x00005418   Section        0  timer.o(i.rt_timer_stop)
    i.rt_vsnprintf                           0x00005448   Section        0  kservice.o(i.rt_vsnprintf)
    i.rti_board_end                          0x000056b4   Section        0  components.o(i.rti_board_end)
    rti_board_end                            0x000056b5   Thumb Code     4  components.o(i.rti_board_end)
    i.rti_board_start                        0x000056b8   Section        0  components.o(i.rti_board_start)
    rti_board_start                          0x000056b9   Thumb Code     4  components.o(i.rti_board_start)
    i.rti_end                                0x000056bc   Section        0  components.o(i.rti_end)
    rti_end                                  0x000056bd   Thumb Code     4  components.o(i.rti_end)
    i.rti_start                              0x000056c0   Section        0  components.o(i.rti_start)
    rti_start                                0x000056c1   Thumb Code     4  components.o(i.rti_start)
    i.rtthread_startup                       0x000056c4   Section        0  components.o(i.rtthread_startup)
    i.send_heart_beat                        0x000056f0   Section        0  app_client.o(i.send_heart_beat)
    i.send_report                            0x00005794   Section        0  app_client.o(i.send_report)
    i.send_setting                           0x00005954   Section        0  app_client.o(i.send_setting)
    i.server_connect                         0x00005af4   Section        0  app_client.o(i.server_connect)
    i.skip_atoi                              0x00005c80   Section        0  kservice.o(i.skip_atoi)
    skip_atoi                                0x00005c81   Thumb Code    32  kservice.o(i.skip_atoi)
    i.sleep_listen                           0x00005ca0   Section        0  my_sleep_server.o(i.sleep_listen)
    i.sleep_parsing_heart_beat               0x0000608c   Section        0  my_sleep_server.o(i.sleep_parsing_heart_beat)
    i.sleep_server                           0x000060f8   Section        0  my_sleep_server.o(i.sleep_server)
    i.sleep_server_leds                      0x00006500   Section        0  app_led_blink.o(i.sleep_server_leds)
    i.smart_config                           0x00006538   Section        0  app_client.o(i.smart_config)
    i.status_switch                          0x000065a2   Section        0  app_client.o(i.status_switch)
    i.wifi_connect                           0x000065b4   Section        0  app_client.o(i.wifi_connect)
    .constdata                               0x0000676c   Section       32  flash.o(.constdata)
    .constdata                               0x0000678c   Section       24  sysctrl.o(.constdata)
    .constdata                               0x000067a4   Section       12  lpuart.o(.constdata)
    .constdata                               0x000067b0   Section      290  kservice.o(.constdata)
    small_digits                             0x000068b0   Data          17  kservice.o(.constdata)
    large_digits                             0x000068c1   Data          17  kservice.o(.constdata)
    .constdata                               0x000068d2   Section       64  ctype_c.o(.constdata)
    .rti_fn.0                                0x00006914   Section        4  components.o(.rti_fn.0)
    __tagsym$$used                           0x00006914   Number         0  components.o(.rti_fn.0)
    .rti_fn.0.end                            0x00006918   Section        4  components.o(.rti_fn.0.end)
    __tagsym$$used                           0x00006918   Number         0  components.o(.rti_fn.0.end)
    .rti_fn.1                                0x0000691c   Section        4  myinit.o(.rti_fn.1)
    __tagsym$$used                           0x0000691c   Number         0  myinit.o(.rti_fn.1)
    .rti_fn.1.end                            0x00006920   Section        4  components.o(.rti_fn.1.end)
    __tagsym$$used                           0x00006920   Number         0  components.o(.rti_fn.1.end)
    .rti_fn.6.end                            0x00006924   Section        4  components.o(.rti_fn.6.end)
    __tagsym$$used                           0x00006924   Number         0  components.o(.rti_fn.6.end)
    .data                                    0x20000000   Section        4  system_hc32l13x.o(.data)
    .data                                    0x20000004   Section        8  myadc.o(.data)
    ch0                                      0x20000004   Data           4  myadc.o(.data)
    ch1                                      0x20000008   Data           4  myadc.o(.data)
    .data                                    0x2000000c   Section        4  mylvd.o(.data)
    .data                                    0x20000010   Section        4  mypcnt.o(.data)
    .data                                    0x20000014   Section       20  myuart.o(.data)
    i                                        0x2000001c   Data           4  myuart.o(.data)
    line_start_flag                          0x20000020   Data           4  myuart.o(.data)
    data                                     0x20000024   Data           4  myuart.o(.data)
    .data                                    0x20000028   Section        8  myspi.o(.data)
    .data                                    0x20000030   Section       12  app_led_blink.o(.data)
    beep_on_time                             0x20000030   Data           1  app_led_blink.o(.data)
    beep_off_time                            0x20000031   Data           1  app_led_blink.o(.data)
    beep_cycles                              0x20000032   Data           1  app_led_blink.o(.data)
    beep_on_time_re                          0x20000033   Data           1  app_led_blink.o(.data)
    beep_off_time_re                         0x20000034   Data           1  app_led_blink.o(.data)
    current_beep_status                      0x20000035   Data           1  app_led_blink.o(.data)
    led_buf_sum                              0x20000038   Data           4  app_led_blink.o(.data)
    .data                                    0x2000003c   Section       32  app_client.o(.data)
    Step_status                              0x2000003c   Data           1  app_client.o(.data)
    Step_status                              0x2000003d   Data           1  app_client.o(.data)
    local_timer                              0x20000040   Data           4  app_client.o(.data)
    step                                     0x20000044   Data           4  app_client.o(.data)
    step                                     0x20000048   Data           4  app_client.o(.data)
    local_timer                              0x2000004c   Data           4  app_client.o(.data)
    step                                     0x20000050   Data           4  app_client.o(.data)
    local_timer                              0x20000054   Data           4  app_client.o(.data)
    time_acc                                 0x20000058   Data           4  app_client.o(.data)
    .data                                    0x2000005c   Section       24  my_sleep_server.o(.data)
    check_step                               0x20000060   Data           4  my_sleep_server.o(.data)
    check_time_counter                       0x20000064   Data           4  my_sleep_server.o(.data)
    max_check_cycle_time                     0x20000068   Data           4  my_sleep_server.o(.data)
    local_timer                              0x2000006c   Data           4  my_sleep_server.o(.data)
    step                                     0x20000070   Data           4  my_sleep_server.o(.data)
    .data                                    0x20000074   Section        8  app_motor.o(.data)
    step_over                                0x20000074   Data           4  app_motor.o(.data)
    step_over                                0x20000078   Data           4  app_motor.o(.data)
    .data                                    0x2000007c   Section        4  cpuport.o(.data)
    .data                                    0x20000080   Section        4  cpuport.o(.data)
    .data                                    0x20000084   Section        4  cpuport.o(.data)
    .data                                    0x20000088   Section        4  clock.o(.data)
    rt_tick                                  0x20000088   Data           4  clock.o(.data)
    .data                                    0x2000008c   Section        1  irq.o(.data)
    .data                                    0x20000090   Section       24  mem.o(.data)
    heap_ptr                                 0x20000090   Data           4  mem.o(.data)
    heap_end                                 0x20000094   Data           4  mem.o(.data)
    lfree                                    0x20000098   Data           4  mem.o(.data)
    mem_size_aligned                         0x2000009c   Data           4  mem.o(.data)
    used_mem                                 0x200000a0   Data           4  mem.o(.data)
    max_mem                                  0x200000a4   Data           4  mem.o(.data)
    .data                                    0x200000a8   Section       80  object.o(.data)
    rt_object_container                      0x200000a8   Data          80  object.o(.data)
    .data                                    0x200000f8   Section       20  scheduler.o(.data)
    rt_scheduler_lock_nest                   0x200000fa   Data           2  scheduler.o(.data)
    .data                                    0x2000010c   Section       12  timer.o(.data)
    random_nr                                0x2000010c   Data           4  timer.o(.data)
    rt_timer_list                            0x20000110   Data           8  timer.o(.data)
    .data                                    0x20000118   Section        4  board.o(.data)
    .bss                                     0x2000011c   Section       32  myflash.o(.bss)
    .bss                                     0x2000013c   Section      200  mylptimer.o(.bss)
    my_timers                                0x2000013c   Data         200  mylptimer.o(.bss)
    .bss                                     0x20000204   Section      100  myuart.o(.bss)
    .bss                                     0x20000268   Section      382  myuart.o(.bss)
    .bss                                     0x200003e8   Section       40  app_led_blink.o(.bss)
    led_status_buf                           0x200003e8   Data          40  app_led_blink.o(.bss)
    .bss                                     0x20000410   Section       76  app_key.o(.bss)
    my_key                                   0x20000410   Data          76  app_key.o(.bss)
    .bss                                     0x2000045c   Section      156  app_client.o(.bss)
    .bss                                     0x200004f8   Section       56  app_motor.o(.bss)
    .bss                                     0x20000530   Section      388  idle.o(.bss)
    idle                                     0x20000530   Data         132  idle.o(.bss)
    rt_thread_stack                          0x200005b4   Data         256  idle.o(.bss)
    .bss                                     0x200006b4   Section      128  kservice.o(.bss)
    rt_log_buf                               0x200006b4   Data         128  kservice.o(.bss)
    .bss                                     0x20000734   Section       32  mem.o(.bss)
    heap_sem                                 0x20000734   Data          32  mem.o(.bss)
    .bss                                     0x20000754   Section     1048  scheduler.o(.bss)
    .bss                                     0x20000b6c   Section     2048  board.o(.bss)
    rt_heap                                  0x20000b6c   Data        2048  board.o(.bss)
    STACK                                    0x20001370   Section     2048  startup_hc32l13x.o(STACK)

    Global Symbols

    Symbol Name                              Value     Ov Type        Size  Object(Section)

    BuildAttributes$$THM_ISAv3M$S$PE$A:L22$X:L11$S22$IEEE1$IW$USESV6$~STKCKD$USESV7$~SHL$OSPACE$ROPI$EBA8$MICROLIB$REQ8$PRES8$EABIv2 0x00000000   Number         0  anon$$obj.o ABSOLUTE
    __ARM_use_no_argv                        0x00000000   Number         0  main.o ABSOLUTE
    __Vectors                                0x00000000   Data           0  startup_hc32l13x.o(RESET)
    __use_no_errno                           0x00000000   Number         0  useno.o ABSOLUTE
    __use_no_exception_handling              0x00000000   Number         0  useno.o ABSOLUTE
    __use_no_fp                              0x00000000   Number         0  useno.o ABSOLUTE
    __use_no_heap                            0x00000000   Number         0  useno.o ABSOLUTE
    __use_no_heap_region                     0x00000000   Number         0  useno.o ABSOLUTE
    __use_no_semihosting                     0x00000000   Number         0  useno.o ABSOLUTE
    __use_no_semihosting_swi                 0x00000000   Number         0  useno.o ABSOLUTE
    __use_no_signal_handling                 0x00000000   Number         0  useno.o ABSOLUTE
    _printf_a                                0x00000000   Number         0  stubs.o ABSOLUTE
    _printf_c                                0x00000000   Number         0  stubs.o ABSOLUTE
    _printf_charcount                        0x00000000   Number         0  stubs.o ABSOLUTE
    _printf_d                                0x00000000   Number         0  stubs.o ABSOLUTE
    _printf_e                                0x00000000   Number         0  stubs.o ABSOLUTE
    _printf_f                                0x00000000   Number         0  stubs.o ABSOLUTE
    _printf_flags                            0x00000000   Number         0  stubs.o ABSOLUTE
    _printf_fp_dec                           0x00000000   Number         0  stubs.o ABSOLUTE
    _printf_fp_hex                           0x00000000   Number         0  stubs.o ABSOLUTE
    _printf_g                                0x00000000   Number         0  stubs.o ABSOLUTE
    _printf_i                                0x00000000   Number         0  stubs.o ABSOLUTE
    _printf_int_dec                          0x00000000   Number         0  stubs.o ABSOLUTE
    _printf_l                                0x00000000   Number         0  stubs.o ABSOLUTE
    _printf_lc                               0x00000000   Number         0  stubs.o ABSOLUTE
    _printf_ll                               0x00000000   Number         0  stubs.o ABSOLUTE
    _printf_lld                              0x00000000   Number         0  stubs.o ABSOLUTE
    _printf_lli                              0x00000000   Number         0  stubs.o ABSOLUTE
    _printf_llo                              0x00000000   Number         0  stubs.o ABSOLUTE
    _printf_llu                              0x00000000   Number         0  stubs.o ABSOLUTE
    _printf_llx                              0x00000000   Number         0  stubs.o ABSOLUTE
    _printf_longlong_dec                     0x00000000   Number         0  stubs.o ABSOLUTE
    _printf_longlong_hex                     0x00000000   Number         0  stubs.o ABSOLUTE
    _printf_longlong_oct                     0x00000000   Number         0  stubs.o ABSOLUTE
    _printf_ls                               0x00000000   Number         0  stubs.o ABSOLUTE
    _printf_mbtowc                           0x00000000   Number         0  stubs.o ABSOLUTE
    _printf_n                                0x00000000   Number         0  stubs.o ABSOLUTE
    _printf_o                                0x00000000   Number         0  stubs.o ABSOLUTE
    _printf_p                                0x00000000   Number         0  stubs.o ABSOLUTE
    _printf_percent                          0x00000000   Number         0  stubs.o ABSOLUTE
    _printf_pre_padding                      0x00000000   Number         0  stubs.o ABSOLUTE
    _printf_return_value                     0x00000000   Number         0  stubs.o ABSOLUTE
    _printf_s                                0x00000000   Number         0  stubs.o ABSOLUTE
    _printf_sizespec                         0x00000000   Number         0  stubs.o ABSOLUTE
    _printf_str                              0x00000000   Number         0  stubs.o ABSOLUTE
    _printf_truncate_signed                  0x00000000   Number         0  stubs.o ABSOLUTE
    _printf_truncate_unsigned                0x00000000   Number         0  stubs.o ABSOLUTE
    _printf_u                                0x00000000   Number         0  stubs.o ABSOLUTE
    _printf_wc                               0x00000000   Number         0  stubs.o ABSOLUTE
    _printf_wctomb                           0x00000000   Number         0  stubs.o ABSOLUTE
    _printf_widthprec                        0x00000000   Number         0  stubs.o ABSOLUTE
    _printf_x                                0x00000000   Number         0  stubs.o ABSOLUTE
    ClkTrim_IRQHandler                        - Undefined Weak Reference
    Dmac_IRQHandler                           - Undefined Weak Reference
    Flash_IRQHandler                          - Undefined Weak Reference
    I2c0_IRQHandler                           - Undefined Weak Reference
    I2c1_IRQHandler                           - Undefined Weak Reference
    Lcd_IRQHandler                            - Undefined Weak Reference
    LpUart0_IRQHandler                        - Undefined Weak Reference
    Pca_IRQHandler                            - Undefined Weak Reference
    Ram_IRQHandler                            - Undefined Weak Reference
    Spi1_IRQHandler                           - Undefined Weak Reference
    Tim1_IRQHandler                           - Undefined Weak Reference
    Tim2_IRQHandler                           - Undefined Weak Reference
    Tim3_IRQHandler                           - Undefined Weak Reference
    Tim4_IRQHandler                           - Undefined Weak Reference
    Tim5_IRQHandler                           - Undefined Weak Reference
    Tim6_IRQHandler                           - Undefined Weak Reference
    Uart0_IRQHandler                          - Undefined Weak Reference
    Uart1_IRQHandler                          - Undefined Weak Reference
    Vc0_IRQHandler                            - Undefined Weak Reference
    Vc1_IRQHandler                            - Undefined Weak Reference
    Wdt_IRQHandler                            - Undefined Weak Reference
    __cpp_initialize__aeabi_                  - Undefined Weak Reference
    __cxa_finalize                            - Undefined Weak Reference
    __decompress                              - Undefined Weak Reference
    _clock_init                               - Undefined Weak Reference
    _microlib_exit                            - Undefined Weak Reference
    _scanf_longlong                           - Undefined Weak Reference
    _scanf_real                               - Undefined Weak Reference
    __Vectors_End                            0x000000c0   Data           0  startup_hc32l13x.o(RESET)
    __Vectors_Size                           0x000000c0   Number         0  startup_hc32l13x.o ABSOLUTE
    __main                                   0x000000c1   Thumb Code     0  entry.o(.ARM.Collect$$$$00000000)
    _main_stk                                0x000000c1   Thumb Code     0  entry2.o(.ARM.Collect$$$$00000001)
    _main_scatterload                        0x000000c5   Thumb Code     0  entry5.o(.ARM.Collect$$$$00000004)
    __main_after_scatterload                 0x000000c9   Thumb Code     0  entry5.o(.ARM.Collect$$$$00000004)
    _main_clock                              0x000000c9   Thumb Code     0  entry7b.o(.ARM.Collect$$$$00000008)
    _main_cpp_init                           0x000000c9   Thumb Code     0  entry8b.o(.ARM.Collect$$$$0000000A)
    _main_init                               0x000000c9   Thumb Code     0  entry9a.o(.ARM.Collect$$$$0000000B)
    __rt_final_cpp                           0x000000d1   Thumb Code     0  entry10a.o(.ARM.Collect$$$$0000000D)
    __rt_final_exit                          0x000000d1   Thumb Code     0  entry11a.o(.ARM.Collect$$$$0000000F)
    Reset_Handler                            0x000000d5   Thumb Code    26  startup_hc32l13x.o(.text)
    NMI_Handler                              0x000000ef   Thumb Code     2  startup_hc32l13x.o(.text)
    SVC_Handler                              0x000000f3   Thumb Code     2  startup_hc32l13x.o(.text)
    PORTA_IRQHandler                         0x000000f9   Thumb Code     0  startup_hc32l13x.o(.text)
    PORTB_IRQHandler                         0x000000f9   Thumb Code     0  startup_hc32l13x.o(.text)
    PORTC_IRQHandler                         0x000000f9   Thumb Code     0  startup_hc32l13x.o(.text)
    PORTD_IRQHandler                         0x000000f9   Thumb Code     0  startup_hc32l13x.o(.text)
    rt_hw_interrupt_disable                  0x00000111   Thumb Code     8  context_rvds.o(.text)
    rt_hw_interrupt_enable                   0x00000119   Thumb Code     6  context_rvds.o(.text)
    rt_hw_context_switch                     0x0000011f   Thumb Code    28  context_rvds.o(.text)
    rt_hw_context_switch_interrupt           0x0000011f   Thumb Code     0  context_rvds.o(.text)
    PendSV_Handler                           0x0000013b   Thumb Code    84  context_rvds.o(.text)
    rt_hw_context_switch_to                  0x0000018f   Thumb Code    44  context_rvds.o(.text)
    rt_hw_interrupt_thread_switch            0x000001bb   Thumb Code     2  context_rvds.o(.text)
    HardFault_Handler                        0x000001bd   Thumb Code    12  context_rvds.o(.text)
    __aeabi_uidiv                            0x000001e9   Thumb Code     0  uidiv.o(.text)
    __aeabi_uidivmod                         0x000001e9   Thumb Code    44  uidiv.o(.text)
    __aeabi_idiv                             0x00000215   Thumb Code     0  idiv.o(.text)
    __aeabi_idivmod                          0x00000215   Thumb Code    40  idiv.o(.text)
    __aeabi_ldivmod                          0x0000023d   Thumb Code    76  ldiv.o(.text)
    __aeabi_memcpy                           0x00000289   Thumb Code    36  memcpya.o(.text)
    __aeabi_memcpy4                          0x00000289   Thumb Code     0  memcpya.o(.text)
    __aeabi_memcpy8                          0x00000289   Thumb Code     0  memcpya.o(.text)
    __aeabi_memset                           0x000002ad   Thumb Code    14  memseta.o(.text)
    __aeabi_memset4                          0x000002ad   Thumb Code     0  memseta.o(.text)
    __aeabi_memset8                          0x000002ad   Thumb Code     0  memseta.o(.text)
    __aeabi_memclr                           0x000002bb   Thumb Code     4  memseta.o(.text)
    __aeabi_memclr4                          0x000002bb   Thumb Code     0  memseta.o(.text)
    __aeabi_memclr8                          0x000002bb   Thumb Code     0  memseta.o(.text)
    _memset$wrapper                          0x000002bf   Thumb Code    18  memseta.o(.text)
    strchr                                   0x000002d1   Thumb Code    20  strchr.o(.text)
    __0sscanf                                0x000002e5   Thumb Code    50  __0sscanf.o(.text)
    _scanf_int                               0x00000321   Thumb Code   330  _scanf_int.o(.text)
    _scanf_string                            0x0000046b   Thumb Code   232  _scanf_str.o(.text)
    __aeabi_ui2d                             0x00000555   Thumb Code    24  dfltui.o(.text)
    __aeabi_cdcmpeq                          0x00000571   Thumb Code     0  cdcmple.o(.text)
    __aeabi_cdcmple                          0x00000571   Thumb Code    38  cdcmple.o(.text)
    __aeabi_uldivmod                         0x00000599   Thumb Code    96  uldiv.o(.text)
    _chval                                   0x000005f9   Thumb Code    30  _chval.o(.text)
    __vfscanf_char                           0x00000625   Thumb Code    24  scanf_char.o(.text)
    _sgetc                                   0x00000645   Thumb Code    32  _sgetc.o(.text)
    _sbackspace                              0x00000665   Thumb Code    36  _sgetc.o(.text)
    __I$use$fp                               0x00000689   Thumb Code     0  iusefp.o(.text)
    _double_round                            0x00000689   Thumb Code    26  depilogue.o(.text)
    _double_epilogue                         0x000006a3   Thumb Code   164  depilogue.o(.text)
    __scatterload                            0x00000749   Thumb Code    28  init.o(.text)
    __scatterload_rt2                        0x00000749   Thumb Code     0  init.o(.text)
    __aeabi_llsl                             0x0000076d   Thumb Code    32  llshl.o(.text)
    _ll_shift_l                              0x0000076d   Thumb Code     0  llshl.o(.text)
    __aeabi_llsr                             0x0000078d   Thumb Code    34  llushr.o(.text)
    _ll_ushift_r                             0x0000078d   Thumb Code     0  llushr.o(.text)
    isspace                                  0x000007af   Thumb Code    14  isspace_c.o(.text)
    __vfscanf                                0x000007bd   Thumb Code   812  _scanf.o(.text)
    __ctype_lookup                           0x00000af5   Thumb Code    32  ctype_c.o(.text)
    main                                     0x00000b19   Thumb Code    10  components.o(i.$Sub$$main)
    ADC_IRQHandler                           0x00000b23   Thumb Code     8  interrupts_hc32l13x.o(i.ADC_IRQHandler)
    Adc_ClrIrqStatus                         0x00000b2d   Thumb Code    10  adc.o(i.Adc_ClrIrqStatus)
    Adc_Enable                               0x00000b3d   Thumb Code    12  adc.o(i.Adc_Enable)
    Adc_EnableIrq                            0x00000b4d   Thumb Code    12  adc.o(i.Adc_EnableIrq)
    Adc_GetIrqStatus                         0x00000b5d   Thumb Code    16  adc.o(i.Adc_GetIrqStatus)
    Adc_GetSqrResult                         0x00000b71   Thumb Code     8  adc.o(i.Adc_GetSqrResult)
    Adc_IRQHandler                           0x00000b7d   Thumb Code    46  myadc.o(i.Adc_IRQHandler)
    Adc_Init                                 0x00000bb1   Thumb Code    82  adc.o(i.Adc_Init)
    Adc_SQR_Start                            0x00000c09   Thumb Code     8  adc.o(i.Adc_SQR_Start)
    Adc_SqrModeCfg                           0x00000c15   Thumb Code    90  adc.o(i.Adc_SqrModeCfg)
    App_Client                               0x00000c75   Thumb Code   122  app_client.o(i.App_Client)
    App_KEY                                  0x00000cf5   Thumb Code   280  app_key.o(i.App_KEY)
    App_LED_Blink                            0x00000e15   Thumb Code    42  app_led_blink.o(i.App_LED_Blink)
    Bgr_BgrEnable                            0x00000e45   Thumb Code    20  bgr.o(i.Bgr_BgrEnable)
    Bgr_TempSensorEnable                     0x00000e5d   Thumb Code    20  bgr.o(i.Bgr_TempSensorEnable)
    Bt_ClearIntFlag                          0x00000e75   Thumb Code    20  bt.o(i.Bt_ClearIntFlag)
    Bt_GetIntFlag                            0x00000e8d   Thumb Code    16  bt.o(i.Bt_GetIntFlag)
    Bt_M0_Stop                               0x00000ea1   Thumb Code    20  bt.o(i.Bt_M0_Stop)
    CLKTRIM_IRQHandler                       0x00000ec9   Thumb Code     8  interrupts_hc32l13x.o(i.CLKTRIM_IRQHandler)
    DMAC_IRQHandler                          0x00000ed1   Thumb Code     8  interrupts_hc32l13x.o(i.DMAC_IRQHandler)
    ESP8266_PowerON                          0x00000ed9   Thumb Code    12  myesp8266.o(i.ESP8266_PowerON)
    ESP8266_Shutdown                         0x00000ee5   Thumb Code    12  myesp8266.o(i.ESP8266_Shutdown)
    EnableNvic                               0x00000ef1   Thumb Code   110  interrupts_hc32l13x.o(i.EnableNvic)
    FLASH_RAM_IRQHandler                     0x00000f71   Thumb Code    12  interrupts_hc32l13x.o(i.FLASH_RAM_IRQHandler)
    Factory_Para_to_Flash                    0x00000f7d   Thumb Code    86  app_client.o(i.Factory_Para_to_Flash)
    Flash_Init                               0x00000fe1   Thumb Code   148  flash.o(i.Flash_Init)
    Flash_LockAll                            0x00001085   Thumb Code    16  flash.o(i.Flash_LockAll)
    Flash_SectorErase                        0x000010a1   Thumb Code   116  flash.o(i.Flash_SectorErase)
    Flash_UnlockAll                          0x00001125   Thumb Code    18  flash.o(i.Flash_UnlockAll)
    Flash_WaitCycle                          0x00001145   Thumb Code    32  flash.o(i.Flash_WaitCycle)
    Flash_WriteByte                          0x00001171   Thumb Code   118  flash.o(i.Flash_WriteByte)
    Flash_WriteWord                          0x000011f9   Thumb Code   118  flash.o(i.Flash_WriteWord)
    GetBit                                   0x00001281   Thumb Code    10  ddl.o(i.GetBit)
    Get_mcu_ID                               0x0000128d   Thumb Code   260  app_client.o(i.Get_mcu_ID)
    Gpio_ClrIO                               0x00001395   Thumb Code    16  gpio.o(i.Gpio_ClrIO)
    Gpio_GetInputIO                          0x000013a9   Thumb Code    12  gpio.o(i.Gpio_GetInputIO)
    Gpio_Init                                0x000013b9   Thumb Code   124  gpio.o(i.Gpio_Init)
    Gpio_SetAfMode                           0x00001441   Thumb Code    14  gpio.o(i.Gpio_SetAfMode)
    Gpio_SetAnalogMode                       0x00001455   Thumb Code    16  gpio.o(i.Gpio_SetAnalogMode)
    Gpio_SetIO                               0x00001469   Thumb Code    16  gpio.o(i.Gpio_SetIO)
    I2C0_IRQHandler                          0x0000147d   Thumb Code     8  interrupts_hc32l13x.o(i.I2C0_IRQHandler)
    I2C1_IRQHandler                          0x00001485   Thumb Code     8  interrupts_hc32l13x.o(i.I2C1_IRQHandler)
    Intent_add                               0x0000148d   Thumb Code    70  app_motor.o(i.Intent_add)
    Intent_next                              0x000014d3   Thumb Code    54  app_motor.o(i.Intent_next)
    Intent_set                               0x00001509   Thumb Code    26  app_motor.o(i.Intent_set)
    LCD_IRQHandler                           0x00001523   Thumb Code     8  interrupts_hc32l13x.o(i.LCD_IRQHandler)
    LED_Control                              0x0000152b   Thumb Code   160  app_led_blink.o(i.LED_Control)
    LED_loop                                 0x000015cd   Thumb Code    34  app_led_blink.o(i.LED_loop)
    LPTIM_IRQHandler                         0x000015f5   Thumb Code     8  interrupts_hc32l13x.o(i.LPTIM_IRQHandler)
    LPUART0_IRQHandler                       0x000015fd   Thumb Code     8  interrupts_hc32l13x.o(i.LPUART0_IRQHandler)
    LPUART1_IRQHandler                       0x00001605   Thumb Code     8  interrupts_hc32l13x.o(i.LPUART1_IRQHandler)
    LPUart_ClrStatus                         0x0000160d   Thumb Code    14  lpuart.o(i.LPUart_ClrStatus)
    LPUart_EnableFunc                        0x0000161b   Thumb Code    14  lpuart.o(i.LPUart_EnableFunc)
    LPUart_EnableIrq                         0x00001629   Thumb Code    14  lpuart.o(i.LPUart_EnableIrq)
    LPUart_GetStatus                         0x00001637   Thumb Code    10  lpuart.o(i.LPUart_GetStatus)
    LPUart_Init                              0x00001641   Thumb Code    94  lpuart.o(i.LPUart_Init)
    LPUart_ReceiveData                       0x000016a5   Thumb Code     6  lpuart.o(i.LPUart_ReceiveData)
    LVD_IRQHandler                           0x000016ab   Thumb Code     8  interrupts_hc32l13x.o(i.LVD_IRQHandler)
    LpTim_IRQHandler                         0x000016b5   Thumb Code    60  mylptimer.o(i.LpTim_IRQHandler)
    LpUart1_IRQHandler                       0x000016f9   Thumb Code    88  myuart.o(i.LpUart1_IRQHandler)
    Lptim_ClrItStatus                        0x0000175d   Thumb Code    14  lptim.o(i.Lptim_ClrItStatus)
    Lptim_Cmd                                0x0000176b   Thumb Code    14  lptim.o(i.Lptim_Cmd)
    Lptim_ConfIt                             0x00001779   Thumb Code    14  lptim.o(i.Lptim_ConfIt)
    Lptim_GetItStatus                        0x00001787   Thumb Code    12  lptim.o(i.Lptim_GetItStatus)
    Lptim_Init                               0x00001793   Thumb Code   148  lptim.o(i.Lptim_Init)
    Luart1_flush                             0x00001829   Thumb Code    20  myuart.o(i.Luart1_flush)
    Luart1_get_line_none_block               0x00001841   Thumb Code   100  myuart.o(i.Luart1_get_line_none_block)
    Luart1_getchar                           0x000018ad   Thumb Code    46  myuart.o(i.Luart1_getchar)
    Lvd_ClearIrq                             0x000018e5   Thumb Code    12  lvd.o(i.Lvd_ClearIrq)
    Lvd_Enable                               0x000018f5   Thumb Code    12  lvd.o(i.Lvd_Enable)
    Lvd_EnableIrq                            0x00001905   Thumb Code    12  lvd.o(i.Lvd_EnableIrq)
    Lvd_IRQHandler                           0x00001915   Thumb Code    24  mylvd.o(i.Lvd_IRQHandler)
    Lvd_Init                                 0x00001935   Thumb Code    34  lvd.o(i.Lvd_Init)
    M_step_brake_fun                         0x0000195d   Thumb Code    78  app_motor.o(i.M_step_brake_fun)
    M_step_closd_fun                         0x000019b1   Thumb Code    28  app_motor.o(i.M_step_closd_fun)
    M_step_closing_fun                       0x000019cd   Thumb Code    92  app_motor.o(i.M_step_closing_fun)
    M_step_opened_fun                        0x00001a51   Thumb Code    30  app_motor.o(i.M_step_opened_fun)
    M_step_opening_fun                       0x00001a71   Thumb Code    92  app_motor.o(i.M_step_opening_fun)
    Motor_Control                            0x00001af5   Thumb Code   118  app_motor.o(i.Motor_Control)
    Motor_brake                              0x00001b71   Thumb Code    20  app_motor.o(i.Motor_brake)
    Motor_close                              0x00001b85   Thumb Code    20  app_motor.o(i.Motor_close)
    Motor_err_rst                            0x00001b99   Thumb Code    18  app_motor.o(i.Motor_err_rst)
    Motor_free                               0x00001bab   Thumb Code    20  app_motor.o(i.Motor_free)
    Motor_open                               0x00001bbf   Thumb Code    20  app_motor.o(i.Motor_open)
    Motor_para_init                          0x00001bd3   Thumb Code    52  app_motor.o(i.Motor_para_init)
    Motor_reset_sleep_counter                0x00001c07   Thumb Code    18  app_motor.o(i.Motor_reset_sleep_counter)
    Motor_sensor_closed                      0x00001c19   Thumb Code    22  app_motor.o(i.Motor_sensor_closed)
    Motor_sensor_opened                      0x00001c2f   Thumb Code    22  app_motor.o(i.Motor_sensor_opened)
    MyAdcSQRCfg                              0x00001c45   Thumb Code    26  myadc.o(i.MyAdcSQRCfg)
    PCA_IRQHandler                           0x00001c65   Thumb Code     8  interrupts_hc32l13x.o(i.PCA_IRQHandler)
    PCNT_IRQHandler                          0x00001c6d   Thumb Code     8  interrupts_hc32l13x.o(i.PCNT_IRQHandler)
    Pcnt_ClrItStatus                         0x00001c75   Thumb Code    14  pcnt.o(i.Pcnt_ClrItStatus)
    Pcnt_GetItStatus                         0x00001c89   Thumb Code    12  pcnt.o(i.Pcnt_GetItStatus)
    Pcnt_IRQHandler                          0x00001c99   Thumb Code   152  mypcnt.o(i.Pcnt_IRQHandler)
    RTC_IRQHandler                           0x00001d35   Thumb Code     8  interrupts_hc32l13x.o(i.RTC_IRQHandler)
    Rtc_ClearPrdfItStatus                    0x00001d3d   Thumb Code    14  rtc.o(i.Rtc_ClearPrdfItStatus)
    Rtc_Cmd                                  0x00001d51   Thumb Code    14  rtc.o(i.Rtc_Cmd)
    Rtc_CompCfg                              0x00001d65   Thumb Code    48  rtc.o(i.Rtc_CompCfg)
    Rtc_GetPridItStatus                      0x00001d99   Thumb Code    12  rtc.o(i.Rtc_GetPridItStatus)
    Rtc_IRQHandler                           0x00001da9   Thumb Code    20  myrtc.o(i.Rtc_IRQHandler)
    Rtc_Init                                 0x00001dbd   Thumb Code    70  rtc.o(i.Rtc_Init)
    Rtc_ReadDateTime                         0x00001e09   Thumb Code   100  rtc.o(i.Rtc_ReadDateTime)
    Rtc_SetCyc                               0x00001e75   Thumb Code    74  rtc.o(i.Rtc_SetCyc)
    Rtc_SetTime                              0x00001ec5   Thumb Code   100  rtc.o(i.Rtc_SetTime)
    SPI0_IRQHandler                          0x00001f2d   Thumb Code     8  interrupts_hc32l13x.o(i.SPI0_IRQHandler)
    SPI1_IRQHandler                          0x00001f35   Thumb Code     8  interrupts_hc32l13x.o(i.SPI1_IRQHandler)
    SetBit                                   0x00001f3d   Thumb Code    20  ddl.o(i.SetBit)
    Signal_ap_udp_cfg                        0x00001f51   Thumb Code   508  app_client.o(i.Signal_ap_udp_cfg)
    Signal_smart_cfg                         0x00002251   Thumb Code   218  app_client.o(i.Signal_smart_cfg)
    Spi0_IRQHandler                          0x00002385   Thumb Code    62  myspi.o(i.Spi0_IRQHandler)
    Spi_ClearStatus                          0x000023cd   Thumb Code     8  spi.o(i.Spi_ClearStatus)
    Spi_GetStatus                            0x000023d5   Thumb Code    10  spi.o(i.Spi_GetStatus)
    SysTick_Handler                          0x000023e1   Thumb Code    24  board.o(i.SysTick_Handler)
    Sysctrl_ClkSourceEnable                  0x000023fd   Thumb Code   186  sysctrl.o(i.Sysctrl_ClkSourceEnable)
    Sysctrl_GetHClkFreq                      0x000024c1   Thumb Code   298  sysctrl.o(i.Sysctrl_GetHClkFreq)
    Sysctrl_GetPClkFreq                      0x000025fd   Thumb Code    18  sysctrl.o(i.Sysctrl_GetPClkFreq)
    Sysctrl_SetPeripheralGate                0x00002615   Thumb Code    16  sysctrl.o(i.Sysctrl_SetPeripheralGate)
    Sysctrl_SetRCHTrim                       0x00002629   Thumb Code    28  sysctrl.o(i.Sysctrl_SetRCHTrim)
    Sysctrl_SetRCLTrim                       0x0000264d   Thumb Code    28  sysctrl.o(i.Sysctrl_SetRCLTrim)
    Sysctrl_SysClkSwitch                     0x00002671   Thumb Code    34  sysctrl.o(i.Sysctrl_SysClkSwitch)
    SystemCoreClockUpdate                    0x00002699   Thumb Code    12  system_hc32l13x.o(i.SystemCoreClockUpdate)
    SystemInit                               0x000026a9   Thumb Code    48  system_hc32l13x.o(i.SystemInit)
    TIM0_IRQHandler                          0x000026d9   Thumb Code     8  interrupts_hc32l13x.o(i.TIM0_IRQHandler)
    TIM1_IRQHandler                          0x000026e1   Thumb Code     8  interrupts_hc32l13x.o(i.TIM1_IRQHandler)
    TIM2_IRQHandler                          0x000026e9   Thumb Code     8  interrupts_hc32l13x.o(i.TIM2_IRQHandler)
    TIM3_IRQHandler                          0x000026f1   Thumb Code     8  interrupts_hc32l13x.o(i.TIM3_IRQHandler)
    TIM4_IRQHandler                          0x000026f9   Thumb Code     8  interrupts_hc32l13x.o(i.TIM4_IRQHandler)
    TIM5_IRQHandler                          0x00002701   Thumb Code     8  interrupts_hc32l13x.o(i.TIM5_IRQHandler)
    TIM6_IRQHandler                          0x00002709   Thumb Code     8  interrupts_hc32l13x.o(i.TIM6_IRQHandler)
    Tim0_IRQHandler                          0x00002711   Thumb Code    30  mybt.o(i.Tim0_IRQHandler)
    UART0_IRQHandler                         0x0000272f   Thumb Code     8  interrupts_hc32l13x.o(i.UART0_IRQHandler)
    UART1_IRQHandler                         0x00002737   Thumb Code     8  interrupts_hc32l13x.o(i.UART1_IRQHandler)
    VC0_IRQHandler                           0x0000273f   Thumb Code     8  interrupts_hc32l13x.o(i.VC0_IRQHandler)
    VC1_IRQHandler                           0x00002747   Thumb Code     8  interrupts_hc32l13x.o(i.VC1_IRQHandler)
    WDT_IRQHandler                           0x0000274f   Thumb Code     8  interrupts_hc32l13x.o(i.WDT_IRQHandler)
    Wdt_Feed                                 0x00002759   Thumb Code    12  wdt.o(i.Wdt_Feed)
    Wdt_Init                                 0x00002769   Thumb Code    30  wdt.o(i.Wdt_Init)
    Wdt_Start                                0x0000278d   Thumb Code    12  wdt.o(i.Wdt_Start)
    Wdt_WriteWdtLoad                         0x0000279d   Thumb Code    18  wdt.o(i.Wdt_WriteWdtLoad)
    __0sprintf$5                             0x000027cd   Thumb Code    36  printf5.o(i.__0sprintf$5)
    __1sprintf$5                             0x000027cd   Thumb Code     0  printf5.o(i.__0sprintf$5)
    __2sprintf                               0x000027cd   Thumb Code     0  printf5.o(i.__0sprintf$5)
    __ARM_clz                                0x000027f5   Thumb Code    46  depilogue.o(i.__ARM_clz)
    __ARM_common_switch8                     0x00002823   Thumb Code    26  adc.o(i.__ARM_common_switch8)
    __rt_ffs                                 0x0000283d   Thumb Code    60  kservice.o(i.__rt_ffs)
    __scatterload_copy                       0x0000287d   Thumb Code    14  handlers.o(i.__scatterload_copy)
    __scatterload_null                       0x0000288b   Thumb Code     2  handlers.o(i.__scatterload_null)
    __scatterload_zeroinit                   0x0000288d   Thumb Code    14  handlers.o(i.__scatterload_zeroinit)
    beep_sound                               0x00002c41   Thumb Code    34  app_led_blink.o(i.beep_sound)
    beep_sound_loop                          0x00002c69   Thumb Code    98  app_led_blink.o(i.beep_sound_loop)
    client_leds                              0x00002cd1   Thumb Code    82  app_led_blink.o(i.client_leds)
    client_listen                            0x00002d25   Thumb Code   582  app_client.o(i.client_listen)
    clr_key_value                            0x00003131   Thumb Code    20  app_key.o(i.clr_key_value)
    current_page                             0x00003145   Thumb Code    20  myflash.o(i.current_page)
    ddl_memclr                               0x00003159   Thumb Code    18  ddl.o(i.ddl_memclr)
    delay100us                               0x0000316d   Thumb Code    54  ddl.o(i.delay100us)
    device_pow_on_init                       0x000031b1   Thumb Code   146  app_client.o(i.device_pow_on_init)
    flash_eeprom_entry_write                 0x0000329d   Thumb Code   186  myflash.o(i.flash_eeprom_entry_write)
    flash_eeprom_page_switch                 0x00003357   Thumb Code   166  myflash.o(i.flash_eeprom_page_switch)
    flash_eeprom_pwron_check                 0x000033fd   Thumb Code    48  myflash.o(i.flash_eeprom_pwron_check)
    flash_eeprom_updata_alloc                0x0000342d   Thumb Code    52  myflash.o(i.flash_eeprom_updata_alloc)
    flash_eeprom_update_active_address       0x00003461   Thumb Code    34  myflash.o(i.flash_eeprom_update_active_address)
    get_key_status                           0x00003485   Thumb Code     4  app_key.o(i.get_key_status)
    get_next_list                            0x0000348d   Thumb Code    12  app_motor.o(i.get_next_list)
    get_water_leak_detector_handler          0x00003499   Thumb Code     4  app_client.o(i.get_water_leak_detector_handler)
    get_water_leak_detector_status           0x000034a1   Thumb Code     6  app_client.o(i.get_water_leak_detector_status)
    go_to_sleep                              0x000034ad   Thumb Code    78  app_client.o(i.go_to_sleep)
    gpio_adc_init                            0x00003501   Thumb Code    12  mygpio.o(i.gpio_adc_init)
    gpio_io_init                             0x0000350d   Thumb Code   476  mygpio.o(i.gpio_io_init)
    gpio_uart_init                           0x000036e9   Thumb Code   128  mygpio.o(i.gpio_uart_init)
    led_temp                                 0x00003769   Thumb Code     6  app_led_blink.o(i.led_temp)
    load_parameters_from_flash               0x00003775   Thumb Code   106  app_client.o(i.load_parameters_from_flash)
    local_clean_loop                         0x000037e1   Thumb Code   142  main.o(i.local_clean_loop)
    local_user_loop                          0x00003875   Thumb Code   126  main.o(i.local_user_loop)
    $Super$$main                             0x000038f9   Thumb Code   166  main.o(i.main)
    main_thread_entry                        0x00003a59   Thumb Code    12  components.o(i.main_thread_entry)
    motor_cycles_to_s                        0x00003a65   Thumb Code    20  app_motor.o(i.motor_cycles_to_s)
    myRtcInit                                0x00003a79   Thumb Code    92  myrtc.o(i.myRtcInit)
    my_WDT_int                               0x00003ad5   Thumb Code    20  mywdt.o(i.my_WDT_int)
    my_adc_init                              0x00003ae9   Thumb Code   116  myadc.o(i.my_adc_init)
    my_eeprom_format                         0x00003b5d   Thumb Code   112  myflash.o(i.my_eeprom_format)
    my_eeprom_init                           0x00003bcd   Thumb Code    44  myflash.o(i.my_eeprom_init)
    my_eeprom_read                           0x00003bf9   Thumb Code    48  myflash.o(i.my_eeprom_read)
    my_eeprom_write                          0x00003c29   Thumb Code    86  myflash.o(i.my_eeprom_write)
    my_flash_init                            0x00003c81   Thumb Code    50  myflash.o(i.my_flash_init)
    my_gpio_init                             0x00003cb9   Thumb Code    24  mygpio.o(i.my_gpio_init)
    my_init                                  0x00003cd1   Thumb Code    38  myinit.o(i.my_init)
    my_lp_uart1_init                         0x00003cf9   Thumb Code    94  myuart.o(i.my_lp_uart1_init)
    my_lp_uart1_send                         0x00003d5d   Thumb Code    28  myuart.o(i.my_lp_uart1_send)
    my_lptimer_init                          0x00003d7d   Thumb Code   100  mylptimer.o(i.my_lptimer_init)
    my_lvd_init                              0x00003ded   Thumb Code    90  mylvd.o(i.my_lvd_init)
    my_uart_init                             0x00003e51   Thumb Code     8  myuart.o(i.my_uart_init)
    parsing_heart_beat                       0x00003e59   Thumb Code   174  app_client.o(i.parsing_heart_beat)
    parsing_set_alarm_level                  0x00003f49   Thumb Code    50  app_client.o(i.parsing_set_alarm_level)
    parsing_set_clean_clock                  0x00003f9d   Thumb Code    72  app_client.o(i.parsing_set_clean_clock)
    parsing_set_cmd_wait_time                0x00004005   Thumb Code    48  app_client.o(i.parsing_set_cmd_wait_time)
    parsing_set_freq_normal                  0x00004059   Thumb Code    50  app_client.o(i.parsing_set_freq_normal)
    parsing_set_ip_port                      0x000040ad   Thumb Code    86  app_client.o(i.parsing_set_ip_port)
    parsing_set_system_time                  0x00004129   Thumb Code   156  app_client.o(i.parsing_set_system_time)
    rt_application_init                      0x0000438d   Thumb Code    30  components.o(i.rt_application_init)
    rt_components_board_init                 0x000043b9   Thumb Code    20  components.o(i.rt_components_board_init)
    rt_components_init                       0x000043d5   Thumb Code    20  components.o(i.rt_components_init)
    rt_enter_critical                        0x000043f1   Thumb Code    20  scheduler.o(i.rt_enter_critical)
    rt_exit_critical                         0x00004409   Thumb Code    46  scheduler.o(i.rt_exit_critical)
    rt_free                                  0x0000443d   Thumb Code   110  mem.o(i.rt_free)
    rt_heap_begin_get                        0x00004501   Thumb Code     4  board.o(i.rt_heap_begin_get)
    rt_heap_end_get                          0x00004509   Thumb Code     4  board.o(i.rt_heap_end_get)
    rt_hw_board_init                         0x00004511   Thumb Code    68  board.o(i.rt_hw_board_init)
    rt_hw_console_output                     0x00004565   Thumb Code    42  kservice.o(i.rt_hw_console_output)
    rt_hw_hard_fault_exception               0x00004591   Thumb Code    78  cpuport.o(i.rt_hw_hard_fault_exception)
    rt_hw_stack_init                         0x00004681   Thumb Code    50  cpuport.o(i.rt_hw_stack_init)
    rt_interrupt_enter                       0x000046b9   Thumb Code    20  irq.o(i.rt_interrupt_enter)
    rt_interrupt_leave                       0x000046d1   Thumb Code    20  irq.o(i.rt_interrupt_leave)
    rt_kprintf                               0x00004739   Thumb Code    30  kservice.o(i.rt_kprintf)
    rt_malloc                                0x000047b9   Thumb Code   222  mem.o(i.rt_malloc)
    rt_memset                                0x000048a1   Thumb Code    62  kservice.o(i.rt_memset)
    rt_object_allocate                       0x000048df   Thumb Code    76  object.o(i.rt_object_allocate)
    rt_object_delete                         0x0000492b   Thumb Code    36  object.o(i.rt_object_delete)
    rt_object_detach                         0x0000494f   Thumb Code    30  object.o(i.rt_object_detach)
    rt_object_get_information                0x0000496d   Thumb Code    28  object.o(i.rt_object_get_information)
    rt_object_init                           0x0000498d   Thumb Code    76  object.o(i.rt_object_init)
    rt_object_is_systemobject                0x000049d9   Thumb Code    14  object.o(i.rt_object_is_systemobject)
    rt_schedule                              0x000049e9   Thumb Code    90  scheduler.o(i.rt_schedule)
    rt_schedule_insert_thread                0x00004a55   Thumb Code    78  scheduler.o(i.rt_schedule_insert_thread)
    rt_schedule_remove_thread                0x00004ab1   Thumb Code    80  scheduler.o(i.rt_schedule_remove_thread)
    rt_sem_init                              0x00004b0d   Thumb Code    32  ipc.o(i.rt_sem_init)
    rt_sem_release                           0x00004b2d   Thumb Code    54  ipc.o(i.rt_sem_release)
    rt_sem_take                              0x00004b63   Thumb Code   114  ipc.o(i.rt_sem_take)
    rt_show_version                          0x00004bd5   Thumb Code    86  kservice.o(i.rt_show_version)
    rt_strlen                                0x00004dad   Thumb Code    16  kservice.o(i.rt_strlen)
    rt_strncmp                               0x00004dbd   Thumb Code    36  kservice.o(i.rt_strncmp)
    rt_strncpy                               0x00004de1   Thumb Code    40  kservice.o(i.rt_strncpy)
    rt_system_heap_init                      0x00004e09   Thumb Code    90  mem.o(i.rt_system_heap_init)
    rt_system_scheduler_init                 0x00004eb1   Thumb Code    54  scheduler.o(i.rt_system_scheduler_init)
    rt_system_scheduler_start                0x00004ef5   Thumb Code    44  scheduler.o(i.rt_system_scheduler_start)
    rt_system_timer_init                     0x00004f2d   Thumb Code     8  timer.o(i.rt_system_timer_init)
    rt_system_timer_thread_init              0x00004f39   Thumb Code     2  timer.o(i.rt_system_timer_thread_init)
    rt_thread_create                         0x00004f3b   Thumb Code    64  thread.o(i.rt_thread_create)
    rt_thread_exit                           0x00004f7d   Thumb Code    78  thread.o(i.rt_thread_exit)
    rt_thread_idle_excute                    0x00004fdd   Thumb Code   116  idle.o(i.rt_thread_idle_excute)
    rt_thread_idle_gethandler                0x00005055   Thumb Code     4  idle.o(i.rt_thread_idle_gethandler)
    rt_thread_idle_init                      0x0000505d   Thumb Code    36  idle.o(i.rt_thread_idle_init)
    rt_thread_init                           0x00005091   Thumb Code    42  thread.o(i.rt_thread_init)
    rt_thread_mdelay                         0x000050bb   Thumb Code    12  thread.o(i.rt_thread_mdelay)
    rt_thread_resume                         0x000050c7   Thumb Code    60  thread.o(i.rt_thread_resume)
    rt_thread_self                           0x00005105   Thumb Code     6  thread.o(i.rt_thread_self)
    rt_thread_sleep                          0x00005111   Thumb Code    60  thread.o(i.rt_thread_sleep)
    rt_thread_startup                        0x00005151   Thumb Code    54  thread.o(i.rt_thread_startup)
    rt_thread_suspend                        0x0000518d   Thumb Code    64  thread.o(i.rt_thread_suspend)
    rt_thread_timeout                        0x000051cd   Thumb Code    30  thread.o(i.rt_thread_timeout)
    rt_thread_yield                          0x000051ed   Thumb Code    84  thread.o(i.rt_thread_yield)
    rt_tick_from_millisecond                 0x00005249   Thumb Code    46  clock.o(i.rt_tick_from_millisecond)
    rt_tick_get                              0x00005279   Thumb Code     6  clock.o(i.rt_tick_get)
    rt_tick_increase                         0x00005285   Thumb Code    36  clock.o(i.rt_tick_increase)
    rt_timer_check                           0x000052ad   Thumb Code    92  timer.o(i.rt_timer_check)
    rt_timer_control                         0x00005311   Thumb Code    50  timer.o(i.rt_timer_control)
    rt_timer_detach                          0x00005343   Thumb Code    32  timer.o(i.rt_timer_detach)
    rt_timer_init                            0x00005363   Thumb Code    38  timer.o(i.rt_timer_init)
    rt_timer_start                           0x00005389   Thumb Code   134  timer.o(i.rt_timer_start)
    rt_timer_stop                            0x00005419   Thumb Code    46  timer.o(i.rt_timer_stop)
    rt_vsnprintf                             0x00005449   Thumb Code   610  kservice.o(i.rt_vsnprintf)
    rtthread_startup                         0x000056c5   Thumb Code    42  components.o(i.rtthread_startup)
    send_heart_beat                          0x000056f1   Thumb Code   132  app_client.o(i.send_heart_beat)
    send_report                              0x00005795   Thumb Code   280  app_client.o(i.send_report)
    send_setting                             0x00005955   Thumb Code   254  app_client.o(i.send_setting)
    server_connect                           0x00005af5   Thumb Code   272  app_client.o(i.server_connect)
    sleep_listen                             0x00005ca1   Thumb Code   698  my_sleep_server.o(i.sleep_listen)
    sleep_parsing_heart_beat                 0x0000608d   Thumb Code    68  my_sleep_server.o(i.sleep_parsing_heart_beat)
    sleep_server                             0x000060f9   Thumb Code   652  my_sleep_server.o(i.sleep_server)
    sleep_server_leds                        0x00006501   Thumb Code    56  app_led_blink.o(i.sleep_server_leds)
    smart_config                             0x00006539   Thumb Code   106  app_client.o(i.smart_config)
    status_switch                            0x000065a3   Thumb Code    18  app_client.o(i.status_switch)
    wifi_connect                             0x000065b5   Thumb Code   266  app_client.o(i.wifi_connect)
    pu32PcgTimer4M                           0x0000676c   Data          32  flash.o(.constdata)
    __lowest_bit_bitmap                      0x000067b0   Data         256  kservice.o(.constdata)
    __ctype_categories                       0x000068d2   Data          64  ctype_c.o(.constdata)
    __rt_init_rti_start                      0x00006914   Data           4  components.o(.rti_fn.0)
    __rt_init_rti_board_start                0x00006918   Data           4  components.o(.rti_fn.0.end)
    __rt_init_my_init                        0x0000691c   Data           4  myinit.o(.rti_fn.1)
    __rt_init_rti_board_end                  0x00006920   Data           4  components.o(.rti_fn.1.end)
    __rt_init_rti_end                        0x00006924   Data           4  components.o(.rti_fn.6.end)
    Region$$Table$$Base                      0x00006928   Number         0  anon$$obj.o(Region$$Table)
    Region$$Table$$Limit                     0x00006948   Number         0  anon$$obj.o(Region$$Table)
    SystemCoreClock                          0x20000000   Data           4  system_hc32l13x.o(.data)
    PWR_ON_times                             0x2000000c   Data           4  mylvd.o(.data)
    my_pcnt_cycles                           0x20000010   Data           4  mypcnt.o(.data)
    Last_lpuart1                             0x20000014   Data           4  myuart.o(.data)
    Empty_lpuart1                            0x20000018   Data           4  myuart.o(.data)
    spi_rx_cont                              0x20000028   Data           4  myspi.o(.data)
    spi_tx_cont                              0x2000002c   Data           4  myspi.o(.data)
    beep_flag                                0x2000005c   Data           1  my_sleep_server.o(.data)
    rt_interrupt_from_thread                 0x2000007c   Data           4  cpuport.o(.data)
    rt_interrupt_to_thread                   0x20000080   Data           4  cpuport.o(.data)
    rt_thread_switch_interrupt_flag          0x20000084   Data           4  cpuport.o(.data)
    rt_interrupt_nest                        0x2000008c   Data           1  irq.o(.data)
    rt_current_priority                      0x200000f8   Data           1  scheduler.o(.data)
    rt_current_thread                        0x200000fc   Data           4  scheduler.o(.data)
    rt_thread_ready_priority_group           0x20000100   Data           4  scheduler.o(.data)
    rt_thread_defunct                        0x20000104   Data           8  scheduler.o(.data)
    my_systick                               0x20000118   Data           4  board.o(.data)
    my_eeprom_handler                        0x2000011c   Data          32  myflash.o(.bss)
    str_buf                                  0x20000204   Data         100  myuart.o(.bss)
    ReadBufferLpuart1                        0x20000268   Data         256  myuart.o(.bss)
    str_buffer_lpuart1                       0x20000368   Data         126  myuart.o(.bss)
    my_device_handler                        0x2000045c   Data         156  app_client.o(.bss)
    my_motor_handler                         0x200004f8   Data          56  app_motor.o(.bss)
    rt_thread_priority_table                 0x20000754   Data        1016  scheduler.o(.bss)
    rt_thread_ready_table                    0x20000b4c   Data          32  scheduler.o(.bss)
    __initial_sp                             0x20001b70   Data           0  startup_hc32l13x.o(STACK)



==============================================================================

Memory Map of the image

  Image Entry point : 0x000000c1

  Load Region LR_IROM1 (Base: 0x00000000, Size: 0x00006a64, Max: 0x00010000, ABSOLUTE)

    Execution Region ER_IROM1 (Exec base: 0x00000000, Load base: 0x00000000, Size: 0x00006948, Max: 0x00010000, ABSOLUTE)

    Exec Addr    Load Addr    Size         Type   Attr      Idx    E Section Name        Object

    0x00000000   0x00000000   0x000000c0   Data   RO          282    RESET               startup_hc32l13x.o
    0x000000c0   0x000000c0   0x00000000   Code   RO         4760  * .ARM.Collect$$$$00000000  mc_p.l(entry.o)
    0x000000c0   0x000000c0   0x00000004   Code   RO         5048    .ARM.Collect$$$$00000001  mc_p.l(entry2.o)
    0x000000c4   0x000000c4   0x00000004   Code   RO         5051    .ARM.Collect$$$$00000004  mc_p.l(entry5.o)
    0x000000c8   0x000000c8   0x00000000   Code   RO         5053    .ARM.Collect$$$$00000008  mc_p.l(entry7b.o)
    0x000000c8   0x000000c8   0x00000000   Code   RO         5055    .ARM.Collect$$$$0000000A  mc_p.l(entry8b.o)
    0x000000c8   0x000000c8   0x00000008   Code   RO         5056    .ARM.Collect$$$$0000000B  mc_p.l(entry9a.o)
    0x000000d0   0x000000d0   0x00000000   Code   RO         5058    .ARM.Collect$$$$0000000D  mc_p.l(entry10a.o)
    0x000000d0   0x000000d0   0x00000000   Code   RO         5060    .ARM.Collect$$$$0000000F  mc_p.l(entry11a.o)
    0x000000d0   0x000000d0   0x00000004   Code   RO         5049    .ARM.Collect$$$$00002712  mc_p.l(entry2.o)
    0x000000d4   0x000000d4   0x0000003c   Code   RO          283    .text               startup_hc32l13x.o
    0x00000110   0x00000110   0x000000d8   Code   RO         3768    .text               context_rvds.o
    0x000001e8   0x000001e8   0x0000002c   Code   RO         4763    .text               mc_p.l(uidiv.o)
    0x00000214   0x00000214   0x00000028   Code   RO         4765    .text               mc_p.l(idiv.o)
    0x0000023c   0x0000023c   0x0000004c   Code   RO         4767    .text               mc_p.l(ldiv.o)
    0x00000288   0x00000288   0x00000024   Code   RO         4769    .text               mc_p.l(memcpya.o)
    0x000002ac   0x000002ac   0x00000024   Code   RO         4771    .text               mc_p.l(memseta.o)
    0x000002d0   0x000002d0   0x00000014   Code   RO         4773    .text               mc_p.l(strchr.o)
    0x000002e4   0x000002e4   0x0000003c   Code   RO         5038    .text               mc_p.l(__0sscanf.o)
    0x00000320   0x00000320   0x0000014a   Code   RO         5040    .text               mc_p.l(_scanf_int.o)
    0x0000046a   0x0000046a   0x000000e8   Code   RO         5042    .text               mc_p.l(_scanf_str.o)
    0x00000552   0x00000552   0x00000002   PAD
    0x00000554   0x00000554   0x0000001c   Code   RO         5044    .text               mf_p.l(dfltui.o)
    0x00000570   0x00000570   0x00000028   Code   RO         5046    .text               mf_p.l(cdcmple.o)
    0x00000598   0x00000598   0x00000060   Code   RO         5062    .text               mc_p.l(uldiv.o)
    0x000005f8   0x000005f8   0x0000001e   Code   RO         5064    .text               mc_p.l(_chval.o)
    0x00000616   0x00000616   0x00000002   PAD
    0x00000618   0x00000618   0x0000002c   Code   RO         5066    .text               mc_p.l(scanf_char.o)
    0x00000644   0x00000644   0x00000044   Code   RO         5068    .text               mc_p.l(_sgetc.o)
    0x00000688   0x00000688   0x00000000   Code   RO         5070    .text               mc_p.l(iusefp.o)
    0x00000688   0x00000688   0x000000be   Code   RO         5071    .text               mf_p.l(depilogue.o)
    0x00000746   0x00000746   0x00000002   PAD
    0x00000748   0x00000748   0x00000024   Code   RO         5085    .text               mc_p.l(init.o)
    0x0000076c   0x0000076c   0x00000020   Code   RO         5087    .text               mc_p.l(llshl.o)
    0x0000078c   0x0000078c   0x00000022   Code   RO         5089    .text               mc_p.l(llushr.o)
    0x000007ae   0x000007ae   0x0000000e   Code   RO         5093    .text               mc_p.l(isspace_c.o)
    0x000007bc   0x000007bc   0x00000338   Code   RO         5095    .text               mc_p.l(_scanf.o)
    0x00000af4   0x00000af4   0x00000024   Code   RO         5097    .text               mc_p.l(ctype_c.o)
    0x00000b18   0x00000b18   0x0000000a   Code   RO         3840    i.$Sub$$main        components.o
    0x00000b22   0x00000b22   0x00000008   Code   RO            3    i.ADC_IRQHandler    interrupts_hc32l13x.o
    0x00000b2a   0x00000b2a   0x00000002   PAD
    0x00000b2c   0x00000b2c   0x00000010   Code   RO          293    i.Adc_ClrIrqStatus  adc.o
    0x00000b3c   0x00000b3c   0x00000010   Code   RO          296    i.Adc_Enable        adc.o
    0x00000b4c   0x00000b4c   0x00000010   Code   RO          297    i.Adc_EnableIrq     adc.o
    0x00000b5c   0x00000b5c   0x00000014   Code   RO          299    i.Adc_GetIrqStatus  adc.o
    0x00000b70   0x00000b70   0x0000000c   Code   RO          302    i.Adc_GetSqrResult  adc.o
    0x00000b7c   0x00000b7c   0x00000034   Code   RO         2438    i.Adc_IRQHandler    myadc.o
    0x00000bb0   0x00000bb0   0x00000058   Code   RO          303    i.Adc_Init          adc.o
    0x00000c08   0x00000c08   0x0000000c   Code   RO          310    i.Adc_SQR_Start     adc.o
    0x00000c14   0x00000c14   0x00000060   Code   RO          314    i.Adc_SqrModeCfg    adc.o
    0x00000c74   0x00000c74   0x00000080   Code   RO         3403    i.App_Client        app_client.o
    0x00000cf4   0x00000cf4   0x00000120   Code   RO         3360    i.App_KEY           app_key.o
    0x00000e14   0x00000e14   0x00000030   Code   RO         3289    i.App_LED_Blink     app_led_blink.o
    0x00000e44   0x00000e44   0x00000018   Code   RO         1517    i.Bgr_BgrEnable     bgr.o
    0x00000e5c   0x00000e5c   0x00000018   Code   RO         1519    i.Bgr_TempSensorEnable  bgr.o
    0x00000e74   0x00000e74   0x00000018   Code   RO          499    i.Bt_ClearIntFlag   bt.o
    0x00000e8c   0x00000e8c   0x00000014   Code   RO          500    i.Bt_GetIntFlag     bt.o
    0x00000ea0   0x00000ea0   0x00000018   Code   RO          508    i.Bt_M0_Stop        bt.o
    0x00000eb8   0x00000eb8   0x00000010   Code   RO         3017    i.BufferNext        myuart.o
    0x00000ec8   0x00000ec8   0x00000008   Code   RO            4    i.CLKTRIM_IRQHandler  interrupts_hc32l13x.o
    0x00000ed0   0x00000ed0   0x00000008   Code   RO            5    i.DMAC_IRQHandler   interrupts_hc32l13x.o
    0x00000ed8   0x00000ed8   0x0000000c   Code   RO         3222    i.ESP8266_PowerON   myesp8266.o
    0x00000ee4   0x00000ee4   0x0000000c   Code   RO         3223    i.ESP8266_Shutdown  myesp8266.o
    0x00000ef0   0x00000ef0   0x00000080   Code   RO            6    i.EnableNvic        interrupts_hc32l13x.o
    0x00000f70   0x00000f70   0x0000000c   Code   RO            7    i.FLASH_RAM_IRQHandler  interrupts_hc32l13x.o
    0x00000f7c   0x00000f7c   0x00000064   Code   RO         3404    i.Factory_Para_to_Flash  app_client.o
    0x00000fe0   0x00000fe0   0x000000a4   Code   RO          961    i.Flash_Init        flash.o
    0x00001084   0x00001084   0x0000001c   Code   RO          962    i.Flash_LockAll     flash.o
    0x000010a0   0x000010a0   0x00000084   Code   RO          964    i.Flash_SectorErase  flash.o
    0x00001124   0x00001124   0x00000020   Code   RO          965    i.Flash_UnlockAll   flash.o
    0x00001144   0x00001144   0x0000002c   Code   RO          966    i.Flash_WaitCycle   flash.o
    0x00001170   0x00001170   0x00000088   Code   RO          967    i.Flash_WriteByte   flash.o
    0x000011f8   0x000011f8   0x00000088   Code   RO          969    i.Flash_WriteWord   flash.o
    0x00001280   0x00001280   0x0000000a   Code   RO          832    i.GetBit            ddl.o
    0x0000128a   0x0000128a   0x00000002   PAD
    0x0000128c   0x0000128c   0x00000108   Code   RO         3406    i.Get_mcu_ID        app_client.o
    0x00001394   0x00001394   0x00000014   Code   RO         1344    i.Gpio_ClrIO        gpio.o
    0x000013a8   0x000013a8   0x00000010   Code   RO         1349    i.Gpio_GetInputIO   gpio.o
    0x000013b8   0x000013b8   0x00000088   Code   RO         1351    i.Gpio_Init         gpio.o
    0x00001440   0x00001440   0x00000014   Code   RO         1353    i.Gpio_SetAfMode    gpio.o
    0x00001454   0x00001454   0x00000014   Code   RO         1354    i.Gpio_SetAnalogMode  gpio.o
    0x00001468   0x00001468   0x00000014   Code   RO         1356    i.Gpio_SetIO        gpio.o
    0x0000147c   0x0000147c   0x00000008   Code   RO            8    i.I2C0_IRQHandler   interrupts_hc32l13x.o
    0x00001484   0x00001484   0x00000008   Code   RO            9    i.I2C1_IRQHandler   interrupts_hc32l13x.o
    0x0000148c   0x0000148c   0x00000046   Code   RO         3616    i.Intent_add        app_motor.o
    0x000014d2   0x000014d2   0x00000036   Code   RO         3617    i.Intent_next       app_motor.o
    0x00001508   0x00001508   0x0000001a   Code   RO         3618    i.Intent_set        app_motor.o
    0x00001522   0x00001522   0x00000008   Code   RO           10    i.LCD_IRQHandler    interrupts_hc32l13x.o
    0x0000152a   0x0000152a   0x000000a0   Code   RO         3290    i.LED_Control       app_led_blink.o
    0x000015ca   0x000015ca   0x00000002   PAD
    0x000015cc   0x000015cc   0x00000028   Code   RO         3291    i.LED_loop          app_led_blink.o
    0x000015f4   0x000015f4   0x00000008   Code   RO           11    i.LPTIM_IRQHandler  interrupts_hc32l13x.o
    0x000015fc   0x000015fc   0x00000008   Code   RO           12    i.LPUART0_IRQHandler  interrupts_hc32l13x.o
    0x00001604   0x00001604   0x00000008   Code   RO           13    i.LPUART1_IRQHandler  interrupts_hc32l13x.o
    0x0000160c   0x0000160c   0x0000000e   Code   RO         1558    i.LPUart_ClrStatus  lpuart.o
    0x0000161a   0x0000161a   0x0000000e   Code   RO         1561    i.LPUart_EnableFunc  lpuart.o
    0x00001628   0x00001628   0x0000000e   Code   RO         1562    i.LPUart_EnableIrq  lpuart.o
    0x00001636   0x00001636   0x0000000a   Code   RO         1565    i.LPUart_GetStatus  lpuart.o
    0x00001640   0x00001640   0x00000064   Code   RO         1566    i.LPUart_Init       lpuart.o
    0x000016a4   0x000016a4   0x00000006   Code   RO         1567    i.LPUart_ReceiveData  lpuart.o
    0x000016aa   0x000016aa   0x00000008   Code   RO           14    i.LVD_IRQHandler    interrupts_hc32l13x.o
    0x000016b2   0x000016b2   0x00000002   PAD
    0x000016b4   0x000016b4   0x00000044   Code   RO         2868    i.LpTim_IRQHandler  mylptimer.o
    0x000016f8   0x000016f8   0x00000064   Code   RO         3018    i.LpUart1_IRQHandler  myuart.o
    0x0000175c   0x0000175c   0x0000000e   Code   RO         1088    i.Lptim_ClrItStatus  lptim.o
    0x0000176a   0x0000176a   0x0000000e   Code   RO         1089    i.Lptim_Cmd         lptim.o
    0x00001778   0x00001778   0x0000000e   Code   RO         1090    i.Lptim_ConfIt      lptim.o
    0x00001786   0x00001786   0x0000000c   Code   RO         1091    i.Lptim_GetItStatus  lptim.o
    0x00001792   0x00001792   0x00000094   Code   RO         1092    i.Lptim_Init        lptim.o
    0x00001826   0x00001826   0x00000002   PAD
    0x00001828   0x00001828   0x00000018   Code   RO         3019    i.Luart1_flush      myuart.o
    0x00001840   0x00001840   0x0000006c   Code   RO         3021    i.Luart1_get_line_none_block  myuart.o
    0x000018ac   0x000018ac   0x00000038   Code   RO         3022    i.Luart1_getchar    myuart.o
    0x000018e4   0x000018e4   0x00000010   Code   RO         1808    i.Lvd_ClearIrq      lvd.o
    0x000018f4   0x000018f4   0x00000010   Code   RO         1811    i.Lvd_Enable        lvd.o
    0x00001904   0x00001904   0x00000010   Code   RO         1812    i.Lvd_EnableIrq     lvd.o
    0x00001914   0x00001914   0x00000020   Code   RO         2908    i.Lvd_IRQHandler    mylvd.o
    0x00001934   0x00001934   0x00000028   Code   RO         1815    i.Lvd_Init          lvd.o
    0x0000195c   0x0000195c   0x00000054   Code   RO         3619    i.M_step_brake_fun  app_motor.o
    0x000019b0   0x000019b0   0x0000001c   Code   RO         3620    i.M_step_closd_fun  app_motor.o
    0x000019cc   0x000019cc   0x00000084   Code   RO         3621    i.M_step_closing_fun  app_motor.o
    0x00001a50   0x00001a50   0x0000001e   Code   RO         3622    i.M_step_opened_fun  app_motor.o
    0x00001a6e   0x00001a6e   0x00000002   PAD
    0x00001a70   0x00001a70   0x00000084   Code   RO         3623    i.M_step_opening_fun  app_motor.o
    0x00001af4   0x00001af4   0x0000007c   Code   RO         3624    i.Motor_Control     app_motor.o
    0x00001b70   0x00001b70   0x00000014   Code   RO         3625    i.Motor_brake       app_motor.o
    0x00001b84   0x00001b84   0x00000014   Code   RO         3626    i.Motor_close       app_motor.o
    0x00001b98   0x00001b98   0x00000012   Code   RO         3627    i.Motor_err_rst     app_motor.o
    0x00001baa   0x00001baa   0x00000014   Code   RO         3628    i.Motor_free        app_motor.o
    0x00001bbe   0x00001bbe   0x00000014   Code   RO         3629    i.Motor_open        app_motor.o
    0x00001bd2   0x00001bd2   0x00000034   Code   RO         3630    i.Motor_para_init   app_motor.o
    0x00001c06   0x00001c06   0x00000012   Code   RO         3631    i.Motor_reset_sleep_counter  app_motor.o
    0x00001c18   0x00001c18   0x00000016   Code   RO         3632    i.Motor_sensor_closed  app_motor.o
    0x00001c2e   0x00001c2e   0x00000016   Code   RO         3633    i.Motor_sensor_opened  app_motor.o
    0x00001c44   0x00001c44   0x00000020   Code   RO         2440    i.MyAdcSQRCfg       myadc.o
    0x00001c64   0x00001c64   0x00000008   Code   RO           15    i.PCA_IRQHandler    interrupts_hc32l13x.o
    0x00001c6c   0x00001c6c   0x00000008   Code   RO           16    i.PCNT_IRQHandler   interrupts_hc32l13x.o
    0x00001c74   0x00001c74   0x00000014   Code   RO         1943    i.Pcnt_ClrItStatus  pcnt.o
    0x00001c88   0x00001c88   0x00000010   Code   RO         1947    i.Pcnt_GetItStatus  pcnt.o
    0x00001c98   0x00001c98   0x0000009c   Code   RO         2940    i.Pcnt_IRQHandler   mypcnt.o
    0x00001d34   0x00001d34   0x00000008   Code   RO           17    i.RTC_IRQHandler    interrupts_hc32l13x.o
    0x00001d3c   0x00001d3c   0x00000014   Code   RO         1681    i.Rtc_ClearPrdfItStatus  rtc.o
    0x00001d50   0x00001d50   0x00000014   Code   RO         1682    i.Rtc_Cmd           rtc.o
    0x00001d64   0x00001d64   0x00000034   Code   RO         1683    i.Rtc_CompCfg       rtc.o
    0x00001d98   0x00001d98   0x00000010   Code   RO         1686    i.Rtc_GetPridItStatus  rtc.o
    0x00001da8   0x00001da8   0x00000014   Code   RO         2969    i.Rtc_IRQHandler    myrtc.o
    0x00001dbc   0x00001dbc   0x0000004c   Code   RO         1688    i.Rtc_Init          rtc.o
    0x00001e08   0x00001e08   0x0000006c   Code   RO         1689    i.Rtc_ReadDateTime  rtc.o
    0x00001e74   0x00001e74   0x00000050   Code   RO         1691    i.Rtc_SetCyc        rtc.o
    0x00001ec4   0x00001ec4   0x00000068   Code   RO         1692    i.Rtc_SetTime       rtc.o
    0x00001f2c   0x00001f2c   0x00000008   Code   RO           18    i.SPI0_IRQHandler   interrupts_hc32l13x.o
    0x00001f34   0x00001f34   0x00000008   Code   RO           19    i.SPI1_IRQHandler   interrupts_hc32l13x.o
    0x00001f3c   0x00001f3c   0x00000014   Code   RO          836    i.SetBit            ddl.o
    0x00001f50   0x00001f50   0x00000300   Code   RO         3407    i.Signal_ap_udp_cfg  app_client.o
    0x00002250   0x00002250   0x00000134   Code   RO         3408    i.Signal_smart_cfg  app_client.o
    0x00002384   0x00002384   0x00000048   Code   RO         3170    i.Spi0_IRQHandler   myspi.o
    0x000023cc   0x000023cc   0x00000008   Code   RO         2243    i.Spi_ClearStatus   spi.o
    0x000023d4   0x000023d4   0x0000000a   Code   RO         2247    i.Spi_GetStatus     spi.o
    0x000023de   0x000023de   0x00000002   PAD
    0x000023e0   0x000023e0   0x0000001c   Code   RO         4720    i.SysTick_Handler   board.o
    0x000023fc   0x000023fc   0x000000c4   Code   RO         1137    i.Sysctrl_ClkSourceEnable  sysctrl.o
    0x000024c0   0x000024c0   0x0000013c   Code   RO         1138    i.Sysctrl_GetHClkFreq  sysctrl.o
    0x000025fc   0x000025fc   0x00000018   Code   RO         1139    i.Sysctrl_GetPClkFreq  sysctrl.o
    0x00002614   0x00002614   0x00000014   Code   RO         1146    i.Sysctrl_SetPeripheralGate  sysctrl.o
    0x00002628   0x00002628   0x00000024   Code   RO         1147    i.Sysctrl_SetRCHTrim  sysctrl.o
    0x0000264c   0x0000264c   0x00000024   Code   RO         1149    i.Sysctrl_SetRCLTrim  sysctrl.o
    0x00002670   0x00002670   0x00000028   Code   RO         1154    i.Sysctrl_SysClkSwitch  sysctrl.o
    0x00002698   0x00002698   0x00000010   Code   RO          247    i.SystemCoreClockUpdate  system_hc32l13x.o
    0x000026a8   0x000026a8   0x00000030   Code   RO          248    i.SystemInit        system_hc32l13x.o
    0x000026d8   0x000026d8   0x00000008   Code   RO           20    i.TIM0_IRQHandler   interrupts_hc32l13x.o
    0x000026e0   0x000026e0   0x00000008   Code   RO           21    i.TIM1_IRQHandler   interrupts_hc32l13x.o
    0x000026e8   0x000026e8   0x00000008   Code   RO           22    i.TIM2_IRQHandler   interrupts_hc32l13x.o
    0x000026f0   0x000026f0   0x00000008   Code   RO           23    i.TIM3_IRQHandler   interrupts_hc32l13x.o
    0x000026f8   0x000026f8   0x00000008   Code   RO           24    i.TIM4_IRQHandler   interrupts_hc32l13x.o
    0x00002700   0x00002700   0x00000008   Code   RO           25    i.TIM5_IRQHandler   interrupts_hc32l13x.o
    0x00002708   0x00002708   0x00000008   Code   RO           26    i.TIM6_IRQHandler   interrupts_hc32l13x.o
    0x00002710   0x00002710   0x0000001e   Code   RO         2570    i.Tim0_IRQHandler   mybt.o
    0x0000272e   0x0000272e   0x00000008   Code   RO           27    i.UART0_IRQHandler  interrupts_hc32l13x.o
    0x00002736   0x00002736   0x00000008   Code   RO           28    i.UART1_IRQHandler  interrupts_hc32l13x.o
    0x0000273e   0x0000273e   0x00000008   Code   RO           29    i.VC0_IRQHandler    interrupts_hc32l13x.o
    0x00002746   0x00002746   0x00000008   Code   RO           30    i.VC1_IRQHandler    interrupts_hc32l13x.o
    0x0000274e   0x0000274e   0x00000008   Code   RO           31    i.WDT_IRQHandler    interrupts_hc32l13x.o
    0x00002756   0x00002756   0x00000002   PAD
    0x00002758   0x00002758   0x00000010   Code   RO         1278    i.Wdt_Feed          wdt.o
    0x00002768   0x00002768   0x00000024   Code   RO         1280    i.Wdt_Init          wdt.o
    0x0000278c   0x0000278c   0x00000010   Code   RO         1284    i.Wdt_Start         wdt.o
    0x0000279c   0x0000279c   0x00000018   Code   RO         1285    i.Wdt_WriteWdtLoad  wdt.o
    0x000027b4   0x000027b4   0x00000018   Code   RO         1157    i._SysctrlUnlock    sysctrl.o
    0x000027cc   0x000027cc   0x00000028   Code   RO         4912    i.__0sprintf$5      mc_p.l(printf5.o)
    0x000027f4   0x000027f4   0x0000002e   Code   RO         5073    i.__ARM_clz         mf_p.l(depilogue.o)
    0x00002822   0x00002822   0x0000001a   Code   RO          460    i.__ARM_common_switch8  adc.o
    0x0000283c   0x0000283c   0x00000040   Code   RO         4138    i.__rt_ffs          kservice.o
    0x0000287c   0x0000287c   0x0000000e   Code   RO         5102    i.__scatterload_copy  mc_p.l(handlers.o)
    0x0000288a   0x0000288a   0x00000002   Code   RO         5103    i.__scatterload_null  mc_p.l(handlers.o)
    0x0000288c   0x0000288c   0x0000000e   Code   RO         5104    i.__scatterload_zeroinit  mc_p.l(handlers.o)
    0x0000289a   0x0000289a   0x00000002   PAD
    0x0000289c   0x0000289c   0x00000014   Code   RO         3907    i._has_defunct_thread  idle.o
    0x000028b0   0x000028b0   0x000002dc   Code   RO         4917    i._printf_core      mc_p.l(printf5.o)
    0x00002b8c   0x00002b8c   0x00000078   Code   RO         4505    i._rt_thread_init   thread.o
    0x00002c04   0x00002c04   0x0000001c   Code   RO         4626    i._rt_timer_init    timer.o
    0x00002c20   0x00002c20   0x00000014   Code   RO         4627    i._rt_timer_remove  timer.o
    0x00002c34   0x00002c34   0x0000000a   Code   RO         4919    i._sputc            mc_p.l(printf5.o)
    0x00002c3e   0x00002c3e   0x00000002   PAD
    0x00002c40   0x00002c40   0x00000028   Code   RO         3293    i.beep_sound        app_led_blink.o
    0x00002c68   0x00002c68   0x00000068   Code   RO         3294    i.beep_sound_loop   app_led_blink.o
    0x00002cd0   0x00002cd0   0x00000052   Code   RO         3295    i.client_leds       app_led_blink.o
    0x00002d22   0x00002d22   0x00000002   PAD
    0x00002d24   0x00002d24   0x0000040c   Code   RO         3409    i.client_listen     app_client.o
    0x00003130   0x00003130   0x00000014   Code   RO         3361    i.clr_key_value     app_key.o
    0x00003144   0x00003144   0x00000014   Code   RO         2655    i.current_page      myflash.o
    0x00003158   0x00003158   0x00000012   Code   RO          840    i.ddl_memclr        ddl.o
    0x0000316a   0x0000316a   0x00000002   PAD
    0x0000316c   0x0000316c   0x00000044   Code   RO          841    i.delay100us        ddl.o
    0x000031b0   0x000031b0   0x000000ec   Code   RO         3410    i.device_pow_on_init  app_client.o
    0x0000329c   0x0000329c   0x000000ba   Code   RO         2656    i.flash_eeprom_entry_write  myflash.o
    0x00003356   0x00003356   0x000000a6   Code   RO         2657    i.flash_eeprom_page_switch  myflash.o
    0x000033fc   0x000033fc   0x00000030   Code   RO         2658    i.flash_eeprom_pwron_check  myflash.o
    0x0000342c   0x0000342c   0x00000034   Code   RO         2659    i.flash_eeprom_updata_alloc  myflash.o
    0x00003460   0x00003460   0x00000022   Code   RO         2660    i.flash_eeprom_update_active_address  myflash.o
    0x00003482   0x00003482   0x00000002   PAD
    0x00003484   0x00003484   0x00000008   Code   RO         3362    i.get_key_status    app_key.o
    0x0000348c   0x0000348c   0x0000000c   Code   RO         3634    i.get_next_list     app_motor.o
    0x00003498   0x00003498   0x00000008   Code   RO         3411    i.get_water_leak_detector_handler  app_client.o
    0x000034a0   0x000034a0   0x0000000c   Code   RO         3412    i.get_water_leak_detector_status  app_client.o
    0x000034ac   0x000034ac   0x00000054   Code   RO         3413    i.go_to_sleep       app_client.o
    0x00003500   0x00003500   0x0000000c   Code   RO         2760    i.gpio_adc_init     mygpio.o
    0x0000350c   0x0000350c   0x000001dc   Code   RO         2761    i.gpio_io_init      mygpio.o
    0x000036e8   0x000036e8   0x00000080   Code   RO         2768    i.gpio_uart_init    mygpio.o
    0x00003768   0x00003768   0x0000000c   Code   RO         3296    i.led_temp          app_led_blink.o
    0x00003774   0x00003774   0x0000006a   Code   RO         3414    i.load_parameters_from_flash  app_client.o
    0x000037de   0x000037de   0x00000002   PAD
    0x000037e0   0x000037e0   0x00000094   Code   RO         3248    i.local_clean_loop  main.o
    0x00003874   0x00003874   0x00000084   Code   RO         3249    i.local_user_loop   main.o
    0x000038f8   0x000038f8   0x00000160   Code   RO         3250    i.main              main.o
    0x00003a58   0x00003a58   0x0000000c   Code   RO         3841    i.main_thread_entry  components.o
    0x00003a64   0x00003a64   0x00000014   Code   RO         3636    i.motor_cycles_to_s  app_motor.o
    0x00003a78   0x00003a78   0x0000005c   Code   RO         2970    i.myRtcInit         myrtc.o
    0x00003ad4   0x00003ad4   0x00000014   Code   RO         3092    i.my_WDT_int        mywdt.o
    0x00003ae8   0x00003ae8   0x00000074   Code   RO         2441    i.my_adc_init       myadc.o
    0x00003b5c   0x00003b5c   0x00000070   Code   RO         2662    i.my_eeprom_format  myflash.o
    0x00003bcc   0x00003bcc   0x0000002c   Code   RO         2663    i.my_eeprom_init    myflash.o
    0x00003bf8   0x00003bf8   0x00000030   Code   RO         2664    i.my_eeprom_read    myflash.o
    0x00003c28   0x00003c28   0x00000056   Code   RO         2665    i.my_eeprom_write   myflash.o
    0x00003c7e   0x00003c7e   0x00000002   PAD
    0x00003c80   0x00003c80   0x00000038   Code   RO         2666    i.my_flash_init     myflash.o
    0x00003cb8   0x00003cb8   0x00000018   Code   RO         2769    i.my_gpio_init      mygpio.o
    0x00003cd0   0x00003cd0   0x00000026   Code   RO         2842    i.my_init           myinit.o
    0x00003cf6   0x00003cf6   0x00000002   PAD
    0x00003cf8   0x00003cf8   0x00000064   Code   RO         3023    i.my_lp_uart1_init  myuart.o
    0x00003d5c   0x00003d5c   0x00000020   Code   RO         3024    i.my_lp_uart1_send  myuart.o
    0x00003d7c   0x00003d7c   0x00000070   Code   RO         2870    i.my_lptimer_init   mylptimer.o
    0x00003dec   0x00003dec   0x00000064   Code   RO         2909    i.my_lvd_init       mylvd.o
    0x00003e50   0x00003e50   0x00000008   Code   RO         3025    i.my_uart_init      myuart.o
    0x00003e58   0x00003e58   0x000000f0   Code   RO         3415    i.parsing_heart_beat  app_client.o
    0x00003f48   0x00003f48   0x00000054   Code   RO         3416    i.parsing_set_alarm_level  app_client.o
    0x00003f9c   0x00003f9c   0x00000068   Code   RO         3417    i.parsing_set_clean_clock  app_client.o
    0x00004004   0x00004004   0x00000054   Code   RO         3418    i.parsing_set_cmd_wait_time  app_client.o
    0x00004058   0x00004058   0x00000054   Code   RO         3419    i.parsing_set_freq_normal  app_client.o
    0x000040ac   0x000040ac   0x0000007c   Code   RO         3420    i.parsing_set_ip_port  app_client.o
    0x00004128   0x00004128   0x000000c8   Code   RO         3421    i.parsing_set_system_time  app_client.o
    0x000041f0   0x000041f0   0x00000058   Code   RO         4318    i.plug_holes        mem.o
    0x00004248   0x00004248   0x00000144   Code   RO         4140    i.print_number      kservice.o
    0x0000438c   0x0000438c   0x0000002c   Code   RO         3842    i.rt_application_init  components.o
    0x000043b8   0x000043b8   0x0000001c   Code   RO         3843    i.rt_components_board_init  components.o
    0x000043d4   0x000043d4   0x0000001c   Code   RO         3844    i.rt_components_init  components.o
    0x000043f0   0x000043f0   0x00000018   Code   RO         4444    i.rt_enter_critical  scheduler.o
    0x00004408   0x00004408   0x00000034   Code   RO         4445    i.rt_exit_critical  scheduler.o
    0x0000443c   0x0000443c   0x000000c4   Code   RO         4320    i.rt_free           mem.o
    0x00004500   0x00004500   0x00000008   Code   RO         4721    i.rt_heap_begin_get  board.o
    0x00004508   0x00004508   0x00000008   Code   RO         4722    i.rt_heap_end_get   board.o
    0x00004510   0x00004510   0x00000054   Code   RO         4723    i.rt_hw_board_init  board.o
    0x00004564   0x00004564   0x0000002a   Code   RO         4143    i.rt_hw_console_output  kservice.o
    0x0000458e   0x0000458e   0x00000002   PAD
    0x00004590   0x00004590   0x000000f0   Code   RO         3773    i.rt_hw_hard_fault_exception  cpuport.o
    0x00004680   0x00004680   0x00000038   Code   RO         3774    i.rt_hw_stack_init  cpuport.o
    0x000046b8   0x000046b8   0x00000018   Code   RO         4109    i.rt_interrupt_enter  irq.o
    0x000046d0   0x000046d0   0x00000018   Code   RO         4111    i.rt_interrupt_leave  irq.o
    0x000046e8   0x000046e8   0x0000004e   Code   RO         3955    i.rt_ipc_list_suspend  ipc.o
    0x00004736   0x00004736   0x00000002   PAD
    0x00004738   0x00004738   0x00000024   Code   RO         4144    i.rt_kprintf        kservice.o
    0x0000475c   0x0000475c   0x0000000e   Code   RO         4368    i.rt_list_insert_after  object.o
    0x0000476a   0x0000476a   0x0000000e   Code   RO         4506    i.rt_list_insert_after  thread.o
    0x00004778   0x00004778   0x0000000e   Code   RO         4628    i.rt_list_insert_after  timer.o
    0x00004786   0x00004786   0x0000000e   Code   RO         3956    i.rt_list_insert_before  ipc.o
    0x00004794   0x00004794   0x00000012   Code   RO         4369    i.rt_list_remove    object.o
    0x000047a6   0x000047a6   0x00000012   Code   RO         4507    i.rt_list_remove    thread.o
    0x000047b8   0x000047b8   0x000000e8   Code   RO         4321    i.rt_malloc         mem.o
    0x000048a0   0x000048a0   0x0000003e   Code   RO         4150    i.rt_memset         kservice.o
    0x000048de   0x000048de   0x0000004c   Code   RO         4370    i.rt_object_allocate  object.o
    0x0000492a   0x0000492a   0x00000024   Code   RO         4371    i.rt_object_delete  object.o
    0x0000494e   0x0000494e   0x0000001e   Code   RO         4372    i.rt_object_detach  object.o
    0x0000496c   0x0000496c   0x00000020   Code   RO         4374    i.rt_object_get_information  object.o
    0x0000498c   0x0000498c   0x0000004c   Code   RO         4376    i.rt_object_init    object.o
    0x000049d8   0x000049d8   0x0000000e   Code   RO         4377    i.rt_object_is_systemobject  object.o
    0x000049e6   0x000049e6   0x00000002   PAD
    0x000049e8   0x000049e8   0x0000006c   Code   RO         4446    i.rt_schedule       scheduler.o
    0x00004a54   0x00004a54   0x0000005c   Code   RO         4447    i.rt_schedule_insert_thread  scheduler.o
    0x00004ab0   0x00004ab0   0x0000005c   Code   RO         4448    i.rt_schedule_remove_thread  scheduler.o
    0x00004b0c   0x00004b0c   0x00000020   Code   RO         3969    i.rt_sem_init       ipc.o
    0x00004b2c   0x00004b2c   0x00000036   Code   RO         3970    i.rt_sem_release    ipc.o
    0x00004b62   0x00004b62   0x00000072   Code   RO         3971    i.rt_sem_take       ipc.o
    0x00004bd4   0x00004bd4   0x000001d8   Code   RO         4152    i.rt_show_version   kservice.o
    0x00004dac   0x00004dac   0x00000010   Code   RO         4158    i.rt_strlen         kservice.o
    0x00004dbc   0x00004dbc   0x00000024   Code   RO         4159    i.rt_strncmp        kservice.o
    0x00004de0   0x00004de0   0x00000028   Code   RO         4160    i.rt_strncpy        kservice.o
    0x00004e08   0x00004e08   0x000000a8   Code   RO         4324    i.rt_system_heap_init  mem.o
    0x00004eb0   0x00004eb0   0x00000044   Code   RO         4449    i.rt_system_scheduler_init  scheduler.o
    0x00004ef4   0x00004ef4   0x00000038   Code   RO         4450    i.rt_system_scheduler_start  scheduler.o
    0x00004f2c   0x00004f2c   0x0000000c   Code   RO         4629    i.rt_system_timer_init  timer.o
    0x00004f38   0x00004f38   0x00000002   Code   RO         4630    i.rt_system_timer_thread_init  timer.o
    0x00004f3a   0x00004f3a   0x00000040   Code   RO         4509    i.rt_thread_create  thread.o
    0x00004f7a   0x00004f7a   0x00000002   PAD
    0x00004f7c   0x00004f7c   0x00000058   Code   RO         4513    i.rt_thread_exit    thread.o
    0x00004fd4   0x00004fd4   0x00000006   Code   RO         3908    i.rt_thread_idle_entry  idle.o
    0x00004fda   0x00004fda   0x00000002   PAD
    0x00004fdc   0x00004fdc   0x00000078   Code   RO         3909    i.rt_thread_idle_excute  idle.o
    0x00005054   0x00005054   0x00000008   Code   RO         3910    i.rt_thread_idle_gethandler  idle.o
    0x0000505c   0x0000505c   0x00000034   Code   RO         3911    i.rt_thread_idle_init  idle.o
    0x00005090   0x00005090   0x0000002a   Code   RO         4515    i.rt_thread_init    thread.o
    0x000050ba   0x000050ba   0x0000000c   Code   RO         4516    i.rt_thread_mdelay  thread.o
    0x000050c6   0x000050c6   0x0000003c   Code   RO         4517    i.rt_thread_resume  thread.o
    0x00005102   0x00005102   0x00000002   PAD
    0x00005104   0x00005104   0x0000000c   Code   RO         4518    i.rt_thread_self    thread.o
    0x00005110   0x00005110   0x00000040   Code   RO         4519    i.rt_thread_sleep   thread.o
    0x00005150   0x00005150   0x0000003c   Code   RO         4520    i.rt_thread_startup  thread.o
    0x0000518c   0x0000518c   0x00000040   Code   RO         4521    i.rt_thread_suspend  thread.o
    0x000051cc   0x000051cc   0x0000001e   Code   RO         4522    i.rt_thread_timeout  thread.o
    0x000051ea   0x000051ea   0x00000002   PAD
    0x000051ec   0x000051ec   0x0000005c   Code   RO         4523    i.rt_thread_yield   thread.o
    0x00005248   0x00005248   0x0000002e   Code   RO         3803    i.rt_tick_from_millisecond  clock.o
    0x00005276   0x00005276   0x00000002   PAD
    0x00005278   0x00005278   0x0000000c   Code   RO         3804    i.rt_tick_get       clock.o
    0x00005284   0x00005284   0x00000028   Code   RO         3805    i.rt_tick_increase  clock.o
    0x000052ac   0x000052ac   0x00000064   Code   RO         4631    i.rt_timer_check    timer.o
    0x00005310   0x00005310   0x00000032   Code   RO         4632    i.rt_timer_control  timer.o
    0x00005342   0x00005342   0x00000020   Code   RO         4635    i.rt_timer_detach   timer.o
    0x00005362   0x00005362   0x00000026   Code   RO         4636    i.rt_timer_init     timer.o
    0x00005388   0x00005388   0x00000090   Code   RO         4638    i.rt_timer_start    timer.o
    0x00005418   0x00005418   0x0000002e   Code   RO         4639    i.rt_timer_stop     timer.o
    0x00005446   0x00005446   0x00000002   PAD
    0x00005448   0x00005448   0x0000026c   Code   RO         4163    i.rt_vsnprintf      kservice.o
    0x000056b4   0x000056b4   0x00000004   Code   RO         3845    i.rti_board_end     components.o
    0x000056b8   0x000056b8   0x00000004   Code   RO         3846    i.rti_board_start   components.o
    0x000056bc   0x000056bc   0x00000004   Code   RO         3847    i.rti_end           components.o
    0x000056c0   0x000056c0   0x00000004   Code   RO         3848    i.rti_start         components.o
    0x000056c4   0x000056c4   0x0000002a   Code   RO         3849    i.rtthread_startup  components.o
    0x000056ee   0x000056ee   0x00000002   PAD
    0x000056f0   0x000056f0   0x000000a4   Code   RO         3422    i.send_heart_beat   app_client.o
    0x00005794   0x00005794   0x000001c0   Code   RO         3423    i.send_report       app_client.o
    0x00005954   0x00005954   0x000001a0   Code   RO         3424    i.send_setting      app_client.o
    0x00005af4   0x00005af4   0x0000018c   Code   RO         3425    i.server_connect    app_client.o
    0x00005c80   0x00005c80   0x00000020   Code   RO         4165    i.skip_atoi         kservice.o
    0x00005ca0   0x00005ca0   0x000003ec   Code   RO         3581    i.sleep_listen      my_sleep_server.o
    0x0000608c   0x0000608c   0x0000006c   Code   RO         3582    i.sleep_parsing_heart_beat  my_sleep_server.o
    0x000060f8   0x000060f8   0x00000408   Code   RO         3583    i.sleep_server      my_sleep_server.o
    0x00006500   0x00006500   0x00000038   Code   RO         3297    i.sleep_server_leds  app_led_blink.o
    0x00006538   0x00006538   0x0000006a   Code   RO         3426    i.smart_config      app_client.o
    0x000065a2   0x000065a2   0x00000012   Code   RO         3427    i.status_switch     app_client.o
    0x000065b4   0x000065b4   0x000001b8   Code   RO         3428    i.wifi_connect      app_client.o
    0x0000676c   0x0000676c   0x00000020   Data   RO          970    .constdata          flash.o
    0x0000678c   0x0000678c   0x00000018   Data   RO         1158    .constdata          sysctrl.o
    0x000067a4   0x000067a4   0x0000000c   Data   RO         1574    .constdata          lpuart.o
    0x000067b0   0x000067b0   0x00000122   Data   RO         4167    .constdata          kservice.o
    0x000068d2   0x000068d2   0x00000040   Data   RO         5098    .constdata          mc_p.l(ctype_c.o)
    0x00006912   0x00006912   0x00000002   PAD
    0x00006914   0x00006914   0x00000004   Data   RO         3850    .rti_fn.0           components.o
    0x00006918   0x00006918   0x00000004   Data   RO         3851    .rti_fn.0.end       components.o
    0x0000691c   0x0000691c   0x00000004   Data   RO         2843    .rti_fn.1           myinit.o
    0x00006920   0x00006920   0x00000004   Data   RO         3852    .rti_fn.1.end       components.o
    0x00006924   0x00006924   0x00000004   Data   RO         3853    .rti_fn.6.end       components.o
    0x00006928   0x00006928   0x00000020   Data   RO         5100    Region$$Table       anon$$obj.o


    Execution Region RW_IRAM1 (Exec base: 0x20000000, Load base: 0x00006948, Size: 0x00001b70, Max: 0x00002000, ABSOLUTE)

    Exec Addr    Load Addr    Size         Type   Attr      Idx    E Section Name        Object

    0x20000000   0x00006948   0x00000004   Data   RW          249    .data               system_hc32l13x.o
    0x20000004   0x0000694c   0x00000008   Data   RW         2442    .data               myadc.o
    0x2000000c   0x00006954   0x00000004   Data   RW         2910    .data               mylvd.o
    0x20000010   0x00006958   0x00000004   Data   RW         2942    .data               mypcnt.o
    0x20000014   0x0000695c   0x00000014   Data   RW         3028    .data               myuart.o
    0x20000028   0x00006970   0x00000008   Data   RW         3172    .data               myspi.o
    0x20000030   0x00006978   0x0000000c   Data   RW         3299    .data               app_led_blink.o
    0x2000003c   0x00006984   0x00000020   Data   RW         3430    .data               app_client.o
    0x2000005c   0x000069a4   0x00000018   Data   RW         3584    .data               my_sleep_server.o
    0x20000074   0x000069bc   0x00000008   Data   RW         3640    .data               app_motor.o
    0x2000007c   0x000069c4   0x00000004   Data   RW         3775    .data               cpuport.o
    0x20000080   0x000069c8   0x00000004   Data   RW         3776    .data               cpuport.o
    0x20000084   0x000069cc   0x00000004   Data   RW         3777    .data               cpuport.o
    0x20000088   0x000069d0   0x00000004   Data   RW         3807    .data               clock.o
    0x2000008c   0x000069d4   0x00000001   Data   RW         4112    .data               irq.o
    0x2000008d   0x000069d5   0x00000003   PAD
    0x20000090   0x000069d8   0x00000018   Data   RW         4326    .data               mem.o
    0x200000a8   0x000069f0   0x00000050   Data   RW         4379    .data               object.o
    0x200000f8   0x00006a40   0x00000014   Data   RW         4452    .data               scheduler.o
    0x2000010c   0x00006a54   0x0000000c   Data   RW         4640    .data               timer.o
    0x20000118   0x00006a60   0x00000004   Data   RW         4725    .data               board.o
    0x2000011c        -       0x00000020   Zero   RW         2668    .bss                myflash.o
    0x2000013c        -       0x000000c8   Zero   RW         2872    .bss                mylptimer.o
    0x20000204        -       0x00000064   Zero   RW         3026    .bss                myuart.o
    0x20000268        -       0x0000017e   Zero   RW         3027    .bss                myuart.o
    0x200003e6   0x00006a64   0x00000002   PAD
    0x200003e8        -       0x00000028   Zero   RW         3298    .bss                app_led_blink.o
    0x20000410        -       0x0000004c   Zero   RW         3364    .bss                app_key.o
    0x2000045c        -       0x0000009c   Zero   RW         3429    .bss                app_client.o
    0x200004f8        -       0x00000038   Zero   RW         3639    .bss                app_motor.o
    0x20000530        -       0x00000184   Zero   RW         3912    .bss                idle.o
    0x200006b4        -       0x00000080   Zero   RW         4166    .bss                kservice.o
    0x20000734        -       0x00000020   Zero   RW         4325    .bss                mem.o
    0x20000754        -       0x00000418   Zero   RW         4451    .bss                scheduler.o
    0x20000b6c        -       0x00000800   Zero   RW         4724    .bss                board.o
    0x2000136c   0x00006a64   0x00000004   PAD
    0x20001370        -       0x00000800   Zero   RW          280    STACK               startup_hc32l13x.o


==============================================================================

Image component sizes


      Code (inc. data)   RO Data    RW Data    ZI Data      Debug   Object Name

       302         38          0          0          0      13938   adc.o
      5958       1890          0         32        156      18446   app_client.o
       316         12          0          0         76       2231   app_key.o
       542         42          0         12         40       5497   app_led_blink.o
       924        100          0          8         56      12891   app_motor.o
        48          8          0          0          0        891   bgr.o
       128         28          0          4       2048       3052   board.o
        68         12          0          0          0       7971   bt.o
        98         10          0          4          0       1784   clock.o
       180         30         16          0          0       5642   components.o
       216         32          0          0          0        792   context_rvds.o
       296        168          0         12          0       3038   cpuport.o
       116         14          0          0          0       2651   ddl.o
       672        106         32          0          0       6052   flash.o
       232         34          0          0          0       6790   gpio.o
       206         28          0          0        388       5914   idle.o
       356         18          0          0          0     146430   interrupts_hc32l13x.o
       292          0          0          0          0       6549   ipc.o
        48          8          0          1          0       1582   irq.o
      1744        410        290          0        128      11772   kservice.o
       202          0          0          0          0       3740   lptim.o
       158          6         12          0          0       5276   lpuart.o
        88         18          0          0          0       3507   lvd.o
       632        198          0          0          0       3112   main.o
       684        180          0         24         32       3812   mem.o
      2144        734          0         24          0       4561   my_sleep_server.o
       200         12          0          8          0       9600   myadc.o
        30          0          0          0          0        446   mybt.o
        24          0          0          0          0        885   myesp8266.o
       852          6          0          0         32      10448   myflash.o
       640          0          0          0          0       2499   mygpio.o
        38          0          4          0          0       1002   myinit.o
       180         20          0          0        200       1821   mylptimer.o
       132         18          0          4          0       1190   mylvd.o
       156          4          0          4          0        803   mypcnt.o
       112          0          0          0          0       1001   myrtc.o
        72         10          0          8          0        768   myspi.o
       444         44          0         20        482       5189   myuart.o
        20          0          0          0          0        429   mywdt.o
       296          4          0         80          0       8196   object.o
        36         10          0          0          0       2034   pcnt.o
       476         44          0          0          0       6251   rtc.o
       492         80          0         20       1048       8016   scheduler.o
        18          0          0          0          0       2486   spi.o
        60         22        192          0       2048        616   startup_hc32l13x.o
       692         88         24          0          0       6625   sysctrl.o
        64          4          0          4          0       1583   system_hc32l13x.o
       740         44          0          0          0      11084   thread.o
       486         22          0         12          0       9984   timer.o
        92         20          0          0          0       2669   wdt.o

    ----------------------------------------------------------------------
     23050       4576        602        284       6740     383546   Object Totals
         0          0         32          0          0          0   (incl. Generated)
        48          0          0          3          6          0   (incl. Padding)

    ----------------------------------------------------------------------

      Code (inc. data)   RO Data    RW Data    ZI Data      Debug   Library Member Name

        60         10          0          0          0         84   __0sscanf.o
        30          0          0          0          0         60   _chval.o
       824         12          0          0          0         84   _scanf.o
       330          0          0          0          0         84   _scanf_int.o
       232          0          0          0          0         84   _scanf_str.o
        68          0          0          0          0         76   _sgetc.o
        36          4         64          0          0         60   ctype_c.o
         0          0          0          0          0          0   entry.o
         0          0          0          0          0          0   entry10a.o
         0          0          0          0          0          0   entry11a.o
         8          4          0          0          0          0   entry2.o
         4          0          0          0          0          0   entry5.o
         0          0          0          0          0          0   entry7b.o
         0          0          0          0          0          0   entry8b.o
         8          4          0          0          0          0   entry9a.o
        30          0          0          0          0          0   handlers.o
        40          0          0          0          0         72   idiv.o
        36          8          0          0          0         68   init.o
        14          0          0          0          0         68   isspace_c.o
         0          0          0          0          0          0   iusefp.o
        76          0          0          0          0         76   ldiv.o
        32          0          0          0          0         68   llshl.o
        34          0          0          0          0         68   llushr.o
        36          0          0          0          0         60   memcpya.o
        36          0          0          0          0        100   memseta.o
       782         48          0          0          0        228   printf5.o
        44          8          0          0          0         84   scanf_char.o
        20          0          0          0          0         60   strchr.o
        44          0          0          0          0         72   uidiv.o
        96          0          0          0          0         84   uldiv.o
        40          2          0          0          0         68   cdcmple.o
       236          0          0          0          0        216   depilogue.o
        28          4          0          0          0         68   dfltui.o

    ----------------------------------------------------------------------
      3234        104         66          0          0       1992   Library Totals
        10          0          2          0          0          0   (incl. Padding)

    ----------------------------------------------------------------------

      Code (inc. data)   RO Data    RW Data    ZI Data      Debug   Library Name

      2920         98         64          0          0       1640   mc_p.l
       304          6          0          0          0        352   mf_p.l

    ----------------------------------------------------------------------
      3234        104         66          0          0       1992   Library Totals

    ----------------------------------------------------------------------

==============================================================================


      Code (inc. data)   RO Data    RW Data    ZI Data      Debug   

     26284       4680        668        284       6740     372078   Grand Totals
     26284       4680        668        284       6740     372078   ELF Image Totals
     26284       4680        668        284          0          0   ROM Totals

==============================================================================

    Total RO  Size (Code + RO Data)                26952 (  26.32kB)
    Total RW  Size (RW Data + ZI Data)              7024 (   6.86kB)
    Total ROM Size (Code + RO Data + RW Data)      27236 (  26.60kB)

==============================================================================

