:020000040000FA
:10000000E00C0020D5000000EF000000F10000002F
:1000100000000000000000000000000000000000E0
:10002000000000000000000000000000F3000000DD
:1000300000000000000000004D010000D308000097
:10004000F9000000F9000000F9000000F9000000CC
:100050008D030000C90B0000070C00000F0C00000E
:100060004D060000550600005D0800006508000010
:100070002D06000035060000B10B0000B90B000092
:10008000C10B000045060000D10B0000D90B000099
:10009000E10B000055070000270C00001D080000C0
:1000A000C50200005D070000170C00001F0C0000D7
:1000B0007B0600003D06000095030000850300005C
:1000C0000348854600F0ECF80048004701130000A3
:1000D000E00C002009480A4A002100A1814200D911
:1000E0000244084802600848804708480047FEE785
:1000F000FEE7FEE7FEE7FEE7FEE700000000002067
:100100000000000008ED00E0810B0000C1000000CD
:1001100072B6704762B67047EFF3108072B67047E0
:1001200080F3108870471B481B490160002080F352
:1001300009881A481A49016062B6FEE7174818494B
:1001400001607047154816490160704772B6EFF3B9
:10015000098000280AD02038F0C044464D46564653
:100160005F46F0C020380F49096808600D480E4905
:100170000A6802601068F0C80CC8904699460CC81E
:1001800092469B4680F309887046042108438646C0
:1001900062B6704720ED00E00000FF0004ED00E0D3
:1001A00000000010480000204C00002030B50B4635
:1001B000014600202022012409E00D46D5409D4241
:1001C00005D31D469540491B2546954040191546C7
:1001D000521E002DF1DC30BDF0B51FB406460020E4
:1001E00082B005464024019100901BE0019922460F
:1001F0000F46304600F042F8049A059B801A994158
:1002000010D310461946224600F028F8361A8F41BE
:100210000197224601200021009F00F01FF83818A6
:100220004D4100902046641E0028DFDC019B0098B1
:100230002946324607B0F0BD03460B439B0703D067
:1002400009E008C9121F08C0042AFAD203E00B789B
:100250000370401C491C521EF9D2704710B5202A69
:1002600004DB0146203A9140002010BD914020233C
:100270009C1A0346E3401943904010BD10B5202A54
:1002800004DB0846203AD040002110BD0B46D34085
:10029000D0402024A21A91400843194610BD000006
:1002A000064C0125064E05E0E36807CC2B430C3CC9
:1002B00098471034B442F7D3FFF706FF1C1C000028
:1002C0003C1C000010B500F019F810BD02494A6B43
:1002D00082434A6370470000802400400349096B51
:1002E000014201D001207047002070478024004067
:1002F00001498000085870475024004010B5102074
:10030000FFF7ECFF1020FFF7E1FF0020FFF7F0FF01
:10031000064C60600120FFF7EBFFA0600220FFF7B2
:10032000E7FFE0600120206010BD00000800002011
:100330000246044B1202D218012300208B40D943FD
:1003400051617047000C0040034A000280180069A8
:10035000C840C007C00F7047000C00400146044A67
:10036000002009028918CA6852085200CA60704702
:10037000000C0040421E914200D2481C914200D124
:100380000020704710B5C046C04610BD10B5C0462D
:10039000C04610BD10B5C046C046C046C04610BDE0
:1003A00004480349C1620449C162002101637047E6
:1003B0005A5A000000000240A5A50000F8B5054605
:1003C000FF231B4800260093854201D90420F8BD75
:1003D000184A03E00098411E009120D3106AC0061D
:1003E000F8D400F02DF81448144F00930AE0009C54
:1003F000641E009413D3D062D762116A8908890001
:10040000891C1162116A8907890F0229EFD1002026
:100410002870009305E00098411E009101D2092048
:10042000F8BD106AC006F6D4FFF7BAFF3046F8BD33
:10043000FFFF0000000002405A5A0000A5A500007E
:1004400005480449C1620549C1620021C9430163ED
:10045000704700005A5A000000000240A5A50000A5
:10046000FCB5054600200090FF231B480E46019373
:10047000854201D90420FCBD184A03E00198411EC1
:1004800001911FD3106AC006F8D41548154901938D
:100490000AE0019F7F1E019714D3D062D162146AD3
:1004A000A408A400641C1462146AA407A40F012CFD
:1004B000EFD1FFF7C5FF2E70019305E00198411EB3
:1004C000019101D20920FCBD106AC006F6D4FFF7E5
:1004D00067FF0098FCBD0000FFFF00000000024025
:1004E0005A5A0000A5A50000FCB506460020009061
:1004F000FF231B480F460193864201D90420FCBD0F
:10050000184A03E00198411E01911FD3106AC006EA
:10051000F8D4FFF795FF1448144901930AE0019DB0
:100520006D1E019512D3D062D162146AA408A40092
:10053000641C1462146AA407A40F012CEFD1376065
:10054000019305E00198411E019101D20920FCBDF3
:10055000106AC006F6D4FFF723FF0098FCBD000028
:10056000FFFF0000000002405A5A0000A5A500004D
:100570000068C840C007C00F70470000034B10B5AB
:100580000122C01800F072F9002010BD140D0240C5
:1005900070B504461D4815460E460022201800F08E
:1005A00065F9B1001A4A091900208918086017482E
:1005B0002A780C383146201800F058F913486A7828
:1005C00010303146201800F051F91048AA78143044
:1005D0003146201800F04AF90C48EA7818303146C4
:1005E000201800F043F909482A79203031462018B4
:1005F00000F03CF9074988680122D20390436A79E8
:10060000D207120C10438860002070BD0C0D024010
:10061000000C0240000F0240034B10B50122C0182D
:1006200000F024F9002010BD100D024010B5C046A6
:10063000C04610BD10B5C046C04610BD10B5C0467E
:10064000C04610BD10B500F01DF810BD10B5C04675
:10065000C04610BD10B500F02FF810BD10B5002237
:10066000143000F003F9002010BD10B51030FFF772
:100670007FFF10BD0068C0B2704710B500F05AF897
:1006800010BD000010B50A4C204600F044F80128C7
:100690000DD1204600F038F80649002082008B5822
:1006A000002B01D05B1E8B50401C3228F6D310BDAE
:1006B000000F00408C00002070B5104C0021204637
:1006C000FFF7D3FF002817D000212046FFF7C6FF11
:1006D0002046FFF7CFFF0B4C094A6168FF255054B5
:1006E00001352846FFF746FE60602168884203D145
:1006F0002846FFF73FFE206070BD0000004000402C
:10070000540100202000002010B5002211461430B2
:1007100000F0ACF810BD10B500211030FFF728FF35
:1007200010BD00000248C16A49084900C162704713
:100730000024004010B505480A210268521C0260DE
:10074000034800F035FEFFF7EDFF10BD1800002054
:100750006C00002010B5C046C04610BD10B500F0BA
:1007600013F810BD03498A6A012383409A438A62C1
:1007700070470000005400400249496AC140C80760
:10078000C00F70470054004010B50720FFF7F4FF7A
:10079000012802D10720FFF7E5FF0620FFF7ECFF55
:1007A000012802D10620FFF7DDFF0520FFF7E4FF57
:1007B000012802D10520FFF7D5FF0420FFF7DCFF59
:1007C000012802D10420FFF7CDFF0320FFF7D4FF5B
:1007D000012802D10320FFF7C5FF0220FFF7CCFF5D
:1007E000012802D10220FFF7BDFF0120FFF7C4FF5F
:1007F000094C012804D1FFF7B5FF2068401C206098
:100800000020FFF7B9FF012805D10020FFF7AAFF5C
:100810002068401E206010BD1C00002010B500F0B4
:1008200013F810BD10B500220321024800F01EF895
:1008300010BD00000414004010B503210148FFF76B
:1008400097FE10BD0414004010B5FFF7F5FF012816
:1008500003D1FFF7E7FF00F0EBF910BD10B500F092
:100860000FF810BD10B5C046C04610BD01238B4027
:100870000168012A02D09943016070471943FBE7E0
:1008800070B50D4D0421284600F01EF80B4C0128D0
:1008900002D12068401C20600221284600F014F894
:1008A0000128606801D1401C6060401C60602846DF
:1008B00000F006F870BD0000000800403400002081
:1008C00000214161084670478068084000D001203F
:1008D000704710B501F052F8002805D001F010F86B
:1008E00001F07AF901F01CF810BD000070B50E4659
:1008F0000546002400F0CAF9002E01D0012100E0D5
:10090000002129482B0000F0DDF905040F202C3FC1
:100910004B000268520852000A430260002940D08E
:10092000C2681205FAD53CE0204AD36803252B4360
:10093000D360026802239A434B001A4302600029E5
:100940002FD002695206FAD52BE0026804239A439D
:100950008B001A430260002923D04269D204FAD5E1
:100960001FE0124A403AD3680325AD032B43D360FE
:10097000026808239A43CB001A430260002910D072
:1009800082695206FAD50CE0026810239A430B01E3
:100990001A430260002904D0C26B5203FAD500E06A
:1009A0000424204670BD000000200040C00D02401D
:1009B00010B58AB000241422484904A8FFF73CFC73
:1009C0004648001F006809900020019002900390A3
:1009D0004348028869468A8142884A8182880A811E
:1009E000C088C8803E482030008888803D48016823
:1009F00009064A0F3C49130000F064F905042A2C4B
:100A0000383B6800C1686A4649059289490D9142A0
:100A100001D1089C5AE0C1686A4649055289490DCE
:100A2000914201D1079C51E0C1686A46490512898B
:100A3000490D914201D1069C48E0C1686A464905CA
:100A4000D288490D914201D1059C3FE0049C3DE0D4
:100A50000C463BE06946898842699205920D9142B5
:100A6000694601D1CC8C31E08C8C2FE00124E40369
:100A70002CE0C26BD243920724D169468989C268AF
:100A80005205520D914201D108991BE069464989EE
:100A9000C2685205520D914201D1079912E0694690
:100AA0000989C2685205520D914201D1069909E0A7
:100AB0006946C988C2685205520D914201D1059913
:100AC00000E00499C26BD205140F4C4300680AB0D1
:100AD0004005410F2046C84010BD0000001C00002A
:100AE000000C10000020004000127A000A4610B5E9
:100AF00001460248FFF7BAFE002010BD202000404A
:100B0000064940004018008841050548490DC26863
:100B1000D20AD2020A43C26000207047000C1000C3
:100B20000020004006494000401800888105054823
:100B3000890D4269920A92020A434261002070477D
:100B4000000C10000020004070B50025044600F0A5
:100B50009DF806480168E02291436207120E114396
:100B6000016000F005F8284670BD0000002000403C
:100B700010B5FFF71DFF0149086010BD00000020FF
:100B800010B51120FFF7CEFF01210220FFF7AEFEC6
:100B90000220FFF7D9FF0020FFF7B2FF012100205C
:100BA000FFF7A4FE0020FFF7CFFFFFF7E1FF10BD26
:100BB00010B500F019F810BD10B5C046C04610BD04
:100BC00010B5C046C04610BD10B5C046C04610BDE9
:100BD00010B5C046C04610BD10B5C046C04610BDD9
:100BE00010B5C046C04610BD10B500210846FFF73D
:100BF000ABFB012806D100210846FFF799FB002036
:100C0000FFF7ACFB10BD10B5C046C04610BD10B517
:100C1000C046C04610BD10B5C046C04610BD10B598
:100C2000C046C04610BD10B5C046C04610BD00004D
:100C300002481E210160E12101607047800F0040E1
:100C400000B50346084600F015F80549486820221B
:100C50009043DA07920E10434860002000BD000068
:100C6000800F004002481E210160E12101607047B1
:100C7000800F004004494A68000712091201000F62
:100C800002434A6070470000800F00400348024959
:100C900081600349816070475A5A0000002000407B
:100CA000A5A500000FB410B503A9044B044A02988F
:100CB00000F048F810BC08BC04B01847D11100007F
:100CC0000400002030B47446641E2578641CAB42D6
:100CD00000D21D46635D5B00E31830BC184700007E
:100CE0008307FF22DB0E9A408907090E99400028EE
:100CF00008DB830809489B001B18186890430843C9
:100D0000186070470007000F0838830804489B00EC
:100D10001B18D86990430843D861704700E400E08D
:100D200000ED00E002E008C8121F08C1002AFAD155
:100D300070477047002001E001C1121F002AFBD15B
:100D400070470000FFB58DB00F460546002606E04F
:100D500025280AD0109A0F9990476D1C761C287888
:100D60000028F5D1304611B0F0BD00240121674ABA
:100D7000009400E004436D1C2B780846203B98400B
:100D80001042F7D128782E2815D104200443687822
:100D90006D1C2A280AD101CF6D1C00900BE0009930
:100DA0000A225143303940186D1C009028780146C2
:100DB00030390929F3D92878692843D006DC00287E
:100DC000D0D063280BD0642804D13BE073280FD027
:100DD00075284CD0109A0F999047761C94E038787B
:100DE000694608720020487202A80190012003E0C1
:100DF000386801900020C0433F1D61070CD50024D6
:100E000000E0641C00998C420FDA8442F9DB0199FE
:100E1000095D0029F5D108E0002400E0641C84424B
:100E2000FCDB0199095D0029F8D1361907E001982A
:100E300001990078491C0191109A0F999047641EFE
:100E4000F5D261E00A20019001CF002802DA404289
:100E50002D2102E0210504D52B216A4611720121C2
:100E600003E0E10701D02021F7E70C9104E00A201C
:100E7000019001CF00210C910BA90B9108E0019981
:100E8000FFF794F90A460B993032491E0B910A700C
:100E90000028F4D10B9803A9081A203001906007AC
:100EA00001D5009801E0012000900199884203DDFE
:100EB00001460198081A00E000200024009006E096
:100EC00002A8109A005D0F999047641C761C0C983C
:100ED0008442F5DB04E0109A30200F999047761C8D
:100EE0000099481E00900029F5DC08E00B980B994A
:100EF0000078491C0B91109A0F999047761C019924
:100F0000481E01900029F1DC6D1C28E7092801002A
:100F100010B5FFF713F910BD10B5FFF749FD0649ED
:100F2000086006490CC90021FFF756F9044908601A
:100F300000F00EF810BD000000000020500000205E
:100F40005800002010B5FFF7FDF810BDFFF7EBF8D3
:100F500010B50446002000F09BFA204600F084FA09
:100F600010BD000010B5029C1B19DB08DB0001243A
:100F700024061B1F1C601B1F18601B1F1A601348D0
:100F80001B1F186012481B1F186012481B1F186097
:100F900040101B1F18601B1F19600F491B1F196091
:100FA0000101181F01600D49001F01600C49001F5D
:100FB00001600C49001F01600B49001F01600B49D3
:100FC000001F01600A49001F016010BD12121212B9
:100FD0000303030302020202111111110909090995
:100FE0000808080807070707060606060505050599
:100FF000040404040168406809680068814201D95A
:101000000220704701207047002805D00022491EA9
:1010100002D30270401CFAE77047F7B50F4604464A
:1010200000F0C5F82669E0690AE04178FC2906D19C
:10103000827802998A4202D14168B94248D0083088
:10104000B042F2D300252069FE21401C6D1CFFF741
:1010500007FA20694078FE2802D0642DF3D301E01E
:10106000642D02D30020C043FEBD20693946001D17
:101070006D1CFFF739FA20690299801CFFF7F0F91F
:101080002069FC21401CFFF7EBF920694168B94257
:1010900006D1827802998A4202D14078FC2802D097
:1010A000642DE2D301E0642D02D3207C2075D9E7C2
:1010B000E4690BE06078FC2807D1A17802988142AE
:1010C00003D1F821601CFFF7CBF90834B442F1D307
:1010D0000020FEBDF3B581B0019B01989C680268B9
:1010E0005B6810461D460830121908351F19012982
:1010F00007D02C467E1E0546571E2046FFF75EF998
:1011000020E0561E04467F1EF7E76878FC2818D1B9
:10111000201D6968FFF7E8F9606869688842F7D1BF
:10112000A978A01CFFF79CF9A078A9788842F7D18C
:10113000FC21601CFFF794F9607869788842F7D148
:1011400008340835BD4201D2B442DED3A64202D2F1
:101150000020C043FEBD01988068391A491C096807
:10116000301A401C491EFFF7BFF901980121806821
:10117000301A401DFFF7B8F9FEBD30B50546002412
:1011800000F015F8E969A8690AE04A78FC2A00D15C
:10119000641C202C01D3012030BDFF2A04D008316B
:1011A0008142F2D3022030BD0320296130BD00B559
:1011B0000246FFF71FFF012808D051689368C8183E
:1011C000401E0831D1619061002000BD1168F5E733
:1011D00070477CB506216846FFF716FF0124684674
:1011E0000470447084700025C57044716A460421FF
:1011F000C020FFF7CDF906216846FFF705FF6846D6
:101200000095057144716A460521C020FFF7C0F9B9
:101210000521C020FFF7B2F97CBDFEE71FB5074AE4
:1012200007490023126809680F206C460FC4054A5D
:1012300005A1074800F0CCFB04B010BD181C00004D
:10124000141C00001B12000069646C6500000000A3
:10125000380400200349884201D101207047002052
:10126000704700003804002002480078002800D0B1
:10127000012070473C00002002480078002800D080
:10128000012070473D00002003490968884201D1D0
:101290000120704700207047480000200021018095
:1012A0000846704702460846118070470088884209
:1012B00001D10120704700207047000010B50C4894
:1012C0000078002813D10B48007800280FD100F0D7
:1012D0000AFB044600F028F9074908600749096835
:1012E000884201D0FFF714FE204600F0F8FA10BD46
:1012F0003C0000203D0000204C0000204800002061
:101300001FB5FFF7AFFC00F086F80EA0FFF7CAFC90
:1013100000F0EDFA012214239202114902206C46DA
:101320000FC40F4800230F4A0FA1583800F050FB9C
:10133000010002D00EA0FFF7B5FC00F027FB002053
:1013400004B010BD57656C636F6D6520746F2054D9
:10135000656E63656E744F532074696E790D0A0073
:1013600030030020F11600007461736B310000003F
:1013700054656E63656E744F532043726561746586
:10138000207461736B206661696C2120636F6465F2
:10139000203A202564200D0A0000000010B501212C
:1013A0000F20FFF7A3FB0C210020FFF749FC10BD25
:1013B000F8B515460E460746FFF7DFFE012804D0B4
:1013C000022805D0032817D111E00120C043F8BD41
:1013D0003846FFF70FFE012810D001213846FFF7ED
:1013E00079FE04463846FFF7C8FE641C08D0324632
:1013F00029463846FFF711FE0020F8BD0221EDE72F
:101400000020C043F8BD10B501211C20FFF76EFB82
:10141000FFF7DFFE10BD10B5FFF7F5FFFFF7BEFFCA
:10142000002010BD016B426B4A6011600021816396
:10143000017DFD2211400175704710B50446007D05
:10144000800704D53C2001552046FFF7EBFF207DA7
:10145000C00702D0204600F079F9207D400702D471
:10146000204600F01DF810BD074910B5401E884207
:1014700009D8064C60610321081FFFF731FC0020EA
:10148000A0610720206110BDFFFFFF0000E000E029
:10149000014610B50020C043FFF722FC10BD00003C
:1014A00010B5064A417D1268527D914202D100F08A
:1014B0001BF810BD00F004F810BD0000480000202B
:1014C00070B50446407D074AC1008D182968A942BD
:1014D00001D100F071F828683034446021C4083C20
:1014E0002C6070BDB003002070B50446407D074AF3
:1014F000C1008D182968A94201D100F05DF830348F
:1015000068686C6025606060046070BDB003002096
:101510000449C00041180868884201D10020704782
:1015200030387047B00300200448044900798039FE
:10153000C0004018006830387047000030040020B8
:101540000C48102101710B4A0020803AC100891813
:10155000401C0960C0B249601028F7D30020014642
:1015600083009B188033401C00061960000EF7D0E2
:1015700070470000300400200549C0004118086889
:101580000068884201D101207047002070470000A8
:10159000B00300200749C00041180868884208D0FD
:1015A0000CC853601A6008384A68486006C008389A
:1015B00010607047B003002041098A00094910B546
:1015C00051188031C306DB0E1F24E41A01230A6878
:1015D000A3401A430A60034980310A79824200D944
:1015E000087110BDB003002070B5417D446B006BE5
:1015F000134ACB0044609B182060186898420CD1B5
:101600004809800080188030CB06DB0E1F24E41AC6
:1016100001230268A3409A430260094D803528796E
:1016200088420CD100262C4602E02036F6B2241D5A
:1016300020680028F9D000F039F98019287170BDB0
:10164000B003002070B506461B48007800281DD165
:1016500000F049F905463046FFF75AFF040012D062
:10166000FFF7F8FD00280ED13046FFF785FF002870
:1016700009D1FFF701FE002805D1606C002806D0D3
:10168000401E606403D0284600F029F970BD0B4865
:101690000068407DFFF77EFF3046FFF739FF016CA1
:1016A000002901D1064909684164284600F017F96C
:1016B000FFF704FE70BD0000680000204800002015
:1016C0006400002010B5002000F01CFA10BD10B519
:1016D0000446001DFFF7E2FD20462830A062E062CC
:1016E00008302063606300203C210855A06310BDD2
:1016F0007D24E4000521C020FEF78EFF2046002156
:1017000000F0CCF90521C020FEF738FF204600216B
:1017100000F0C4F9FFF7A6FAECE710B5044610464E
:1017200018430ED0D043D94308430CD063622046FF
:10173000226200F041F8207D01210843207500203D
:1017400010BD642010BD652010BD0000F8B5044632
:1017500000F0C9F800902046283000F031F9002848
:101760001CD1A16A0846283818D0124A914215D0D7
:101770000121C943266A4B10676A8D1B026ABB416F
:10178000416AAD1A8B4104D39219794102624162D8
:1017900004E00121C9434A1042620162A06AE16A81
:1017A00041600860009800F09AF8207D40084000F1
:1017B0002075F8BD5C000020F0B51FB4002482B095
:1017C00017462646254600F08EF8009002990598A7
:1017D0000F6248621849844608680DE00446283CB8
:1017E000216A636A8A196B4196466146BA1A994121
:1017F00005D3006876461D460F498842EED1BA1BD4
:10180000029B6146A9411A6259620B4B984207D06C
:10181000002C05D0256A636AAA1A8B416362226292
:10182000029942682831416005C108391160009869
:1018300000F055F807B0F0BD5C000020F8B5044694
:101840000D4600F050F8174906460A684868121914
:1018500068410A6048601449086888421DD02838E9
:10186000026A416A2B46A71A8B4105D30021016207
:101870000D4D416228680DE0121BA94102624162D0
:101880000BE02838426A016A114306D10221FFF7B2
:10189000D4FD20460468A842F3D1304600F01FF87A
:1018A000F8BD0000400000205C0000200021020C78
:1018B00001D100041021020E01D100020831020FF3
:1018C00001D10001091D820F01D18000891C00286F
:1018D00003DB491C002800D1491C0846704710B59D
:1018E000FEF71EFC10BD10B5FEF716FC10BD10B5BE
:1018F000FFF712FBFFF724FEFFF790FC10BD00007E
:1019000005480078012805D104480178FA2901D258
:10191000491C0170704700003E0000203C00002080
:1019200010B51148007801281CD1FFF7DCFF0446F0
:101930000E480178002912D0491E0906090E0170CF
:101940000DD10B480078002809D1FFF7EDFD0949BA
:10195000086009490968884201D0FFF7F3FA204678
:10196000FFF7BDFF10BD00003E0000203C0000203E
:101970003D0000204C000020480000200248007874
:10198000012800D0002070473E00002010B5094C0F
:10199000207801280BD0FFF7C7FD074908600749E9
:1019A000086001202070FFF7D1FA002010BDFF2051
:1019B000F63010BD3E0000204C0000204800002002
:1019C0000168814201D1012070470020704700006A
:1019D000FFB581B004460A9F0C9E0D9DFFF744FCA5
:1019E000002847D1002C48D00398002845D00B98F8
:1019F000002842D0402E42D30F2F01D041D804E01E
:101A00002046FFF727FC00283BD02046FFF75FFE6B
:101A10001D49201DFFF746FC00961C4A0B9B0499AC
:101A20000398FFF79FFA20600398E0600498206114
:101A30000298A06067750B98E6612564A061002D8F
:101A400014D06564FFF74FFF05460020207520463F
:101A5000FFF74AFD2846FFF742FFFFF78FFF0028F8
:101A600001D0FFF72BFC002005B0F0BD084800684E
:101A70006064E7E7FF209130F6E70648F4E70648A0
:101A8000F2E70548401FEFE7D1DA0000C516000075
:101A9000640000204C0400007307000070B5054688
:101AA0000C46FFF7E1FB002822D1FFF7E5FB0028F9
:101AB00001D0124870BD284620431CD0FFF713FF09
:101AC00023460F4C06462A462068FFF726FE0028CC
:101AD00004D03046FFF703FF652070BD2068FFF794
:101AE00083FD3046FFF7FBFEFFF7E8FB002070BDEB
:101AF000FF20913070BD00F057F8F7E7A406000012
:101B00004800002070B50446FFF7AEFB00283DD129
:101B1000002C3ED02049201DFFF7C8FB002806D02E
:101B20002046FFF797FB002803D01C4870BD1C48D7
:101B300070BD2046FFF7A8FB002806D0FFF79CFBEE
:101B4000002802D01548C83870BDFFF7CCFE054606
:101B5000207D002802D12046FFF746FD207DC007EA
:101B600002D02046FFF7F2FD207D800702D52046F7
:101B7000FFF758FC2046FFF7AAFD082020752846ED
:101B8000FFF7ADFEFFF79AFB002070BDFF209130FC
:101B900070BD04480468BDE7D1DA00006C0700009E
:101BA0004D0400004800002070B5FFF75DFB0028E1
:101BB0000ED1FFF798FE074C05462068FFF714FD8D
:101BC0002068FFF791FC2846FFF789FEFFF776FBB8
:101BD00070BD00004800002010B5FFF7CFFE0028C0
:101BE00008D001200021FFF729FE03480068407D4E
:101BF000FFF728FD10BD000048000020008000967F
:101C000000093D0000127A000024F40040865101D2
:101C100000366E0190040020500000003C1C0000C3
:101C2000000000206C000000240D0000A81C000033
:101C30006C000020740C0000340D000000093D0011
:101C40000000000000000000000000000000000094
:101C50000000000000000000000000000000000084
:101C60000000000000000000000000000000000074
:101C70000000000000000000000000000000000064
:101C8000000000000000000000000000E803000069
:101C900000000000000000005C0000205C0000204C
:081CA0006400000001000000D7
:04000005000000C136
:00000001FF
